:020000040800F2
:10000000880F0020210D0008110200081D020008C1
:1000100023020008290200082F0200080000000047
:100020000000000000000000000000003502000891
:1000300041020008000000004D02000859020008BB
:10004000690D0008690D0008690D0008690D0008B8
:10005000690D0008690D0008C9020008690D000853
:10006000690D0008690D0008690D0008690D000898
:10007000690D0008690D0008690D0008690D000888
:10008000690D0008690D0008690D0008690D000878
:10009000690D0008690D0008690D0008E3020008F9
:1000A000690D0008690D0008690D0008690D000858
:1000B0001F0300086D03000891030008690D000884
:1000C000690D0008690D0008690D0008690D000838
:1000D000690D0008690D000875020008690D000827
:1000E000690D0008690D0008690D0008690D000818
:1000F000690D0008690D0008690D0008690D000808
:10010000690D0008690D0008E1030008690D000889
:10011000690D0008690D000815040008BD040008F9
:10012000690D0008690D0008690D0008690D0008D7
:1001300001F0FF01102A2BDB10F0070F08D010F898
:10014000013B013A8B422DD010F0070F42B3F6D19C
:10015000F0B441EA012141EA014122F007047FF0B5
:1001600000070023F0E80256083C85EA010586EA0C
:10017000010685FA47F5A3FA87F586FA47F6A5FA48
:1001800087F68EB9EED1F0BC01F0FF0102F0070254
:1001900032B110F8013B013A83EA010313B1F8D1FF
:1001A0000020704701387047002D06BF35460338E0
:1001B000073815F0010F07D1013015F4807F02BF19
:1001C000013015F4C03F0130F0BC0138704700BF6A
:1001D00010B5054C237833B9044B13B10448AFF381
:1001E00000800123237010BD6C000020000000007F
:1001F0007C93000808B5034B1BB103490348AFF3D8
:10020000008008BD00000000700000207C93000802
:1002100080B400AF00BFBD4680BC704780B400AF63
:10022000FEE780B400AFFEE780B400AFFEE780B425
:1002300000AFFEE780B400AF00BFBD4680BC704792
:1002400080B400AF00BFBD4680BC704780B400AF33
:1002500000BFBD4680BC704780B500AF044B1B6833
:100260000133034A136001F039FA00BF80BD00BFBB
:10027000B800002080B500AF0F49104807F0BEFE5F
:100280000346002B15D00D4807F030FE03461846F4
:100290000B4B1B885A1C91B2094A11801A46C1B2F5
:1002A000084B9954064B1B883F2B02D9044B002264
:1002B0001A8000BF80BD00BF050305000044004058
:1002C00070030020B802002080B500AF012006F0C6
:1002D00011F90346002B02D0012006F01FF900BFE0
:1002E00080BD80B500AF4FF4007006F003F90346FF
:1002F000012B05D101F022F84FF4007006F00EF941
:100300004FF4807006F0F6F80346012B05D104F097
:100310002FFA4FF4807006F001F900BF80BD80B560
:1003200000AF04214FF0804006F09AFF0346012BF6
:100330000DD101214FF0804007F07AFC03461846AA
:1003400001F04CF804214FF0804006F0A6FF012197
:100350004FF0804006F084FF0346012B04D10121B9
:100360004FF0804006F099FF00BF80BD80B500AF20
:100370000121064806F074FF0346012B03D1012139
:10038000024806F08AFF00BF80BD00BF00040040A5
:1003900080B500AF01210F4806F062FF0346012B34
:1003A00016D180210C4806F0FFF90A4806F0DBFE62
:1003B0000121084806F071FF0021084806F010FFEF
:1003C0004FF41671054806F0FBFE044806F0BCFE2B
:1003D00000BF80BD00080040000C0140000C004040
:1003E00080B500AF0121094806F03AFF0346012B12
:1003F0000AD18021064806F0E6F9044806F0B3FE6B
:100400000121024806F049FF00BF80BD000C0040FA
:10041000000C014080B500AF0121204806F020FF0C
:100420000346012B38D11E4B1B78012B04D18021B0
:100430001C4806F0B9F91CE01B4B1B78012B18D1A6
:100440001A4B1B78012B03D1194B1B78012B03D8B6
:100450004021184806F0A8F9154B1B780133DAB291
:10046000134B1A70124B1B780A2B02D1104B00222F
:100470001A700A4806F077FE0121084806F00DFFC1
:1004800000210D4806F0ACFE41F69C010A4806F03A
:1004900097FE094806F058FE00BF80BD00100040DE
:1004A0000E020020000801400D0200201002002072
:1004B0000C020020000C01400014004080B500AF89
:1004C00001210B4806F0CCFE0346012B0ED1802102
:1004D000084806F078F94021074806F074F9044806
:1004E00006F041FE0121024806F0D7FE00BF80BDA4
:1004F0000014004000080140000C014080B582B0AB
:1005000000AF00237B6000F0F3F804F0F3F904F08F
:1005100005FA00F0D9FD04F03BF904F0A5FE05F062
:1005200035F804F0BBF904F00DFF01F083F800F09A
:1005300083F8002006F0E6FB03461946244807F03E
:10054000CBFF012006F0DEFB03461946214807F0E9
:10055000C3FF022006F0D6FB034619461E4807F0EB
:10056000BBFF032006F0CEFB034619461B4807F0ED
:10057000B3FF07F07DFF78607B681B0EDBB2194686
:100580007B681B0CDBB21A467B681B0ADBB2144883
:1005900007F0A2FF00F0FAF9124A1349134800F0DD
:1005A0006DFA134A1349144800F068FA134A1449C3
:1005B000144800F063FA144A1449154800F05EFA32
:1005C00000F050F9002318460837BD4680BD00BF33
:1005D00094930008A4930008B4930008C4930008FF
:1005E000D4930008795100083151000809510008DE
:1005F00035460008E5450008BD45000825450008CA
:100600008D440008594400080D4C0008C14B0008F7
:10061000994B000880B584B000AF78607B68DBB28E
:10062000FB7307F10F030121184604F0CBFF7B6831
:1006300018461037BD4680BD80B500AF05F07CFF81
:10064000062140F6FF7005F0A7FF05F08DFF05F0CD
:100650007FFF00BF80BD000080B483B000AF0346C1
:100660003960FB7197F90730002B0BDA3B68DAB27F
:100670000C49FB7903F00F03043B1201D2B20B4487
:100680001A7609E03B68DAB2074997F90730120198
:10069000D2B20B4483F8002300BF0C37BD4680BCA8
:1006A000704700BF00ED00E000E100E080B582B0DF
:1006B00000AF78607B68013BB3F1807F01D30123F9
:1006C0000FE00A4A7B68013B53600F214FF0FF3077
:1006D000FFF7C2FF054B00229A60044B07221A6005
:1006E000002318460837BD4680BD00BF10E000E07B
:1006F00080B500AF094B1B68094AA2FB03239B0985
:100700001846FFF7D3FF0346002B00D0FEE7002179
:100710004FF0FF30FFF7A0FF00BF80BD04000020B6
:10072000D34D621080B483B000AF78607B68002B3B
:100730000DD0094B1A687B681344084A136000BF48
:10074000054B1A68054B1B689A42F9D100E000BFBF
:100750000C37BD4680BC7047B800002088000020E0
:1007600080B400AF024B1B681846BD4680BC704782
:10077000B800002080B582B000AF0023FB71FFF706
:10078000EFFF38605BE00023FB7123E0FB79314A27
:1007900052F82330002B1AD0FB792E4A52F823202E
:1007A000013A2C4941F82320FB792A4A52F8233098
:1007B000002B0CD1FB79012202FA03F31AB2264B6B
:1007C0001B881BB213431BB29AB2234B1A80FB79CE
:1007D0000133FB71FB79032BD8D90023FB7126E091
:1007E000FB791E4A1B01134408331B68002B1BD0E6
:1007F000FB791A491A010A4408321268013A17496A
:100800001B010B4408331A60FB79144A1B01134483
:1008100008331B68002B07D1FB79104A1B011A44CF
:10082000137843F010031370FB790133FB71FB79EC
:100830000F2BD5D90A4B1B680133094A1360084BAB
:100840001B683A689A429ED100BF00BF0837BD4678
:1008500080BD00BFE4010020BC010020BC000020DE
:10086000F401002080B582B000AFFFF783FF05F0F0
:1008700087FE404B1B781A463F4B53F82230002B23
:1008800016D03C4B1B781A463C4B53F82230394A61
:100890001278384909780846374951F8201010462F
:1008A0009847344B1B781946334B002243F82120DC
:1008B000334B1B881A462F4B1B7842FA03F303F085
:1008C0000103002B06D02B4B1B781A462D4B53F8F7
:1008D000223098470023FB713AE0FB792A4A1B013A
:1008E00013441B78C3F30303DBB21A46214B1B7876
:1008F0009A4229D1FB79244A1B0113441B78C3F384
:100900000013DBB2002B20D0FB791F4A1B011A44D5
:10091000137843F00F031370FB791B4A1B011A4431
:1009200013786FF304131370FB79174A1B011344F8
:100930000C331B68002B08D0FB79134A1B011344AE
:100940000C331B68984700E000BFFB790133FB7153
:10095000FB790F2BC1D9074B1B780133DAB2054B5A
:100960001A70044B1B78042B7FF47FAF014B0022DD
:100970001A707AE7F8010020D4010020FC01002061
:10098000BC010020C0010020BC00002080B582B066
:1009900000AF324B00221A70314B00221A80FFF751
:1009A000DFFE03462F4A13600023FB710CE0FB7946
:1009B0002D4A002142F82310FB792C4A002142F8ED
:1009C0002310FB790133FB71FB79032BEFD9002353
:1009D000FB7128E0FB79264A1B011A44137843F087
:1009E0000F031370FB79224A1B011A4413786FF32B
:1009F00004131370FB791E4A1B01134404334FF098
:100A0000FF321A60FB791A4A1B0113440833002293
:100A10001A60FB79164A1B0113440C3300221A603A
:100A2000FB790133FB71FB790F2BD3D90023FB71C9
:100A30000CE0FB790F4A002142F82310FB790E4AA3
:100A4000002142F82310FB790133FB71FB79032B62
:100A5000EFD900BF00BF0837BD4680BDF8010020B8
:100A6000BC010020F4010020D4010020E40100209A
:100A7000BC000020C0010020FC01002080B586B031
:100A800000AFF860B9607A600023FB7508E0FB7D79
:100A9000184A52F82330002B06D0FB7D0133FB753A
:100AA000FB7D032BF3D900E000BFFB7D042B01D1BC
:100AB00000231BE0FB7D0F49BA6841F82320FB7D32
:100AC0000D497A6841F82320FA7DFB681046984763
:100AD000FB7D012202FA03F31AB2084B1B881BB2FA
:100AE00013431BB29AB2054B1A80012318461837DC
:100AF000BD4680BDC0010020FC010020BC010020DB
:100B000080B483B000AF0346FB71FB79012202FA87
:100B100003F31AB2064B1B881BB213431BB29AB2E3
:100B2000034B1A8000BF0C37BD4680BC704700BF26
:100B3000BC01002080B483B000AF78607B68002BDC
:100B400017D00E4B1B781A46012393401BB2DB4390
:100B50001AB20B4B1B881BB213401BB29AB2084B44
:100B60001A80064B1B781946064A7B6842F82130EA
:100B700000E000BF0C37BD4680BC7047F801002084
:100B8000BC010020E401002080B487B000AFF86011
:100B9000B9607A600023FB7536E0FB7D3C4A1B019F
:100BA000134404331B68FA689A422AD1394B1A78E5
:100BB000FB7D02F00F02D1B2354A1B011A441378B3
:100BC00061F303031370FB7D314A1B0113440C33A3
:100BD0007A681A60FB7D2E4A1B0113440433FA68BD
:100BE0001A60FB7D2A4A1B0113440833BA681A6055
:100BF000FB7D274A1B011A4413786FF3041313700B
:100C000042E0FB7D0133FB75FB7D0F2BC5D9002333
:100C1000FB7536E0FB7D1E4A1B01134404331B6841
:100C2000B3F1FF3F2AD11B4B1A78FB7D02F00F0274
:100C3000D1B2174A1B011A44137861F303031370EE
:100C4000FB7D134A1B0113440C337A681A60FB7D49
:100C50000F4A1B0113440433FA681A60FB7D0C4AE7
:100C60001B0113440833BA681A60FB7D084A1B0154
:100C70001A4413786FF30413137005E0FB7D0133FE
:100C8000FB75FB7D0F2BC5D91C37BD4680BC70475B
:100C9000BC000020F801002080B485B000AF78606F
:100CA0000023FB7332E0FB7B1C4A1B01134404331B
:100CB0001B687A689A4226D1FB7B184A1B011A44AA
:100CC000137843F00F031370FB7B144A1B0113448A
:100CD0000C3300221A60FB7B104A1B0113440433BF
:100CE0004FF0FF321A60FB7B0C4A1B0113440833A0
:100CF00000221A60FB7B094A1B011A4413786FF328
:100D00000413137005E0FB7B0133FB73FB7B0F2B9C
:100D1000C9D91437BD4680BC704700BFBC00002055
:100D2000002103E00B4B5B58435004310A480B4B46
:100D300042189A42F6D30A4A02E0002342F8043BE2
:100D4000084B9A42F9D307F03DFA07F099FBFFF7F9
:100D5000D5FB7047F0940008000000206C000020D4
:100D60006C00002084030020FEE7000080B500AF87
:100D700040F2036005F0FCFE40F2026005F0F8FE70
:100D800040F2026005F0F4FE40F2036005F0F0FE70
:100D900040F2036005F0ECFE4023012210211548CB
:100DA00005F04EFC4021134805F00DFD8023012283
:100DB0001021104805F044FC80210E4805F003FD89
:100DC0004FF40073012248210A4805F039FC8023C2
:100DD00001221021084805F033FC8021064805F067
:100DE000F2FC022301224821034805F029FC00BF40
:100DF00080BD00BF000C01400008014080B500AF7D
:100E00004FF4C06005F0B4FE0921012005F09EFDFD
:100E1000022200214FF4007005F0F2FA4FF4007046
:100E200005F07CFB00220021172005F019FE00BF11
:100E300080BD80B588B000AF78600B467B807B8832
:100E4000184605F095FE786806F04EF807F1100395
:100E5000184606F0E1F877233B8200237B820023CB
:100E6000BB824FF6FF73BB610023FB8207F11003C7
:100E70001946786806F0ECF807F10803184606F002
:100E800021FD00233B8101237B810023BB810423BF
:100E9000FB8107F108031A460121786806F028FD56
:100EA0000421786806F0C9F90121786806F0C5F9CF
:100EB000002202211C2005F0D3FD786806F044F9D9
:100EC00000BF2037BD4680BD80B586B000AF7860DA
:100ED0000B467B807B88184605F04AFE786806F052
:100EE00003F807F10803184606F096F877233B81CC
:100EF00000237B810023BB8144F620633B610023F8
:100F0000FB8107F108031946786806F0A1F8002173
:100F1000786806F075F9786806F043F90121786879
:100F200006F08BF97B681D4A934226D07B681B4AEA
:100F3000934228D87B681A4A934218D07B68184A93
:100F4000934220D87B68174A934204D07B68164AA4
:100F5000934206D017E0002201211E2005F080FDFB
:100F600012E000220121322005F07AFD0CE000227F
:100F70000121362005F074FD06E000220121372012
:100F800005F06EFD00E000BF786806F0DDF87868D7
:100F900006F0E9F800BF1837BD4680BD00140040D8
:100FA0000010004000080040000C004080B500AF79
:100FB0008021094805F007FC084806F0D4F80848E5
:100FC00006F0D1F80121054806F067F9012104482F
:100FD00006F063F900BF80BD000C0140000800402E
:100FE000000C004080B500AF4021094805F0EBFB44
:100FF000084806F0B8F8084806F0B5F80121054899
:1010000006F04BF90121044806F047F900BF80BD06
:10101000000C0140001000400014004080B500AFFB
:101020008021094805F0CFFB084806F09CF80848E5
:1010300006F099F80121054806F02FF9012104482E
:1010400006F02BF900BF80BD0008014000100040F1
:101050000014004080B485B000AF0346FB8042F22C
:101060001073FB81FB88B42B01D9B423FB80FB8870
:10107000FA8902FB03F39B08044AA2FB03239B08A3
:101080009BB218461437BD4680BC7047176CC1161A
:1010900080B485B000AF0346FB8042F28D03FB8134
:1010A000FA88FB899A4201D9FB89FB8072B600BF9E
:1010B000044AFB88138062B600BF00BF1437BD46E8
:1010C00080BC70478C00002080B500AFFFF74EFE5B
:1010D000FFF794FE4FF4E0614FF08040FFF7A9FE68
:1010E00040F204711A48FFF7EFFE40F2057119480B
:1010F000FFF7EAFE40F202711748FFF7E5FE40F203
:1011000003711648FFF7E0FE154B00221A70154BCD
:1011100000221A70144B00221A70144B00221A700D
:10112000134B00221A80134B00221A80124B00220C
:101130001A80124B00221A80FFF712FB0346104A56
:1011400013600F4B1B680F4A136000BF80BD00BFC8
:10115000001000400014004000080040000C004057
:10116000110200200D0200200E0200200F020020BC
:101170008C0000208E0000209200002090000020B3
:10118000940000209800002080B500AF084B1B7829
:10119000012B0BD0064B01221A70064B00221A704D
:1011A000FFF7DEFA0346044A136000E000BF80BD8B
:1011B000110200200F0200209400002080B582B0B0
:1011C00000AF0346FB710D4B1B78012B11D00C4A6D
:1011D000FB7913700B4B00221A70084B01221A7016
:1011E000094B00221A70FFF7BBFA0346074A136047
:1011F00000E000BF0837BD4680BD00BF0D020020E3
:10120000100200200C0200200F0200209400002099
:1012100080B584B000AF0346FB801F4B1B78012BC9
:1012200035D01D4B1B78022B31D0FB88B3F5FA6FFC
:1012300002D94FF4FA63FB80184AFB881380174BDE
:101240001B881A46B42303FB02F3154AA2FB0323AF
:10125000DB09FB81FB89092B01D80A23FB81FB8970
:101260001846FFF7F7FE03461846FFF711FF0A4B33
:1012700001221A700B4B00221A70FFF771FA034615
:10128000094A1360084B1B68084A136000E000BF5E
:101290001037BD4680BD00BF0E0200209000002028
:1012A000D34D62100F02002094000020980000200F
:1012B00080B500AF72B600BF084B00221A70084B11
:1012C00000221A70074B00221A80074B00221A8056
:1012D00062B600BFFFF7A2FE00BF80BD0E02002075
:1012E0000F020020900000208C00002080B500AF8D
:1012F00072B600BF054B00221A70054B00221A700F
:1013000062B600BFFFF76EFE00BF80BD0D02002079
:101310000F02002080B500AF72B600BF054B00225F
:101320001A70054B00221A7062B600BFFFF73EFE2E
:1013300000BF80BD110200200F02002080B500AF69
:10134000204B1B78012B0ED1FFF768FE00211E48B1
:1013500005F046FF4FF496711B4805F031FF1A481F
:1013600005F0F2FE16E0194B1B78012B0ED1FFF7AA
:1013700039FE0021144805F033FF4FF496711248EE
:1013800005F01EFF104805F0DFFE03E0FFF746FE04
:10139000FFF728FEFFF70AFE0D4B1B78012B0AD141
:1013A00000210C4805F01CFF64210A4805F008FFE5
:1013B000084805F0C9FEFFF7D3F90346064A136053
:1013C00000BF80BD0E020020001000400D02002072
:1013D00011020020000800409400002080B584B075
:1013E00000AF78601B4B1B687A689A4205D3194B93
:1013F0001B687A68D31AFB6007E0164B1B687A6893
:10140000D31A03F57F43FF33FB60FB68642B19D9C4
:10141000FB68114A934215D8104AFB681360104AC2
:10142000FB68B2FBF3F3BB60BB689BB21A461201C8
:10143000D31A9B009AB20B4B1A80FFF791F903461F
:10144000094A1360034A7B68136000BF1037BD462A
:1014500080BD00BF9C0000201FA10700A00000204D
:1014600040420F00920000209800002080B500AF9D
:1014700040F2036005F07CFB40F2026005F078FB6F
:101480004FF4A06005F074FB40F2096005F070FBBA
:1014900040F20A6005F06CFB022005F0D1FB00BFB2
:1014A00080BD000080B500AF012304220021084860
:1014B00005F0C6F8022304220021054805F0C0F813
:1014C000102304220021034805F0BAF800BF80BDB4
:1014D000000C01400008014080B588B000AF002139
:1014E000144804F0CDFC144B7B6000233B77134B76
:1014F000FB6001237B774FF40073BB604FF4006304
:101500003B610023BB7703237B614FF40053BB6136
:101510003B1D1A460021074804F018FD002105482C
:1015200004F00FFE0021034804F089FE00BF2037BD
:10153000BD4680BD000002404C2401401402002042
:1015400080B500AF4FF4C02004F06EFA0021374898
:1015500004F0E0FA0021364804F0DCFA01224FF4EE
:101560008071324804F078FA01224FF480713048DB
:1015700004F072FA032201212C4804F0E9FA032254
:1015800001212B4804F0E4FA072304220021274814
:1015900004F01AFB072308220121244804F014FB5D
:1015A000072309220221214804F00EFB0723082209
:1015B00000211F4804F008FB0723092201211C48D1
:1015C00004F002FB072304220221194804F0FCFA6C
:1015D0004FF460220121154804F0F7FB4FF460221C
:1015E0000121134804F0F1FB012201210F4804F00E
:1015F000A7FB012201210E4804F0A2FB0B4804F0D6
:10160000BFF90120FFF78EF8084804F0D1F9084827
:1016100004F0B6F90120FFF785F8054804F0C8F991
:10162000024804F0EFF900BF80BD00BF0024014074
:101630000028014080B500AFFFF718FFFFF732FF29
:10164000FFF74AFFFFF77CFF00BF80BD80B485B085
:1016500000AF0346FB710023FB60FB79022B22D015
:10166000022B2EDC002B02D0012B0ED029E01A4BCE
:101670001B689BB2FB60184B9B681B0CFA681344F9
:10168000FB60FB685B08FB601CE0134B5B689BB274
:10169000FB60114B1B681B0CFA681344FB60FB6872
:1016A0005B08FB600EE00C4B9B689BB2FB600A4B37
:1016B0005B681B0CFA681344FB60FB685B08FB600B
:1016C00000E000BFFB689BB2C3F30B039BB218465C
:1016D0001437BD4680BC70471402002080B582B02C
:1016E00000AF0020FFF7B2FF0346FB80084B1B88CA
:1016F000FA88934238BF13469AB2054B1A800121EB
:10170000044804F098FB00BF0837BD4680BD00BF09
:10171000200200200024014080B500AF4FF40041BA
:101720000A4805F08DF80346C3F10103DBB21A46FF
:101730004FF40041054805F055F8054A0A214FF4D9
:101740000040FFF721FA00BF80BD00BF0008014044
:101750001917000880B500AF094B1B78013BDAB2BE
:10176000074B1A70064B1B78002B07D0012003F0A3
:10177000EFFD044A50210120FFF706FA00BF80BDAB
:10178000250200208917000880B500AF002003F073
:10179000DFFD034A50210120FFF7F6F900BF80BDAD
:1017A0005517000880B582B000AF0346FB71FB7986
:1017B000002B0BD00A4AFB791370012003F0C8FDFF
:1017C000084A50210120FFF7DFF905E0002003F06F
:1017D000BFFD0120FFF760FA00BF0837BD4680BD9E
:1017E000250200208917000880B483B000AF0346AB
:1017F000FB71FB79013B0A2B18D801A252F823F0A8
:101800002D1800082D1800082D1800082D180008A4
:101810002D1800082D1800082D1800082D18000894
:101820002D1800082D1800082D18000800BF00BF53
:101830000C37BD4680BC704780B582B000AF034610
:10184000FB71FB79013B0A2B1CD801A252F823F053
:10185000851800087D1800087D1800087D1800080C
:101860007D1800087D1800087D1800087D18000804
:101870007D18000885180008851800080220FFF769
:101880000BFA00E000BF00BF0837BD4680BD00BFB7
:1018900080B582B000AF03460A46FB711346BB71A8
:1018A0000B4B1B781846FFF7C7FFFB791846FFF76D
:1018B0009BFF084B1B781846FFF722F9064ABB79B5
:1018C0001370034AFB79137000BF0837BD4680BD13
:1018D00024020020260200203502002080B582B0BC
:1018E00000AF0346FB71064B1B781846FFF708F95B
:1018F000044AFB79137000BF0837BD4680BD00BFA6
:10190000260200203502002080B400AF054BDB69C1
:101910001B0CDBB203F00103DBB21846BD4680BCF2
:10192000704700BF4C02002080B400AF054BDB695C
:10193000DB0ADBB203F00103DBB21846BD4680BC14
:10194000704700BF4C02002080B400AF064BDB693B
:1019500003F40043002B0CBF01230023DBB2184625
:10196000BD4680BC704700BF4C02002080B400AF71
:10197000084B1B781A46084B53F82230054A127858
:10198000114643F00203044A42F8213000BFBD462D
:1019900080BC704744020020D401002080B483B092
:1019A00000AF0346FB800B4B1B781A460A4B53F8DB
:1019B0002230084A1278114643F00103064A42F8E1
:1019C0002130064AFB88138000BF0C37BD4680BC1F
:1019D000704700BF44020020D401002042020020D2
:1019E00080B582B000AF0346FB80FB88184603F049
:1019F000B4F8034618460837BD4680BD80B582B0AE
:101A000000AF0346FB71FB79002B02D103F014FCFD
:101A100004E0FB79012B01D103F004FC00BF08377F
:101A2000BD4680BD80B483B000AF0346FB71064B5A
:101A30001B78FA799A420CBF01230023DBB21846C7
:101A40000C37BD4680BC70472402002080B582B0B0
:101A500000AF1F4B3B600023FB7116E0FB7907F1E1
:101A60000802134413F8082C1A4B1B781946FB790B
:101A700041FA03F3DBB203F00103DBB2194610466F
:101A800002F0C4FEFB790133FB71FB79032BE5D92E
:101A9000104B1B785B00DAB20E4B1A700D4B1B78A3
:101AA0001A46FB7942FA03F303F00103002B05D039
:101AB000084B1B780133DAB2064B1A70064A4FF412
:101AC000FA710220FFF760F800BF0837BD4680BDFD
:101AD0000C0F12152A0200204D1A000880B500AF25
:101AE000084B03221A70002000F030F901210C206D
:101AF00002F08CFE044A4FF4FA710220FFF744F81A
:101B000000BF80BD2A0200204D1A000880B500AF3A
:101B10000221052002F07AFE034A4FF4FA710220F6
:101B2000FFF732F800BF80BD0D1B000880B500AF85
:101B30000121052002F06AFE034A4FF4FA710220E7
:101B4000FFF722F800BF80BD0D1B000880B500AF75
:101B50000C4B1B78002B04D102210C2002F056FE06
:101B600007E0084B1B78012B03D10221092002F06A
:101B70004DFE054A4FF4FA710220FFF705F800BF49
:101B800080BD00BF300200204D1B000880B500AFB3
:101B90000C4B1B78002B04D101210C2002F036FEE7
:101BA00007E0084B1B78012B03D10121092002F02B
:101BB0002DFE054A4FF4FA710220FEF7E5FF00BF43
:101BC00080BD00BF300200204D1B000880B500AF73
:101BD0000C4B1B78002B04D102210F2002F016FEC3
:101BE00007E0084B1B78012B03D10221062002F0ED
:101BF0000DFE054A4FF4FA710220FEF7C5FF00BF43
:101C000080BD00BF30020020CD1B000880B500AFB2
:101C10000C4B1B78002B04D102210F2002F0F6FDA3
:101C200007E0084B1B78012B03D10221062002F0AC
:101C3000EDFD054A4FF4FA710220FEF7A5FF00BF43
:101C400080BD00BF30020020CD1B000880B500AF72
:101C50000221152002F0DAFD034A4FF4FA71022046
:101C6000FEF792FF00BF80BD4D1C000880B500AF9D
:101C70000121152002F0CAFD034A4FF4FA71022037
:101C8000FEF782FF00BF80BD4D1C000880B500AF8D
:101C90000221122002F0BAFD034A4FF4FA71022029
:101CA000FEF772FF00BF80BD8D1C000880B500AF3D
:101CB0000121122002F0AAFD034A4FF4FA7102201A
:101CC000FEF762FF00BF80BD8D1C000880B500AF2D
:101CD0000221112002F09AFD034A4FF47A7102208A
:101CE000FEF752FF00BF80BDCD1C000880B500AFDD
:101CF0000121112002F08AFD034A4FF47A7102207B
:101D0000FEF742FF00BF80BDCD1C000880B500AFCC
:101D10000221022002F07AFD034A4FF47A71022078
:101D2000FEF732FF00BF80BD0D1D000880B500AF7B
:101D30000121022002F06AFD034A4FF47A71022069
:101D4000FEF722FF00BF80BD0D1D000880B582B0E8
:101D500000AF0346FB71FB791946122002F056FDD5
:101D6000FB791946152002F051FDFB7919460C202C
:101D700002F04CFDFB7919460F2002F047FDFB797C
:101D800019461A2002F042FDFB79002B13D1FB7992
:101D90001946092002F03AFDFB791946062002F0A7
:101DA00035FDFB791946112002F030FDFB7919460B
:101DB000022002F02BFD00BF0837BD4680BD80B574
:101DC00082B000AF0346FB71FB791946012002F097
:101DD0001DFDFB7919460A2002F018FDFB79194612
:101DE0000D2002F013FDFB791946132002F00EFDC1
:101DF000FB791946042002F009FDFB7919461920E8
:101E000002F004FDFB791946102002F0FFFC00BF30
:101E10000837BD4680BD80B500AF0C2002F028FD1C
:101E20000346002B07D00F2002F022FD0346002BB3
:101E300001D0012300E00023184680BD80B500AF2B
:101E40000020FFF783FF0020FFF7B9FF00210520E6
:101E500002F0DCFC0120FFF779FF00BF80BD00002D
:101E600080B500AF0E4B1B78072B13DC032B0CDA6D
:101E7000012B02DC002B03DA0CE0022B0CD009E072
:101E800000210220FFF704FD07E000210B20FFF7EF
:101E9000FFFC02E000BF00E000BF00BF80BD00BF4C
:101EA0002402002080B582B000AF0023FB71344BC8
:101EB0001B78062B58D0062B5BDC032B05D0032B9D
:101EC00057DB043B012B54D84AE02E4B1B78023BD6
:101ED0000A2B43D801A252F823F000BF091F0008C3
:101EE0005D1F0008171F00085D1F0008251F000860
:101EF0005D1F0008331F00085D1F0008411F000818
:101F00005D1F00084F1F000800210420FFF7C0FCE0
:101F10000123FB7123E000210520FFF7B9FC012319
:101F2000FB711CE000210620FFF7B2FC0123FB71CE
:101F300015E000210720FFF7ABFC0123FB710EE049
:101F400000210820FFF7A4FC0123FB7107E000211A
:101F50000920FFF79DFC0123FB7100E000BF09E0B1
:101F6000094B00221A7005E005210620FFF790FCBE
:101F700000E000BFFB7918460837BD4680BD00BFB2
:101F800024020020350200203402002080B582B0F7
:101F900000AF0023FB710B4B1B78032B0CD10A4BBA
:101FA0001B78053B012B03D90520FFF797FC00E0C8
:101FB00000BF0123FB7100E000BFFB791846083722
:101FC000BD4680BD240200203502002080B582B0CD
:101FD00000AF0023FB711C4B1B78032B2ED11B4B36
:101FE0001B78013B012B22D8194B1B780133DAB245
:101FF000174B1A70164B1B7803F00103DAB2144B1F
:102000001A7000210C2002F001FC0021092002F0CE
:10201000FDFB0F4B1B78002B04D00121092002F09F
:10202000F5FB08E001210C2002F0F0FB03E00120A9
:10203000FFF754FC00BF0123FB7100E000BFFB79F8
:1020400018460837BD4680BD240200203502002016
:102050003002002080B582B000AF0023FB710B4B33
:102060001B78032B0CD10A4B1B78073B012B03D9A0
:102070000720FFF733FC00E000BF0123FB7100E005
:1020800000BFFB7918460837BD4680BD24020020FA
:102090003502002080B582B000AF0023FB711C4BDD
:1020A0001B78032B2ED11B4B1B78033B012B22D813
:1020B000194B1B780133DAB2174B1A70164B1B7889
:1020C00003F00103DAB2144B1A7000210F2002F062
:1020D0009DFB0021062002F099FB0F4B1B78002B83
:1020E00004D00121062002F091FB08E001210F201D
:1020F00002F08CFB03E00320FFF7F0FB00BF01239D
:10210000FB7100E000BFFB7918460837BD4680BD73
:1021100024020020350200203002002080B582B069
:1021200000AF0023FB711E4B1B78032B31D11D4BDD
:102130001B78022B01D0042B29D10021132002F09F
:1021400065FB00210D2002F061FB174B5B7801332A
:10215000DAB2154B5A70144B5B78032B06D0032B65
:1021600011DC012B0AD0022B04D00CE00E4B002214
:102170005A7009E00121132002F048FB01210D20D3
:1021800002F044FB00E000BF0123FB7100E000BF50
:1021900000E000BFFB7918460837BD4680BD00BF90
:1021A00024020020350200203002002080B582B0D9
:1021B00000AF0023FB71254B1B78032B40D1244B30
:1021C0001B78062B8CBF01220022D2B2002A35D107
:1021D000012202FA03F303F05403002B14BF01237E
:1021E0000023DBB2002B29D00021102002F00EFBCF
:1021F0000021192002F00AFB164B9B780133DAB25A
:10220000144B9A70134B9B78032B06D0032B11DCD5
:10221000012B0AD0022B04D00CE00E4B00229A7046
:1022200009E00121102002F0F1FA0121192002F049
:10223000EDFA00E000BF0123FB7100E000BF00E009
:1022400000BFFB7918460837BD4680BD2402002038
:10225000350200203002002080B582B000AF00239C
:10226000FB710B4B1B78032B0CD10A4B1B780B3BE0
:10227000012B03D90B20FFF731FB00E000BF012346
:10228000FB7100E000BFFB7918460837BD4680BDF2
:10229000240200203502002080B582B000AF002368
:1022A000FB710B4B1B78032B0CD10A4B1B78093BA2
:1022B000012B03D90920FFF711FB00E000BF012328
:1022C000FB7100E000BFFB7918460837BD4680BDB2
:1022D000240200203502002080B400AF034B1B789D
:1022E000032B00BF00BFBD4680BC70472402002006
:1022F00080B582B000AF78607B685B6803F0010353
:10230000002B02D00120FFF74DFA7B689B6803F099
:102310000103002B19D07B681B6903F00103002B1C
:1023200002D0FFF79DFD0AE00120FFF77BFB03468B
:10233000002B04D10120FFF735FAFFF791FD7B68F0
:102340001B6923F001027B681A617B689B6803F0BC
:102350001003002B07D0FFF7A5FD0346002B02D08A
:102360000120FFF71FFA7B689B6803F00403002B32
:1023700007D0FFF72BFE0346002B02D00120FFF70A
:1023800011FA7B689B6803F02003002B07D0FFF74E
:1023900081FE0346002B02D00120FFF703FA7B6881
:1023A0009B6803F00203002B07D0FFF7EFFD034605
:1023B000002B02D00120FFF7F5F97B689B6803F042
:1023C0000803002B07D0FFF745FE0346002B02D081
:1023D0000120FFF7E7F97B689B6803F04003002BBF
:1023E00007D0FFF79BFE0346002B02D00120FFF72A
:1023F000D9F97B689B6803F48063002B07D0FFF753
:10240000D5FE0346002B02D00120FFF7CBF97B68F5
:102410005B6803F40073002B07D0FFF71DFF034632
:10242000002B02D00120FFF7BDF97B685B6803F445
:102430008073002B07D0FFF72FFF0346002B02D03D
:102440000120FFF7AFF97B689B6803F08003002B46
:1024500001D0FFF741FF00BF0837BD4680BD000037
:1024600080B500AF114B1B78022B17D0022B1ADC62
:10247000002B02D0012B0AD015E00D4A0A214FF49F
:102480000040FEF781FB094B01221A700CE002208C
:10249000FEF750FB054B02221A7005E000210120D7
:1024A000FFF7F6F900E000BF00BF80BD3502002055
:1024B0001917000880B500AF0A4B1B78002B02D01B
:1024C000012B08D00CE002F095F9FFF74FFA054B0D
:1024D00001221A7004E04FF4FA70FEF72BFB00BFE4
:1024E00000BF80BD3502002080B500AFBD4B1B781A
:1024F000102B00F2AD8101A252F823F04125000813
:1025000083250008AD250008EF25000809260008EE
:10251000412600086B260008A3260008BD260008F7
:10252000F72600080B2700083B270008572700085C
:1025300099270008B5270008ED270008192800088A
:102540000121012002F04EFEA64B01221A70FFF776
:10255000EBF90346002B06D10121082002F056F9C1
:10256000A04B10221A70FFF7CFF90346002B40F062
:10257000718101210E2002F049F99A4B10221A7044
:1025800068E1FFF7ABFA02F0E3F8012002F0AEF8E1
:1025900040F6BA00FFF702FA924B02221A70924BF1
:1025A00014221A806420FEF7C5FA56E102F0C6F83C
:1025B0000346002B0ED0FFF7C7F90346012B09D0C5
:1025C000894B1B88013B9AB2874B1A80864B1B882C
:1025D000002B08D102F078F8C820FEF7ABFA814B47
:1025E00003221A7039E16420FEF7A4FA35E10220D3
:1025F00002F07CF86420FEF79DFA7B4B03221A80E0
:10260000784B04221A7028E102F098F80346002B58
:1026100009D0754B1B88013B9AB2734B1A80724BE1
:102620001B88002B08D102F04FF80021012002F096
:10263000D9FD6C4B05221A706420FEF77BFA0CE181
:1026400040F6BA00FFF7CCF90346012B03D1654BE6
:102650000F221A7005E0644BC8221A80614B0622D3
:102660001A706420FEF766FAF7E040F6BA00FFF74A
:10267000B7F90346012B09D05B4B1B88013B9AB28B
:10268000594B1A80584B1B88002B06D1012105207D
:1026900002F0BCF8534B07221A706420FEF74AFA86
:1026A000DBE0022002F022F86420FEF743FA4E4BF2
:1026B0003C221A804B4B08221A70CEE002F03EF802
:1026C0000346002B0ED0FFF73FF90346012B09D03C
:1026D000454B1B88013B9AB2434B1A80424B1B88E7
:1026E000002B04D101F0F0FF3E4B09221A70642048
:1026F000FEF720FAB1E00020FEF760FD3A4B6422BD
:102700001A80384B0A221A70A7E0374B1B88013B0E
:102710009AB2354B1A80344B1B88002B09D1FEF737
:10272000E5FD41F27070FEF705FA2E4B0B221A7090
:1027300093E06420FEF7FEF98FE040F2DC50FEF7F4
:10274000F9F9012001F0D2FF274B3C221A80254BDA
:102750000C221A7081E001F0F1FF0346002B0ED02D
:10276000FFF7F2F80346012B09D01F4B1B88013BF2
:102770009AB21D4B1A801C4B1B88002B08D101F00C
:10278000A3FFC820FEF7D6F9164B0D221A7064E09D
:102790006420FEF7CFF960E00021052002F036F852
:1027A000022001F0A3FF104B03221A800D4B0E22D2
:1027B0001A7052E001F0C2FF0346002B09D00A4B09
:1027C0001B88013B9AB2084B1A80074B1B88002BD1
:1027D00004D101F079FF034B0F221A706420FEF739
:1027E000A9F93AE03502002028020020002101204A
:1027F00002F0F8FCFFF7BAF8FFF70DFB0346012BD8
:102800002AD10120FFF7A2FA0220FEF745FA0021A3
:102810000320FFF73DF81FE0FFF786F80346012B82
:1028200006D10021082001F0F1FF0D4B00221A70A3
:10283000FFF76AF80346012B06D100210E2001F0B4
:10284000E5FF074B00221A703220FEF773F904E00F
:1028500000BF02E000BF00E000BF00BF80BD00BFBE
:102860003502002080B500AF694B1B780C2B00F2BD
:10287000CC8001A252F823F0AD280008B52800084A
:10288000EF280008F7280008312900083929000836
:102890008129000889290008B3290008BB290008FC
:1028A000DB290008E3290008032A00080A20FEF7B4
:1028B00041F9ABE003220021564805F005FEFFF781
:1028C00035F90020FFF742FA0020FFF778FA0121DE
:1028D0000C2001F09BFF01210A2001F097FF01214C
:1028E000042001F093FF4A4B02221A708EE00A2066
:1028F000FEF720F98AE003220021464805F0E4FDB6
:10290000FFF714F90020FFF721FA0020FFF757FA2C
:1029100001210F2001F07AFF01210A2001F076FF4A
:102920000121042001F072FF394B04221A706DE07E
:102930000A20FEF7FFF869E003220021354805F080
:10294000C3FD344B02229A70FFF7F0F80020FFF726
:10295000FDF90020FFF733FA0121152001F056FFA1
:102960000121042001F052FF0121192001F04EFF46
:102970000121102001F04AFF254B06221A7045E084
:102980000A20FEF7D7F841E003220021214805F094
:102990009BFDFFF7CBF80020FFF7D8F90020FFF7E9
:1029A0000EFA0121122001F031FF194B08221A7092
:1029B0002CE00A20FEF7BEF828E0FFF7B7F8002069
:1029C000FFF7C4F90020FFF7FAF90121112001F007
:1029D0001DFF0F4B0A221A7018E00A20FEF7AAF812
:1029E00014E0FFF7A3F80020FFF7B0F90020FFF78D
:1029F000E6F90121022001F009FF054B0C221A70B3
:102A000004E00A20FEF796F800E000BF00BF80BD9A
:102A1000350200203002002080B500AFBD4B1B788E
:102A2000142B00F20F8201A252F823F0812A000831
:102A3000BD2A0008DB2A0008172B0008312B0008EC
:102A4000632B0008C72B0008F72B0008172C000881
:102A5000532C00086F2C0008832C0008E52C00087C
:102A6000F92C0008292D0008592D0008792D00089F
:102A7000B52D0008CF2D0008012E0008272E0008D4
:102A8000A54B01221A700020FFF760F90020FFF724
:102A900096F90121052001F0B9FEFFF777F89F4B69
:102AA0001B78012B03D19E4B01221A7002E09C4B34
:102AB00000221A70974B01221A70C8E101F048FEFB
:102AC000012001F013FE6420FEF734F8954B1E221E
:102AD0001A80904B02221A70B9E101F02FFE0346D2
:102AE000002B0ED0FEF730FF0346012B09D08D4B93
:102AF0001B88013B9AB28B4B1A808A4B1B88002B98
:102B000005D101F0E1FD834B03221A709FE164209F
:102B1000FEF710F89BE1022001F0E8FD6420FEF7CB
:102B200009F8804B03221A807A4B04221A708EE136
:102B300001F004FE0346002B09D07A4B1B88013BB1
:102B40009AB2784B1A80774B1B88002B05D101F085
:102B5000BBFD704B05221A7079E16420FDF7EAFF96
:102B600075E140F63E00FEF719FF6C4B5B78002BD9
:102B70000AD14FF47A70FEF74BFB6A4B50221A8051
:102B8000644B06221A705FE1644B5B78012B0AD11B
:102B90004FF47A70FEF73CFB624B5A221A805D4B71
:102BA00006221A7050E15D4B5B78022B40F04C819D
:102BB0004FF47A70FEF72CFB5A4B64221A80554B67
:102BC00006221A7040E1574B1B88013B9AB2554BC5
:102BD0001A80544B1B88002B09D1FEF769FB4FF478
:102BE0007A70FDF7A7FF4B4B07221A702FE1642084
:102BF000FDF7A0FF2BE1484B02221A70022001F0E2
:102C000075FD6420FDF796FF464B46221A80414B26
:102C100008221A701BE101F091FD0346002B0ED033
:102C2000FEF792FE0346012B09D03E4B1B88013B69
:102C30009AB23C4B1A803B4B1B88002B05D101F00C
:102C400043FD344B09221A7001E16420FDF772FF45
:102C5000FDE0314B03221A700020FEF7AFFA40F27C
:102C60006C70FDF767FF2B4B0A221A70EFE0FEF73E
:102C70003DFB4FF47A60FDF75DFF264B0B221A7087
:102C8000E5E0254B04221A70244B9B78002B0AD1D7
:102C90000020FEF793FA41F28830FDF74BFF1D4B01
:102CA0000C221A70D2E01D4B9B78012B0AD1002018
:102CB000FEF784FA42F21070FDF73CFF154B0C2230
:102CC0001A70C3E0154B9B78022B40F0BF800020A8
:102CD000FEF774FA44F62060FDF72CFF0D4B0C2232
:102CE0001A70B3E0FEF702FB41F27070FDF722FFAD
:102CF000084B0D221A70AAE0074B05221A7001201A
:102D000001F0F4FC074B1D221A80024B0E221A70B0
:102D10009DE000BF350200202F020020300200207D
:102D200034020020280200204A4B1B88013B9AB243
:102D3000484B1A80474B1B88002B09D101F0C4FC7B
:102D400040F6B830FDF7F6FE434B0F221A707EE0D6
:102D50006420FDF7EFFE7AE0404B06221A70012056
:102D600001F0C4FC6420FDF7E5FE3A4B32221A80E4
:102D7000394B10221A706AE001F0E0FC0346002B88
:102D80000ED0FEF7E1FD0346012B09D0314B1B8825
:102D9000013B9AB22F4B1A802E4B1B88002B05D17A
:102DA00001F092FC2C4B11221A7050E06420FDF7C8
:102DB000C1FE4CE0022001F099FC6420FDF7BAFE50
:102DC000244B03221A80244B12221A703FE001F098
:102DD000B5FC0346002B09D01E4B1B88013B9AB261
:102DE0001C4B1A801B4B1B88002B05D101F06CFC7F
:102DF000194B13221A702AE06420FDF79BFE26E08F
:102E0000174B1B78012B0AD1134B01221A70144B5C
:102E100000221A704FF4FA70FDF78CFE17E00E4B8B
:102E200014221A7013E00D4B00221A70FEF79EFD5B
:102E30000C4B01221A70FFF701F800210320FEF766
:102E400027FD04E000BF02E000BF00E000BF00BFBC
:102E500080BD00BF28020020350200202F02002084
:102E6000340200203302002080B500AFBD4B1B7838
:102E7000212B00F23E8301A252F823F0052F000817
:102E8000412F00085B2F0008972F0008B12F000882
:102E9000E32F00084730000877300008973000081B
:102EA000D3300008EF300008033100081F3100085C
:102EB000333100084F31000879310008993100089A
:102EC000D5310008EF3100082132000855320008E2
:102ED0006F320008AB320008C5320008F732000834
:102EE000073300082733000863330008F73300086E
:102EF0000B3400084D34000889340008A33400085E
:102F0000D5340008984B01221A700020FEF71EFFEE
:102F10000020FEF754FF0121052001F077FCFEF7A9
:102F200075FE924B1B78012B03D1914B01221A7035
:102F300002E08F4B00221A708A4B01221A70DDE2E8
:102F4000012001F0D3FB6420FDF7F4FD894B1E2224
:102F50001A80844B02221A70D0E201F0EFFB034684
:102F6000002B0ED0FEF7F0FC0346012B09D0814B5D
:102F70001B88013B9AB27F4B1A807E4B1B88002B2B
:102F800005D101F0A1FB774B03221A70B6E2642051
:102F9000FDF7D0FDB2E2022001F0A8FB6420FDF7AE
:102FA000C9FD744B03221A806E4B04221A70A5E2ED
:102FB00001F0C4FB0346002B09D06E4B1B88013B7C
:102FC0009AB26C4B1A806B4B1B88002B05D101F019
:102FD0007BFB644B05221A7090E26420FDF7AAFD8A
:102FE0008CE240F63E00FEF7D9FC604B5B78002B8C
:102FF0000AD14FF47A70FEF70BF95E4B50221A801B
:10300000584B06221A7076E2584B5B78012B0AD196
:103010004FF47A70FEF7FCF8564B5A221A80514B47
:1030200006221A7067E2514B5B78022B40F06382F4
:103030004FF47A70FEF7ECF84E4B64221A80494B3D
:1030400006221A7057E24B4B1B88013B9AB2494B40
:103050001A80484B1B88002B09D1FEF729F94FF441
:103060007A70FDF767FD3F4B07221A7046E2642035
:10307000FDF760FD42E23C4B02221A70022001F093
:1030800035FB6420FDF756FD3A4B46221A80354B3E
:1030900008221A7032E201F051FB0346002B0ED0D9
:1030A000FEF752FC0346012B09D0324B1B88013B33
:1030B0009AB2304B1A802F4B1B88002B05D101F0A0
:1030C00003FB284B09221A7018E26420FDF732FD39
:1030D00014E2254B03221A700020FEF76FF84FF41C
:1030E000E160FDF727FD1F4B0A221A7006E2FEF78A
:1030F000FDF84FF47A60FDF71DFD1A4B0B221A7094
:10310000FCE1194B04221A700020FEF757F842F632
:103110007C60FDF70FFD134B0C221A70EEE1FEF7F9
:10312000E5F841F27070FDF705FD0E4B0D221A70A7
:10313000E4E10D4B05221A70012001F0D7FA40F6A8
:103140005430FDF7F7FC074B0E221A70D6E101F060
:10315000BBFA40F6B830FDF7EDFC024B0F221A70B7
:10316000CCE100BF350200202F02002030020020F9
:103170003402002028020020AC4B06221A700120E5
:1031800001F0B4FA6420FDF7D5FCA94B32221A8075
:10319000A84B10221A70B1E101F0D0FA0346002BBF
:1031A0000ED0FEF7D1FB0346012B09D0A04B1B88A4
:1031B000013B9AB29E4B1A809D4B1B88002B05D178
:1031C00001F082FA9B4B11221A7097E16420FDF7FF
:1031D000B1FC93E1022001F089FA6420FDF7AAFC1A
:1031E000934B03221A80934B12221A7086E101F04E
:1031F000A5FA0346002B09D08D4B1B88013B9AB2E0
:103200008B4B1A808A4B1B88002B05D101F05CFA8E
:10321000884B13221A7071E16420FDF78BFC6DE17D
:10322000854B01221A70854B1B78012B0AD1834BE9
:1032300000221A704FF4FA70FDF77CFC7D4B0522DA
:103240001A705BE14FF4B470FDF774FC794B1422F3
:103250001A7053E1012001F049FA6420FDF76AFC7D
:10326000734B1E221A80734B15221A7046E101F02F
:1032700065FA0346002B0ED0FEF766FB0346012BD2
:1032800009D06B4B1B88013B9AB2694B1A80684B83
:103290001B88002B05D101F017FA664B16221A7015
:1032A0002CE16420FDF746FC28E1022001F01EFA23
:1032B0006420FDF73FFC5E4B03221A805D4B172212
:1032C0001A701BE101F03AFA0346002B09D0584B63
:1032D0001B88013B9AB2564B1A80554B1B88002B1A
:1032E00005D101F0F1F9534B18221A7006E1642060
:1032F000FDF720FC02E14FF47A60FDF71BFC4D4B1B
:1033000019221A70FAE0494B02221A70022001F0C9
:10331000EDF96420FDF70EFC454B46221A80454B23
:103320001A221A70EAE001F009FA0346002B0ED0C7
:10333000FEF70AFB0346012B09D03D4B1B88013BDE
:103340009AB23B4B1A803A4B1B88002B05D101F0F7
:10335000BBF9384B1B221A70D0E06420FDF7EAFB62
:10336000CCE0324B04221A70354B9B78002B13D1E2
:103370000020FDF723FF324B1B78002B04D144F6CD
:103380003820FDF7D7FB03E048F2E800FDF7D2FB59
:10339000284B1C221A70B0E0294B9B78012B12D1CC
:1033A0000020FDF70BFF264B1B78002B04D148F6BD
:1033B000A040FDF7BFFB02E02248FDF7BBFB1D4B21
:1033C0001C221A7099E01E4B9B78022B40F09580CE
:1033D0000020FDF7F3FE1A4B1B78002B04D14CF2B2
:1033E0003870FDF7A7FB02E01748FDF7A3FB114B70
:1033F0001C221A7081E0FDF779FF41F27070FDF731
:1034000099FB0C4B1D221A7078E0084B06221A70AB
:10341000012001F06BF94FF47A70FDF78BFB044B40
:103420003C221A80034B1E221A7067E02F020020F4
:103430002802002035020020330200203402002040
:103440003002002040190100289A010001F076F9AD
:103450000346002B0ED0FEF777FA0346012B09D066
:10346000274B1B88013B9AB2254B1A80244B1B88A3
:10347000002B05D101F028F9224B1F221A703DE0E4
:103480006420FDF757FB39E0022001F02FF964209A
:10349000FDF750FB1A4B03221A801A4B20221A7098
:1034A0002CE001F04BF90346002B09D0144B1B888C
:1034B000013B9AB2124B1A80114B1B88002B05D18D
:1034C00001F002F90F4B21221A7017E06420FDF77A
:1034D00031FB13E00C4B00221A70FEF747FA0B4B3E
:1034E00001221A70FEF7AAFC00210320FEF7D0F992
:1034F00004E000BF02E000BF00E000BF00BF80BDED
:1035000028020020350200202F0200203302002074
:1035100080B500AF444B1B78052B00F2808001A2E0
:1035200052F823F03D3500086B3500089D35000842
:10353000AB3500081F360008033600080020FEF7F0
:1035400005FC0020FEF73BFC0121052001F05EF99F
:10355000FEF78CFB40F61520FEF720FA334B642271
:103560001A80314B01221A705CE040F61520FEF7FC
:1035700037FA0346012B09D02C4B1B88013B9AB22A
:103580002A4B1A80294B1B88002B03D1264B022281
:103590001A7047E06420FDF7CDFA43E00120FEF702
:1035A0002DFA214B03221A703CE0214B9B78002B13
:1035B0000AD10020FDF702FE43F2B060FDF7BAFA2F
:1035C000194B05221A702CE0194B9B78012B0AD15C
:1035D0000020FDF7F3FD49F65800FDF7ABFA124B5A
:1035E00005221A701DE0124B9B78022B19D1002086
:1035F000FDF7E4FD0F48FDF79DFA0B4B05221A700D
:103600000FE0FDF773FE0020FEF7F8F9FEF7AEF9C4
:10361000FEF714FC00210320FEF73AF902E000BF98
:1036200000E000BF00BF80BD35020020280200205E
:1036300030020020E87A010080B500AF0B4B1B7808
:10364000002B02D0012B0AD00EE00121052001F051
:10365000DDF8FEF72BFB054B01221A7004E04FF456
:10366000FA70FDF767FA00BF00BF80BD3502002089
:1036700080B500AF0B4B1B78002B02D0012B0AD07A
:103680000EE00121052001F0C1F8FEF72FFB054BEC
:1036900001221A7004E04FF4FA70FDF74BFA00BFF4
:1036A00000BF80BD3502002080B500AF0B4B1B78FA
:1036B000002B02D0012B0AD00EE00121052001F0E1
:1036C000A5F8FEF733FB054B01221A7004E04FF416
:1036D000FA70FDF72FFA00BF00BF80BD3502002051
:1036E00080B500AF5C4B1B78072B00F2B28001A2C3
:1036F00052F823F015370008453700085F370008F7
:103700009B370008B5370008F73700081138000864
:103710004138000801F012F80346002B0ED10121B8
:10372000012001F05FFD4C4B01221A70FEF70CF9ED
:103730000346002B02D1484B03221A706420FDF788
:10374000F9F987E0012000F0D1FF6420FDF7F2F9DC
:10375000424B0A221A80404B02221A707AE0FEF78E
:10376000F3F80346002B09D03C4B1B88013B9AB26F
:103770003A4B1A80394B1B88002B0AD100F0A4FF6A
:10378000364B1B88002B01D0032200E00522324B70
:103790001A706420FDF7CEF95CE0012000F0A6FF6E
:1037A0006420FDF7C7F92C4B04221A702B4B3C22E6
:1037B0001A804FE000F0C2FF0346002B0ED0FEF748
:1037C000C3F80346012B09D0244B1B88013B9AB256
:1037D000224B1A80214B1B88002B08D100F074FF6C
:1037E000C820FDF7A7F91C4B05221A7032E06420AF
:1037F000FDF7A0F92EE0022000F078FF6420FDF72D
:1038000099F9164B03221A80134B06221A7021E0F5
:1038100000F094FF0346002B09D0104B1B88013B9E
:103820009AB20E4B1A800D4B1B88002B04D100F06E
:103830004BFF094B07221A706420FDF77BF909E062
:103840000021012001F0CEFC00210120FEF720F82C
:1038500000E000BF00BF80BD35020020280200202C
:1038600080B500AF694B1B780A2B00F2CB8001A218
:1038700052F823F0A1380008B7380008D138000802
:103880000D39000823390008373900084D39000880
:10389000613900087B390008B7390008D1390008C0
:1038A000FDF706FD00F010FF6420FDF743F9574BCC
:1038B00001221A70A7E0022000F018FF6420FDF733
:1038C00039F9534B46221A80504B02221A709AE063
:1038D00000F034FF0346002B0ED0FEF735F8034608
:1038E000012B09D04A4B1B88013B9AB2484B1A80E6
:1038F000474B1B88002B05D100F0E6FE434B03220B
:103900001A7080E06420FDF715F97CE00020FDF7D7
:1039100055FC40F26C70FDF70DF93C4B04221A7017
:1039200071E0FDF7E3FC4FF47A60FDF703F9374BE4
:1039300005221A7067E0012000F0D8FE40F65430EE
:10394000FDF7F8F8314B06221A705CE000F0BCFE7F
:1039500040F6B830FDF7EEF82C4B07221A7052E013
:10396000012000F0C3FE6420FDF7E4F8284B32226A
:103970001A80264B08221A7045E000F0DFFE03464D
:10398000002B0ED0FDF7E0FF0346012B09D0204BA2
:103990001B88013B9AB21E4B1A801D4B1B88002BC3
:1039A00005D100F091FE194B09221A702BE064201A
:1039B000FDF7C0F827E0022000F098FE6420FDF734
:1039C000B9F8134B03221A80104B0A221A701AE01E
:1039D00000F0B4FE0346002B09D00D4B1B88013BC1
:1039E0009AB20B4B1A800A4B1B88002B06D100F0B1
:1039F0006BFE064B00221A70012305E06420FDF7E0
:103A000099F800E000BF0023184680BDA400002004
:103A10002802002080B500AF694B1B780A2B00F20A
:103A2000CA8001A252F823F0553A0008693A00080A
:103A3000833A0008BF3A0008D53A0008E93A00087E
:103A4000FF3A0008133B00082D3B0008693B0008C3
:103A5000833B000800F038FE4FF49670FDF76AF8DB
:103A6000574B01221A70A7E0022000F03FFE6420AD
:103A7000FDF760F8534B46221A80514B02221A7010
:103A80009AE000F05BFE0346002B0ED0FDF75CFFD2
:103A90000346012B09D04B4B1B88013B9AB2494B83
:103AA0001A80484B1B88002B05D100F00DFE444BBB
:103AB00003221A7080E06420FDF73CF87CE00020CF
:103AC000FDF77CFB40F26C70FDF734F83C4B0422B0
:103AD0001A7071E0FDF70AFC4FF47A60FDF72AF8DE
:103AE000374B05221A7067E0012000F0FFFD40F619
:103AF0005430FDF71FF8324B06221A705CE000F0DC
:103B0000E3FD40F6B830FDF715F82D4B07221A708B
:103B100052E0012000F0EAFD6420FDF70BF8294B8C
:103B200032221A80264B08221A7045E000F006FE69
:103B30000346002B0ED0FDF707FF0346012B09D0EB
:103B4000204B1B88013B9AB21E4B1A801D4B1B88D1
:103B5000002B05D100F0B8FD194B09221A702BE09B
:103B60006420FCF7E7FF27E0022000F0BFFD64209F
:103B7000FCF7E0FF134B03221A80114B0A221A7044
:103B80001AE000F0DBFD0346002B09D00D4B1B882B
:103B9000013B9AB20B4B1A800A4B1B88002B06D1B3
:103BA00000F092FD064B00221A70012305E064200C
:103BB000FCF7C0FF00E000BF0023184680BD00BF37
:103BC000A50000202802002080B500AF514B1B78D3
:103BD000082B00F29B8001A252F823F0013C000860
:103BE000153C00082B3C00083F3C0008553C0008F1
:103BF000693C0008833C0008BF3C0008D93C000831
:103C0000FDF774FB4FF47A70FCF794FF414B0122EF
:103C10001A707CE00020FDF7D1FA40F26C70FCF7DE
:103C200089FF3C4B02221A7071E0FDF75FFB4FF4F5
:103C30007A60FCF77FFF374B03221A7067E00120A0
:103C400000F054FD40F65430FCF774FF314B042271
:103C50001A705CE000F038FD40F6B830FCF76AFFFF
:103C60002C4B05221A7052E0012000F03FFD642029
:103C7000FCF760FF284B32221A80264B06221A706E
:103C800045E000F05BFD0346002B0ED0FDF75CFE27
:103C90000346012B09D0204B1B88013B9AB21E4BD7
:103CA0001A801D4B1B88002B05D100F00DFD194B10
:103CB00007221A702BE06420FCF73CFF27E002206B
:103CC00000F014FD6420FCF735FF134B03221A802B
:103CD000104B08221A701AE000F030FD0346002B4A
:103CE00009D00D4B1B88013B9AB20B4B1A800A4B33
:103CF0001B88002B06D100F0E7FC064B00221A704F
:103D0000012305E06420FCF715FF00E000BF00235D
:103D1000184680BDA60000202802002080B500AF14
:103D2000454B1B78062B00F2828001A252F823F04B
:103D30004D3D0008613D0008773D00088B3D0008BF
:103D4000A53D0008E13D0008FB3D0008FDF7CEFA67
:103D50004FF47A60FCF7EEFE374B01221A7067E0F1
:103D6000012000F0C3FC40F65430FCF7E3FE324B78
:103D700002221A705CE000F0A7FC40F6B830FCF7B5
:103D8000D9FE2D4B03221A7052E0012000F0AEFC48
:103D90006420FCF7CFFE294B32221A80264B0422E6
:103DA0001A7045E000F0CAFC0346002B0ED0FDF768
:103DB000CBFD0346012B09D0204B1B88013B9AB257
:103DC0001E4B1A801D4B1B88002B05D100F07CFC7C
:103DD000194B05221A702BE06420FCF7ABFE27E09C
:103DE000022000F083FC6420FCF7A4FE134B0322A6
:103DF0001A80114B06221A701AE000F09FFC03464D
:103E0000002B09D00D4B1B88013B9AB20B4B1A803B
:103E10000A4B1B88002B06D100F056FC064B0022F3
:103E20001A70012305E06420FCF784FE00E000BF67
:103E30000023184680BD00BFA700002028020020F4
:103E400080B500AF4F4B1B78072B00F2968001A284
:103E500052F823F0753E0008813E00089F3E00089E
:103E6000C73E0008D73E0008F13E00082D3F00087D
:103E7000473F000800F028FC424B01221A707DE009
:103E8000414B1B88002B06D0012000F02FFC3D4B3E
:103E900002221A7072E03B4B03221A706EE03A4B1A
:103EA0001B88013B9AB2384B1A80374B1B88002B7A
:103EB00005D100F009FC334B03221A705EE0642048
:103EC000FCF738FE5AE040F6B830FCF733FE2D4BD5
:103ED00004221A7052E0012000F008FC6420FCF774
:103EE00029FE2A4B32221A80264B05221A7045E001
:103EF00000F024FC0346002B0ED0FDF725FD034601
:103F0000012B09D0214B1B88013B9AB21F4B1A8011
:103F10001E4B1B88002B05D100F0D6FB194B062247
:103F20001A702BE06420FCF705FE27E0022000F069
:103F3000DDFB6420FCF7FEFD144B03221A80114BBD
:103F400007221A701AE000F0F9FB0346002B09D093
:103F50000E4B1B88013B9AB20C4B1A800B4B1B88F3
:103F6000002B06D100F0B0FB064B00221A70012393
:103F700005E06420FCF7DEFD00E000BF00231846EA
:103F800080BD00BFA80000202C02002028020020D5
:103F900080B500AF364B1B78042B65D801A252F8D0
:103FA00023F000BFB93F0008C53F0008DF3F00080D
:103FB0001B4000083540000800F086FB2C4B012216
:103FC0001A7052E0012000F091FB6420FCF7B2FD72
:103FD000284B32221A80264B02221A7045E000F04C
:103FE000ADFB0346002B0ED0FDF7AEFC0346012BC4
:103FF00009D0204B1B88013B9AB21E4B1A801D4BE7
:104000001B88002B05D100F05FFB194B03221A70AF
:104010002BE06420FCF78EFD27E0022000F066FB19
:104020006420FCF787FD134B03221A80104B0422F7
:104030001A701AE000F082FB0346002B09D00D4BEA
:104040001B88013B9AB20B4B1A800A4B1B88002B32
:1040500006D100F039FB064B00221A70012305E05F
:104060006420FCF767FD00E000BF0023184680BD18
:10407000A90000202802002080B500AF8E4B1B78DD
:104080000C2B00F2148101A252F823F0C140000869
:10409000DB400008F5400008314100084B410008B2
:1040A000854100089F410008DB410008F1410008FC
:1040B00005420008214200085D42000877420008DE
:1040C00000F002FB4FF4D660FDF768FC6420FCF7BB
:1040D00031FD794B01221A70EAE0012000F006FB65
:1040E0006420FCF727FD754B1E221A80724B0222BA
:1040F0001A70DDE000F022FB0346002B0ED0FDF726
:1041000023FC0346012B09D06C4B1B88013B9AB260
:104110006A4B1A80694B1B88002B05D100F0D4FA3A
:10412000654B03221A70C3E06420FCF703FDBFE077
:10413000022000F0DBFA6420FCF7FCFC5F4B03225A
:104140001A805D4B04221A70B2E000F0F7FA0346C1
:10415000002B09D0594B1B88013B9AB2574B1A8050
:10416000564B1B88002B09D100F0AEFA40F2DC5010
:10417000FCF7E0FC504B05221A7099E06420FCF734
:10418000D9FC95E0022000F0B1FA6420FCF7D2FCE3
:104190004A4B46221A80484B06221A7088E000F0EB
:1041A000CDFA0346002B0ED0FDF7CEFB0346012BC4
:1041B00009D0424B1B88013B9AB2404B1A803F4BBF
:1041C0001B88002B05D100F07FFA3B4B07221A70A9
:1041D0006EE06420FCF7AEFC6AE00020FCF7EEFF26
:1041E00042F21070FCF7A6FC334B08221A705FE015
:1041F000FDF77CF841F27070FCF79CFC2E4B092215
:104200001A7055E0012000F071FA4FF47A70FCF753
:1042100091FC2A4B3C221A80274B0A221A7047E055
:1042200000F08CFA0346002B0ED0FDF78DFB034601
:10423000012B09D0214B1B88013B9AB21F4B1A80DE
:104240001E4B1B88002B05D100F03EFA1A4B0B22A7
:104250001A702DE06420FCF76DFC29E0022000F0CC
:1042600045FA6420FCF766FC144B03221A80124BBB
:104270000C221A701CE000F061FA0346002B09D0F2
:104280000E4B1B88013B9AB20C4B1A800B4B1B88C0
:10429000002B08D100F018FAFDF768FB064B00224E
:1042A0001A70012305E06420FCF744FC00E000BF25
:1042B0000023184680BD00BFAA000020280200206D
:1042C00080B500AF5F4B1B78082B00F2A98001A2DC
:1042D00052F823F0F94200088B4300089D43000880
:1042E000AF430008C1430008D3430008E54300087A
:1042F000F7430008094400080121012000F072FF83
:10430000FDF7ECFB504B1B78062B3CD801A252F872
:1043100023F000BF314300084F4300085743000813
:104320005F430008674300086F4300087F430008AD
:10433000464B1B78012B06D1444B00221A70414B8F
:1043400007221A7020E03F4B08221A701CE03D4BF8
:1043500001221A7018E03B4B02221A7014E0394B0C
:1043600003221A7010E0374B04221A700CE0384B0D
:104370001A88384B1A80334B05221A7004E0314BEF
:1043800006221A7000E000BF59E0FFF769FA034601
:10439000012B47D12B4B07221A7043E0FFF73AFB62
:1043A0000346012B40D1274B07221A703CE0FFF750
:1043B0000BFC0346012B39D1224B07221A7035E042
:1043C000FFF7ACFC0346012B32D11E4B07221A70BB
:1043D0002EE0FFF735FD0346012B2BD1194B0722A9
:1043E0001A7027E0FFF7D4FD0346012B24D1154BAB
:1043F00007221A7020E0FFF73FFE0346012B1DD174
:10440000104B08221A7019E00021012000F0EAFE8A
:104410000220FCF741FC00210120FDF739FA0EE0F3
:1044200000BF0CE000BF0AE000BF08E000BF06E0EC
:1044300000BF04E000BF02E000BF00E000BF00BF1B
:1044400080BD00BF350200202F0200203302002073
:10445000280200202C02002080B483B000AF034665
:10446000FB71074AFB791370064B00221A70064B4A
:1044700000221A7000BF0C37BD4680BC704700BFD9
:1044800026020020240200203502002080B500AF63
:10449000234B1B780B2B3FD801A252F823F000BF0F
:1044A000D1440008D7440008DD440008E344000874
:1044B000E9440008EF440008F5440008FB44000804
:1044C00001450008074500080D4500081345000890
:1044D000FDF7C6FF21E0FDF7EDFF1EE0FEF704F853
:1044E0001BE0FEF7BFF918E0FEF796FA15E0FEF7BD
:1044F000BBFC12E0FFF70CF80FE0FFF79DF80CE0B3
:10450000FFF7B6F809E0FFF7CFF806E0FFF7E8F8A5
:1045100003E0FFF7D5FE00E000BF00BF80BD00BF95
:104520002402002080B582B000AF03463960FB71E1
:10453000094B1B78FA799A4201D03B6808E03B6846
:1045400003F00103002B02D00448FDF7D1FE3B68C5
:1045500018460837BD4680BD260200204C020020C8
:1045600080B582B000AF134B1B780133DAB2114B28
:104570001A70104B1B78642B17D90220FDF766F8D0
:104580000346FB800120FDF761F80346BB80002055
:10459000FDF75CF803467B80F988BA887B8806487B
:1045A00003F09AFF034B00221A7000BF0837BD4684
:1045B00080BD00BF360200200494000880B483B0A0
:1045C00000AF0346FB71054AFB791370044B0022D0
:1045D0001A7000BF0C37BD4680BC70473702002000
:1045E0003802002080B500AF104B1B78022B0FD093
:1045F000022B15DC002B02D0012B13D010E000F0B1
:10460000F9F80B4B00221A70084B02221A700AE0CC
:10461000FFF7A6FF01F0AAF90A20FCF78BFA02E0E7
:1046200000BF00E000BF00BF80BD00BF3802002017
:104630003602002080B483B000AF03463960FB71BE
:10464000064B1B78FA799A4201D03B6800E03B6840
:1046500018460C37BD4680BC704700BF37020020AB
:1046600080B582B000AF03460A46FB711346BB71AA
:10467000FB79002B06D0BB79002B03D00023FB7104
:104680000023BB71FB79002B05D04FF480410D480E
:1046900002F08AF804E04FF480410A4802F093F8EF
:1046A000BB79002B05D04FF40041064802F07CF89E
:1046B00004E04FF40041034802F085F800BF0837DA
:1046C000BD4680BD000C014080B500AF0021002038
:1046D000FFF7C6FF044B1B78032B02D0024B0022CE
:1046E0001A7000BF80BD00BFAB00002080B582B053
:1046F00000AF0346FB71104B1B78032B18D0FB79DE
:10470000012B02D0022B08D00FE000210120FFF77F
:10471000A7FF094B01221A700BE001210020FFF7CF
:104720009FFF054B02221A7003E0FFF7CDFF00E068
:1047300000BF0837BD4680BDAB00002080B400AF8D
:10474000024B1B781846BD4680BC7047AB0000206A
:1047500080B500AF054B1B78032B04D1034B00221F
:104760001A70FFF7B1FF00BF80BD00BFAB00002093
:1047700080B500AF4FF48071044802F04DF8034655
:10478000002B01D1FFF7A0FF00BF80BD0008014052
:1047900080B500AF40F2026002F0EAF940F2036037
:1047A00002F0E6F94FF4C06002F0E2F94FF4804302
:1047B000012210210C4801F043FF4FF40043012275
:1047C0001021094801F03CFF00210020FFF748FFBD
:1047D0004FF4807301220421044801F031FF044B9F
:1047E00000221A7000BF80BD000C0140000801408B
:1047F000AB00002080B400AF034B00221A6000BF62
:10480000BD4680BC704700BF3C02002080B483B02E
:1048100000AF03460A46FB711346BB71BB79002B00
:104820000AD1FB79012202FA03F3DA430F4B1B682A
:1048300013400E4A136013E0BB79012B08D1FB79BA
:1048400001229A40094B1B681343084A136007E092
:10485000FB7901229A40054B1B685340034A1360C1
:1048600000BF0C37BD4680BC704700BF3C02002033
:1048700080B483B000AF0346FB71074B1A68FB7925
:1048800022FA03F3DBB203F00103DBB218460C3764
:10489000BD4680BC704700BF3C02002080B500AF21
:1048A0004FF4C06002F064F90021002002F04EF8DD
:1048B00002220021012001F0A3FD012001F02EFEC3
:1048C00000220221062002F0CBF80821002002F08D
:1048D0003DF801220021012001F092FD4FF480708B
:1048E00001F01CFE00220021172002F0B9F800BFE1
:1048F00080BD000080B500AF4FF4C06002F038F911
:104900000121054801F0B0FF01214FF4004001F002
:10491000ABFF00BF80BD00BF0002300080B500AF1C
:1049200040F2026002F024F940F2036002F020F944
:1049300040F2046002F01CF940F2056002F018F940
:10494000012301224821664801F07AFE202301223A
:104950002821644801F074FE4FF4805301220421A1
:104960005F4801F06DFE1023012204215D4801F033
:1049700067FE4FF40053012204215A4801F060FE03
:104980004FF4807301220421554801F059FE202381
:1049900001221021524801F053FE2021504801F01D
:1049A00012FF4023012210214D4801F049FE402111
:1049B0004B4801F008FF802301221021484801F0F4
:1049C0003FFE8021464801F0FEFE04230122102113
:1049D000444801F035FE0421424801F0E5FE4FF461
:1049E0008053012210213F4801F02AFE4FF48051EC
:1049F0003C4801F0E8FE4FF4806301221021394861
:104A000001F01EFE4FF48061364801F0CDFE4FF4F8
:104A1000006301221021334801F012FE4FF40061BF
:104A2000304801F0C1FE4023012210212D4801F041
:104A300007FE40212B4801F0C6FE802301221021F1
:104A4000284801F0FDFD8021264801F0BCFE4FF40E
:104A5000807301221021234801F0F2FD4FF4807190
:104A6000204801F0B0FE4FF48043012210211D4880
:104A700001F0E6FD4FF480411A4801F0A4FE4FF426
:104A8000004301221021174801F0DAFD4FF40041E4
:104A9000144801F098FE4FF40053022210211248EE
:104AA00001F0CEFD4FF40043012210210C4801F02B
:104AB000C7FD0823012248210A4801F0C1FD4FF437
:104AC000804302224821084801F0BAFD4FF4004318
:104AD00002224821044801F0B3FD00BF80BD00BFA1
:104AE00000080140000C01400010014080B582B078
:104AF00000AF0346FB71064B1B781846FCF700F825
:104B0000044AFB79137000BF0837BD4680BD00BF63
:104B1000440200204002002080B584B000AF03466C
:104B2000FB800220FCF792FD0346FB81FA89FB889B
:104B3000D31A9BB2BB81B7F90C300A2B02DDFCF70C
:104B4000E9FB06E0B7F90C3013F10A0F01DAFCF7C4
:104B50001BFB00BF1037BD4680BD80B584B000AFE1
:104B60000346FB800220FCF771FD0346FB81FA89B6
:104B7000FB88D31A9BB2BB81B7F90C30092B06DC3A
:104B8000B7F90C3013F1090F01DB012300E000231A
:104B900018461037BD4680BD80B483B000AF0346D1
:104BA000FB71054AFB791370044B00221A7000BF99
:104BB0000C37BD4680BC70474402002040020020F4
:104BC00080B500AF0F4B1B78022B0CD0022B13DCEF
:104BD000002B02D0012B11D00EE0FCF79BFB094B00
:104BE00001221A700BE0084B1B881846FFF794FF50
:104BF0006420FBF79FFF02E000BF00E000BF00BFA2
:104C000080BD00BF400200204202002080B582B07B
:104C100000AF03463960FB71114B1B78FA799A4259
:104C200001D03B6818E03B6803F00103002B06D07D
:104C30000C4B1B78022B02D00220FFF757FF3B687A
:104C400003F00203002B06D0064B1B78022B02D187
:104C50000020FFF74BFF3B6818460837BD4680BD74
:104C6000440200204002002080B500AF64220021F1
:104C7000324803F029FC314B4FF0FF32DA612F4B01
:104C80003C221A842D4B64225A842C4B64229A8431
:104C90002A4B6422DA84294B64221A85274B64222A
:104CA0005A85264B64229A85244B6422DA85234B4D
:104CB0004FF496721A86214B4FF496725A861F4B08
:104CC00064229A861D4B4FF6FF72A3F842201B4BBD
:104CD0004FF6FF72A3F84420184B4FF6FF72A3F86B
:104CE0004620164B4FF6FF72A3F84820134B4FF6A1
:104CF000FF72A3F84A20114B4FF6FF72A3F84C2025
:104D00000E4B4FF6FF72A3F84E200C4B4FF6FF727E
:104D1000A3F85020094B4FF6FF72A3F85220074B1F
:104D20004FF6FF72A3F85420044B4FF6FF72A3F81E
:104D30005620034B00221A8000BF80BD4C02002089
:104D4000B002002080B584B000AF7860884B0022AC
:104D50001A60874B00225A60854B00229A60844B70
:104D6000DB697A685340BB60814B5A69804B9B6911
:104D700053407F4A53617E4B9B69DB437C4A93617E
:104D80007B4B5A69BB681340794A5361784B9A69E7
:104D9000BB681340764A9361754BDA69744B596965
:104DA000734B9B690B431340714AD361704BDA69B3
:104DB0006F4B59696E4B9B690B43D9437B680B4022
:104DC00013436B4AD3616A4B5A69694B9B6913431E
:104DD000BA685340BB600023FB60A4E00122FB687B
:104DE00002FA03F31A46BB681340002B29D0604B2C
:104DF000DA690121FB6801FA03F31340002B17D194
:104E00005B4AFB6820335B00134400225A80584AF7
:104E1000FB68103332F81330002B12D1544B1B684F
:104E20000121FA6801FA02F21343514A136008E0C3
:104E30004F4B9B680121FA6801FA02F213434C4A76
:104E400093604B4AFB68103332F81330002B67D065
:104E5000474BDB690121FA6801FA02F21340002B8B
:104E60001ED0434AFB6820335B0013445A884049F4
:104E7000FB68103331F813309A4251D23C4AFB6838
:104E800020335B0013444FF6FF725A80384B1B6887
:104E90000121FA6801FA02F21343354A13603FE038
:104EA000334AFB6820335B0013445B884FF6FF7284
:104EB00093420ED02E4AFB6820335B0013445B887C
:104EC000013399B22A4AFB6820335B0013440A4637
:104ED0005A80274AFB6820335B0013445A882449D0
:104EE000FB68103331F813309A4219D1204AFB681D
:104EF00020335B0013444FF6FF725A801C4B1B6932
:104F00000121FA6801FA02F21343194A1361184B9E
:104F10005B680121FA6801FA02F21343144A5360F4
:104F2000FB680133FB60FB68102B7FF657AF00F086
:104F300039F90F4B1B68002B07D10D4B9B68002BD9
:104F400003D10B4B5B68002B0DD00A4B1B781A4624
:104F5000094B53F82230074A1278114643F00103F7
:104F6000054A42F8213000BF1037BD4680BD00BF62
:104F70004C02002026020020D401002080B582B01F
:104F800000AF4FF0FF337B605C4B1B8803F01003D6
:104F9000002B03D07B6823F010037B60574B1B88EA
:104FA00003F00103002B03D07B6823F001037B6037
:104FB000524B1B8803F00203002B03D07B6823F0C5
:104FC00002037B604D4B1B8803F00403002B03D0CE
:104FD0007B6823F004037B60484B1B8803F00803C5
:104FE000002B03D07B6823F008037B60434B1B88B6
:104FF00003F02003002B03D07B6823F020037B60A9
:105000003E4B1B8803F48073002B03D07B6823F492
:1050100080737B60394B1B8803F04003002B03D067
:105020007B6823F040037B60344B1B8803F40073E0
:10503000002B03D07B6823F400737B602F4B1B880D
:1050400003F48063002B03D07B6823F480637B60D0
:105050002A4B1B8803F08003002B03D07B6823F0CE
:1050600080037B604FF40051254801F0D5FB0346D7
:10507000002B03D17B6823F400637B602021204850
:1050800001F0CAFB0346002B03D07B6823F4805356
:105090007B6001211B4801F0BFFB0346002B03D1BD
:1050A0007B6823F400537B601021154801F0B4FBAA
:1050B0000346002B03D17B6823F480437B604FF4CD
:1050C0008071104801F0A8FB0346002B03D17B68D8
:1050D00023F400437B604FF480510A4801F09CFBAD
:1050E0000346002B03D07B6823F480337B60786811
:1050F000FFF728FE00BF0837BD4680BDB002002084
:10510000000C01400008014080B483B000AF0346AA
:10511000FB71054AFB791370044B00221A7000BF23
:105120000C37BD4680BC7047490200204802002071
:1051300080B500AF0F4B1B78022B0FD0022B13DC76
:10514000002B02D0012B11D00EE0FFF78DFD322095
:10515000FBF7F0FC074B02221A7008E0FFF70EFF86
:105160000A20FBF7E7FC02E000BF00E000BF00BF41
:1051700080BD00BF4802002080B483B000AF03466A
:105180003960FB71064B1B78FA799A4201D03B6873
:1051900000E03B6818460C37BD4680BC704700BF36
:1051A0004902002080B483B000AF0D4BDB68DB43C5
:1051B0007B600B4B1A687B681340094A1360084BED
:1051C0005A687B681340064A5360054B9A687B68AF
:1051D0001340034A936000BF0C37BD4680BC704744
:1051E0004C02002080B582B000AF78600B46FB70A7
:1051F0000B4BDA687B68DB431340094AD360084BEA
:10520000DA68FB78012B01D17B6800E000231343AF
:10521000034AD360FFF7C6FF00BF0837BD4680BD15
:105220004C02002080B500AF4021024801F0BCFADA
:1052300000BF80BD0008014080B500AF402102489A
:1052400001F0C1FA00BF80BD0008014080B500AF89
:10525000402301221021034801F0F2F9FFF7ECFF8F
:1052600000BF80BD0008014080B500AFFFF7EEFF32
:1052700000BF80BD80B500AF40F2026001F078FC55
:105280004FF4006301221821024801F0D9F900BF50
:1052900080BD00BF0008014080B588B000AF40F27B
:1052A0000B6001F065FC224801F01EFE7723BB80F5
:1052B0000023FB8000233B814FF4FA63FB60002353
:1052C0007B8100233B743B1D1946194801F0C0FE49
:1052D0000123BB820023FB8200233B8300237B83CB
:1052E0000023BB830023FB8307F114031A46032129
:1052F0000F4802F001F8002203210D4802F04CFA99
:10530000602203210A4802F0E5F90022032108483F
:1053100002F076FA0121064801F0CFFF044801F0BF
:1053200031FF034801F010FF00BF2037BD4680BDAC
:10533000002C014080B500AFFFF79CFFFFF7ACFFEA
:1053400000BF80BD80B500AFFFF7F4FF00BF80BD98
:1053500080B582B000AF78607B68002B02D04FF43C
:105360007A7300E000231A460321034802F014FA7E
:1053700000BF0837BD4680BD002C014080B400AF9F
:10538000074B10221A80074B00221A80064B00227E
:105390001A80064B00221A8000BFBD4680BC7047B1
:1053A0005C030020B402002070030020F8020020FB
:1053B00080B58CB000AF78603C4B1B68BB623C4B47
:1053C0001B687B623B4A07F11C0392E8030083E8F9
:1053D0000300394A07F1140392E8030083E803004D
:1053E000364A07F10C0392E8030083E80300002328
:1053F000FB627B68324A934202D10023FB6205E0E4
:105400007B68304A934201D10123FB62FB6A5B0057
:1054100007F13002134433F80C3C184601F0A8FBA6
:10542000FB6A5B0007F13002134433F8083C18466E
:1054300001F09EFBFB6A9B0007F13002134453F816
:10544000140CFB6A9B0007F13002134453F81C3C18
:105450000322182101F0F4F8FB6A9B0007F13002E7
:10546000134453F8140CFB6A9B0007F130021344F9
:1054700053F8243C0322042101F0E2F8786802F09A
:1054800009FC4FF4E131786802F066FC0421786889
:1054900002F0FFFC0821786802F0DFFC786802F077
:1054A000CBFC00BF3037BD4680BD00BF189400085C
:1054B0001C940008209400082894000830940008E8
:1054C000003801400044004080B588B000AF4FF480
:1054D000A06001F04DFB0321274800F0D1FC01231F
:1054E000BB77264BFB6001237B7700233B610023C6
:1054F0007B61234B7B6000233B770023BB604FF431
:105500004053BB613B1D1A4603211B4800F01EFDA2
:105510000321194800F03FFE0321174800F065FE03
:105520000421154800F0ACFC0023BB7710237B61FD
:10553000144BFB603B1D1A4604210F4800F006FD8A
:1055400004210D4800F0FDFD04210B4800F04DFE44
:105550000321094800F09DFE0421074800F06FFE7A
:105560008021094802F0EFFC4021074802F0CEFC00
:1055700000BF2037BD4680BD000002404C03002024
:1055800004380140600300200038014080B500AFBE
:105590000A48FFF70DFF0A48FFF70AFFFFF794FFDD
:1055A00000220021262001F05BFA40F20531044878
:1055B00002F004FDFFF7E2FE00BF80BD00380140AD
:1055C0000044004080B584B000AF78600B467B801B
:1055D0007B68002B1ED07B88002B1BD00023FB8117
:1055E00013E0FB897A6813441B789BB219460B4879
:1055F00002F06BFC00BF0721084802F0C1FC034623
:10560000002BF8D0FB890133FB81FA897B889A4211
:10561000E7D300E000BF1037BD4680BD0044004026
:1056200080B483B000AF0346FB710E4B1B883F2B49
:1056300011D80C4B1B885A1C91B20A4A118019468A
:10564000094AFB795354FB790A2B04D1054B0022FC
:105650001A80012300E0002318460C37BD4680BCA9
:10566000704700BFB4020020FC02002080B582B069
:1056700000AF124B1B88FB8016E0114B1B881A46AB
:10568000104B9B5C7B710E4B1B8801339AB20C4B09
:105690001A800B4B1B883F2B02D9094B00221A8022
:1056A0007B791846FFF7BCFF054B1B88FA889A42A6
:1056B000E3D100BF00BF0837BD4680BD70030020A6
:1056C000F8020020B802002080B483B000AF034687
:1056D000FB71354B1A78FB791344DAB2324B1A70EE
:1056E000324B1B78032B51D801A252F823F000BF94
:1056F00001570008155700082F5700084F5700089A
:10570000FB79FF2B44D1294B1B780133DAB2274BAD
:105710001A703DE0254B1B780133DAB2234B1A7027
:10572000FB79AA2B36D0214B00221A7032E0204A96
:10573000FB7913701C4AFB7913701E4B00221A7000
:105740001A4B1B780133DAB2184B1A7025E0194B4B
:105750001B780F2B05D8174B1B781946164AFB7977
:105760005354144B1B780133DAB2124B1A70114B9D
:105770001A780F4B1B789A420ED10C4B00221A70EC
:10578000094B1B78002B07D1012307E000BF04E081
:1057900000BF02E000BF00E000BF002318460C3746
:1057A000BD4680BC704700BFAC000020AD000020AB
:1057B000AE000020AF0000203C03002080B582B086
:1057C00000AF00237B710023BB7103213B4800F035
:1057D000ABFD0346002B6DD17B795A1C7A711A46BA
:1057E000374BFF2199547B795A1C7A711A46344BF6
:1057F000AA2199547B795A1C7A711A46304B0021A0
:105800009954304B1B68190E7B795A1C7A711A46D1
:10581000C9B22B4B99542B4B1B68190C7B795A1C22
:105820007A711A46C9B2264B9954264B1B68190A3D
:105830007B795A1C7A711A46C9B2214B9954214B73
:1058400019687B795A1C7A711A46C9B21C4B995453
:105850007B79023BDAB21A4B9A700223FB7108E0A3
:10586000FB79174AD25CBB791344BB71FB790133D6
:10587000FB71FA797B799A42F2D37B795A1C7A715F
:105880001A46BB795B42D9B20D4B995403210B48A0
:1058900000F0FFFC0E220321084800F07EFD7B791A
:1058A0001A460321054800F01EFD0321034800F0BD
:1058B000C6FC00E000BF0837BD4680BD00000240C6
:1058C0004C0300203C02002080B582B000AF0421D0
:1058D000214800F029FD0346FB8026E01F4B1B8872
:1058E000C3F110031E4AD35C7B711C4B1B88013B28
:1058F0009AB21A4B1A80194B1B88002B02D1174BF6
:1059000010221A807B791846FFF7DEFE0346012B32
:105910000BD1144B1B781B021AB2124B5B781BB2D3
:1059200013431BB29AB2104B1A800C4B1B88FA8897
:105930009A42D3D102220421074800F012FD034607
:10594000002B04D00E220421034800F026FD00BFE6
:105950000837BD4680BD00BF000002405C03002048
:10596000600300203C030020B002002080B500AF9F
:10597000FFF724FFFFF7A8FFFFF778FE00BF80BD09
:1059800080B483B000AF78607B6808331B6803F095
:105990000103002B07D17B6808331B687A68083243
:1059A00043F00103136000BF0C37BD4680BC704755
:1059B00080B483B000AF78607B6808331B687A6876
:1059C000083243F00803136000BF7B6808331B688C
:1059D00003F00803002BF8D17B6808331B687A6852
:1059E000083243F00403136000BF7B6808331B6870
:1059F00003F00403002BF8D100BF00BF0C37BD46F5
:105A000080BC704780B483B000AF78607B68083397
:105A10001B687A68083243F48073136000BF0C3748
:105A2000BD4680BC7047000080B483B000AF786092
:105A3000084B1B68074A23F470231360054B1A6850
:105A400004497B6813430B6000BF0C37BD4680BC24
:105A5000704700BF0424014080B485B000AFF860F7
:105A6000B9601346FB71FB79002B27D0BB6803F4A8
:105A70008073002B07D0FB6804331B68FA6804327C
:105A800043F480731360BB6803F48063002B07D07A
:105A9000FB6804331B68FA68043243F480631360C4
:105AA000BB6803F00203002B2FD0FB6808331B6890
:105AB000FA68083243F00203136026E0BB6803F47F
:105AC0008073002B07D0FB6804331B68FA6804322C
:105AD00023F480731360BB6803F48063002B07D04A
