:020000040800F2
:10000000680F0020050D0008110200081D020008FD
:1000100023020008290200082F0200080000000047
:100020000000000000000000000000003502000891
:1000300041020008000000004D02000859020008BB
:100040004D0D00084D0D00084D0D00084D0D000828
:100050004D0D00084D0D0008C90200084D0D0008A7
:100060004D0D00084D0D00084D0D00084D0D000808
:100070004D0D00084D0D00084D0D00084D0D0008F8
:100080004D0D00084D0D00084D0D00084D0D0008E8
:100090004D0D00084D0D00084D0D0008E30200084D
:1000A0004D0D00084D0D00084D0D00084D0D0008C8
:1000B0001F0300086D030008910300084D0D0008A0
:1000C0004D0D00084D0D00084D0D00084D0D0008A8
:1000D0004D0D00084D0D0008750200084D0D00087B
:1000E0004D0D00084D0D00084D0D00084D0D000888
:1000F0004D0D00084D0D00084D0D00084D0D000878
:100100004D0D00084D0D0008E10300084D0D0008DD
:100110004D0D00084D0D000815040008BD04000831
:100120004D0D00084D0D00084D0D00084D0D000847
:1001300001F0FF01102A2BDB10F0070F08D010F898
:10014000013B013A8B422DD010F0070F42B3F6D19C
:10015000F0B441EA012141EA014122F007047FF0B5
:1001600000070023F0E80256083C85EA010586EA0C
:10017000010685FA47F5A3FA87F586FA47F6A5FA48
:1001800087F68EB9EED1F0BC01F0FF0102F0070254
:1001900032B110F8013B013A83EA010313B1F8D1FF
:1001A0000020704701387047002D06BF35460338E0
:1001B000073815F0010F07D1013015F4807F02BF19
:1001C000013015F4C03F0130F0BC0138704700BF6A
:1001D00010B5054C237833B9044B13B10448AFF381
:1001E00000800123237010BD6C000020000000007F
:1001F0004C86000808B5034B1BB103490348AFF315
:10020000008008BD00000000700000204C8600083F
:1002100080B400AF00BFBD4680BC704780B400AF63
:10022000FEE780B400AFFEE780B400AFFEE780B425
:1002300000AFFEE780B400AF00BFBD4680BC704792
:1002400080B400AF00BFBD4680BC704780B400AF33
:1002500000BFBD4680BC704780B500AF044B1B6833
:100260000133034A136001F02BFA00BF80BD00BFC9
:10027000B800002080B500AF0F49104807F026F8FD
:100280000346002B15D00D4806F098FF034618468C
:100290000B4B1B885A1C91B2094A11801A46C1B2F5
:1002A000084B9954064B1B883F2B02D9044B002264
:1002B0001A8000BF80BD00BF050305000044004058
:1002C000540300209C02002080B500AF012005F0FF
:1002D00079FA0346002B02D0012005F087FA00BF0F
:1002E00080BD80B500AF4FF4007005F06BFA034697
:1002F000012B05D101F014F84FF4007005F076FAE7
:100300004FF4807005F05EFA0346012B05D103F02F
:100310007DFC4FF4807005F069FA00BF80BD80B5A8
:1003200000AF04214FF0804006F002F90346012B94
:100330000DD101214FF0804006F0E2FD0346184642
:1003400001F03EF804214FF0804006F00EF9012143
:100350004FF0804006F0ECF80346012B04D1012158
:100360004FF0804006F001F900BF80BD80B500AFBE
:100370000121064806F0DCF80346012B03D10121D8
:10038000024806F0F2F800BF80BD00BF0004004044
:1003900080B500AF01210F4806F0CAF80346012BD3
:1003A00016D180210C4805F067FB0A4806F043F897
:1003B0000121084806F0D9F80021084806F078F82D
:1003C0004FF41671054806F063F8044806F024F867
:1003D00000BF80BD00080040000C0140000C004040
:1003E00080B500AF0121094806F0A2F80346012BB1
:1003F0000AD18021064805F04EFB044806F01BF8A0
:100400000121024806F0B1F800BF80BD000C004099
:10041000000C014080B500AF0121204806F088F8AB
:100420000346012B38D11E4B1B78012B04D18021B0
:100430001C4805F021FB1CE01B4B1B78012B18D13D
:100440001A4B1B78012B03D1194B1B78012B03D8B6
:100450004021184805F010FB154B1B780133DAB228
:10046000134B1A70124B1B780A2B02D1104B00222F
:100470001A700A4805F0DFFF0121084806F075F8F8
:1004800000210D4806F014F841F69C010A4805F0D9
:10049000FFFF094805F0C0FF00BF80BD001000400D
:1004A000FE01002000080140FD01002000020020A4
:1004B000FC010020000C01400014004080B500AF9A
:1004C00001210B4806F034F80346012B0ED18021A0
:1004D000084805F0E0FA4021074805F0DCFA044836
:1004E00005F0A9FF0121024806F03FF800BF80BDDA
:1004F0000014004000080140000C014080B582B0AB
:1005000000AF00237B6000F0E5F803F041FC03F04E
:1005100053FC00F0CBFD03F089FB04F09FF903F0DE
:100520000BFC04F077F801F077F800F077F8002082
:1005300005F050FD03461946214807F035F9012022
:1005400005F048FD034619461E4807F02DF9022024
:1005500005F040FD034619461B4807F025F9032026
:1005600005F038FD03461946184807F01DF907F055
:10057000E7F878607B681B0EDBB219467B681B0CC2
:10058000DBB21A467B681B0ADBB2114807F00CF994
:1005900000F0EEF90F4A1049104800F061FA104AD5
:1005A0001049114800F05CFA104A1149114800F056
:1005B00057FA00F049F9002318460837BD4680BDB8
:1005C0006486000874860008848600089486000803
:1005D000A4860008994400085144000829440008F2
:1005E000D13A0008813A0008593A0008C139000898
:1005F00029390008F538000880B584B000AF78606C
:100600007B68DBB2FB7307F10F030121184604F08E
:1006100041F97B6818461037BD4680BD80B500AFF4
:1006200005F0F2F8062140F6FF7005F01DF905F01F
:1006300003F905F0F5F800BF80BD000080B483B079
:1006400000AF03463960FB7197F90730002B0BDAD6
:100650003B68DAB20C49FB7903F00F03043B12014B
:10066000D2B20B441A7609E03B68DAB2074997F92F
:1006700007301201D2B20B4483F8002300BF0C37BD
:10068000BD4680BC704700BF00ED00E000E100E027
:1006900080B582B000AF78607B68013BB3F1807FAA
:1006A00001D301230FE00A4A7B68013B53600F210D
:1006B0004FF0FF30FFF7C2FF054B00229A60044B5A
:1006C00007221A60002318460837BD4680BD00BFC8
:1006D00010E000E080B500AF094B1B68094AA2FB9F
:1006E00003239B091846FFF7D3FF0346002B00D0D6
:1006F000FEE700214FF0FF30FFF7A0FF00BF80BDF5
:1007000004000020D34D621080B483B000AF786045
:100710007B68002B0DD0094B1A687B681344084A8C
:10072000136000BF054B1A68054B1B689A42F9D14C
:1007300000E000BF0C37BD4680BC7047B800002009
:100740008800002080B400AF024B1B681846BD46ED
:1007500080BC7047B800002080B582B000AF002395
:10076000FB71FFF7EFFF38605BE00023FB7123E0D4
:10077000FB79314A52F82330002B1AD0FB792E4AEC
:1007800052F82320013A2C4941F82320FB792A4AC8
:1007900052F82330002B0CD1FB79012202FA03F32B
:1007A0001AB2264B1B881BB213431BB29AB2234BBF
:1007B0001A80FB790133FB71FB79022BD8D9002316
:1007C000FB7126E0FB791E4A1B01134408331B68AA
:1007D000002B1BD0FB791A491A010A44083212680F
:1007E000013A17491B010B4408331A60FB79144A7C
:1007F0001B01134408331B68002B07D1FB79104AF7
:100800001B011A44137843F010031370FB79013372
:10081000FB71FB790F2BD5D90A4B1B680133094AB1
:100820001360084B1B683A689A429ED100BF00BF14
:100830000837BD4680BD00BFDC010020BC010020A0
:10084000BC000020E801002080B582B000AFFFF7B7
:1008500083FF04F0FDFF404B1B781A463F4B53F8D3
:100860002230002B16D03C4B1B781A463C4B53F8D9
:100870002230394A1278384909780846374951F800
:10088000201010469847344B1B781946334B0022F2
:1008900043F82120334B1B881A462F4B1B7842FA12
:1008A00003F303F00103002B06D02B4B1B781A46F1
:1008B0002D4B53F8223098470023FB713AE0FB7927
:1008C0002A4A1B0113441B78C3F30303DBB21A4605
:1008D000214B1B789A4229D1FB79244A1B011344EE
:1008E0001B78C3F30013DBB2002B20D0FB791F4A27
:1008F0001B011A44137843F00F031370FB791B4A52
:100900001B011A4413786FF304131370FB79174A11
:100910001B0113440C331B68002B08D0FB79134ACE
:100920001B0113440C331B68984700E000BFFB79A0
:100930000133FB71FB790F2BC1D9074B1B780133B6
:10094000DAB2054B1A70044B1B78032B7FF47FAF90
:10095000014B00221A707AE7EC010020D001002040
:10096000F0010020BC010020C0010020BC000020DC
:1009700080B582B000AF324B00221A70314B00229A
:100980001A80FFF7DFFE03462F4A13600023FB7136
:100990000CE0FB792D4A002142F82310FB792C4A08
:1009A000002142F82310FB790133FB71FB79022B04
:1009B000EFD90023FB7128E0FB79264A1B011A447A
:1009C000137843F00F031370FB79224A1B011A447A
:1009D00013786FF304131370FB791E4A1B01134441
:1009E00004334FF0FF321A60FB791A4A1B0113449B
:1009F000083300221A60FB79164A1B0113440C339A
:100A000000221A60FB790133FB71FB790F2BD3D9DC
:100A10000023FB710CE0FB790F4A002142F8231000
:100A2000FB790E4A002142F82310FB790133FB7158
:100A3000FB79022BEFD900BF00BF0837BD4680BD50
:100A4000EC010020BC010020E8010020D0010020C2
:100A5000DC010020BC000020C0010020F0010020CB
:100A600080B586B000AFF860B9607A600023FB758E
:100A700008E0FB7D184A52F82330002B06D0FB7D9E
:100A80000133FB75FB7D022BF3D900E000BFFB7D3A
:100A9000032B01D100231BE0FB7D0F49BA6841F80D
:100AA0002320FB7D0D497A6841F82320FA7DFB68FD
:100AB00010469847FB7D012202FA03F31AB2084B55
:100AC0001B881BB213431BB29AB2054B1A80012339
:100AD00018461837BD4680BDC0010020F001002037
:100AE000BC01002080B483B000AF0346FB71FB79EA
:100AF000012202FA03F31AB2064B1B881BB21343FE
:100B00001BB29AB2034B1A8000BF0C37BD4680BCA3
:100B1000704700BFBC01002080B483B000AF786094
:100B20007B68002B17D00E4B1B781A46012393408D
:100B30001BB2DB431AB20B4B1B881BB213401BB218
:100B40009AB2084B1A80064B1B781946064A7B68F6
:100B500042F8213000E000BF0C37BD4680BC704732
:100B6000EC010020BC010020DC01002080B487B033
:100B700000AFF860B9607A600023FB7536E0FB7D5A
:100B80003C4A1B01134404331B68FA689A422AD179
:100B9000394B1A78FB7D02F00F02D1B2354A1B01A6
:100BA0001A44137861F303031370FB7D314A1B0170
:100BB00013440C337A681A60FB7D2E4A1B011344E0
:100BC0000433FA681A60FB7D2A4A1B011344083378
:100BD000BA681A60FB7D274A1B011A4413786FF329
:100BE0000413137042E0FB7D0133FB75FB7D0F2B7B
:100BF000C5D90023FB7536E0FB7D1E4A1B0113445B
:100C000004331B68B3F1FF3F2AD11B4B1A78FB7DDD
:100C100002F00F02D1B2174A1B011A44137861F394
:100C200003031370FB7D134A1B0113440C337A68D2
:100C30001A60FB7D0F4A1B0113440433FA681A60E3
:100C4000FB7D0C4A1B0113440833BA681A60FB7D14
:100C5000084A1B011A4413786FF30413137005E05C
:100C6000FB7D0133FB75FB7D0F2BC5D91C37BD46C2
:100C700080BC7047BC000020EC01002080B485B02F
:100C800000AF78600023FB7332E0FB7B1C4A1B0142
:100C9000134404331B687A689A4226D1FB7B184AB6
:100CA0001B011A44137843F00F031370FB7B144AA3
:100CB0001B0113440C3300221A60FB7B104A1B01FA
:100CC000134404334FF0FF321A60FB7B0C4A1B01C4
:100CD0001344083300221A60FB7B094A1B011A44A3
:100CE00013786FF30413137005E0FB7B0133FB7380
:100CF000FB7B0F2BC9D91437BD4680BC704700BFA2
:100D0000BC000020002103E00B4B5B584350043132
:100D10000A480B4B42189A42F6D30A4A02E00023D3
:100D200042F8043B084B9A42F9D306F0B3FB06F0B5
:100D30000FFDFFF7E3FB7047C087000800000020AD
:100D40006C0000206C00002068030020FEE700001B
:100D500080B500AF40F2036005F072F840F2026027
:100D600005F06EF840F2026005F06AF840F20360A8
:100D700005F066F840F2036005F062F840230122B6
:100D80001021154804F0C4FD4021134804F083FEEF
:100D9000802301221021104804F0BAFD80210E4862
:100DA00004F079FE4FF40073012248210A4804F050
:100DB000AFFD802301221021084804F0A9FD802105
:100DC000064804F068FE022301224821034804F08B
:100DD0009FFD00BF80BD00BF000C01400008014026
:100DE00080B500AF4FF4C06005F02AF8092101205A
:100DF00004F014FF022200214FF4007004F068FC9C
:100E00004FF4007004F0F2FC00220021172004F0DF
:100E10008FFF00BF80BD80B588B000AF78600B4603
:100E20007B807B88184605F00BF8786805F0C4F9DC
:100E300007F11003184605F057FA77233B82002389
:100E40007B820023BB824FF6FF73BB610023FB82D2
:100E500007F110031946786805F062FA07F10803F4
:100E6000184605F097FE00233B8101237B81002378
:100E7000BB810423FB8107F108031A46012178682E
:100E800005F09EFE0421786805F03FFB012178689B
:100E900005F03BFB002202211C2004F049FF78688A
:100EA00005F0BAFA00BF2037BD4680BD80B586B0D8
:100EB00000AF78600B467B807B88184604F0C0FF4B
:100EC000786805F079F907F10803184605F00CFA7F
:100ED00077233B8100237B810023BB8144F6206381
:100EE0003B610023FB8107F108031946786805F090
:100EF00017FA0021786805F0EBFA786805F0B9FA7E
:100F00000121786805F001FB7B681D4A934226D0D9
:100F10007B681B4A934228D87B681A4A934218D0B0
:100F20007B68184A934220D87B68174A934204D0C2
:100F30007B68164A934206D017E0002201211E204A
:100F400004F0F6FE12E000220121322004F0F0FE4F
:100F50000CE000220121362004F0EAFE06E0002227
:100F60000121372004F0E4FE00E000BF786805F0BE
:100F700053FA786805F05FFA00BF1837BD4680BDA8
:100F8000001400400010004000080040000C004029
:100F900080B500AF8021094804F07DFD084805F0C8
:100FA0004AFA084805F047FA0121054805F0DDFA3C
:100FB0000121044805F0D9FA00BF80BD000C0140B2
:100FC00000080040000C004080B500AF40210948F7
:100FD00004F061FD084805F02EFA084805F02BFAE8
:100FE0000121054805F0C1FA0121044805F0BDFAC8
:100FF00000BF80BD000C0140001000400014004004
:1010000080B500AF8021094804F045FD084805F08F
:1010100012FA084805F00FFA0121054805F0A5FA73
:101020000121044805F0A1FA00BF80BD000801407D
:10103000001000400014004080B485B000AF0346AB
:10104000FB8042F21073FB81FB88B42B01D9B423DF
:10105000FB80FB88FA8902FB03F39B08044AA2FB8E
:1010600003239B089BB218461437BD4680BC7047CB
:10107000176CC11680B485B000AF0346FB8042F206
:101080008D03FB81FA88FB899A4201D9FB89FB8099
:1010900072B600BF044AFB88138062B600BF00BF6F
:1010A0001437BD4680BC70478C00002080B500AF6F
:1010B000FFF74EFEFFF794FE4FF4E0614FF08040E3
:1010C000FFF7A9FE40F204711A48FFF7EFFE40F265
:1010D00005711948FFF7EAFE40F202711748FFF761
:1010E000E5FE40F203711648FFF7E0FE154B0022C3
:1010F0001A70154B00221A70144B00221A70144BF0
:1011000000221A70134B00221A80134B00221A80FF
:10111000124B00221A80124B00221A80FFF712FB9A
:101120000346104A13600F4B1B680F4A136000BF41
:1011300080BD00BF001000400014004000080040C7
:10114000000C004001020020FD010020FE010020F3
:10115000FF0100208C0000208E0000209200002063
:1011600090000020940000209800002080B500AF7F
:10117000084B1B78012B0BD0064B01221A70064B33
:1011800000221A70FFF7DEFA0346044A136000E0FB
:1011900000BF80BD01020020FF010020940000205C
:1011A00080B582B000AF0346FB710D4B1B78012B5D
:1011B00011D00C4AFB7913700B4B00221A70084BAC
:1011C00001221A70094B00221A70FFF7BBFA03467E
:1011D000074A136000E000BF0837BD4680BD00BF6E
:1011E000FD01002000020020FC010020FF01002082
:1011F0009400002080B584B000AF0346FB801F4BF5
:101200001B78012B35D01D4B1B78022B31D0FB886E
:10121000B3F5FA6F02D94FF4FA63FB80184AFB88E2
:101220001380174B1B881A46B42303FB02F3154A9D
:10123000A2FB0323DB09FB81FB89092B01D80A23CD
:10124000FB81FB891846FFF7F7FE03461846FFF7B8
:1012500011FF0A4B01221A700B4B00221A70FFF784
:1012600071FA0346094A1360084B1B68084A136069
:1012700000E000BF1037BD4680BD00BFFE0100206A
:1012800090000020D34D6210FF0100209400002048
:101290009800002080B500AF72B600BF084B002256
:1012A0001A70084B00221A70074B00221A80074B55
:1012B00000221A8062B600BFFFF7A2FE00BF80BD09
:1012C000FE010020FF010020900000208C00002083
:1012D00080B500AF72B600BF054B00221A70054BF7
:1012E00000221A7062B600BFFFF76EFE00BF80BD1D
:1012F000FD010020FF01002080B500AF72B600BFE5
:10130000054B00221A70054B00221A7062B600BF0E
:10131000FFF73EFE00BF80BD01020020FF0100205C
:1013200080B500AF204B1B78012B0ED1FFF768FE74
:1013300000211E4805F0BCF84FF496711B4805F0DB
:10134000A7F81A4805F068F816E0194B1B78012B2E
:101350000ED1FFF739FE0021144805F0A9F84FF42B
:101360009671124805F094F8104805F055F803E01E
:10137000FFF746FEFFF728FEFFF70AFE0D4B1B782E
:10138000012B0AD100210C4805F092F864210A488B
:1013900005F07EF8084805F03FF8FFF7D3F903465B
:1013A000064A136000BF80BDFE010020001000400F
:1013B000FD010020010200200008004094000020F0
:1013C00080B584B000AF78601B4B1B687A689A4286
:1013D00005D3194B1B687A68D31AFB6007E0164BDC
:1013E0001B687A68D31A03F57F43FF33FB60FB6801
:1013F000642B19D9FB68114A934215D8104AFB682F
:101400001360104AFB68B2FBF3F3BB60BB689BB28E
:101410001A461201D31A9B009AB20B4B1A80FFF79F
:1014200091F90346094A1360034A7B68136000BFC1
:101430001037BD4680BD00BF9C0000201FA10700E3
:10144000A000002040420F009200002098000020E1
:1014500080B500AF40F2036004F0F2FC40F202609D
:1014600004F0EEFC4FF4A06004F0EAFC40F20960E6
:1014700004F0E6FC40F20A6004F0E2FC022004F012
:1014800047FD00BF80BD000080B500AF01230422EE
:101490000021084804F03CFA0223042200210548F8
:1014A00004F036FA102304220021034804F030FA35
:1014B00000BF80BD000C01400008014080B588B02D
:1014C00000AF0021144803F043FE144B7B6000235F
:1014D0003B77134BFB6001237B774FF40073BB60BA
:1014E0004FF400633B610023BB7703237B614FF420
:1014F0000053BB613B1D1A460021074803F08EFED6
:101500000021054803F085FF0021034803F0FFFF99
:1015100000BF2037BD4680BD000002404C24014082
:101520000402002080B500AF4FF4C02003F0E4FBBC
:101530000021374803F056FC0021364803F052FCE6
:1015400001224FF48071324803F0EEFB01224FF488
:101550008071304803F0E8FB032201212C4803F09E
:101560005FFC032201212B4803F05AFC07230422CD
:101570000021274803F090FC07230822012124487A
:1015800003F08AFC072309220221214803F084FC8E
:101590000723082200211F4803F07EFC07230922AD
:1015A00001211C4803F078FC07230422022119487A
:1015B00003F072FC4FF460220121154803F06DFD29
:1015C0004FF460220121134803F067FD012201213D
:1015D0000F4803F01DFD012201210E4803F018FD04
:1015E0000B4803F035FB0120FFF78EF8084803F0A5
:1015F00047FB084803F02CFB0120FFF785F805485E
:1016000003F03EFB024803F065FB00BF80BD00BF56
:10161000002401400028014080B500AFFFF718FF0B
:10162000FFF732FFFFF74AFFFFF77CFF00BF80BDE7
:1016300080B485B000AF0346FB710023FB60FB79EB
:10164000022B22D0022B2EDC002B02D0012B0ED03D
:1016500029E01A4B1B689BB2FB60184B9B681B0C64
:10166000FA681344FB60FB685B08FB601CE0134BEB
:101670005B689BB2FB60114B1B681B0CFA68134440
:10168000FB60FB685B08FB600EE00C4B9B689BB249
:10169000FB600A4B5B681B0CFA681344FB60FB6839
:1016A0005B08FB6000E000BFFB689BB2C3F30B0369
:1016B0009BB218461437BD4680BC70470402002018
:1016C00080B582B000AF0020FFF7B2FF0346FB8079
:1016D000084B1B88FA88934238BF13469AB2054BD1
:1016E0001A800121044803F00EFD00BF0837BD46F3
:1016F00080BD00BF100200200024014080B500AF73
:101700004FF400410A4804F003FA0346C3F1010311
:10171000DBB21A464FF40041054804F0CBF9054A04
:101720000A214FF40040FFF721FA00BF80BD00BF3F
:1017300000080140FD16000880B500AF094B1B787A
:10174000013BDAB2074B1A70064B1B78002B07D00F
:10175000012002F065FF044A50210120FFF706FA3C
:1017600000BF80BD150200206D17000880B500AFD6
:10177000002002F055FF034A50210120FFF7F6F93F
:1017800000BF80BD3917000880B582B000AF0346A6
:10179000FB71FB79002B0BD00A4AFB7913700120F7
:1017A00002F03EFF084A50210120FFF7DFF905E073
:1017B000002002F035FF0120FFF760FA00BF083774
:1017C000BD4680BD150200206D17000880B483B0AF
:1017D00000AF0346FB71FB79013B0A2B18D801A22D
:1017E00052F823F011180008111800081118000809
:1017F0001118000811180008111800081118000825
:101800001118000811180008111800081118000814
:1018100000BF00BF0C37BD4680BC704780B582B0AA
:1018200000AF0346FB71FB79013B0A2B20D801A2D4
:1018300052F823F0711800086118000861180008B8
:101840006118000861180008611800086118000894
:10185000611800086118000871180008691800086C
:101860000220FFF70BFA04E00220FFF707FA00E07E
:1018700000BF00BF0837BD4680BD00BF80B582B045
:1018800000AF03460A46FB711346BB710B4B1B7836
:101890001846FFF7C3FFFB791846FFF797FF084B81
:1018A0001B781846FFF71EF9064ABB791370034AE6
:1018B000FB79137000BF0837BD4680BD14020020BD
:1018C000160200202102002080B582B000AF03463E
:1018D000FB71064B1B781846FFF704F9044AFB79A5
:1018E000137000BF0837BD4680BD00BF1602002040
:1018F0002102002080B400AF054BDB691B0CDBB27A
:1019000003F00103DBB21846BD4680BC704700BF40
:101910003002002080B400AF054BDB69DB0ADBB28C
:1019200003F00103DBB21846BD4680BC704700BF20
:101930003002002080B400AF064BDB6903F40043A3
:10194000002B0CBF01230023DBB21846BD4680BC30
:10195000704700BF3002002080B584B000AF03465E
:10196000FB710220FFF764FE0346FB81002318464B
:101970001037BD4680BD000080B483B000AF034681
:10198000FB71064B1B78FA799A420CBF01230023A6
:10199000DBB218460C37BD4680BC704714020020ED
:1019A00080B582B000AF1F4B3B600023FB7116E097
:1019B000FB7907F10802134413F8082C1A4B1B7823
:1019C0001946FB7941FA03F3DBB203F00103DBB202
:1019D0001946104602F068F9FB790133FB71FB7977
:1019E000032BE5D9104B1B785B00DAB20E4B1A7053
:1019F0000D4B1B781A46FB7942FA03F303F00103FF
:101A0000002B05D0084B1B780133DAB2064B1A7055
:101A1000064A4FF4FA710220FFF7A8F800BF083712
:101A2000BD4680BD0C0F12151A020020A119000836
:101A300080B500AF084B03221A70002000F010F9A7
:101A400001210C2002F030F9044A4FF4FA7102200F
:101A5000FFF78CF800BF80BD1A020020A119000812
:101A600080B500AF0221052002F01EF9034A4FF4B1
:101A7000FA710220FFF77AF800BF80BD611A0008F2
:101A800080B500AF0121052002F00EF9034A4FF4A2
:101A9000FA710220FFF76AF800BF80BD611A0008E2
:101AA00080B500AF0C4B1B78002B04D102210C2019
:101AB00002F0FAF807E0084B1B78012B03D1022152
:101AC000092002F0F1F8054A4FF4FA710220FFF7FD
:101AD0004DF800BF80BD00BF1C020020A11A000805
:101AE00080B500AF0C4B1B78002B04D101210C20DA
:101AF00002F0DAF807E0084B1B78012B03D1012133
:101B0000092002F0D1F8054A4FF4FA710220FFF7DC
:101B10002DF800BF80BD00BF1C020020A11A0008E4
:101B200080B500AF02210F2002F0BEF8034A4FF447
:101B30007A710220FFF71AF800BF80BD211B000850
:101B400080B500AF01210F2002F0AEF8034A4FF438
:101B50007A710220FFF70AF800BF80BD211B000840
:101B600080B500AF0221152002F09EF8034A4FF421
:101B70007A710220FEF7FAFF00BF80BD611B0008EA
:101B800080B500AF0121152002F08EF8034A4FF412
:101B90007A710220FEF7EAFF00BF80BD611B0008DA
:101BA00080B500AF0221122002F07EF8034A4FF404
:101BB0007A710220FEF7DAFF00BF80BDA11B00088A
:101BC00080B500AF0121122002F06EF8034A4FF4F5
:101BD0007A710220FEF7CAFF00BF80BDA11B00087A
:101BE00080B500AF0221112002F05EF8034A4FF4E5
:101BF0007A710220FEF7BAFF00BF80BDE11B00082A
:101C000080B500AF0121112002F04EF8034A4FF4D5
:101C10007A710220FEF7AAFF00BF80BDE11B000819
:101C200080B500AF0221022002F03EF8034A4FF4D3
:101C30007A710220FEF79AFF00BF80BD211C0008C8
:101C400080B500AF0121022002F02EF8034A4FF4C4
:101C50007A710220FEF78AFF00BF80BD211C0008B8
:101C600080B582B000AF0346FB71FB7919461220A4
:101C700002F01AF8FB791946152002F015F8FB79E5
:101C800019460C2002F010F8FB7919460F2002F0DB
:101C90000BF8FB7919461A2002F006F8FB79002BA5
:101CA00013D1FB791946092001F0FEFFFB79194693
:101CB000062001F0F9FFFB791946112001F0F4FF2D
:101CC000FB791946022001F0EFFF00BF0837BD463F
:101CD00080BD80B582B000AF0346FB71FB79194629
:101CE000012001F0E1FFFB7919460A2001F0DCFF39
:101CF000FB7919460D2001F0D7FFFB791946132017
:101D000001F0D2FFFB791946042001F0CDFFFB79E9
:101D10001946192001F0C8FFFB791946102001F07F
:101D2000C3FF00BF0837BD4680BD80B500AF0C20A3
:101D300001F0ECFF0346002B07D00F2001F0E6FF77
:101D40000346002B01D0012300E00023184680BD8C
:101D500080B500AF0020FFF783FF0020FFF7B9FF39
:101D60000021052001F0A0FF0120FFF779FF00BF4F
:101D700080BD000080B500AF514B1B78072B00F2EF
:101D80009C8001A252F823F0A91D0008A91D00089B
:101D9000B31D0008B31D0008E71D0008871E0008DA
:101DA000871E0008871E000800210220FFF766FD3D
:101DB00084E0444B1B78012B10D104210B20FFF74A
:101DC0005DFD0020FFF74CFF0020FFF782FF0021A0
:101DD000052001F069FFFFF72BFE6FE000210A20CC
:101DE000FFF74CFD6AE0384B1B78142B49D801A251
:101DF00052F823F0491E0008491E0008491E000839
:101E0000491E0008491E0008491E0008491E000816
:101E1000531E0008531E00085D1E00085D1E0008CA
:101E2000671E0008671E0008711E0008711E00086A
:101E3000711E0008711E0008711E0008711E000846
:101E4000711E0008711E000800210B20FFF716FD0F
:101E500018E001210B20FFF711FD13E002210B20F8
:101E6000FFF70CFD0EE003210B20FFF707FD09E053
:101E7000164B00221A70164B01221A70FFF7D8FD7C
:101E800000E000BF1AE00F4B1B78012B10D104219A
:101E90000B20FFF7F3FC0020FFF7E2FE0020FFF726
:101EA00018FF0021052001F0FFFEFFF7C1FD05E04E
:101EB00000210A20FFF7E2FC00E000BF00BF80BD68
:101EC000140200201F020020210200202002002016
:101ED0001B02002080B582B000AF0023FB712D4BA8
:101EE0001B78032B02D0042B4AD04DE02A4B1B78E1
:101EF000023B0A2B42D801A252F823F0291F000806
:101F00007D1F0008371F00087D1F0008451F0008BF
:101F10007D1F0008531F00087D1F0008611F000877
:101F20007D1F00086F1F000800210420FFF7A6FC9A
:101F30000123FB7123E000210520FFF79FFC012313
:101F4000FB711CE000210620FFF798FC0123FB71C8
:101F500015E000210720FFF791FC0123FB710EE043
:101F600000210820FFF78AFC0123FB7107E0002114
:101F70000920FFF783FC0123FB7100E000BF03E0B1
:101F8000064B00221A7000BFFB7918460837BD4681
:101F900080BD00BF1402002021020020200200208A
:101FA00080B582B000AF0023FB710B4B1B78032B75
:101FB0000CD10A4B1B78053B012B03D90520FFF7F9
:101FC00083FC00E000BF0123FB7100E000BFFB7950
:101FD00018460837BD4680BD1402002021020020AB
:101FE00080B582B000AF0023FB711C4B1B78032B24
:101FF0002ED11B4B1B78013B012B22D8194B1B7890
:102000000133DAB2174B1A70164B1B7803F0010339
:10201000DAB2144B1A7000210C2001F045FE0021A9
:10202000092001F041FE0F4B1B78002B04D0012149
:10203000092001F039FE08E001210C2001F034FEF6
:1020400003E00120FFF740FC00BF0123FB7100E02B
:1020500000BFFB7918460837BD4680BD140200203A
:10206000210200201C02002080B582B000AF0023B6
:10207000FB710B4B1B78032B0CD10A4B1B78073BD6
:10208000012B03D90720FFF71FFC00E000BF01234D
:10209000FB7100E000BFFB7918460837BD4680BDE4
:1020A000140200202102002080B582B000AF00237E
:1020B000FB711C4B1B78032B2ED11B4B1B78033B56
:1020C000012B22D8194B1B780133DAB2174B1A7047
:1020D000164B1B7803F00103DAB2144B1A7000217F
:1020E0000F2001F0E1FD0021062001F0DDFD0F4B86
:1020F0001B78002B04D00121062001F0D5FD08E05B
:1021000001210F2001F0D0FD03E00320FFF7DCFBED
:1021100000BF0123FB7100E000BFFB7918460837C0
:10212000BD4680BD14020020210200201C020020B8
:1021300080B582B000AF0023FB711E4B1B78032BD0
:1021400031D11D4B1B78022B01D0042B29D100214A
:10215000132001F0A9FD00210D2001F0A5FD174B72
:102160005B780133DAB2154B5A70144B5B78032B52
:1021700006D0032B11DC012B0AD0022B04D00CE07B
:102180000E4B00225A7009E00121132001F08CFD52
:1021900001210D2001F088FD00E000BF0123FB714B
:1021A00000E000BF00E000BFFB7918460837BD46DD
:1021B00080BD00BF14020020210200201C0200206C
:1021C00080B582B000AF0023FB71254B1B78032B39
:1021D00040D1244B1B78062B8CBF01220022D2B2A7
:1021E000002A35D1012202FA03F303F05403002B35
:1021F00014BF01230023DBB2002B29D000211020C3
:1022000001F052FD0021192001F04EFD164B9B7884
:102210000133DAB2144B9A70134B9B78032B06D020
:10222000032B11DC012B0AD0022B04D00CE00E4B47
:1022300000229A7009E00121102001F035FD0121F2
:10224000192001F031FD00E000BF0123FB7100E027
:1022500000BF00E000BFFB7918460837BD4680BDCF
:1022600014020020210200201C02002080B582B050
:1022700000AF0023FB710B4B1B78032B0CD10A4BD7
:102280001B780B3B012B03D90B20FFF71DFB00E054
:1022900000BF0123FB7100E000BFFB79184608373F
:1022A000BD4680BD140200202102002080B582B00E
:1022B00000AF0023FB710B4B1B78032B0CD10A4B97
:1022C0001B78093B012B03D90920FFF7FDFA00E039
:1022D00000BF0123FB7100E000BFFB7918460837FF
:1022E000BD4680BD140200202102002080B400AF52
:1022F000034B1B78032B00BF00BFBD4680BC70475B
:102300001402002080B582B000AF78607B685B6803
:1023100003F00103002B02D00120FFF735FA7B68A0
:102320009B6803F00103002B19D07B681B6903F045
:102330000103002B02D0FFF71DFD0AE00120FFF78B
:102340001BFB0346002B04D10120FFF71DFAFFF70A
:1023500011FD7B681B6923F001027B681A617B68B1
:102360009B6803F01003002B07D0FFF7B3FD034673
:10237000002B02D00120FFF707FA7B689B6803F06F
:102380000403002B07D0FFF72BFE0346002B02D0DF
:102390000120FFF7F9F97B689B6803F02003002B0D
:1023A00007D0FFF781FE0346002B02D00120FFF784
:1023B000EBF97B689B6803F00203002B07D0FFF763
:1023C000EFFD0346002B02D00120FFF7DDF97B680B
:1023D0009B6803F00803002B07D0FFF745FE034678
:1023E000002B02D00120FFF7CFF97B689B6803F038
:1023F0004003002B07D0FFF79BFE0346002B02D0C3
:102400000120FFF7C1F97B689B6803F48063002B10
:1024100007D0FFF7D5FE0346002B02D00120FFF7BF
:10242000B3F97B685B6803F40073002B07D0FFF7F8
:102430001DFF0346002B02D00120FFF7A5F97B68A2
:102440005B6803F48073002B07D0FFF72FFF034670
:10245000002B02D00120FFF797F97B689B6803F0FF
:102460008003002B01D0FFF741FF00BF0837BD46B6
:1024700080BD000080B500AF114B1B78022B17D038
:10248000022B1ADC002B02D0012B0AD015E00D4ADA
:102490000A214FF40040FEF769FB094B01221A7034
:1024A0000CE00220FEF738FB054B02221A7005E013
:1024B00000210120FFF7E2F900E000BF00BF80BD6E
:1024C00021020020FD16000880B500AF094B1B78E3
:1024D000002B02D0012B06D00AE001F0D9FB054BFE
:1024E00001221A7004E04FF4FA70FEF715FB00BFEA
:1024F00000BF80BD2102002080B500AFC04B1B781B
:10250000102B00F2B18101A252F823F051250008EE
:102510008B250008B5250008F725000811260008BE
:102520004926000875260008AF260008C9260008BD
:102530000327000817270008472700086B27000813
:10254000AD270008CF270008092800083128000817
:10255000AB4B01221A70FFF7DDF90346002B06D1C1
:102560000121082001F0A0FBA54B10221A70FFF7F3
:10257000C1F90346002B40F0798101210E2001F0C2
:1025800093FB9F4B10221A7070E1FFF751FA01F094
:102590002DFB012001F0F8FA0121012001F0B2FF2A
:1025A000974B02221A70974B14221A806420FEF770
:1025B000B3FA5EE101F010FB0346002B0ED0FFF7EB
:1025C000B9F90346012B09D08E4B1B88013B9AB207
:1025D0008C4B1A808B4B1B88002B08D101F0C2FA60
:1025E000C820FEF799FA864B03221A7041E1642055
:1025F000FEF792FA3DE1022001F0C6FA6420FEF7F0
:102600008BFA804B03221A807D4B04221A7030E132
:1026100001F0E2FA0346002B09D07A4B1B88013BFC
:102620009AB2784B1A80774B1B88002B08D101F0A7
:1026300099FA0021012001F065FF714B05221A7003
:102640006420FEF769FA14E15020FFF785F903468C
:10265000012B03D16A4B0F221A7007E0FEF786FDAB
:10266000684B96221A80664B06221A706420FEF789
:1026700053FAFEE05020FFF76FF90346012B09D013
:10268000604B1B88013B9AB25E4B1A805D4B1B88E6
:10269000002B08D1FEF730FE0121052001F004FBDC
:1026A000574B07221A706420FEF736FAE1E0022049
:1026B00001F06AFA6420FEF72FFA524B3C221A808E
:1026C0004F4B08221A70D4E001F086FA0346002B23
:1026D0000ED0FFF72FF90346012B09D0494B1B8879
:1026E000013B9AB2474B1A80464B1B88002B04D102
:1026F00001F038FA424B09221A706420FEF70CFAF6
:10270000B7E00020FEF74CFD3E4B64221A803C4BA4
:102710000A221A70ADE03B4B1B88013B9AB2394B41
:102720001A80384B1B88002B09D1FEF7D1FD41F2EE
:102730007070FEF7F1F9324B0B221A7099E06420A9
:10274000FEF7EAF995E00121012001F0DBFE4FF4EC
:10275000FA70FEF7E1F9012001F016FA294B3C224C
:102760001A80274B0C221A7083E001F035FA0346D9
:10277000002B0ED0FFF7DEF80346012B09D0214BCA
:102780001B88013B9AB21F4B1A801E4B1B88002BE3
:1027900008D101F0E7F9C820FEF7BEF9184B0D2269
:1027A0001A7066E06420FEF7B7F962E000210520A8
:1027B00001F07AFA022001F0E7F96420FEF7ACF9A3
:1027C000104B03221A800E4B0E221A7051E001F0BA
:1027D00003FA0346002B09D00A4B1B88013B9AB22F
:1027E000084B1A80074B1B88002B04D101F0BAF963
:1027F000034B0F221A706420FEF78EF939E000BFF8
:1028000021020020180200200021012001F07AFEA0
:10281000FFF78BFA0346012B2AD10120FFF720FA9C
:102820000220FEF72BFA00210320FFF727F81FE014
:10283000FFF770F80346012B06D10021082001F0B4
:1028400033FA0D4B00221A70FFF754F80346012BA0
:1028500006D100210E2001F027FA074B00221A7042
:102860003220FEF759F904E000BF02E000BF00E0AB
:1028700000BF00BF80BD00BF2102002080B500AFB7
:10288000694B1B780C2B00F2CC8001A252F823F08C
:10289000C5280008CD280008072900080F290008CE
:1028A000492900085129000899290008A129000890
:1028B000CB290008D3290008F3290008FB290008C8
:1028C0001B2A00080A20FEF727F9ABE003220021AB
:1028D000564804F061FFFFF7D3F80020FFF7C0F976
:1028E0000020FFF7F6F901210C2001F0DDF90121AC
:1028F0000A2001F0D9F90121042001F0D5F94A4B51
:1029000002221A708EE00A20FEF706F98AE00322FE
:102910000021464804F040FFFFF7B2F80020FFF71F
:102920009FF90020FFF7D5F901210F2001F0BCF934
:1029300001210A2001F0B8F90121042001F0B4F9C5
:10294000394B04221A706DE00A20FEF7E5F869E0C1
:1029500003220021354804F01FFF344B02229A70F5
:10296000FFF78EF80020FFF77BF90020FFF7B1F9A1
:102970000121152001F098F90121042001F094F9BA
:102980000121192001F090F90121102001F08CF9AA
:10299000254B06221A7045E00A20FEF7BDF841E0FB
:1029A00003220021214804F0F7FEFFF769F8002018
:1029B000FFF756F90020FFF78CF90121122001F0F2
:1029C00073F9194B08221A702CE00A20FEF7A4F8BC
:1029D00028E0FFF755F80020FFF742F90020FFF745
:1029E00078F90121112001F05FF90F4B0A221A70CA
:1029F00018E00A20FEF790F814E0FFF741F80020F5
:102A0000FFF72EF90020FFF764F90121022001F001
:102A10004BF9054B0C221A7004E00A20FEF77CF8F3
:102A200000E000BF00BF80BD210200201C0200208A
:102A300080B500AFBB4B1B78142B00F2EB8101A2D9
:102A400052F823F0992A0008CF2A0008ED2A00083E
:102A5000292B0008432B0008752B0008C12B000808
:102A6000F12B00080B2C0008472C00085D2C0008F7
:102A7000712C0008CD2C0008E12C0008F72C000870
:102A80000B2D0008352D0008712D00088B2D000836
:102A9000BD2D0008E32D00080020FFF7E1F800201D
:102AA000FFF717F90121052001F0FEF8FFF718F8EC
:102AB0009D4B1B78012B03D19C4B01221A7002E025
:102AC0009A4B00221A70974B01221A70A7E101F06D
:102AD0008DF8012001F058F86420FEF71DF8944BA2
:102AE0001E221A808F4B02221A7098E101F074F8AE
:102AF0000346002B0ED0FEF71DFF0346012B09D025
:102B00008B4B1B88013B9AB2894B1A80884B1B88E0
:102B1000002B05D101F026F8824B03221A707EE1CA
:102B20006420FDF7F9FF7AE1022001F02DF864201E
:102B3000FDF7F2FF7E4B03221A807A4B04221A70B3
:102B40006DE101F049F80346002B09D0784B1B8852
:102B5000013B9AB2764B1A80754B1B88002B05D12E
:102B600001F000F86F4B05221A7058E16420FDF760
:102B7000D3FF54E14FF47A70FEF73CFB6A4B5B786D
:102B8000002B06D16A4B50221A80664B06221A701F
:102B900042E1654B5B78012B06D1654B5A221A80C6
:102BA000604B06221A7037E15F4B5B78022B40F0D6
:102BB00033815F4B64221A805A4B06221A702BE134
:102BC0005B4B1B88013B9AB2594B1A80584B1B88B0
:102BD000002B09D1FEF75EFB4FF47A70FDF79CFFE6
:102BE000504B07221A701AE16420FDF795FF16E199
:102BF000022000F0C9FF6420FDF78EFF4C4B4622F7
:102C00001A80484B08221A7009E100F0E5FF0346DC
:102C1000002B0ED0FEF78EFE0346012B09D0444B4D
:102C20001B88013B9AB2424B1A80414B1B88002BF8
:102C300005D100F097FF3B4B09221A70EFE06420AA
:102C4000FDF76AFFEBE00020FEF7AAFA40F26C7095
:102C5000FDF762FF334B0A221A70E0E0FEF738FB03
:102C60004FF47A60FDF758FF2E4B0B221A70D6E016
:102C70002D4B9B78002B0AD10020FEF791FA41F2F0
:102C80008830FDF749FF274B0C221A70C6E0264B0F
:102C90009B78012B0AD10020FEF782FA42F21070D5
:102CA000FDF73AFF1F4B0C221A70B7E01E4B9B78C2
:102CB000022B40F0B3800020FEF772FA44F6206049
:102CC000FDF72AFF174B0C221A70A7E0FEF700FB56
:102CD00041F27070FDF720FF124B0D221A709EE03A
:102CE000012000F051FF40F65430FDF715FF0D4B69
:102CF0000E221A7093E000F035FF40F6B830FDF771
:102D00000BFF084B0F221A7089E0012000F03CFFF6
:102D10006420FDF701FF064B32221A80014B10227E
:102D20001A707CE0210200201C02002020020020FA
:102D30001802002000F050FF0346002B0ED0FEF7D3
:102D4000F9FD0346012B09D0364B1B88013B9AB293
:102D5000344B1A80334B1B88002B05D100F002FF47
:102D6000314B11221A705AE06420FDF7D5FE56E06F
:102D7000022000F009FF6420FDF7CEFE294B03225C
:102D80001A80294B12221A7049E000F025FF0346F1
:102D9000002B09D0234B1B88013B9AB2214B1A8090
:102DA000204B1B88002B05D100F0DCFE1E4B1322AC
:102DB0001A7034E06420FDF7AFFE30E01B4B1B7847
:102DC000012B0AD1184B01221A70184B00221A70DD
:102DD0004FF4FA70FDF7A0FE21E0134B14221A7095
:102DE0001DE0134B1B78012B07D1114B00221A70E9
:102DF00004210B20FEF742FD11E00220FDF73EFF0B
:102E0000FEF7A6FF0B4B01221A7000210320FEF7EC
:102E100035FD04E000BF02E000BF00E000BF00BFDE
:102E200080BD00BF180200202102002020020020E7
:102E30001B0200201F02002080B500AF0B4B1B7847
:102E4000002B02D0012B0AD00EE00121052000F05A
:102E50002BFFFEF775FE054B01221A7004E04FF4BC
:102E6000FA70FDF759FE00BF00BF80BD21020020AF
:102E700080B500AF0B4B1B78002B02D0012B0AD082
:102E80000EE00121052000F00FFFFEF779FE054B53
:102E900001221A7004E04FF4FA70FDF73DFE00BF06
:102EA00000BF80BD2102002080B500AF0B4B1B7816
:102EB000002B02D0012B0AD00EE00121052000F0EA
:102EC000F3FEFEF77DFE054B01221A7004E04FF47D
:102ED000FA70FDF721FE00BF00BF80BD2102002077
:102EE00080B500AF0B4B1B78002B02D0012B0AD012
:102EF0000EE00121052000F0D7FEFEF781FE054B14
:102F000001221A7004E04FF4FA70FDF705FE00BFCD
:102F100000BF80BD2102002080B500AF0B4B1B78A5
:102F2000002B02D0012B0AD00EE00121052000F079
:102F3000BBFEFEF785FE054B01221A7004E04FF43C
:102F4000FA70FDF7E9FD00BF00BF80BD210200203F
:102F500080B500AF5C4B1B78072B00F2B28001A25A
:102F600052F823F0852F0008B52F0008CF2F000856
:102F70000B30000825300008673000088130000859
:102F8000B130000800F028FE0346002B0ED10121CD
:102F9000012001F0B7FA4C4B01221A70FEF7CAFC6F
:102FA0000346002B02D1484B03221A706420FDF720
:102FB000B3FD87E0012000F0E7FD6420FDF7ACFDE4
:102FC000424B0A221A80404B02221A707AE0FEF726
:102FD000B1FC0346002B09D03C4B1B88013B9AB245
:102FE0003A4B1A80394B1B88002B0AD100F0BAFDEE
:102FF000364B1B88002B01D0032200E00522324B08
:103000001A706420FDF788FD5CE0012000F0BCFD33
:103010006420FDF781FD2C4B04221A702B4B3C22BF
:103020001A804FE000F0D8FD0346002B0ED0FEF7CB
:1030300081FC0346012B09D0244B1B88013B9AB22B
:10304000224B1A80214B1B88002B08D100F08AFDEF
:10305000C820FDF761FD1C4B05221A7032E0642088
:10306000FDF75AFD2EE0022000F08EFD6420FDF7F2
:1030700053FD164B03221A80134B06221A7021E0CF
:1030800000F0AAFD0346002B09D0104B1B88013B22
:103090009AB20E4B1A800D4B1B88002B04D100F006
:1030A00061FD094B07221A706420FDF735FD09E028
:1030B0000021012001F026FA00210120FEF7DEFBAD
:1030C00000E000BF00BF80BD2102002018020020E8
:1030D00080B500AF704B1B780A2B00F2D98001A29B
:1030E00052F823F01131000837310008513100083F
:1030F0008D310008A3310008B7310008CD31000838
:10310000E1310008FB310008373200085132000875
:103110000121012001F0F6F9FEF78AFC00210520CB
:1031200000F0C2FDFEF7B6F86420FDF7F5FC5A4B3F
:1031300001221A70ADE0022000F026FD6420FDF7A8
:10314000EBFC564B46221A80534B02221A70A0E029
:1031500000F042FD0346002B0ED0FEF7EBFB0346CA
:10316000012B09D04D4B1B88013B9AB24B4B1A8067
:103170004A4B1B88002B05D100F0F4FC464B032280
:103180001A7086E06420FDF7C7FC82E00020FEF79D
:1031900007F840F26C70FDF7BFFC3F4B04221A7039
:1031A00077E0FEF795F84FF47A60FDF7B5FC3A4BFF
:1031B00005221A706DE0012000F0E6FC40F6543064
:1031C000FDF7AAFC344B06221A7062E000F0CAFC3C
:1031D00040F6B830FDF7A0FC2F4B07221A7058E0DC
:1031E000012000F0D1FC6420FDF796FC2B4B32222D
:1031F0001A80294B08221A704BE000F0EDFC0346C0
:10320000002B0ED0FEF796FB0346012B09D0234B73
:103210001B88013B9AB2214B1A80204B1B88002B44
:1032200005D100F09FFC1C4B09221A7031E064208C
:10323000FDF772FC2DE0022000F0A6FC6420FDF7F3
:103240006BFC164B03221A80134B0A221A7020E0E3
:1032500000F0C2FC0346002B09D0104B1B88013B39
:103260009AB20E4B1A800D4B1B88002B0CD100F02C
:1032700079FC0121012001F045F9074B00221A7069
:103280000420FEF721FB04E06420FDF745FC00E08C
:1032900000BF00BF80BD00BFA400002018020020B6
:1032A00080B500AF704B1B780A2B00F2DA8001A2C8
:1032B00052F823F0E13200080933000823330008F4
:1032C0005F33000875330008893300089F33000816
:1032D000B3330008CD330008093400082334000854
:1032E0000121012001F00EF9FEF7A2FB00210520CB
:1032F00000F0DAFC00F036FC4FF47A70FDF70CFCBD
:10330000594B01221A70ADE0022000F03DFC642010
:10331000FDF702FC554B46221A80534B02221A70CD
:10332000A0E000F059FC0346002B0ED0FEF702FB94
:103330000346012B09D04D4B1B88013B9AB24B4BE6
:103340001A804A4B1B88002B05D100F00BFC464B22
:1033500003221A7086E06420FDF7DEFB82E0002085
:10336000FDF71EFF40F26C70FDF7D6FB3E4B0422CA
:103370001A7077E0FDF7ACFF4FF47A60FDF7CCFBF5
:10338000394B05221A706DE0012000F0FDFB40F67C
:103390005430FDF7C1FB344B06221A7062E000F096
:1033A000E1FB40F6B830FDF7B7FB2F4B07221A7050
:1033B00058E0012000F0E8FB6420FDF7ADFB2B4B4B
:1033C00032221A80284B08221A704BE000F004FCCD
:1033D0000346002B0ED0FEF7ADFA0346012B09D0B1
:1033E000224B1B88013B9AB2204B1A801F4B1B8833
:1033F000002B05D100F0B6FB1B4B09221A7031E0FF
:103400006420FDF789FB2DE0022000F0BDFB642065
:10341000FDF782FB154B03221A80134B0A221A7008
:1034200020E000F0D9FB0346002B09D00F4B1B888E
:10343000013B9AB20D4B1A800C4B1B88002B0CD110
:1034400000F090FB0021012001F05CF8064B002207
:103450001A700420FEF738FA04E06420FDF75CFBE4
:1034600000E000BF00BF80BDA500002018020020C2
:1034700080B500AF594B1B78082B00F2AB8001A23E
:1034800052F823F0A9340008D1340008E7340008CA
:10349000FB34000811350008253500083F350008C9
:1034A0007B350008953500080121012001F02AF83C
:1034B000FEF7BEFA0021052000F0F6FBFDF708FF3D
:1034C0004FF47A70FDF728FB444B01221A7082E01A
:1034D0000020FDF765FE40F26C70FDF71DFB3F4BD1
:1034E00002221A7077E0FDF7F3FE4FF47A60FDF7E1
:1034F00013FB3A4B03221A706DE0012000F044FBED
:1035000040F65430FDF708FB344B04221A7062E099
:1035100000F028FB40F6B830FDF7FEFA2F4B0522ED
:103520001A7058E0012000F02FFB6420FDF7F4FA38
:103530002B4B32221A80294B06221A704BE000F0E6
:103540004BFB0346002B0ED0FEF7F4F90346012B8C
:1035500009D0234B1B88013B9AB2214B1A80204B88
:103560001B88002B05D100F0FDFA1C4B07221A70B6
:1035700031E06420FDF7D0FA2DE0022000F004FBDA
:103580006420FDF7C9FA164B03221A80134B082258
:103590001A7020E000F020FB0346002B09D0104BEE
:1035A0001B88013B9AB20E4B1A800D4B1B88002BD7
:1035B0000CD100F0D7FA0021012000F0A3FF074B47
:1035C00000221A700420FEF77FF904E06420FDF762
:1035D000A3FA00E000BF00BF80BD00BFA60000202E
:1035E0001802002080B500AF4C4B1B78062B00F270
:1035F000928001A252F823F0153600083D360008EB
:10360000533600086736000881360008BD360008CA
:10361000D73600080121012000F074FFFEF708FAF8
:103620000021052000F040FBFDF752FE4FF47A60C8
:10363000FDF772FA394B01221A706DE0012000F09B
:10364000A3FA40F65430FDF767FA344B02221A70A1
:1036500062E000F087FA40F6B830FDF75DFA2F4BD4
:1036600003221A7058E0012000F08EFA6420FDF762
:1036700053FA2B4B32221A80284B04221A704BE04B
:1036800000F0AAFA0346002B0ED0FEF753F90346CA
:10369000012B09D0224B1B88013B9AB2204B1A8088
:1036A0001F4B1B88002B05D100F05CFA1B4B052239
:1036B0001A7031E06420FDF72FFA2DE0022000F0AF
:1036C00063FA6420FDF728FA154B03221A80134B86
:1036D00006221A7020E000F07FFA0346002B09D082
:1036E0000F4B1B88013B9AB20D4B1A800C4B1B8869
:1036F000002B0CD100F036FA0021012000F002FF6F
:10370000064B00221A700420FEF7DEF804E0642065
:10371000FDF702FA00E000BF00BF80BDA700002057
:103720001802002080B500AF5C4B1B78072B00F21D
:10373000B18001A252F823F0593700087B37000806
:10374000B7370008CD370008E1370008FD3700081B
:1037500039380008533800080121012000F0D2FE5A
:10376000022000F011FA6420FDF7D6F94C4B4622F6
:103770001A804A4B01221A708DE000F02DFA0346A0
:10378000002B0ED0FEF7D6F80346012B09D0444B90
:103790001B88013B9AB2424B1A80414B1B88002B7D
:1037A00005D100F0DFF93D4B02221A7073E064206E
:1037B000FDF7B2F96FE00020FDF7F2FC41F288302E
:1037C000FDF7AAF9354B03221A7064E0FDF780FD7E
:1037D0004FF4FA60FDF7A0F9304B04221A705AE05A
:1037E000012000F0D1F940F2DC50FDF795F92C4BA7
:1037F00050221A80294B05221A704CE000F0ECF997
:103800000346002B0ED0FEF795F80346012B09D096
:10381000234B1B88013B9AB2214B1A80204B1B88FB
:10382000002B05D100F09EF91C4B06221A7032E0E5
:103830006420FDF771F92EE0022000F0A5F9642064
:10384000FDF76AF9164B03221A80144B07221A70EF
:1038500021E000F0C1F90346002B09D0104B1B8872
:10386000013B9AB20E4B1A800D4B1B88002B0DD1D9
:1038700000F078F90021012000F044FE074B0022FF
:103880001A7000210120FDF7F9FF04E06420FDF724
:1038900043F900E000BF00BF80BD00BFA8000020CA
:1038A0001802002080B500AF114B1B78042B1CD8E8
:1038B00001A252F823F000BFCD380008D338000829
:1038C000D9380008DF380008E5380008FFF700FCA9
:1038D0000CE0FFF7E5FC09E0FFF7CAFD06E0FFF7A3
:1038E00081FE03E0FFF71EFF00E000BF00BF80BDC8
:1038F0002102002080B483B000AF0346FB71074A69
:10390000FB791370064B00221A70064B00221A70C6
:1039100000BF0C37BD4680BC704700BF16020020B8
:10392000140200202102002080B500AF234B1B7839
:103930000B2B3FD801A252F823F000BF6D390008CD
:1039400073390008793900087F3900088539000883
:103950008B39000891390008973900089D39000813
:10396000A3390008A9390008AF390008FEF782FD25
:1039700021E0FEF7A9FD1EE0FEF7BEFD1BE0FEF70D
:103980007DFF18E0FFF754F815E0FFF755FA12E055
:10399000FFF76EFA0FE0FFF787FA0CE0FFF7A0FAE7
:1039A00009E0FFF7B9FA06E0FFF7D2FA03E0FFF704
:1039B00079FF00E000BF00BF80BD00BF14020020FF
:1039C00080B582B000AF03463960FB71094B1B78AC
:1039D000FA799A4201D03B6808E03B6803F00103A2
:1039E000002B02D00448FEF78DFC3B6818460837D0
:1039F000BD4680BD160200203002002080B582B096
:103A000000AF134B1B780133DAB2114B1A70104B15
:103A10001B78642B17D90220FDF70AFE0346FB80B2
:103A20000120FDF705FE0346BB800020FDF700FEE8
:103A300003467B80F988BA887B88064803F0B4FE89
:103A4000034B00221A7000BF0837BD4680BD00BF7F
:103A500022020020D486000880B483B000AF034661
:103A6000FB71054AFB791370044B00221A7000BFEA
:103A70000C37BD4680BC7047230200202402002082
:103A800080B500AF104B1B78022B0FD0022B15DC3A
:103A9000002B02D0012B13D010E000F0F9F80B4BF3
:103AA00000221A70084B02221A700AE0FFF7A6FFE4
:103AB00001F0C4F80A20FDF72FF802E000BF00E093
:103AC00000BF00BF80BD00BF2402002022020020F2
:103AD00080B483B000AF03463960FB71064B1B789E
:103AE000FA799A4201D03B6800E03B6818460C37EF
:103AF000BD4680BC704700BF2302002080B582B065
:103B000000AF03460A46FB711346BB71FB79002BDD
:103B100006D0BB79002B03D00023FB710023BB71BF
:103B2000FB79002B05D04FF480410D4801F0A4FF34
:103B300004E04FF480410A4801F0ADFFBB79002B4F
:103B400005D04FF40041064801F096FF04E04FF421
:103B50000041034801F09FFF00BF0837BD4680BD0C
:103B6000000C014080B500AF00210020FFF7C6FF28
:103B7000044B1B78032B02D0024B00221A7000BFAB
:103B800080BD00BFA900002080B582B000AF034611
:103B9000FB71104B1B78032B18D0FB79012B02D043
:103BA000022B08D00FE000210120FFF7A7FF094BEF
:103BB00001221A700BE001210020FFF79FFF054B47
:103BC00002221A7003E0FFF7CDFF00E000BF0837C4
:103BD000BD4680BDA900002080B400AF024B1B7819
:103BE0001846BD4680BC7047A900002080B500AFD4
:103BF000054B1B78032B04D1034B00221A70FFF7EF
:103C0000B1FF00BF80BD00BFA900002080B500AF9C
:103C10004FF48071044801F067FF0346002B01D187
:103C2000FFF7A0FF00BF80BD0008014080B500AFD6
:103C300040F2026002F004F940F2036002F000F981
:103C40004FF4C06002F0FCF84FF4804301221021D1
:103C50000C4801F05DFE4FF4004301221021094899
:103C600001F056FE00210020FFF748FF4FF480735B
:103C700001220421044801F04BFE044B00221A707B
:103C800000BF80BD000C014000080140A9000020D9
:103C900080B400AF034B00221A6000BFBD4680BC59
:103CA000704700BF2802002080B483B000AF0346F5
:103CB0000A46FB711346BB71BB79002B0AD1FB7915
:103CC000012202FA03F3DA430F4B1B6813400E4A3A
:103CD000136013E0BB79012B08D1FB7901229A40D4
:103CE000094B1B681343084A136007E0FB79012264
:103CF0009A40054B1B685340034A136000BF0C37C2
:103D0000BD4680BC704700BF2802002080B483B04D
:103D100000AF0346FB71074B1A68FB7922FA03F3E5
:103D2000DBB203F00103DBB218460C37BD4680BCA2
:103D3000704700BF2802002080B500AF4FF4C0607C
:103D400002F07EF80021002001F068FF022200212D
:103D5000012001F0BDFC012001F048FD00220221FC
:103D6000062001F0E5FF0821002001F057FF0122A5
:103D70000021012001F0ACFC4FF4807001F036FD11
:103D800000220021172001F0D3FF00BF80BD0000FA
:103D900080B500AF4FF4C06002F052F80121054831
:103DA00001F0CAFE01214FF4004001F0C5FE00BF42
:103DB00080BD00BF0002300080B500AF40F202605D
:103DC00002F03EF840F2036002F03AF840F204607C
:103DD00002F036F840F2056002F032F801230122C9
:103DE0004821664801F094FD2023012228216448DF
:103DF00001F08EFD4FF48053012204215F4801F051
:103E000087FD1023012204215D4801F081FD4FF45C
:103E10000053012204215A4801F07AFD4FF48073C7
:103E200001220421554801F073FD202301221021B5
:103E3000524801F06DFD2021504801F02CFE402336
:103E4000012210214D4801F063FD40214B4801F053
:103E500022FE802301221021484801F059FD8021D3
:103E6000464801F018FE042301221021444801F0C5
:103E70004FFD0421424801F0FFFD4FF48053012221
:103E800010213F4801F044FD4FF480513C4801F0BF
:103E900002FE4FF4806301221021394801F038FD01
:103EA0004FF48061364801F0E7FD4FF400630122D2
:103EB0001021334801F02CFD4FF40061304801F02F
:103EC000DBFD4023012210212D4801F021FD40217E
:103ED0002B4801F0E0FD802301221021284801F049
:103EE00017FD8021264801F0D6FD4FF48073012292
:103EF0001021234801F00CFD4FF48071204801F09F
:103F0000CAFD4FF48043012210211D4801F000FD3D
:103F10004FF480411A4801F0BEFD4FF400430122E6
:103F20001021174801F0F4FC4FF40041144801F04F
:103F3000B2FD4FF4005302221021124801F0E8FCB8
:103F40004FF40043012210210C4801F0E1FC08234A
:103F5000012248210A4801F0DBFC4FF48043022291
:103F60004821084801F0D4FC4FF4004302224821C4
:103F7000044801F0CDFC00BF80BD00BF0008014037
:103F8000000C01400010014080B500AF6422002108
:103F9000324803F001FC314B4FF0FF32DA612F4B16
:103FA0003C221A842D4B64225A842C4B64229A841E
:103FB0002A4B6422DA84294B64221A85274B642217
:103FC0005A85264B64229A85244B6422DA85234B3A
:103FD0004FF496721A86214B4FF496725A861F4BF5
:103FE00064229A861D4B4FF6FF72A3F842201B4BAA
:103FF0004FF6FF72A3F84420184B4FF6FF72A3F858
:104000004620164B4FF6FF72A3F84820134B4FF68D
:10401000FF72A3F84A20114B4FF6FF72A3F84C2011
:104020000E4B4FF6FF72A3F84E200C4B4FF6FF726B
:10403000A3F85020094B4FF6FF72A3F85220074B0C
:104040004FF6FF72A3F85420044B4FF6FF72A3F80B
:104050005620034B00221A8000BF80BD3002002092
:104060009402002080B584B000AF7860884B0022B5
:104070001A60874B00225A60854B00229A60844B5D
:10408000DB697A685340BB60814B5A69804B9B69FE
:1040900053407F4A53617E4B9B69DB437C4A93616B
:1040A0007B4B5A69BB681340794A5361784B9A69D4
:1040B000BB681340764A9361754BDA69744B596952
:1040C000734B9B690B431340714AD361704BDA69A0
:1040D0006F4B59696E4B9B690B43D9437B680B400F
:1040E00013436B4AD3616A4B5A69694B9B6913430B
:1040F000BA685340BB600023FB60A4E00122FB6868
:1041000002FA03F31A46BB681340002B29D0604B18
:10411000DA690121FB6801FA03F31340002B17D180
:104120005B4AFB6820335B00134400225A80584AE4
:10413000FB68103332F81330002B12D1544B1B683C
:104140000121FA6801FA02F21343514A136008E0B0
:104150004F4B9B680121FA6801FA02F213434C4A63
:1041600093604B4AFB68103332F81330002B67D052
:10417000474BDB690121FA6801FA02F21340002B78
:104180001ED0434AFB6820335B0013445A884049E1
:10419000FB68103331F813309A4251D23C4AFB6825
:1041A00020335B0013444FF6FF725A80384B1B6874
:1041B0000121FA6801FA02F21343354A13603FE025
:1041C000334AFB6820335B0013445B884FF6FF7271
:1041D00093420ED02E4AFB6820335B0013445B8869
:1041E000013399B22A4AFB6820335B0013440A4624
:1041F0005A80274AFB6820335B0013445A882449BD
:10420000FB68103331F813309A4219D1204AFB6809
:1042100020335B0013444FF6FF725A801C4B1B691E
:104220000121FA6801FA02F21343194A1361184B8B
:104230005B680121FA6801FA02F21343144A5360E1
:10424000FB680133FB60FB68102B7FF657AF00F073
:1042500039F90F4B1B68002B07D10D4B9B68002BC6
:1042600003D10B4B5B68002B0DD00A4B1B781A4611
:10427000094B53F82230074A1278114643F00103E4
:10428000054A42F8213000BF1037BD4680BD00BF4F
:104290003002002016020020D001002080B582B03C
:1042A00000AF4FF0FF337B605C4B1B8803F01003C3
:1042B000002B03D07B6823F010037B60574B1B88D7
:1042C00003F00103002B03D07B6823F001037B6024
:1042D000524B1B8803F00203002B03D07B6823F0B2
:1042E00002037B604D4B1B8803F00403002B03D0BB
:1042F0007B6823F004037B60484B1B8803F00803B2
:10430000002B03D07B6823F008037B60434B1B88A2
:1043100003F02003002B03D07B6823F020037B6095
:104320003E4B1B8803F48073002B03D07B6823F47F
:1043300080737B60394B1B8803F04003002B03D054
:104340007B6823F040037B60344B1B8803F40073CD
:10435000002B03D07B6823F400737B602F4B1B88FA
:1043600003F48063002B03D07B6823F480637B60BD
:104370002A4B1B8803F08003002B03D07B6823F0BB
:1043800080037B604FF40051254801F0ADFB0346EC
:10439000002B03D17B6823F400637B60202120483D
:1043A00001F0A2FB0346002B03D07B6823F480536B
:1043B0007B6001211B4801F097FB0346002B03D1D2
:1043C0007B6823F400537B601021154801F08CFBBF
:1043D0000346002B03D17B6823F480437B604FF4BA
:1043E0008071104801F080FB0346002B03D17B68ED
:1043F00023F400437B604FF480510A4801F074FBC2
:104400000346002B03D07B6823F480337B607868FD
:10441000FFF728FE00BF0837BD4680BD940200208C
:10442000000C01400008014080B483B000AF034697
:10443000FB71054AFB791370044B00221A7000BF10
:104440000C37BD4680BC70472D0200202C02002096
:1044500080B500AF0F4B1B78022B0FD0022B13DC63
:10446000002B02D0012B11D00EE0FFF78DFD322082
:10447000FCF752FB074B02221A7008E0FFF70EFF11
:104480000A20FCF749FB02E000BF00E000BF00BFCC
:1044900080BD00BF2C02002080B483B000AF034673
:1044A0003960FB71064B1B78FA799A4201D03B6860
:1044B00000E03B6818460C37BD4680BC704700BF23
:1044C0002D02002080B483B000AF0D4BDB68DB43CE
:1044D0007B600B4B1A687B681340094A1360084BDA
:1044E0005A687B681340064A5360054B9A687B689C
:1044F0001340034A936000BF0C37BD4680BC704731
:104500003002002080B582B000AF78600B46FB70AF
:104510000B4BDA687B68DB431340094AD360084BD6
:10452000DA68FB78012B01D17B6800E0002313439C
:10453000034AD360FFF7C6FF00BF0837BD4680BD02
:104540003002002080B500AF40F2026001F078FC3C
:104550004FF4006301221821024801F0D9F900BF8D
:1045600080BD00BF0008014080B588B000AF40F2B8
:104570000B6001F065FC224801F01EFE7723BB8032
:104580000023FB8000233B814FF4FA63FB60002390
:104590007B8100233B743B1D1946194801F0C0FE86
:1045A0000123BB820023FB8200233B8300237B8308
:1045B0000023BB830023FB8307F114031A46032166
:1045C0000F4802F001F8002203210D4802F04CFAD6
:1045D000602203210A4802F0E5F90022032108487D
:1045E00002F076FA0121064801F0CFFF044801F0FD
:1045F00031FF034801F010FF00BF2037BD4680BDEA
:10460000002C014080B500AFFFF79CFFFFF7ACFF27
:1046100000BF80BD80B500AFFFF7F4FF00BF80BDD5
:1046200080B582B000AF78607B68002B02D04FF479
:104630007A7300E000231A460321034802F014FABB
:1046400000BF0837BD4680BD002C014080B400AFDC
:10465000074B10221A80074B00221A80064B0022BB
:104660001A80064B00221A8000BFBD4680BC7047EE
:10467000400300209802002054030020DC020020A8
:1046800080B58CB000AF78603C4B1B68BB623C4B84
:104690001B687B623B4A07F11C0392E8030083E836
:1046A0000300394A07F1140392E8030083E803008A
:1046B000364A07F10C0392E8030083E80300002365
:1046C000FB627B68324A934202D10023FB6205E021
:1046D0007B68304A934201D10123FB62FB6A5B0095
:1046E00007F13002134433F80C3C184601F0A8FBE4
:1046F000FB6A5B0007F13002134433F8083C1846AC
:1047000001F09EFBFB6A9B0007F13002134453F853
:10471000140CFB6A9B0007F13002134453F81C3C55
:104720000322182101F0F4F8FB6A9B0007F1300224
:10473000134453F8140CFB6A9B0007F13002134436
:1047400053F8243C0322042101F0E2F8786802F0D7
:1047500009FC4FF4E131786802F066FC04217868C6
:1047600002F0FFFC0821786802F0DFFC786802F0B4
:10477000CBFC00BF3037BD4680BD00BFE8860008D7
:10478000EC860008F0860008F8860008008700081C
:10479000003801400044004080B588B000AF4FF4BD
:1047A000A06001F04DFB0321274800F0D1FC01235C
:1047B000BB77264BFB6001237B7700233B61002303
:1047C0007B61234B7B6000233B770023BB604FF46E
:1047D0004053BB613B1D1A4603211B4800F01EFDE0
:1047E0000321194800F03FFE0321174800F065FE41
:1047F0000421154800F0ACFC0023BB7710237B613B
:10480000144BFB603B1D1A4604210F4800F006FDC7
:1048100004210D4800F0FDFD04210B4800F04DFE81
:104820000321094800F09DFE0421074800F06FFEB7
:104830008021094802F0EFFC4021074802F0CEFC3D
:1048400000BF2037BD4680BD00000240300300207D
:1048500004380140440300200038014080B500AF17
:104860000A48FFF70DFF0A48FFF70AFFFFF794FF1A
:1048700000220021262001F05BFA40F205310448B5
:1048800002F004FDFFF7E2FE00BF80BD00380140EA
:104890000044004080B584B000AF78600B467B8058
:1048A0007B68002B1ED07B88002B1BD00023FB8154
:1048B00013E0FB897A6813441B789BB219460B48B6
:1048C00002F06BFC00BF0721084802F0C1FC034660
:1048D000002BF8D0FB890133FB81FA897B889A424F
:1048E000E7D300E000BF1037BD4680BD0044004064
:1048F00080B483B000AF0346FB710E4B1B883F2B87
:1049000011D80C4B1B885A1C91B20A4A11801946C7
:10491000094AFB795354FB790A2B04D1054B002239
:104920001A80012300E0002318460C37BD4680BCE6
:10493000704700BF98020020E002002080B582B0DE
:1049400000AF124B1B88FB8016E0114B1B881A46E8
:10495000104B9B5C7B710E4B1B8801339AB20C4B46
:104960001A800B4B1B883F2B02D9094B00221A805F
:104970007B791846FFF7BCFF054B1B88FA889A42E3
:10498000E3D100BF00BF0837BD4680BD54030020FF
:10499000DC0200209C02002080B483B000AF0346FC
:1049A000FB71354B1A78FB791344DAB2324B1A702B
:1049B000324B1B78032B51D801A252F823F000BFD1
:1049C000D1490008E5490008FF4900081F4A0008CE
:1049D000FB79FF2B44D1294B1B780133DAB2274BEB
:1049E0001A703DE0254B1B780133DAB2234B1A7065
:1049F000FB79AA2B36D0214B00221A7032E0204AD4
:104A0000FB7913701C4AFB7913701E4B00221A703D
:104A10001A4B1B780133DAB2184B1A7025E0194B88
:104A20001B780F2B05D8174B1B781946164AFB79B4
:104A30005354144B1B780133DAB2124B1A70114BDA
:104A40001A780F4B1B789A420ED10C4B00221A7029
:104A5000094B1B78002B07D1012307E000BF04E0BE
:104A600000BF02E000BF00E000BF002318460C3783
:104A7000BD4680BC704700BFAA000020AB000020EC
:104A8000AC000020AD0000202003002080B582B0E3
:104A900000AF00237B710023BB7103213B4800F072
:104AA000ABFD0346002B6DD17B795A1C7A711A46F7
:104AB000374BFF2199547B795A1C7A711A46344B33
:104AC000AA2199547B795A1C7A711A46304B0021DD
:104AD0009954304B1B68190E7B795A1C7A711A460F
:104AE000C9B22B4B99542B4B1B68190C7B795A1C60
:104AF0007A711A46C9B2264B9954264B1B68190A7B
:104B00007B795A1C7A711A46C9B2214B9954214BB0
:104B100019687B795A1C7A711A46C9B21C4B995490
:104B20007B79023BDAB21A4B9A700223FB7108E0E0
:104B3000FB79174AD25CBB791344BB71FB79013313
:104B4000FB71FA797B799A42F2D37B795A1C7A719C
:104B50001A46BB795B42D9B20D4B995403210B48DD
:104B600000F0FFFC0E220321084800F07EFD7B7957
:104B70001A460321054800F01EFD0321034800F0FA
:104B8000C6FC00E000BF0837BD4680BD0000024003
:104B9000300300202802002080B582B000AF04213D
:104BA000214800F029FD0346FB8026E01F4B1B88AF
:104BB000C3F110031E4AD35C7B711C4B1B88013B65
:104BC0009AB21A4B1A80194B1B88002B02D1174B33
:104BD00010221A807B791846FFF7DEFE0346012B70
:104BE0000BD1144B1B781B021AB2124B5B781BB211
:104BF00013431BB29AB2104B1A800C4B1B88FA88D5
:104C00009A42D3D102220421074800F012FD034644
:104C1000002B04D00E220421034800F026FD00BF23
:104C20000837BD4680BD00BF0000024040030020A1
:104C300044030020200300209402002080B500AF30
:104C4000FFF724FFFFF7A8FFFFF778FE00BF80BD46
:104C500080B483B000AF78607B6808331B6803F0D2
:104C60000103002B07D17B6808331B687A68083280
:104C700043F00103136000BF0C37BD4680BC704792
:104C800080B483B000AF78607B6808331B687A68B3
:104C9000083243F00803136000BF7B6808331B68C9
:104CA00003F00803002BF8D17B6808331B687A688F
:104CB000083243F00403136000BF7B6808331B68AD
:104CC00003F00403002BF8D100BF00BF0C37BD4632
:104CD00080BC704780B483B000AF78607B680833D5
:104CE0001B687A68083243F48073136000BF0C3786
:104CF000BD4680BC7047000080B483B000AF7860D0
:104D0000084B1B68074A23F470231360054B1A688D
:104D100004497B6813430B6000BF0C37BD4680BC61
:104D2000704700BF0424014080B485B000AFF86034
:104D3000B9601346FB71FB79002B27D0BB6803F4E5
:104D40008073002B07D0FB6804331B68FA680432B9
:104D500043F480731360BB6803F48063002B07D0B7
:104D6000FB6804331B68FA68043243F48063136001
:104D7000BB6803F00203002B2FD0FB6808331B68CD
:104D8000FA68083243F00203136026E0BB6803F4BC
:104D90008073002B07D0FB6804331B68FA68043269
:104DA00023F480731360BB6803F48063002B07D087
:104DB000FB6804331B68FA68043223F480631360D1
:104DC000BB6803F00203002B07D0FB6808331B68A5
:104DD000FA68083223F00203136000BF1437BD469F
:104DE00080BC704780B483B000AF786039603B68A6
:104DF000002B08D07B6808331B687A68083243F4BC
:104E00000063136007E07B6808331B687A68083228
:104E100023F40063136000BF0C37BD4680BC7047AD
:104E200080B485B000AFF8600B467A60FB72FB7A05
:104E3000012B02D0022B15D029E0FB682C331B6814
:104E4000FA682C3223F470031360FB682C331A6861
:104E50007B68013B1B0503F47003F9682C31134395
:104E60000B6014E0FB6838331B68FA68383223F4AF
:104E700040131360FB6838331A687B68013B1B05DD
:104E800003F44013F968383113430B6000BF00BFCF
:104E90001437BD4680BC704780B487B000AFF8605F
:104EA0007B600B46FB721346BB72FB7A052B1ED848
:104EB000FB6834331B687B61FA7A13469B0013440A
:104EC0001F2202FA03F3DB437A6913407B61B97A4C
:104ED000FA7A13469B00134401FA03F37A691343E9
:104EE0007B61FB6834331A467B69136046E0FB7ACA
:104EF0000B2B20D8FB6830331B687B61FA7A134692
:104F00009B0013441E3B1F2202FA03F3DB437A6922
:104F100013407B61B97AFA7A13469B0013441E3B17
:104F200001FA03F37A6913437B61FB6830331A4655
:104F30007B69136022E0FB7A0F2B1FD8FB682C33B0
:104F40001B687B61FA7A13469B0013443C3B1F228B
:104F500002FA03F3DB437A6913407B61B97AFA7A88
:104F600013469B0013443C3B01FA03F37A69134355
:104F70007B61FB682C331A467B691360BB7A092B73
:104F80001ED8FB6810331B683B61BA7A13465B007E
:104F90001344072202FA03F3DB433A6913403B61EF
:104FA000BA7A13465B0013447A6802FA03F33A694B
:104FB00013433B61FB6810331A463B69136022E0E0
:104FC000BB7A112B1FD8FB680C331B683B61BA7A84
:104FD00013465B0013441E3B072202FA03F3DB4334
:104FE0003A6913403B61BA7A13465B0013441E3B97
:104FF0007A6802FA03F33A6913433B61FB680C33A6
:105000001A463B69136000BF1C37BD4680BC704721
:1050100080B483B000AF78600B46FB701346BB7062
:10502000BB78002B1AD0FB7803F00103002B07D0CC
:105030007B6808331B687A68083243F48013136076
:10504000FB7803F00203002B22D07B6808331B6837
:105050007A68083243F40043136019E0FB7803F0E8
:105060000103002B07D07B6808331B687A6808327D
:1050700023F480131360FB7803F00203002B07D0A6
:105080007B6808331B687A68083223F40043136096
:1050900000BF0C37BD4680BC704780B485B000AF00
:1050A000F8600B467A60FB72FB7A012B02D0022B70
:1050B00012D023E0FB6808331B68FA68083223F437
:1050C00060231360FB6808331A68FB6808331946CD
:1050D0007B6813430B6011E0FB6808331B68FA68B8
:1050E000083223F4E0431360FB6808331A68FB6856
:1050F000083319467B6813430B6000BF00BF1437A9
:10510000BD4680BC704780B483B000AF78600B466A
:10511000FB70FB7803F00103002B07D07B6808339A
:105120001B687A68083243F480031360FB7803F04D
:105130000203002B07D07B6808331B687A680832AB
:1051400043F40013136000BF0C37BD4680BC7047AA
:1051500080B582B000AF78600B46FB70FB781946D3
:10516000786800F09BFA0346002B00D1FEE7FA783E
:1051700013469B0013449B001A467B681344083374
:105180001968FA7813469B0013449B001A467B6803
:10519000134408331A4621F001031360FA781346CA
:1051A0009B0013449B001A467B68134408331A463D
:1051B00000231360FA7813469B0013449B001A46A1
:1051C0007B6813440C331A4600231360FA781346A5
:1051D0009B0013449B001A467B68134410331A4605
:1051E00000231360FA7813469B0013449B001A4671
:1051F0007B68134414331A46002313607B6804331E
:105200001A68FB789B000F2101FA03F379680431D7
:1052100013430B6000BF0837BD4680BD80B586B024
:1052200000AFF8600B467A60FB72FB7A1946F868AB
:1052300000F034FA0346002B00D1FEE7FA7A134659
:105240009B0013449B001A46FB68134410331A4614
:105250007B681B681360FA7A13469B0013449B001B
:105260001A46FB68134414331A467B689B68136024
:105270007B681969FA7A13469B0013449B001A460F
:10528000FB6813440C331A468BB21360FA7A134648
:105290009B0013449B001A46FB68134408331B68A9
:1052A0007B617B6923F47C537B617B685A687B68F4
:1052B000DB681A437B685B6913437A6913437B613C
:1052C000FA7A13469B0013449B001A46FB6813446A
:1052D00008331A467B6913607B681B7E012B17D14C
:1052E000FA7A13469B0013449B001A46FB6813444A
:1052F00008331968FA7A13469B0013449B001A4638
:10530000FB68134408331A4641F04003136016E06B
:10531000FA7A13469B0013449B001A46FB68134419
:1053200008331968FA7A13469B0013449B001A4607
:10533000FB68134408331A4621F0400313607B686E
:105340005B7E012B17D1FA7A13469B0013449B0016
:105350001A46FB68134408331968FA7A13469B000F
:1053600013449B001A46FB68134408331A4641F065
:105370008003136016E0FA7A13469B0013449B00E7
:105380001A46FB68134408331968FA7A13469B00DF
:1053900013449B001A46FB68134408331A4621F055
:1053A000800313607B689B7E002B17D1FA7A13462B
:1053B0009B0013449B001A46FB681344083319688A
:1053C000FA7A13469B0013449B001A46FB68134469
:1053D00008331A4621F01003136016E0FA7A1346D8
:1053E0009B0013449B001A46FB681344083319685A
:1053F000FA7A13469B0013449B001A46FB68134439
:1054000008331A4641F01003136000BF1837BD4639
:1054100080BD80B582B000AF78600B46FB70FB7832
:105420001946786800F03AF90346002B00D1FEE7F0
:10543000FA7813469B0013449B001A467B6813447A
:1054400008331968FA7813469B0013449B001A46E8
:105450007B68134408331A4641F02003136000BFF1
:105460000837BD4680BD80B582B000AF78600B467E
:10547000FB70FB781946786800F010F90346002BA2
:1054800000D1FEE7FA7813469B0013449B001A46AE
:105490007B68134408331968FA7813469B00134459
:1054A0009B001A467B68134408331A4621F02003F8
:1054B000136000BF0837BD4680BD80B582B000AF25
:1054C00078600B46FB70FB781946786800F0E6F8C8
:1054D0000346002B00D1FEE7FA7813469B001344E5
:1054E0009B001A467B68134408331968FA78134600
:1054F0009B0013449B001A467B68134408331A46EA
:1055000021F48043136000BF0837BD4680BD80B5DD
:1055100082B000AF78600B46FB70FB781946786864
:1055200000F0BCF80346002B00D1FEE7FA781346E2
:105530009B0013449B001A467B6813440833196888
:10554000FA7813469B0013449B001A467B68134469
:1055500008331A4641F00103136000BF0837BD4607
:1055600080BD80B582B000AF78600B46FB70FB78E1
:105570001946786800F092F80346002B00D1FEE748
:10558000FA7813469B0013449B001A467B68134429
:1055900008331968FA7813469B0013449B001A4697
:1055A0007B68134408331A4621F00103136000BFDF
:1055B0000837BD4680BD80B584B000AFF8600B46AB
:1055C0007A60FB72FB7A1946F86800F067F80346C8
:1055D000002B00D1FEE7FA7A13469B0013449B0090
:1055E0001A46FB6813440C331A467B689BB213605F
:1055F00000BF1037BD4680BD80B582B000AF786077
:105600000B46FB70FB781946786800F047F80346B4
:10561000002B00D1FEE7FA7813469B0013449B0051
:105620001A467B6813440C331B6818460837BD467E
:1056300080BD80B487B000AFF8600B467A60FB7223
:10564000FB681A68FB7A9B00796801FA03F3134040
:10565000002B02D00123FB7501E00023FB75FB7DCD
:1056600018461C37BD4680BC704780B485B000AF7B
:10567000F8600B467A60FB72FB6804331A68FB7AA9
:105680009B00796801FA03F3F968043113430B6056
:1056900000BF1437BD4680BC7047000080B485B0A1
:1056A00000AF78600B46FB700123FB737B68074AF1
:1056B000934204D1FB78042B01D90023FB73FB7BBD
:1056C00018461437BD4680BC704700BF0004024036
:1056D00080B483B000AF78600B46FB701346BB709C
:1056E000344B1A687B68DB43324913400B60324B02
:1056F0001A687B68DB43304913400B602F4B1A68F4
:105700007B68DB432D4913400B602D4B1A687B6887
:10571000DB432B4913400B60FB78002B02D0012B9D
:1057200007D00DE0234B1A6822497B6813430B60B6
:1057300006E0214B1A6820497B6813430B6000BFC9
:10574000BB78022B22D0022B2DDC002B02D0012BA8
:105750000ED028E0194B1A6818497B6813430B6078
:10576000174B1A687B68DB43154913400B601BE03D
:10577000124B1A687B68DB43104913400B60104BD7
:105780001A680F497B6813430B600DE00B4B1A68D6
:105790000A497B6813430B60094B1A6808497B6808
:1057A00013430B6000E000BF00BF0C37BD4680BC58
:1057B000704700BF00040140040401400804014098
:1057C0000C04014080B483B000AF7860064B1A68C7
:1057D0007B681340002B01D0012300E00023184612
:1057E0000C37BD4680BC70471404014080B483B0C0
:1057F00000AF7860034A7B68136000BF0C37BD467A
:1058000080BC70471404014080B400AF034B45F2E4
:1058100055521A6000BFBD4680BC70470030004042
:1058200080B400AF034B00221A6000BFBD4680BCAD
:10583000704700BF0030004080B400AF034B4CF60F
:10584000CC421A6000BFBD4680BC704700300040AB
:1058500080B400AF034B4AF6AA221A6000BFBD46CF
:1058600080BC70470030004080B485B000AF034674
:105870000A46FB8013467B71204BFB600023BB6014
:105880001F4B45F255521A601E4B1B6803F0010373
:10589000BB60FB68013BFB60FB68002B02D0BB6870
:1058A000002BF1D1BB68002B01D0002321E0164A68
:1058B0007B791360114BFB60124B1B6803F00203F2
:1058C000BB60FB68013BFB60FB68002B02D0BB6840
:1058D000002BF1D1BB68002B01D0002309E0FB882D
:1058E0000A4AC3F30B031360054B4AF6AA221A6057
:1058F000012318461437BD4680BC7047FFFF0F00D8
:10590000003000400C3000400430004008300040BF
:1059100080B489B000AFF860B9607A603B60002362
:10592000BB6100237B61BB6803F00F03BB61BB68F5
:1059300003F01003002B14D07B68042B0DD1BB693E
:1059400043F00303BB61FB683C331A68FB683C33DC
:1059500019463B6813430B6003E0BA697B68134345
:10596000BB610023FB8339E0FB8B01229A403B683B
:105970001340002B2FD0FB681B687B61FB8B9B00C7
:105980000F2202FA03F3DB437A6913407B61FB8B3E
:105990009B00BA6902FA03F37A6913437B61BB681F
:1059A000282B09D1FB8B01229A40FB68143319463E
:1059B0003B6813400B600BE0BB68482B08D1FB8BA6
:1059C00001229A40FB68103319463B6813400B6074
:1059D000FB687A691A60FB8B0133FB83FB8B072B17
:1059E000C2D90823FB833EE0FB8B01229A403B682F
:1059F0001340002B34D0FB6804331B687B61FB8BA6
:105A0000083B9B000F2202FA03F3DB437A69134041
:105A10007B61FB8B083B9B00BA6902FA03F37A694E
:105A200013437B61BB68282B09D1FB8B01229A4071
:105A3000FB68143319463B6813400B600BE0BB68EE
:105A4000482B08D1FB8B01229A40FB681033194682
:105A50003B6813400B60FB6804331A467B69136094
:105A6000FB8B0133FB83FB8B0F2BBDD900BF00BF2A
:105A70002437BD4680BC704780B483B000AF7860E7
:105A800039607B6810331A463B68136000BF0C37DF
:105A9000BD4680BC704780B483B000AF7860396089
:105AA0007B6814331A463B68136000BF0C37BD4651
:105AB00080BC704780B485B000AFF860B960134611
:105AC000FB71FB79002B05D0FB6810331A46BB68CD
:105AD000136004E0FB6814331A46BB68136000BF10
