:020000040800F2
:10000000880F00201D0D0008110200081D020008C5
:1000100023020008290200082F0200080000000047
:100020000000000000000000000000003502000891
:1000300041020008000000004D02000859020008BB
:10004000650D0008650D0008650D0008650D0008C8
:10005000650D0008650D0008C9020008650D00085F
:10006000650D0008650D0008650D0008650D0008A8
:10007000650D0008650D0008650D0008650D000898
:10008000650D0008650D0008650D0008650D000888
:10009000650D0008650D0008650D0008E302000805
:1000A000650D0008650D0008650D0008650D000868
:1000B0001F0300086D03000891030008650D000888
:1000C000650D0008650D0008650D0008650D000848
:1000D000650D0008650D000875020008650D000833
:1000E000650D0008650D0008650D0008650D000828
:1000F000650D0008650D0008650D0008650D000818
:10010000650D0008650D0008E1030008650D000895
:10011000650D0008650D000815040008BD04000801
:10012000650D0008650D0008650D0008650D0008E7
:1001300001F0FF01102A2BDB10F0070F08D010F898
:10014000013B013A8B422DD010F0070F42B3F6D19C
:10015000F0B441EA012141EA014122F007047FF0B5
:1001600000070023F0E80256083C85EA010586EA0C
:10017000010685FA47F5A3FA87F586FA47F6A5FA48
:1001800087F68EB9EED1F0BC01F0FF0102F0070254
:1001900032B110F8013B013A83EA010313B1F8D1FF
:1001A0000020704701387047002D06BF35460338E0
:1001B000073815F0010F07D1013015F4807F02BF19
:1001C000013015F4C03F0130F0BC0138704700BF6A
:1001D00010B5054C237833B9044B13B10448AFF381
:1001E00000800123237010BD6C000020000000007F
:1001F000FC91000808B5034B1BB103490348AFF35A
:10020000008008BD0000000070000020FC91000884
:1002100080B400AF00BFBD4680BC704780B400AF63
:10022000FEE780B400AFFEE780B400AFFEE780B425
:1002300000AFFEE780B400AF00BFBD4680BC704792
:1002400080B400AF00BFBD4680BC704780B400AF33
:1002500000BFBD4680BC704780B500AF044B1B6833
:100260000133034A136001F037FA00BF80BD00BFBD
:10027000B800002080B500AF0F49104807F0FEFD20
:100280000346002B15D00D4807F070FD03461846B5
:100290000B4B1B885A1C91B2094A11801A46C1B2F5
:1002A000084B9954064B1B883F2B02D9044B002264
:1002B0001A8000BF80BD00BF050305000044004058
:1002C00070030020B802002080B500AF012006F0C6
:1002D00051F80346002B02D0012006F05FF800BF62
:1002E00080BD80B500AF4FF4007006F043F80346C0
:1002F000012B05D101F020F84FF4007006F04EF804
:100300004FF4807006F036F80346012B05D104F057
:1003100097F94FF4807006F041F800BF80BD80B5BA
:1003200000AF04214FF0804006F0DAFE0346012BB7
:100330000DD101214FF0804007F0BAFB034618466B
:1003400001F04AF804214FF0804006F0E6FE01215A
:100350004FF0804006F0C4FE0346012B04D101217A
:100360004FF0804006F0D9FE00BF80BD80B500AFE1
:100370000121064806F0B4FE0346012B03D10121FA
:10038000024806F0CAFE00BF80BD00BF0004004066
:1003900080B500AF01210F4806F0A2FE0346012BF5
:1003A00016D180210C4806F03FF90A4806F01BFEE2
:1003B0000121084806F0B1FE0021084806F050FE71
:1003C0004FF41671054806F03BFE044806F0FCFDAC
:1003D00000BF80BD00080040000C0140000C004040
:1003E00080B500AF0121094806F07AFE0346012BD3
:1003F0000AD18021064806F026F9044806F0F3FDEC
:100400000121024806F089FE00BF80BD000C0040BB
:10041000000C014080B500AF0121204806F060FECD
:100420000346012B38D11E4B1B78012B04D18021B0
:100430001C4806F0F9F81CE01B4B1B78012B18D167
:100440001A4B1B78012B03D1194B1B78012B03D8B6
:100450004021184806F0E8F8154B1B780133DAB252
:10046000134B1A70124B1B780A2B02D1104B00222F
:100470001A700A4806F0B7FD0121084806F04DFE43
:1004800000210D4806F0ECFD41F69C010A4806F0FB
:10049000D7FD094806F098FD00BF80BD0010004060
:1004A0000E020020000801400D0200201002002072
:1004B0000C020020000C01400014004080B500AF89
:1004C00001210B4806F00CFE0346012B0ED18021C2
:1004D000084806F0B8F84021074806F0B4F8044888
:1004E00006F081FD0121024806F017FE00BF80BD25
:1004F0000014004000080140000C014080B582B0AB
:1005000000AF00237B6000F0F1F804F05BF904F029
:100510006DF900F0D7FD04F0A3F804F077FF04F0C4
:1005200025F904F04FFE01F083F800F083F8002075
:1005300006F028FB03461946244807F00DFF01206A
:1005400006F020FB03461946214807F005FF02206C
:1005500006F018FB034619461E4807F0FDFE03206F
:1005600006F010FB034619461B4807F0F5FE07F09E
:10057000BFFE78607B681B0EDBB219467B681B0CE4
:10058000DBB21A467B681B0ADBB2144807F0E4FEB4
:1005900000F0FAF9124A1349134800F06DFA134AB1
:1005A0001349144800F068FA134A1449144800F03B
:1005B00063FA144A1449154800F05EFA00F050F945
:1005C000002318460837BD4680BD00BF14920008BE
:1005D00024920008349200084492000854920008C3
:1005E0004950000801500008D94F0008054500088F
:1005F000B54400088D440008F54300085D43000839
:1006000029430008DD4A0008914A0008694A0008A9
:1006100080B584B000AF78607B68DBB2FB7307F114
:100620000F030121184604F00DFF7B6818461037B0
:10063000BD4680BD80B500AF05F0BEFE062140F688
:10064000FF7005F0E9FE05F0CFFE05F0C1FE00BF2A
:1006500080BD000080B483B000AF03463960FB71F9
:1006600097F90730002B0BDA3B68DAB20C49FB79BB
:1006700003F00F03043B1201D2B20B441A7609E0D7
:100680003B68DAB2074997F907301201D2B20B443E
:1006900083F8002300BF0C37BD4680BC704700BF05
:1006A00000ED00E000E100E080B582B000AF7860CE
:1006B0007B68013BB3F1807F01D301230FE00A4A3D
:1006C0007B68013B53600F214FF0FF30FFF7C2FF03
:1006D000054B00229A60044B07221A60002318463B
:1006E0000837BD4680BD00BF10E000E080B500AF18
:1006F000094B1B68094AA2FB03239B091846FFF715
:10070000D3FF0346002B00D0FEE700214FF0FF305F
:10071000FFF7A0FF00BF80BD04000020D34D621092
:1007200080B483B000AF78607B68002B0DD0094B9C
:100730001A687B681344084A136000BF054B1A68A7
:10074000054B1B689A42F9D100E000BF0C37BD464B
:1007500080BC7047B80000208800002080B400AF43
:10076000024B1B681846BD4680BC7047B80000208D
:1007700080B582B000AF0023FB71FFF7EFFF386058
:100780005BE00023FB7123E0FB79314A52F8233010
:10079000002B1AD0FB792E4A52F82320013A2C491B
:1007A00041F82320FB792A4A52F82330002B0CD140
:1007B000FB79012202FA03F31AB2264B1B881BB203
:1007C00013431BB29AB2234B1A80FB790133FB719E
:1007D000FB79032BD8D90023FB7126E0FB791E4A55
:1007E0001B01134408331B68002B1BD0FB791A49EB
:1007F0001A010A4408321268013A17491B010B44D6
:1008000008331A60FB79144A1B01134408331B6830
:10081000002B07D1FB79104A1B011A44137843F0CF
:1008200010031370FB790133FB71FB790F2BD5D9C2
:100830000A4B1B680133094A1360084B1B683A686E
:100840009A429ED100BF00BF0837BD4680BD00BFA1
:10085000E4010020BC010020BC000020F4010020C5
:1008600080B582B000AFFFF783FF05F0C9FD404BB4
:100870001B781A463F4B53F82230002B16D03C4BC6
:100880001B781A463C4B53F82230394A12783849C3
:1008900009780846374951F8201010469847344BDC
:1008A0001B781946334B002243F82120334B1B8819
:1008B0001A462F4B1B7842FA03F303F00103002B77
:1008C00006D02B4B1B781A462D4B53F822309847F5
:1008D0000023FB713AE0FB792A4A1B0113441B7881
:1008E000C3F30303DBB21A46214B1B789A4229D18A
:1008F000FB79244A1B0113441B78C3F30013DBB2BA
:10090000002B20D0FB791F4A1B011A44137843F0B7
:100910000F031370FB791B4A1B011A4413786FF302
:1009200004131370FB79174A1B0113440C331B6823
:10093000002B08D0FB79134A1B0113440C331B68AE
:10094000984700E000BFFB790133FB71FB790F2B67
:10095000C1D9074B1B780133DAB2054B1A70044B2F
:100960001B78042B7FF47FAF014B00221A707AE7CB
:10097000F8010020D4010020FC010020BC0100206F
:10098000C0010020BC00002080B582B000AF324B17
:1009900000221A70314B00221A80FFF7DFFE034657
:1009A0002F4A13600023FB710CE0FB792D4A0021D4
:1009B00042F82310FB792C4A002142F82310FB79DE
:1009C0000133FB71FB79032BEFD90023FB7128E086
:1009D000FB79264A1B011A44137843F00F03137066
:1009E000FB79224A1B011A4413786FF30413137026
:1009F000FB791E4A1B01134404334FF0FF321A6087
:100A0000FB791A4A1B011344083300221A60FB7950
:100A1000164A1B0113440C3300221A60FB79013380
:100A2000FB71FB790F2BD3D90023FB710CE0FB7911
:100A30000F4A002142F82310FB790E4A002142F8A8
:100A40002310FB790133FB71FB79032BEFD900BF36
:100A500000BF0837BD4680BDF8010020BC01002062
:100A6000F4010020D4010020E4010020BC0000209B
:100A7000C0010020FC01002080B586B000AFF86006
:100A8000B9607A600023FB7508E0FB7D184A52F8D4
:100A90002330002B06D0FB7D0133FB75FB7D032B40
:100AA000F3D900E000BFFB7D042B01D100231BE044
:100AB000FB7D0F49BA6841F82320FB7D0D497A6818
:100AC00041F82320FA7DFB6810469847FB7D012200
:100AD00002FA03F31AB2084B1B881BB213431BB272
:100AE0009AB2054B1A80012318461837BD4680BDBF
:100AF000C0010020FC010020BC01002080B483B0B4
:100B000000AF0346FB71FB79012202FA03F31AB22C
:100B1000064B1B881BB213431BB29AB2034B1A80BD
:100B200000BF0C37BD4680BC704700BFBC01002031
:100B300080B483B000AF78607B68002B17D00E4B79
:100B40001B781A46012393401BB2DB431AB20B4BAE
:100B50001B881BB213401BB29AB2084B1A80064B7B
:100B60001B781946064A7B6842F8213000E000BF36
:100B70000C37BD4680BC7047F8010020BC01002046
:100B8000E401002080B487B000AFF860B9607A60FB
:100B90000023FB7536E0FB7D3C4A1B011344043304
:100BA0001B68FA689A422AD1394B1A78FB7D02F009
:100BB0000F02D1B2354A1B011A44137861F30303C3
:100BC0001370FB7D314A1B0113440C337A681A60A1
:100BD000FB7D2E4A1B0113440433FA681A60FB7D27
:100BE0002A4A1B0113440833BA681A60FB7D274A5E
:100BF0001B011A4413786FF30413137042E0FB7D5A
:100C00000133FB75FB7D0F2BC5D90023FB7536E047
:100C1000FB7D1E4A1B01134404331B68B3F1FF3FE5
:100C20002AD11B4B1A78FB7D02F00F02D1B2174A72
:100C30001B011A44137861F303031370FB7D134AFD
:100C40001B0113440C337A681A60FB7D0F4A1B01A9
:100C500013440433FA681A60FB7D0C4A1B011344E9
:100C60000833BA681A60FB7D084A1B011A441378DE
:100C70006FF30413137005E0FB7D0133FB75FB7DFF
:100C80000F2BC5D91C37BD4680BC7047BC00002067
:100C9000F801002080B485B000AF78600023FB73BA
:100CA00032E0FB7B1C4A1B01134404331B687A6847
:100CB0009A4226D1FB7B184A1B011A44137843F051
:100CC0000F031370FB7B144A1B0113440C330022E7
:100CD0001A60FB7B104A1B01134404334FF0FF32B0
:100CE0001A60FB7B0C4A1B011344083300221A6074
:100CF000FB7B094A1B011A4413786FF3041313702A
:100D000005E0FB7B0133FB73FB7B0F2BC9D9143749
:100D1000BD4680BC704700BFBC000020002103E03E
:100D20000B4B5B58435004310A480B4B42189A4214
:100D3000F6D30A4A02E0002342F8043B084B9A42E9
:100D4000F9D307F07FF907F0DBFAFFF7D7FB70471D
:100D500070930008000000206C0000206C00002050
:100D600084030020FEE7000080B500AF40F203607E
:100D700005F03EFE40F2026005F03AFE40F20260ED
:100D800005F036FE40F2036005F032FE40F20360EB
:100D900005F02EFE402301221021154805F090FB9E
:100DA0004021134805F04FFC8023012210211048F8
:100DB00005F086FB80210E4805F045FC4FF40073DA
:100DC000012248210A4805F07BFB802301221021E3
:100DD000084805F075FB8021064805F034FC022325
:100DE00001224821034805F06BFB00BF80BD00BF16
:100DF000000C01400008014080B500AF4FF4C06016
:100E000005F0F6FD0921012005F0E0FC0222002199
:100E10004FF4007005F034FA4FF4007005F0BEFA9C
:100E200000220021172005F05BFD00BF80BD80B5CA
:100E300088B000AF78600B467B807B88184605F051
:100E4000D7FD786805F090FF07F11003184606F00B
:100E500023F877233B8200237B820023BB824FF65B
:100E6000FF73BB610023FB8207F11003194678680A
:100E700006F02EF807F10803184606F063FC00237D
:100E80003B8101237B810023BB810423FB8107F18C
:100E900008031A460121786806F06AFC0421786884
:100EA00006F00BF90121786806F007F9002202210B
:100EB0001C2005F015FD786806F086F800BF203785
:100EC000BD4680BD80B586B000AF78600B467B80A4
:100ED0007B88184605F08CFD786805F045FF07F122
:100EE0000803184605F0D8FF77233B8100237B8158
:100EF0000023BB8144F620633B610023FB8107F1A3
:100F000008031946786805F0E3FF0021786806F0C9
:100F1000B7F8786806F085F80121786806F0CDF812
:100F20007B681D4A934226D07B681B4A934228D88F
:100F30007B681A4A934218D07B68184A934220D89B
:100F40007B68174A934204D07B68164A934206D0C6
:100F500017E0002201211E2005F0C2FC12E0002251
:100F60000121322005F0BCFC0CE0002201213620DA
:100F700005F0B6FC06E000220121372005F0B0FCA8
:100F800000E000BF786806F01FF8786806F02BF8DC
:100F900000BF1837BD4680BD00140040001000405F
:100FA00000080040000C004080B500AF80210948D7
:100FB00005F049FB084806F016F8084806F013F853
:100FC0000121054806F0A9F80121044806F0A5F81A
:100FD00000BF80BD000C014000080040000C004034
:100FE00080B500AF4021094805F02DFB084805F009
:100FF000FAFF084805F0F7FF0121054806F08DF8D3
:101000000121044806F089F800BF80BD000C0140B2
:10101000001000400014004080B500AF8021094856
:1010200005F011FB084805F0DEFF084805F0DBFF7E
:101030000121054806F071F80121044806F06DF819
:1010400000BF80BD000801400010004000140040B7
:1010500080B485B000AF0346FB8042F21073FB8181
:10106000FB88B42B01D9B423FB80FB88FA8902FBEF
:1010700003F39B08044AA2FB03239B089BB2184678
:101080001437BD4680BC7047176CC11680B485B05C
:1010900000AF0346FB8042F28D03FB81FA88FB8997
:1010A0009A4201D9FB89FB8072B600BF044AFB88D3
:1010B000138062B600BF00BF1437BD4680BC7047C6
:1010C0008C00002080B500AFFFF74EFEFFF794FEC6
:1010D0004FF4E0614FF08040FFF7A9FE40F2047149
:1010E0001A48FFF7EFFE40F205711948FFF7EAFED4
:1010F00040F202711748FFF7E5FE40F2037116480F
:10110000FFF7E0FE154B00221A70154B00221A70F3
:10111000144B00221A70144B00221A70134B002239
:101120001A80134B00221A80124B00221A80124B95
:1011300000221A80FFF712FB0346104A13600F4B80
:101140001B680F4A136000BF80BD00BF0010004045
:101150000014004000080040000C00401102002074
:101160000D0200200E0200200F0200208C00002043
:101170008E000020920000209000002094000020AB
:101180009800002080B500AF084B1B78012B0BD0D6
:10119000064B01221A70064B00221A70FFF7DEFA86
:1011A0000346044A136000E000BF80BD1102002026
:1011B0000F0200209400002080B582B000AF0346EB
:1011C000FB710D4B1B78012B11D00C4AFB7913706E
:1011D0000B4B00221A70084B01221A70094B002297
:1011E0001A70FFF7BBFA0346074A136000E000BF1E
:1011F0000837BD4680BD00BF0D0200201002002050
:101200000C0200200F0200209400002080B584B062
:1012100000AF0346FB801F4B1B78012B35D01D4BC5
:101220001B78022B31D0FB88B3F5FA6F02D94FF44B
:10123000FA63FB80184AFB881380174B1B881A46F9
:10124000B42303FB02F3154AA2FB0323DB09FB8152
:10125000FB89092B01D80A23FB81FB891846FFF77C
:10126000F7FE03461846FFF711FF0A4B01221A70DA
:101270000B4B00221A70FFF771FA0346094A1360FC
:10128000084B1B68084A136000E000BF1037BD46DA
:1012900080BD00BF0E02002090000020D34D6210E0
:1012A0000F020020940000209800002080B500AFBD
:1012B00072B600BF084B00221A70084B00221A7049
:1012C000074B00221A80074B00221A8062B600BF2B
:1012D000FFF7A2FE00BF80BD0E0200200F0200201B
:1012E000900000208C00002080B500AF72B600BFD7
:1012F000054B00221A70054B00221A7062B600BF1F
:10130000FFF76EFE00BF80BD0D0200200F0200201F
:1013100080B500AF72B600BF054B00221A70054BB6
:1013200000221A7062B600BFFFF73EFE00BF80BD0C
:10133000110200200F02002080B500AF204B1B7867
:10134000012B0ED1FFF768FE00211E4805F088FE34
:101350004FF496711B4805F073FE1A4805F034FEF1
:1013600016E0194B1B78012B0ED1FFF739FE002137
:10137000144805F075FE4FF49671124805F060FEB2
:10138000104805F021FE03E0FFF746FEFFF728FEB8
:10139000FFF70AFE0D4B1B78012B0AD100210C48E8
:1013A00005F05EFE64210A4805F04AFE084805F093
:1013B0000BFEFFF7D3F90346064A136000BF80BD5A
:1013C0000E020020001000400D020020110200203B
:1013D000000800409400002080B584B000AF786021
:1013E0001B4B1B687A689A4205D3194B1B687A68B5
:1013F000D31AFB6007E0164B1B687A68D31A03F513
:101400007F43FF33FB60FB68642B19D9FB68114AEB
:10141000934215D8104AFB681360104AFB68B2FB70
:10142000F3F3BB60BB689BB21A461201D31A9B0050
:101430009AB20B4B1A80FFF791F90346094A1360E1
:10144000034A7B68136000BF1037BD4680BD00BFF4
:101450009C0000201FA10700A000002040420F00B8
:10146000920000209800002080B500AF40F2036099
:1014700005F0BEFA40F2026005F0BAFA4FF4A0603F
:1014800005F0B6FA40F2096005F0B2FA40F20A60DF
:1014900005F0AEFA022005F013FB00BF80BD00008E
:1014A00080B500AF012304220021084805F008F8A8
:1014B000022304220021054805F002F8102304222B
:1014C0000021034804F0FCFF00BF80BD000C014078
:1014D0000008014080B588B000AF0021144804F036
:1014E0000FFC144B7B6000233B77134BFB60012305
:1014F0007B774FF40073BB604FF400633B610023C4
:10150000BB7703237B614FF40053BB613B1D1A463D
:101510000021074804F05AFC0021054804F051FD61
:101520000021034804F0CBFD00BF2037BD4680BD3D
:10153000000002404C2401401402002080B500AF9E
:101540004FF4C02004F0B0F90021374804F022FA2B
:101550000021364804F01EFA01224FF4807132480F
:1015600004F0BAF901224FF48071304804F0B4F964
:10157000032201212C4804F02BFA032201212B48DD
:1015800004F026FA072304220021274804F05CFA1D
:10159000072308220121244804F056FA07230922D0
:1015A0000221214804F050FA0723082200211F4895
:1015B00004F04AFA0723092201211C4804F044FAE6
:1015C000072304220221194804F03EFA4FF4602256
:1015D0000121154804F039FB4FF460220121134822
:1015E00004F033FB012201210F4804F0E9FA012243
:1015F00001210E4804F0E4FA0B4804F001F901203F
:10160000FFF78EF8084804F013F9084804F0F8F8DA
:101610000120FFF785F8054804F00AF9024804F0B4
:1016200031F900BF80BD00BF002401400028014007
:1016300080B500AFFFF718FFFFF732FFFFF74AFF53
:10164000FFF77CFF00BF80BD80B485B000AF0346CC
:10165000FB710023FB60FB79022B22D0022B2EDCD6
:10166000002B02D0012B0ED029E01A4B1B689BB235
:10167000FB60184B9B681B0CFA681344FB60FB680B
:101680005B08FB601CE0134B5B689BB2FB60114B7B
:101690001B681B0CFA681344FB60FB685B08FB606B
:1016A0000EE00C4B9B689BB2FB600A4B5B681B0C0B
:1016B000FA681344FB60FB685B08FB6000E000BF56
:1016C000FB689BB2C3F30B039BB218461437BD46AD
:1016D00080BC70471402002080B582B000AF0020AB
:1016E000FFF7B2FF0346FB80084B1B88FA88934242
:1016F00038BF13469AB2054B1A800121044804F002
:10170000DAFA00BF0837BD4680BD00BF20020020C6
:101710000024014080B500AF4FF400410A4804F0B6
:10172000CFFF0346C3F10103DBB21A464FF4004179
:10173000054804F097FF054A0A214FF40040FFF7DF
:1017400021FA00BF80BD00BF000801401517000846
:1017500080B500AF094B1B78013BDAB2074B1A701A
:10176000064B1B78002B07D0012003F031FD044A03
:1017700050210120FFF706FA00BF80BD250200209E
:101780008517000880B500AF002003F021FD034A53
:1017900050210120FFF7F6F900BF80BD5117000866
:1017A00080B582B000AF0346FB71FB79002B0BD0F4
:1017B0000A4AFB791370012003F00AFD084A502100
:1017C0000120FFF7DFF905E0002003F001FD012013
:1017D000FFF760FA00BF0837BD4680BD2502002034
:1017E0008517000880B483B000AF0346FB71FB7916
:1017F000013B0A2B18D801A252F823F0291800083F
:1018000029180008291800082918000829180008B4
:1018100029180008291800082918000829180008A4
:10182000291800082918000800BF00BF0C37BD4662
:1018300080BC704780B582B000AF0346FB71FB7976
:10184000013B0A2B1CD801A252F823F08118000892
:101850007918000879180008791800087918000824
:101860007918000879180008791800087918000814
:1018700081180008811800080220FFF70BFA00E029
:1018800000BF00BF0837BD4680BD00BF80B582B035
:1018900000AF03460A46FB711346BB710B4B1B7826
:1018A0001846FFF7C7FFFB791846FFF79BFF084B69
:1018B0001B781846FFF722F9064ABB791370034AD2
:1018C000FB79137000BF0837BD4680BD240200209D
:1018D000260200203502002080B582B000AF03460A
:1018E000FB71064B1B781846FFF708F9044AFB7991
:1018F000137000BF0837BD4680BD00BF2602002020
:101900003502002080B400AF054BDB691B0CDBB255
:1019100003F00103DBB21846BD4680BC704700BF30
:101920004C02002080B400AF054BDB69DB0ADBB260
:1019300003F00103DBB21846BD4680BC704700BF10
:101940004C02002080B400AF064BDB6903F4004377
:10195000002B0CBF01230023DBB21846BD4680BC20
:10196000704700BF4C02002080B400AF084B1B78CA
:101970001A46084B53F82230054A1278114643F0B4
:101980000203044A42F8213000BFBD4680BC7047C4
:1019900044020020D401002080B483B000AF03468D
:1019A000FB800B4B1B781A460A4B53F82230084A2F
:1019B0001278114643F00103064A42F82130064AE4
:1019C000FB88138000BF0C37BD4680BC704700BF4A
:1019D00044020020D40100204202002080B582B0E1
:1019E00000AF0346FB80FB88184603F01EF8034651
:1019F00018460837BD4680BD80B483B000AF0346AB
:101A0000FB71064B1B78FA799A420CBF0123002325
:101A1000DBB218460C37BD4680BC7047240200205C
:101A200080B582B000AF1F4B3B600023FB7116E016
:101A3000FB7907F10802134413F8082C1A4B1B78A2
:101A40001946FB7941FA03F3DBB203F00103DBB281
:101A50001946104602F042FEFB790133FB71FB7917
:101A6000032BE5D9104B1B785B00DAB20E4B1A70D2
:101A70000D4B1B781A46FB7942FA03F303F001037E
:101A8000002B05D0084B1B780133DAB2064B1A70D5
:101A9000064A4FF4FA710220FFF774F800BF0837C6
:101AA000BD4680BD0C0F12152A020020211A000825
:101AB00080B500AF084B03221A70002000F030F907
:101AC00001210C2002F00AFE044A4FF4FA710220B0
:101AD000FFF758F800BF80BD2A020020211A000835
:101AE00080B500AF0221052002F0F8FD034A4FF453
:101AF000FA710220FFF746F800BF80BDE11A000826
:101B000080B500AF0121052002F0E8FD034A4FF443
:101B1000FA710220FFF736F800BF80BDE11A000815
:101B200080B500AF0C4B1B78002B04D102210C2098
:101B300002F0D4FD07E0084B1B78012B03D10221F2
:101B4000092002F0CBFD054A4FF4FA710220FFF79D
:101B500019F800BF80BD00BF30020020211B000823
:101B600080B500AF0C4B1B78002B04D101210C2059
:101B700002F0B4FD07E0084B1B78012B03D10121D3
:101B8000092002F0ABFD054A4FF4FA710220FEF77E
:101B9000F9FF00BF80BD00BF30020020211B0008FC
:101BA00080B500AF0C4B1B78002B04D102210F2015
:101BB00002F094FD07E0084B1B78012B03D10221B2
:101BC000062002F08BFD054A4FF4FA710220FEF761
:101BD000D9FF00BF80BD00BF30020020A11B00085C
:101BE00080B500AF0C4B1B78002B04D102210F20D5
:101BF00002F074FD07E0084B1B78012B03D1022192
:101C0000062002F06BFD054A4FF4FA710220FEF740
:101C1000B9FF00BF80BD00BF30020020A11B00083B
:101C200080B500AF0221152002F058FD034A4FF4A1
:101C30007A710220FEF7A6FF00BF80BD211C0008BC
:101C400080B500AF0121152002F048FD034A4FF492
:101C50007A710220FEF796FF00BF80BD211C0008AC
:101C600080B500AF0221122002F038FD034A4FF484
:101C70007A710220FEF786FF00BF80BD611C00085C
:101C800080B500AF0121122002F028FD034A4FF475
:101C90007A710220FEF776FF00BF80BD611C00084C
:101CA00080B500AF0221112002F018FD034A4FF465
:101CB0007A710220FEF766FF00BF80BDA11C0008FC
:101CC00080B500AF0121112002F008FD034A4FF456
:101CD0007A710220FEF756FF00BF80BDA11C0008EC
:101CE00080B500AF0221022002F0F8FC034A4FF455
:101CF0007A710220FEF746FF00BF80BDE11C00089C
:101D000080B500AF0121022002F0E8FC034A4FF445
:101D10007A710220FEF736FF00BF80BDE11C00088B
:101D200080B582B000AF0346FB71FB7919461220E3
:101D300002F0D4FCFB791946152002F0CFFCFB79A8
:101D400019460C2002F0CAFCFB7919460F2002F05C
:101D5000C5FCFB7919461A2002F0C0FCFB79002B68
:101D600013D1FB791946092002F0B8FCFB7919461A
:101D7000062002F0B3FCFB791946112002F0AEFCFC
:101D8000FB791946022002F0A9FC00BF0837BD46C6
:101D900080BD80B582B000AF0346FB71FB79194668
:101DA000012002F09BFCFB7919460A2002F096FC08
:101DB000FB7919460D2002F091FCFB79194613209E
:101DC00002F08CFCFB791946042002F087FCFB79B9
:101DD0001946192002F082FCFB791946102002F006
:101DE0007DFC00BF0837BD4680BD80B500AF0C202C
:101DF00002F0A6FC0346002B07D00F2002F0A0FC47
:101E00000346002B01D0012300E00023184680BDCB
:101E100080B500AF0020FFF783FF0020FFF7B9FF78
:101E20000021052002F05AFC0120FFF779FF00BFD6
:101E300080BD000080B500AF0E4B1B78072B13DC74
:101E4000032B0CDA012B02DC002B03DA0CE0022B53
:101E50000CD009E000210220FFF718FD07E0002167
:101E60000B20FFF713FD02E000BF00E000BF00BF42
:101E700080BD00BF2402002080B582B000AF0023E7
:101E8000FB712D4B1B78032B02D0042B4AD04DE065
:101E90002A4B1B78023B0A2B42D801A252F823F0AE
:101EA000CD1E0008211F0008DB1E0008211F0008AE
:101EB000E91E0008211F0008F71E0008211F000866
:101EC000051F0008211F0008131F0008002104201F
:101ED000FFF7DCFC0123FB7123E000210520FFF765
:101EE000D5FC0123FB711CE000210620FFF7CEFC8E
:101EF0000123FB7115E000210720FFF7C7FC012338
:101F0000FB710EE000210820FFF7C0FC0123FB71EC
:101F100007E000210920FFF7B9FC0123FB7100E075
:101F200000BF03E0064B00221A7000BFFB79184681
:101F30000837BD4680BD00BF2402002035020020C6
:101F40003402002080B582B000AF0023FB710B4B40
:101F50001B78032B0CD10A4B1B78053B012B03D9B3
:101F60000520FFF7B9FC00E000BF0123FB7100E092
:101F700000BFFB7918460837BD4680BD240200200B
:101F80003502002080B582B000AF0023FB711C4BEE
:101F90001B78032B2ED11B4B1B78013B012B22D826
:101FA000194B1B780133DAB2174B1A70164B1B789A
:101FB00003F00103DAB2144B1A7000210C2002F076
:101FC0008DFB0021092002F089FB0F4B1B78002BB1
:101FD00004D00121092002F081FB08E001210C203E
:101FE00002F07CFB03E00120FFF776FC00BF012339
:101FF000FB7100E000BFFB7918460837BD4680BD85
:1020000024020020350200203002002080B582B07A
:1020100000AF0023FB710B4B1B78032B0CD10A4B39
:102020001B78073B012B03D90720FFF755FC00E085
:1020300000BF0123FB7100E000BFFB7918460837A1
:10204000BD4680BD240200203502002080B582B04C
:1020500000AF0023FB711C4B1B78032B2ED11B4BB5
:102060001B78033B012B22D8194B1B780133DAB2C2
:10207000174B1A70164B1B7803F00103DAB2144B9E
:102080001A7000210F2002F029FB0021062002F027
:1020900025FB0F4B1B78002B04D00121062002F0FA
:1020A0001DFB08E001210F2002F018FB03E00320D4
:1020B000FFF712FC00BF0123FB7100E000BFFB79BA
:1020C00018460837BD4680BD240200203502002096
:1020D0003002002080B582B000AF0023FB711E4BA0
:1020E0001B78032B31D11D4B1B78022B01D0042B05
:1020F00029D10021132002F0F1FA00210D2002F075
:10210000EDFA174B5B780133DAB2154B5A70144B6A
:102110005B78032B06D0032B11DC012B0AD0022B9A
:1021200004D00CE00E4B00225A7009E0012113206C
:1021300002F0D4FA01210D2002F0D0FA00E000BF35
:102140000123FB7100E000BF00E000BFFB791846EF
:102150000837BD4680BD00BF2402002035020020A4
:102160003002002080B582B000AF0023FB71254B08
:102170001B78032B40D1244B1B78062B8CBF0122EC
:102180000022D2B2002A35D1012202FA03F303F071
:102190005403002B14BF01230023DBB2002B29D0F2
:1021A0000021102002F09AFA0021192002F096FA7C
:1021B000164B9B780133DAB2144B9A70134B9B7811
:1021C000032B06D0032B11DC012B0AD0022B04D0E9
:1021D0000CE00E4B00229A7009E00121102002F061
:1021E0007DFA0121192002F079FA00E000BF0123F5
:1021F000FB7100E000BF00E000BFFB791846083724
:10220000BD4680BD2402002035020020300200209F
:1022100080B582B000AF0023FB710B4B1B78032B02
:102220000CD10A4B1B780B3B012B03D90B20FFF77A
:1022300053FB00E000BF0123FB7100E000BFFB790E
:1022400018460837BD4680BD240200203502002014
:1022500080B582B000AF0023FB710B4B1B78032BC2
:102260000CD10A4B1B78093B012B03D90920FFF73E
:1022700033FB00E000BF0123FB7100E000BFFB79EE
:1022800018460837BD4680BD2402002035020020D4
:1022900080B400AF034B1B78032B00BF00BFBD46CB
:1022A00080BC70472402002080B582B000AF786007
:1022B0007B685B6803F00103002B02D00120FFF76D
:1022C0006FFA7B689B6803F00103002B19D07B68D1
:1022D0001B6903F00103002B02D0FFF7ABFD0AE0FE
:1022E0000120FFF789FB0346002B04D10120FFF7F3
:1022F00057FAFFF79FFD7B681B6923F001027B689B
:102300001A617B689B6803F01003002B07D0FFF76E
:10231000B3FD0346002B02D00120FFF741FA7B6892
:102320009B6803F00403002B07D0FFF72BFE034646
:10233000002B02D00120FFF733FA7B689B6803F083
:102340002003002B07D0FFF781FE0346002B02D0AD
:102350000120FFF725FA7B689B6803F00203002B3E
:1023600007D0FFF7EFFD0346002B02D00120FFF757
:1023700017FA7B689B6803F00803002B07D0FFF770
:1023800045FE0346002B02D00120FFF709FA7B68C7
:102390009B6803F04003002B07D0FFF79BFE03462A
:1023A000002B02D00120FFF7FBF97B689B6803F448
:1023B0008063002B07D0FFF7D5FE0346002B02D029
:1023C0000120FFF7EDF97B685B6803F40073002BD5
:1023D00007D0FFF71DFF0346002B02D00120FFF7B7
:1023E000DFF97B685B6803F48073002B07D0FFF78D
:1023F0002FFF0346002B02D00120FFF7D1F97B68A5
:102400009B6803F08003002B01D0FFF741FF00BF62
:102410000837BD4680BD000080B500AF114B1B786A
:10242000022B17D0022B1ADC002B02D0012B0AD072
:1024300015E00D4A0A214FF40040FEF7A3FB094BBB
:1024400001221A700CE00220FEF772FB054B0222FB
:102450001A7005E000210120FFF718FA00E000BF24
:1024600000BF80BD350200201517000880B500AF01
:102470000A4B1B78002B02D0012B08D00CE002F095
:1024800021F9FFF771FA054B01221A7004E04FF4AD
:10249000FA70FEF74DFB00BF00BF80BD3502002083
:1024A00080B500AFB54B1B78102B00F2B38101A2B1
:1024B00052F823F0F9240008332500085D250008B0
:1024C0009F250008B9250008F125000823260008EB
:1024D0005B26000875260008AF260008C326000802
:1024E000F326000817270008592700088527000849
:1024F000B5270008DD270008A04B01221A70FFF75E
:1025000011FA0346002B06D10121082002F0E6F85B
:102510009A4B10221A70FFF7F5F90346002B40F092
:102520007B8101210E2002F0D9F8944B10221A7001
:1025300072E1FFF7BDFA02F073F8012002F03EF8F5
:102540000121012002F0B6FD8C4B02221A708C4B47
:1025500014221A806420FEF7EBFA60E102F056F8CC
:102560000346002B0ED0FFF7EDF90346012B09D0EF
:10257000834B1B88013B9AB2814B1A80804B1B888E
:10258000002B08D102F008F8C820FEF7D1FA7B4BE7
:1025900003221A7043E16420FEF7CAFA3FE10220E9
:1025A00002F00CF86420FEF7C3FA754B03221A8080
:1025B000724B04221A7032E102F028F80346002B15
:1025C00009D06F4B1B88013B9AB26D4B1A806C4B44
:1025D0001B88002B08D101F0DFFF0021012002F051
:1025E00069FD664B05221A706420FEF7A1FA16E118
:1025F0004FF4D660FFF7F2F90346012B03D15F4B8E
:102600000F221A7009E04FF4D660FFF7C5F95C4B52
:1026100096221A80594B06221A706420FEF788FA17
:10262000FDE04FF4D660FFF7D9F90346012B09D03E
:10263000534B1B88013B9AB2514B1A80504B1B885D
:10264000002B06D10121052002F048F84B4B072250
:102650001A706420FEF76CFAE1E0022001F0AEFF90
:102660006420FEF765FA464B3C221A80434B082251
:102670001A70D4E001F0CAFF0346002B0ED0FFF71A
:1026800061F90346012B09D03D4B1B88013B9AB2EF
:102690003B4B1A803A4B1B88002B04D101F07CFF86
:1026A000364B09221A706420FEF742FAB7E0002088
:1026B000FEF782FD324B64221A80304B0A221A70D8
:1026C000ADE02F4B1B88013B9AB22D4B1A802C4B4F
:1026D0001B88002B09D1FEF707FE41F27070FEF750
:1026E00027FA264B0B221A7099E06420FEF720FA95
:1026F00095E00121012002F0DDFC4FF4FA70FEF7B5
:1027000017FA012001F05AFF1D4B3C221A801B4B87
:102710000C221A7083E001F079FF0346002B0ED0E3
:10272000FFF710F90346012B09D0154B1B88013B1D
:102730009AB2134B1A80124B1B88002B08D101F060
:102740002BFFC820FEF7F4F90C4B0D221A7066E03F
:102750006420FEF7EDF962E00021052001F0BEFFE4
:10276000022001F02BFF6420FEF7E2F9044B032264
:102770001A80024B0E221A7051E000BF3502002071
:102780002802002001F042FF0346002B09D0254B10
:102790001B88013B9AB2234B1A80224B1B88002BCB
:1027A00004D101F0F9FE204B0F221A706420FEF7CD
:1027B000BFF934E00021012002F07CFCFFF715FB9B
:1027C0000346012B2AD10120FFF7AAFA0220FEF7C7
:1027D00061FA00210320FFF759F81FE0FFF7A2F884
:1027E0000346012B06D10021082001F077FF0E4B94
:1027F00000221A70FFF786F80346012B06D100214C
:102800000E2001F06BFF084B00221A703220FEF7F9
:102810008FF904E000BF02E000BF00E000BF00BF8E
:1028200080BD00BF280200203502002080B500AF27
:10283000694B1B780C2B00F2CC8001A252F823F0DC
:10284000752800087D280008B7280008BF28000860
:10285000F928000801290008492900085129000821
:102860007B29000883290008A3290008AB29000858
:10287000CB2900080A20FEF75BF9ABE00322002118
:10288000564805F061FDFFF73BF90020FFF748FAD5
:102890000020FFF77EFA01210C2001F01FFF01212B
:1028A0000A2001F01BFF0121042001F017FF4A4B11
:1028B00002221A708EE00A20FEF73AF98AE003221B
:1028C0000021464805F040FDFFF71AF90020FFF708
:1028D00027FA0020FFF75DFA01210F2001F0FEFE2C
:1028E00001210A2001F0FAFE0121042001F0F6FE88
:1028F000394B04221A706DE00A20FEF719F969E0DD
:1029000003220021354805F01FFD344B02229A7046
:10291000FFF7F6F80020FFF703FA0020FFF739FA77
:102920000121152001F0DAFE0121042001F0D6FE7C
:102930000121192001F0D2FE0121102001F0CEFE6C
:10294000254B06221A7045E00A20FEF7F1F841E017
:1029500003220021214805F0F7FCFFF7D1F8002001
:10296000FFF7DEF90020FFF714FA0121122001F031
:10297000B5FE194B08221A702CE00A20FEF7D8F891
:1029800028E0FFF7BDF80020FFF7CAF90020FFF7A5
:1029900000FA0121112001F0A1FE0F4B0A221A704A
:1029A00018E00A20FEF7C4F814E0FFF7A9F80020A9
:1029B000FFF7B6F90020FFF7ECF90121022001F042
:1029C0008DFE054B0C221A7004E00A20FEF7B0F8C9
:1029D00000E000BF00BF80BD3502002030020020B3
:1029E00080B500AFBD4B1B78142B00F20F8201A203
:1029F00052F823F0492A0008852A0008A32A000873
:102A0000DF2A0008F92A00082B2B00088F2B00086A
:102A1000BF2B0008DF2B00081B2C0008372C0008F8
:102A20004B2C0008AD2C0008C12C0008F12C00082C
:102A3000212D0008412D00087D2D0008972D00084C
:102A4000C92D0008EF2D0008A54B01221A700020A7
:102A5000FFF766F90020FFF79CF90121052001F03E
:102A60003DFEFFF77DF89F4B1B78012B03D19E4B5A
:102A700001221A7002E09C4B00221A70974B01222F
:102A80001A70C8E101F0CCFD012001F097FD64202F
:102A9000FEF74EF8954B1E221A80904B02221A70B8
:102AA000B9E101F0B3FD0346002B0ED0FEF74AFF5B
:102AB0000346012B09D08D4B1B88013B9AB28B4BEF
:102AC0001A808A4B1B88002B05D101F065FD834BD2
:102AD00003221A709FE16420FEF72AF89BE102208E
:102AE00001F06CFD6420FEF723F8804B03221A806E
:102AF0007A4B04221A708EE101F088FD0346002B08
:102B000009D07A4B1B88013B9AB2784B1A80774BDD
:102B10001B88002B05D101F03FFD704B05221A7078
:102B200079E16420FEF704F875E140F63E00FEF717
:102B300033FF6C4B5B78002B0AD14FF47A70FEF7B1
:102B400065FB6A4B50221A80644B06221A705FE1C3
:102B5000644B5B78012B0AD14FF47A70FEF756FB79
:102B6000624B5A221A805D4B06221A7050E15D4B6F
:102B70005B78022B40F04C814FF47A70FEF746FBF5
:102B80005A4B64221A80554B06221A7040E1574B6B
:102B90001B88013B9AB2554B1A80544B1B88002B63
:102BA00009D1FEF783FB4FF47A70FDF7C1FF4B4B61
:102BB00007221A702FE16420FDF7BAFF2BE1484B82
:102BC00002221A70022001F0F9FC6420FDF7B0FF28
:102BD000464B46221A80414B08221A701BE101F035
:102BE00015FD0346002B0ED0FEF7ACFE0346012B6D
:102BF00009D03E4B1B88013B9AB23C4B1A803B4BA1
:102C00001B88002B05D101F0C7FC344B09221A7038
:102C100001E16420FDF78CFFFDE0314B03221A70C7
:102C20000020FEF7C9FA40F26C70FDF781FF2B4BD4
:102C30000A221A70EFE0FEF757FB4FF47A60FDF7B7
:102C400077FF264B0B221A70E5E0254B04221A7001
:102C5000244B9B78002B0AD10020FEF7ADFA41F2FD
:102C60008830FDF765FF1D4B0C221A70D2E01D4B1A
:102C70009B78012B0AD10020FEF79EFA42F21070D9
:102C8000FDF756FF154B0C221A70C3E0154B9B78CD
:102C9000022B40F0BF800020FEF78EFA44F6206041
:102CA000FDF746FF0D4B0C221A70B3E0FEF71CFB3C
:102CB00041F27070FDF73CFF084B0D221A70AAE03C
:102CC000074B05221A70012001F078FC074B1D22EA
:102CD0001A80024B0E221A709DE000BF35020020C0
:102CE0002F020020300200203402002028020020A1
:102CF0004A4B1B88013B9AB2484B1A80474B1B88B2
:102D0000002B09D101F048FC40F6B830FDF710FF68
:102D1000434B0F221A707EE06420FDF709FF7AE032
:102D2000404B06221A70012001F048FC6420FDF798
:102D3000FFFE3A4B32221A80394B10221A706AE099
:102D400001F064FC0346002B0ED0FEF7FBFD0346AA
:102D5000012B09D0314B1B88013B9AB22F4B1A80B3
:102D60002E4B1B88002B05D101F016FC2C4B112299
:102D70001A7050E06420FDF7DBFE4CE0022001F009
:102D80001DFC6420FDF7D4FE244B03221A80244B43
:102D900012221A703FE001F039FC0346002B09D0E3
:102DA0001E4B1B88013B9AB21C4B1A801B4B1B8885
:102DB000002B05D101F0F0FB194B13221A702AE009
:102DC0006420FDF7B5FE26E0174B1B78012B0AD1D6
:102DD000134B01221A70144B00221A704FF4FA7030
:102DE000FDF7A6FE17E00E4B14221A7013E00D4BF0
:102DF00000221A70FEF7B8FD0C4B01221A70FFF783
:102E000007F800210320FEF741FD04E000BF02E0C7
:102E100000BF00E000BF00BF80BD00BF280200204F
:102E2000350200202F02002034020020330200204F
:102E300080B500AFBD4B1B78212B00F23E8301A271
:102E400052F823F0CD2E0008092F0008232F000888
:102E50005F2F0008792F0008AB2F00080F30000803
:102E60003F3000085F3000089B300008B730000892
:102E7000CB300008E7300008FB30000817310008AD
:102E800041310008613100089D310008B731000868
:102E9000E93100081D32000837320008733200089B
:102EA0008D320008BF320008CF320008EF32000830
:102EB0002B330008BF330008D33300081534000853
:102EC000513400086B3400089D340008984B0122EF
:102ED0001A700020FEF724FF0020FEF75AFF0121A0
:102EE000052001F0FBFBFEF77BFE924B1B78012BCC
:102EF00003D1914B01221A7002E08F4B00221A700D
:102F00008A4B01221A70DDE2012001F057FB642098
:102F1000FDF70EFE894B1E221A80844B02221A7086
:102F2000D0E201F073FB0346002B0ED0FEF70AFD42
:102F30000346012B09D0814B1B88013B9AB27F4B82
:102F40001A807E4B1B88002B05D101F025FB774BA7
:102F500003221A70B6E26420FDF7EAFDB2E2022015
:102F600001F02CFB6420FDF7E3FD744B03221A8073
:102F70006E4B04221A70A5E201F048FB0346002BB9
:102F800009D06E4B1B88013B9AB26C4B1A806B4B7D
:102F90001B88002B05D101F0FFFA644B05221A7043
:102FA00090E26420FDF7C4FD8CE240F63E00FEF79F
:102FB000F3FC604B5B78002B0AD14FF47A70FEF77C
:102FC00025F95E4B50221A80584B06221A7076E281
:102FD000584B5B78012B0AD14FF47A70FEF716F943
:102FE000564B5A221A80514B06221A7067E2514BF7
:102FF0005B78022B40F063824FF47A70FEF706F99B
:103000004E4B64221A80494B06221A7057E24B4BF2
:103010001B88013B9AB2494B1A80484B1B88002BF6
:1030200009D1FEF743F94FF47A70FDF781FD3F4B6C
:1030300007221A7046E26420FDF77AFD42E23C4B1B
:1030400002221A70022001F0B9FA6420FDF770FD27
:103050003A4B46221A80354B08221A7032E201F0B0
:10306000D5FA0346002B0ED0FEF76CFC0346012B6D
:1030700009D0324B1B88013B9AB2304B1A802F4B40
:103080001B88002B05D101F087FA284B09221A7002
:1030900018E26420FDF74CFD14E2254B03221A7060
:1030A0000020FEF789F84FF4E160FDF741FD1F4B6A
:1030B0000A221A7006E2FEF717F94FF47A60FDF75C
:1030C00037FD1A4B0B221A70FCE1194B04221A70BF
:1030D0000020FEF771F842F67C60FDF729FD134BE6
:1030E0000C221A70EEE1FEF7FFF841F27070FDF766
:1030F0001FFD0E4B0D221A70E4E10D4B05221A70D4
:10310000012001F05BFA40F65430FDF711FD074B4A
:103110000E221A70D6E101F03FFA40F6B830FDF702
:1031200007FD024B0F221A70CCE100BF35020020D0
:103130002F0200203002002034020020280200204C
:10314000AC4B06221A70012001F038FA6420FDF71A
:10315000EFFCA94B32221A80A84B10221A70B1E161
:1031600001F054FA0346002B0ED0FEF7EBFB0346AA
:10317000012B09D0A04B1B88013B9AB29E4B1A80B1
:103180009D4B1B88002B05D101F006FA9B4B1122A9
:103190001A7097E16420FDF7CBFC93E1022001F067
:1031A0000DFA6420FDF7C4FC934B03221A80934B65
:1031B00012221A7086E101F029FA0346002B09D089
:1031C0008D4B1B88013B9AB28B4B1A808A4B1B8814
:1031D000002B05D101F0E0F9884B13221A7071E140
:1031E0006420FDF7A5FC6DE1854B01221A70854B2B
:1031F0001B78012B0AD1834B00221A704FF4FA700E
:10320000FDF796FC7D4B05221A705BE14FF4B4701C
:10321000FDF78EFC794B14221A7053E1012001F066
:10322000CDF96420FDF784FC734B1E221A80734B8A
:1032300015221A7046E101F0E9F90346002B0ED081
:10324000FEF780FB0346012B09D06B4B1B88013B2B
:103250009AB2694B1A80684B1B88002B05D101F08C
:103260009BF9664B16221A702CE16420FDF760FC76
:1032700028E1022001F0A2F96420FDF759FC5E4B21
:1032800003221A805D4B17221A701BE101F0BEF970
:103290000346002B09D0584B1B88013B9AB2564B72
:1032A0001A80554B1B88002B05D101F075F9534B43
:1032B00018221A7006E16420FDF73AFC02E14FF48F
:1032C0007A60FDF735FC4D4B19221A70FAE0494B34
:1032D00002221A70022001F071F96420FDF728FC27
:1032E000454B46221A80454B1A221A70EAE001F03B
:1032F0008DF90346002B0ED0FEF724FB0346012B6D
:1033000009D03D4B1B88013B9AB23B4B1A803A4B8C
:103310001B88002B05D101F03FF9384B1B221A7096
:10332000D0E06420FDF704FCCCE0324B04221A709C
:10333000354B9B78002B13D10020FDF73DFF324B1E
:103340001B78012B04D144F63820FDF7F1FB03E094
:1033500048F2E800FDF7ECFB284B1C221A70B0E0A5
:10336000294B9B78012B12D10020FDF725FF264B1E
:103370001B78012B04D148F6A040FDF7D9FB02E0F1
:103380002248FDF7D5FB1D4B1C221A7099E01E4BFD
:103390009B78022B40F095800020FDF70DFF1A4B23
:1033A0001B78012B04D14CF23870FDF7C1FB02E011
:1033B0001748FDF7BDFB114B1C221A7081E0FDF789
:1033C00093FF41F27070FDF7B3FB0C4B1D221A7096
:1033D00078E0084B06221A70012001F0EFF84FF454
:1033E0007A70FDF7A5FB044B3C221A80034B1E228A
:1033F0001A7067E02F02002028020020350200200A
:103400003302002034020020300200204019010065
:10341000289A010001F0FAF80346002B0ED0FEF7BF
:1034200091FA0346012B09D0274B1B88013B9AB226
:10343000254B1A80244B1B88002B05D101F0ACF8DA
:10344000224B1F221A703DE06420FDF771FB39E02A
:10345000022001F0B3F86420FDF76AFB1A4B032247
:103460001A801A4B20221A702CE001F0CFF8034684
:10347000002B09D0144B1B88013B9AB2124B1A80C7
:10348000114B1B88002B05D101F086F80F4B212230
:103490001A7017E06420FDF74BFB13E00C4B002281
:1034A0001A70FEF761FA0B4B01221A70FEF7B0FC9E
:1034B00000210320FEF7EAF904E000BF02E000BFAC
:1034C00000E000BF00BF80BD2802002035020020C0
:1034D0002F0200203302002080B500AF0B4B1B7879
:1034E000002B02D0012B0AD00EE00121052001F0B3
:1034F000F5F8FEF7A5FB054B01221A7004E04FF426
:10350000FA70FDF715FB00BF00BF80BD350200203B
:1035100080B500AF0B4B1B78002B02D0012B0AD0DB
:103520000EE00121052001F0D9F8FEF7A9FB054BBB
:1035300001221A7004E04FF4FA70FDF7F9FA00BFA7
:1035400000BF80BD3502002080B500AF0B4B1B785B
:10355000002B02D0012B0AD00EE00121052001F042
:10356000BDF8FEF7ADFB054B01221A7004E04FF4E5
:10357000FA70FDF7DDFA00BF00BF80BD3502002004
:1035800080B500AF0B4B1B78002B02D0012B0AD06B
:103590000EE00121052001F0A1F8FEF7B1FB054B7B
:1035A00001221A7004E04FF4FA70FDF7C1FA00BF6F
:1035B00000BF80BD3502002080B500AF5C4B1B789A
:1035C000072B00F2B28001A252F823F0ED3500087B
:1035D0001D36000837360008733600088D3600089F
:1035E000CF360008E93600081937000801F00EF858
:1035F0000346002B0ED10121012001F05BFD4C4B55
:1036000001221A70FEF79EF90346002B02D1484BA7
:1036100003221A706420FDF78BFA87E0012000F086
:10362000CDFF6420FDF784FA424B0A221A80404BFA
:1036300002221A707AE0FEF785F90346002B09D0C2
:103640003C4B1B88013B9AB23A4B1A80394B1B8882
:10365000002B0AD100F0A0FF364B1B88002B01D0B5
:10366000032200E00522324B1A706420FDF760FA55
:103670005CE0012000F0A2FF6420FDF759FA2C4B1A
:1036800004221A702B4B3C221A804FE000F0BEFF40
:103690000346002B0ED0FEF755F90346012B09D047
:1036A000244B1B88013B9AB2224B1A80214B1B886A
:1036B000002B08D100F070FFC820FDF739FA1C4B31
:1036C00005221A7032E06420FDF732FA2EE0022063
:1036D00000F074FF6420FDF72BFA164B03221A80CA
:1036E000134B06221A7021E000F090FF0346002BD6
:1036F00009D0104B1B88013B9AB20E4B1A800D4B20
:103700001B88002B04D100F047FF094B07221A70D9
:103710006420FDF70DFA09E00021012001F0CAFC48
:1037200000210120FEF7B2F800E000BF00BF80BD1D
:10373000350200202802002080B500AF694B1B78BD
:103740000A2B00F2CB8001A252F823F0793700084F
:103750008F370008A9370008E5370008FB37000855
:103760000F38000825380008393800085338000899
:103770008F380008A9380008FDF798FD00F00CFF0D
:103780006420FDF7D5F9574B01221A70A7E00220FB
:1037900000F014FF6420FDF7CBF9534B46221A804A
:1037A000504B02221A709AE000F030FF0346002BC3
:1037B0000ED0FEF7C7F80346012B09D04A4B1B88F1
:1037C000013B9AB2484B1A80474B1B88002B05D10E
:1037D00000F0E2FE434B03221A7080E06420FDF704
:1037E000A7F97CE00020FDF7E7FC40F26C70FDF7E4
:1037F0009FF93C4B04221A7071E0FDF775FD4FF400
:103800007A60FDF795F9374B05221A7067E00120C1
:1038100000F0D4FE40F65430FDF78AF9314B062211
:103820001A705CE000F0B8FE40F6B830FDF780F9A1
:103830002C4B07221A7052E0012000F0BFFE6420DA
:10384000FDF776F9284B32221A80264B08221A708F
:1038500045E000F0DBFE0346002B0ED0FEF772F8C9
:103860000346012B09D0204B1B88013B9AB21E4B0B
:103870001A801D4B1B88002B05D100F08DFE194BC3
:1038800009221A702BE06420FDF752F927E002208C
:1038900000F094FE6420FDF74BF9134B03221A80CD
:1038A000104B0A221A701AE000F0B0FE0346002BFB
:1038B00009D00D4B1B88013B9AB20B4B1A800A4B67
:1038C0001B88002B06D100F067FE064B00221A7001
:1038D000012305E06420FDF72BF900E000BF002381
:1038E000184680BDA40000202802002080B500AF4B
:1038F000694B1B780A2B00F2CA8001A252F823F010
:103900002D390008413900085B3900089739000853
:10391000AD390008C1390008D7390008EB39000873
:10392000053A0008413A00085B3A000800F034FE0E
:103930004FF49670FDF7FCF8574B01221A70A7E080
:10394000022000F03BFE6420FDF7F2F8534B4622C4
:103950001A80514B02221A709AE000F057FE03467B
:10396000002B0ED0FDF7EEFF0346012B09D04B4B89
:103970001B88013B9AB2494B1A80484B1B88002B8D
:1039800005D100F009FE444B03221A7080E0642048
:10399000FDF7CEF87CE00020FDF70EFC40F26C70E5
:1039A000FDF7C6F83C4B04221A7071E0FDF79CFC51
:1039B0004FF47A60FDF7BCF8374B05221A7067E0C8
:1039C000012000F0FBFD40F65430FDF7B1F8324B1A
:1039D00006221A705CE000F0DFFD40F6B830FDF71B
:1039E000A7F82D4B07221A7052E0012000F0E6FDE7
:1039F0006420FDF79DF8294B32221A80264B0822BD
:103A00001A7045E000F002FE0346002B0ED0FDF7D1
:103A100099FF0346012B09D0204B1B88013B9AB22A
:103A20001E4B1A801D4B1B88002B05D100F0B4FDE6
:103A3000194B09221A702BE06420FDF779F827E072
:103A4000022000F0BBFD6420FDF772F8134B032247
:103A50001A80114B0A221A701AE000F0D7FD0346B3
:103A6000002B09D00D4B1B88013B9AB20B4B1A80DF
:103A70000A4B1B88002B06D100F08EFD064B00225E
:103A80001A70012305E06420FDF752F800E000BF42
:103A90000023184680BD00BFA5000020280200209A
:103AA00080B500AF514B1B78082B00F29B8001A220
:103AB00052F823F0D93A0008ED3A0008033B000819
:103AC000173B00082D3B0008413B00085B3B00080A
:103AD000973B0008B13B0008FDF706FC4FF47A70F5
:103AE000FDF726F8414B01221A707CE00020FDF71B
:103AF00063FB40F26C70FDF71BF83C4B02221A701E
:103B000071E0FDF7F1FB4FF47A60FDF711F8374BE8
:103B100003221A7067E0012000F050FD40F6543097
:103B2000FDF706F8314B04221A705CE000F034FD1A
:103B300040F6B830FCF7FCFF2C4B05221A7052E01F
:103B4000012000F03BFD6420FCF7F2FF284B3222FD
:103B50001A80264B06221A7045E000F057FD0346F6
:103B6000002B0ED0FDF7EEFE0346012B09D0204BB3
:103B70001B88013B9AB21E4B1A801D4B1B88002BE1
:103B800005D100F009FD194B07221A702BE06420C3
:103B9000FCF7CEFF27E0022000F010FD6420FCF7C8
:103BA000C7FF134B03221A80104B08221A701AE029
:103BB00000F02CFD0346002B09D00D4B1B88013B68
:103BC0009AB20B4B1A800A4B1B88002B06D100F0CF
:103BD000E3FC064B00221A70012305E06420FCF789
:103BE000A7FF00E000BF0023184680BDA60000200C
:103BF0002802002080B500AF454B1B78062B00F251
:103C0000828001A252F823F0253C0008393C0008CC
:103C10004F3C0008633C00087D3C0008B93C0008AC
:103C2000D33C0008FDF760FB4FF47A60FCF780FF9F
:103C3000374B01221A7067E0012000F0BFFC40F60C
:103C40005430FCF775FF324B02221A705CE000F032
:103C5000A3FC40F6B830FCF76BFF2D4B03221A7023
:103C600052E0012000F0AAFC6420FCF761FF294B20
:103C700032221A80264B04221A7045E000F0C6FC5E
:103C80000346002B0ED0FDF75DFE0346012B09D045
:103C9000204B1B88013B9AB21E4B1A801D4B1B8880
:103CA000002B05D100F078FC194B05221A702BE08F
:103CB0006420FCF73DFF27E0022000F07FFC642039
:103CC000FCF736FF134B03221A80114B06221A70A1
:103CD0001AE000F09BFC0346002B09D00D4B1B881B
:103CE000013B9AB20B4B1A800A4B1B88002B06D162
:103CF00000F052FC064B00221A70012305E06420FC
:103D0000FCF716FF00E000BF0023184680BD00BF8F
:103D1000A70000202802002080B500AF4F4B1B7881
:103D2000072B00F2968001A252F823F04D3D0008C7
:103D3000593D0008773D00089F3D0008AF3D000851
:103D4000C93D0008053E00081F3E000800F024FCA5
:103D5000424B01221A707DE0414B1B88002B06D09C
:103D6000012000F02BFC3D4B02221A7072E03B4B0D
:103D700003221A706EE03A4B1B88013B9AB2384B13
:103D80001A80374B1B88002B05D100F005FC334B04
:103D900003221A705EE06420FCF7CAFE5AE040F687
:103DA000B830FCF7C5FE2D4B04221A7052E00120FA
:103DB00000F004FC6420FCF7BBFE2A4B32221A8080
:103DC000264B05221A7045E000F020FC0346002B2C
:103DD0000ED0FDF7B7FD0346012B09D0214B1B8800
:103DE000013B9AB21F4B1A801E4B1B88002B05D13A
:103DF00000F0D2FB194B06221A702BE06420FCF76E
:103E000097FE27E0022000F0D9FB6420FCF790FE2B
:103E1000144B03221A80114B07221A701AE000F08B
:103E2000F5FB0346002B09D00E4B1B88013B9AB2D1
:103E30000C4B1A800B4B1B88002B06D100F0ACFBFF
:103E4000064B00221A70012305E06420FCF770FE87
:103E500000E000BF0023184680BD00BFA80000207E
:103E60002C0200202802002080B500AF364B1B78C2
:103E7000042B65D801A252F823F000BF913E000840
:103E80009D3E0008B73E0008F33E00080D3F0008C5
:103E900000F082FB2C4B01221A7052E0012000F04E
:103EA0008DFB6420FCF744FE284B32221A80264BFF
:103EB00002221A7045E000F0A9FB0346002B0ED049
:103EC000FDF740FD0346012B09D0204B1B88013B29
:103ED0009AB21E4B1A801D4B1B88002B05D100F097
:103EE0005BFB194B03221A702BE06420FCF720FEC9
:103EF00027E0022000F062FB6420FCF719FE134B60
:103F000003221A80104B04221A701AE000F07EFB84
:103F10000346002B09D00D4B1B88013B9AB20B4B7B
:103F20001A800A4B1B88002B06D100F035FB064B8C
:103F300000221A70012305E06420FCF7F9FD00E07F
:103F400000BF0023184680BDA900002028020020E1
:103F500080B500AF8C4B1B780C2B00F2108101A2B6
:103F600052F823F0993F0008B33F0008CD3F000806
:103F70000940000823400008554000086F40000831
:103F8000AB400008C1400008D5400008F1400008DF
:103F90002D4100084741000800F0FEFA4FF4D660BA
:103FA000FDF7FAFC6420FCF7C3FD774B01221A7081
:103FB000E6E0012000F002FB6420FCF7B9FD734B42
:103FC0001E221A80704B02221A70D9E000F01EFBEC
:103FD0000346002B0ED0FDF7B5FC0346012B09D09C
:103FE0006A4B1B88013B9AB2684B1A80674B1B884F
:103FF000002B05D100F0D0FA634B03221A70BFE00A
:104000006420FCF795FDBBE0022000F0D7FA6420A5
:10401000FCF78EFD5D4B03221A805B4B04221A7065
:10402000AEE000F0F3FA0346002B09D0574B1B8893
:10403000013B9AB2554B1A80544B1B88002B05D17B
:1040400000F0AAFA504B05221A7099E06420FCF7A0
:104050006FFD95E0022000F0B1FA6420FCF768FDE6
:104060004A4B46221A80484B06221A7088E000F01C
:10407000CDFA0346002B0ED0FDF764FC0346012B5E
:1040800009D0424B1B88013B9AB2404B1A803F4BF0
:104090001B88002B05D100F07FFA3B4B07221A70DA
:1040A0006EE06420FCF744FD6AE00020FDF784F830
:1040B00042F21070FCF73CFD334B08221A705FE0AF
:1040C000FDF712F941F27070FCF732FD2E4B092218
:1040D0001A7055E0012000F071FA4FF47A70FCF785
:1040E00027FD2A4B3C221A80274B0A221A7047E0F0
:1040F00000F08CFA0346002B0ED0FDF723FC03469C
:10410000012B09D0214B1B88013B9AB21F4B1A800F
:104110001E4B1B88002B05D100F03EFA1A4B0B22D8
:104120001A702DE06420FCF703FD29E0022000F066
:1041300045FA6420FCF7FCFC144B03221A80124B56
:104140000C221A701CE000F061FA0346002B09D023
:104150000E4B1B88013B9AB20C4B1A800B4B1B88F1
:10416000002B08D100F018FAFDF7FEFB064B0022E9
:104170001A70012305E06420FCF7DAFC00E000BFC0
:104180000023184680BD00BFAA000020280200209E
:1041900080B500AF5F4B1B78082B00F2A98001A20D
:1041A00052F823F0C94100085B4200086D42000844
:1041B0007F42000891420008A3420008B54200086F
:1041C000C7420008D94200080121012000F072FF17
:1041D000FDF76EFC504B1B78062B3CD801A252F821
:1041E00023F000BF014200081F42000827420008D8
:1041F0002F420008374200083F4200084F420008A3
:10420000464B1B78012B06D1444B00221A70414BC0
:1042100007221A7020E03F4B08221A701CE03D4B29
:1042200001221A7018E03B4B02221A7014E0394B3D
:1042300003221A7010E0374B04221A700CE0384B3E
:104240001A88384B1A80334B05221A7004E0314B20
:1042500006221A7000E000BF59E0FFF76DFA03462E
:10426000012B47D12B4B07221A7043E0FFF73EFB8F
:104270000346012B40D1274B07221A703CE0FFF781
:104280000FFC0346012B39D1224B07221A7035E06F
:10429000FFF7B0FC0346012B32D11E4B07221A70E8
:1042A0002EE0FFF739FD0346012B2BD1194B0722D6
:1042B0001A7027E0FFF7D8FD0346012B24D1154BD8
:1042C00007221A7020E0FFF743FE0346012B1DD1A1
:1042D000104B08221A7019E00021012000F0EAFEBC
:1042E0000220FCF7D7FC00210120FDF7CFFA0EE0F9
:1042F00000BF0CE000BF0AE000BF08E000BF06E01E
:1043000000BF04E000BF02E000BF00E000BF00BF4C
:1043100080BD00BF350200202F02002033020020A4
:10432000280200202C02002080B483B000AF034696
:10433000FB71074AFB791370064B00221A70064B7B
:1043400000221A7000BF0C37BD4680BC704700BF0A
:1043500026020020240200203502002080B500AF94
:10436000234B1B780B2B3FD801A252F823F000BF40
:10437000A1430008A7430008AD430008B343000869
:10438000B9430008BF430008C5430008CB430008F9
:10439000D1430008D7430008DD430008E343000889
:1043A000FEF73AF821E0FEF761F81EE0FEF778F834
:1043B0001BE0FEF73BFA18E0FEF712FB15E0FEF7F4
:1043C00037FD12E0FFF788F80FE0FFF7A1F80CE0E7
:1043D000FFF7BAF809E0FFF7D3F806E0FFF7ECF8CB
:1043E00003E0FFF7D5FE00E000BF00BF80BD00BFC7
:1043F0002402002080B582B000AF03463960FB7113
:10440000094B1B78FA799A4201D03B6808E03B6877
:1044100003F00103002B02D00448FDF745FF3B6881
:1044200018460837BD4680BD260200204C020020F9
:1044300080B582B000AF134B1B780133DAB2114B59
:104440001A70104B1B78642B17D90220FDF7FCF86B
:104450000346FB800120FDF7F7F80346BB800020F0
:10446000FDF7F2F803467B80F988BA887B88064816
:1044700003F072FF034B00221A7000BF0837BD46DD
:1044800080BD00BF360200208492000880B483B053
:1044900000AF0346FB71054AFB791370044B002201
:1044A0001A7000BF0C37BD4680BC70473702002031
:1044B0003802002080B500AF104B1B78022B0FD0C4
:1044C000022B15DC002B02D0012B13D010E000F0E2
:1044D000F9F80B4B00221A70084B02221A700AE0FE
:1044E000FFF7A6FF01F082F90A20FCF721FB02E0AA
:1044F00000BF00E000BF00BF80BD00BF3802002049
:104500003602002080B483B000AF03463960FB71EF
:10451000064B1B78FA799A4201D03B6800E03B6871
:1045200018460C37BD4680BC704700BF37020020DC
:1045300080B582B000AF03460A46FB711346BB71DB
:10454000FB79002B06D0BB79002B03D00023FB7135
:104550000023BB71FB79002B05D04FF480410D483F
:1045600002F062F804E04FF480410A4802F06BF870
:10457000BB79002B05D04FF40041064802F054F8F7
:1045800004E04FF40041034802F05DF800BF083733
:10459000BD4680BD000C014080B500AF0021002069
:1045A000FFF7C6FF044B1B78032B02D0024B0022FF
:1045B0001A7000BF80BD00BFAB00002080B582B084
:1045C00000AF0346FB71104B1B78032B18D0FB790F
:1045D000012B02D0022B08D00FE000210120FFF7B1
:1045E000A7FF094B01221A700BE001210020FFF701
:1045F0009FFF054B02221A7003E0FFF7CDFF00E09A
:1046000000BF0837BD4680BDAB00002080B400AFBE
:10461000024B1B781846BD4680BC7047AB0000209B
:1046200080B500AF054B1B78032B04D1034B002250
:104630001A70FFF7B1FF00BF80BD00BFAB000020C4
:1046400080B500AF4FF48071044802F025F80346AE
:10465000002B01D1FFF7A0FF00BF80BD0008014083
:1046600080B500AF40F2026002F0C2F940F2036090
:1046700002F0BEF94FF4C06002F0BAF94FF4804383
:10468000012210210C4801F01BFF4FF400430122CE
:104690001021094801F014FF00210020FFF748FF16
:1046A0004FF4807301220421044801F009FF044BF8
:1046B00000221A7000BF80BD000C014000080140BC
:1046C000AB00002080B400AF034B00221A6000BF93
:1046D000BD4680BC704700BF3C02002080B483B060
:1046E00000AF03460A46FB711346BB71BB79002B32
:1046F0000AD1FB79012202FA03F3DA430F4B1B685C
:1047000013400E4A136013E0BB79012B08D1FB79EB
:1047100001229A40094B1B681343084A136007E0C3
:10472000FB7901229A40054B1B685340034A1360F2
:1047300000BF0C37BD4680BC704700BF3C02002064
:1047400080B483B000AF0346FB71074B1A68FB7956
:1047500022FA03F3DBB203F00103DBB218460C3795
:10476000BD4680BC704700BF3C02002080B500AF52
:104770004FF4C06002F03CF90021002002F026F85E
:1047800002220021012001F07BFD012001F006FE44
:1047900000220221062002F0A3F80821002002F0E6
:1047A00015F801220021012001F06AFD4FF480700C
:1047B00001F0F4FD00220021172002F091F800BF63
:1047C00080BD000080B500AF4FF4C06002F010F96A
:1047D0000121054801F088FF01214FF4004001F05C
:1047E00083FF00BF80BD00BF0002300080B500AF76
:1047F00040F2026002F0FCF840F2036002F0F8F8C8
:1048000040F2046002F0F4F840F2056002F0F0F8C3
:10481000012301224821664801F052FE2023012293
:104820002821644801F04CFE4FF4805301220421FA
:104830005F4801F045FE1023012204215D4801F08C
:104840003FFE4FF40053012204215A4801F038FE84
:104850004FF4807301220421554801F031FE2023DA
:1048600001221021524801F02BFE2021504801F076
:10487000EAFE4023012210214D4801F021FE402193
:104880004B4801F0E0FE802301221021484801F04E
:1048900017FE8021464801F0D6FE04230122102194
:1048A000444801F00DFE0421424801F0BDFE4FF4E2
:1048B0008053012210213F4801F002FE4FF4805145
:1048C0003C4801F0C0FE4FF48063012210213948BA
:1048D00001F0F6FD4FF48061364801F0A5FE4FF47B
:1048E000006301221021334801F0EAFD4FF400611A
:1048F000304801F099FE4023012210212D4801F09B
:10490000DFFD40212B4801F09EFE80230122102173
:10491000284801F0D5FD8021264801F094FE4FF48F
:10492000807301221021234801F0CAFD4FF48071E9
:10493000204801F088FE4FF48043012210211D48D9
:1049400001F0BEFD4FF480411A4801F07CFE4FF4A7
:10495000004301221021174801F0B2FD4FF400413D
:10496000144801F070FE4FF4005302221021124847
:1049700001F0A6FD4FF40043012210210C4801F084
:104980009FFD0823012248210A4801F099FD4FF4B8
:10499000804302224821084801F092FD4FF4004371
:1049A00002224821044801F08BFD00BF80BD00BFFA
:1049B00000080140000C01400010014080B582B0A9
:1049C00000AF0346FB71064B1B781846FCF796F8C0
:1049D000044AFB79137000BF0837BD4680BD00BF95
:1049E000440200204002002080B584B000AF03469E
:1049F000FB800220FCF728FE0346FB81FA89FB8836
:104A0000D31A9BB2BB81B7F90C300A2B02DDFCF73D
:104A10007FFC06E0B7F90C3013F10A0F01DAFCF75E
:104A2000B1FB00BF1037BD4680BD80B584B000AF7C
:104A30000346FB800220FCF707FE0346FB81FA8950
:104A4000FB88D31A9BB2BB81B7F90C30092B06DC6B
:104A5000B7F90C3013F1090F01DB012300E000234B
:104A600018461037BD4680BD80B483B000AF034602
:104A7000FB71054AFB791370044B00221A7000BFCA
:104A80000C37BD4680BC7047440200204002002025
:104A900080B500AF0F4B1B78022B0CD0022B13DC20
:104AA000002B02D0012B11D00EE0FCF731FC094B9A
:104AB00001221A700BE0084B1B881846FFF794FF81
:104AC0006420FCF735F802E000BF00E000BF00BF43
:104AD00080BD00BF400200204202002080B582B0AD
:104AE00000AF03463960FB71114B1B78FA799A428B
:104AF00001D03B6818E03B6803F00103002B06D0AF
:104B00000C4B1B78022B02D00220FFF757FF3B68AB
:104B100003F00203002B06D0064B1B78022B02D1B8
:104B20000020FFF74BFF3B6818460837BD4680BDA5
:104B3000440200204002002080B500AF6422002122
:104B4000324803F001FC314B4FF0FF32DA612F4B5A
:104B50003C221A842D4B64225A842C4B64229A8462
:104B60002A4B6422DA84294B64221A85274B64225B
:104B70005A85264B64229A85244B6422DA85234B7E
:104B80004FF496721A86214B4FF496725A861F4B39
:104B900064229A861D4B4FF6FF72A3F842201B4BEE
:104BA0004FF6FF72A3F84420184B4FF6FF72A3F89C
:104BB0004620164B4FF6FF72A3F84820134B4FF6D2
:104BC000FF72A3F84A20114B4FF6FF72A3F84C2056
:104BD0000E4B4FF6FF72A3F84E200C4B4FF6FF72B0
:104BE000A3F85020094B4FF6FF72A3F85220074B51
:104BF0004FF6FF72A3F85420044B4FF6FF72A3F850
:104C00005620034B00221A8000BF80BD4C020020BA
:104C1000B002002080B584B000AF7860884B0022DD
:104C20001A60874B00225A60854B00229A60844BA1
:104C3000DB697A685340BB60814B5A69804B9B6942
:104C400053407F4A53617E4B9B69DB437C4A9361AF
:104C50007B4B5A69BB681340794A5361784B9A6918
:104C6000BB681340764A9361754BDA69744B596996
:104C7000734B9B690B431340714AD361704BDA69E4
:104C80006F4B59696E4B9B690B43D9437B680B4053
:104C900013436B4AD3616A4B5A69694B9B6913434F
:104CA000BA685340BB600023FB60A4E00122FB68AC
:104CB00002FA03F31A46BB681340002B29D0604B5D
:104CC000DA690121FB6801FA03F31340002B17D1C5
:104CD0005B4AFB6820335B00134400225A80584A29
:104CE000FB68103332F81330002B12D1544B1B6881
:104CF0000121FA6801FA02F21343514A136008E0F5
:104D00004F4B9B680121FA6801FA02F213434C4AA7
:104D100093604B4AFB68103332F81330002B67D096
:104D2000474BDB690121FA6801FA02F21340002BBC
:104D30001ED0434AFB6820335B0013445A88404925
:104D4000FB68103331F813309A4251D23C4AFB6869
:104D500020335B0013444FF6FF725A80384B1B68B8
:104D60000121FA6801FA02F21343354A13603FE069
:104D7000334AFB6820335B0013445B884FF6FF72B5
:104D800093420ED02E4AFB6820335B0013445B88AD
:104D9000013399B22A4AFB6820335B0013440A4668
:104DA0005A80274AFB6820335B0013445A88244901
:104DB000FB68103331F813309A4219D1204AFB684E
:104DC00020335B0013444FF6FF725A801C4B1B6963
:104DD0000121FA6801FA02F21343194A1361184BD0
:104DE0005B680121FA6801FA02F21343144A536026
:104DF000FB680133FB60FB68102B7FF657AF00F0B8
:104E000039F90F4B1B68002B07D10D4B9B68002B0A
:104E100003D10B4B5B68002B0DD00A4B1B781A4655
:104E2000094B53F82230074A1278114643F0010328
:104E3000054A42F8213000BF1037BD4680BD00BF93
:104E40004C02002026020020D401002080B582B050
:104E500000AF4FF0FF337B605C4B1B8803F0100307
:104E6000002B03D07B6823F010037B60574B1B881B
:104E700003F00103002B03D07B6823F001037B6068
:104E8000524B1B8803F00203002B03D07B6823F0F6
:104E900002037B604D4B1B8803F00403002B03D0FF
:104EA0007B6823F004037B60484B1B8803F00803F6
:104EB000002B03D07B6823F008037B60434B1B88E7
:104EC00003F02003002B03D07B6823F020037B60DA
:104ED0003E4B1B8803F48073002B03D07B6823F4C4
:104EE00080737B60394B1B8803F04003002B03D099
:104EF0007B6823F040037B60344B1B8803F4007312
:104F0000002B03D07B6823F400737B602F4B1B883E
:104F100003F48063002B03D07B6823F480637B6001
:104F20002A4B1B8803F08003002B03D07B6823F0FF
:104F300080037B604FF40051254801F0ADFB034630
:104F4000002B03D17B6823F400637B602021204881
:104F500001F0A2FB0346002B03D07B6823F48053AF
:104F60007B6001211B4801F097FB0346002B03D116
:104F70007B6823F400537B601021154801F08CFB03
:104F80000346002B03D17B6823F480437B604FF4FE
:104F90008071104801F080FB0346002B03D17B6831
:104FA00023F400437B604FF480510A4801F074FB06
:104FB0000346002B03D07B6823F480337B60786842
:104FC000FFF728FE00BF0837BD4680BDB0020020B5
:104FD000000C01400008014080B483B000AF0346DC
:104FE000FB71054AFB791370044B00221A7000BF55
:104FF0000C37BD4680BC70474902002048020020A3
:1050000080B500AF0F4B1B78022B0FD0022B13DCA7
:10501000002B02D0012B11D00EE0FFF78DFD3220C6
:10502000FBF786FD074B02221A7008E0FFF70EFF20
:105030000A20FBF77DFD02E000BF00E000BF00BFDB
:1050400080BD00BF4802002080B483B000AF03469B
:105050003960FB71064B1B78FA799A4201D03B68A4
:1050600000E03B6818460C37BD4680BC704700BF67
:105070004902002080B483B000AF0D4BDB68DB43F6
:105080007B600B4B1A687B681340094A1360084B1E
:105090005A687B681340064A5360054B9A687B68E0
:1050A0001340034A936000BF0C37BD4680BC704775
:1050B0004C02002080B582B000AF78600B46FB70D8
:1050C0000B4BDA687B68DB431340094AD360084B1B
:1050D000DA68FB78012B01D17B6800E000231343E1
:1050E000034AD360FFF7C6FF00BF0837BD4680BD47
:1050F0004C02002080B500AF40F2026001F078FC65
:105100004FF4006301221821024801F0D9F900BFD1
:1051100080BD00BF0008014080B588B000AF40F2FC
:105120000B6001F065FC224801F01EFE7723BB8076
:105130000023FB8000233B814FF4FA63FB600023D4
:105140007B8100233B743B1D1946194801F0C0FECA
:105150000123BB820023FB8200233B8300237B834C
:105160000023BB830023FB8307F114031A460321AA
:105170000F4802F001F8002203210D4802F04CFA1A
:10518000602203210A4802F0E5F9002203210848C1
:1051900002F076FA0121064801F0CFFF044801F041
:1051A00031FF034801F010FF00BF2037BD4680BD2E
:1051B000002C014080B500AFFFF79CFFFFF7ACFF6C
:1051C00000BF80BD80B500AFFFF7F4FF00BF80BD1A
:1051D00080B582B000AF78607B68002B02D04FF4BE
:1051E0007A7300E000231A460321034802F014FA00
:1051F00000BF0837BD4680BD002C014080B400AF21
:10520000074B10221A80074B00221A80064B0022FF
:105210001A80064B00221A8000BFBD4680BC704732
:105220005C030020B402002070030020F80200207C
:1052300080B58CB000AF78603C4B1B68BB623C4BC8
:105240001B687B623B4A07F11C0392E8030083E87A
:105250000300394A07F1140392E8030083E80300CE
:10526000364A07F10C0392E8030083E803000023A9
:10527000FB627B68324A934202D10023FB6205E065
:105280007B68304A934201D10123FB62FB6A5B00D9
:1052900007F13002134433F80C3C184601F0A8FB28
:1052A000FB6A5B0007F13002134433F8083C1846F0
:1052B00001F09EFBFB6A9B0007F13002134453F898
:1052C000140CFB6A9B0007F13002134453F81C3C9A
:1052D0000322182101F0F4F8FB6A9B0007F1300269
:1052E000134453F8140CFB6A9B0007F1300213447B
:1052F00053F8243C0322042101F0E2F8786802F01C
:1053000009FC4FF4E131786802F066FC042178680A
:1053100002F0FFFC0821786802F0DFFC786802F0F8
:10532000CBFC00BF3037BD4680BD00BF989200085F
:105330009C920008A0920008A8920008B092000871
:10534000003801400044004080B588B000AF4FF401
:10535000A06001F04DFB0321274800F0D1FC0123A0
:10536000BB77264BFB6001237B7700233B61002347
:105370007B61234B7B6000233B770023BB604FF4B2
:105380004053BB613B1D1A4603211B4800F01EFD24
:105390000321194800F03FFE0321174800F065FE85
:1053A0000421154800F0ACFC0023BB7710237B617F
:1053B000144BFB603B1D1A4604210F4800F006FD0C
:1053C00004210D4800F0FDFD04210B4800F04DFEC6
:1053D0000321094800F09DFE0421074800F06FFEFC
:1053E0008021094802F0EFFC4021074802F0CEFC82
:1053F00000BF2037BD4680BD000002404C030020A6
:1054000004380140600300200038014080B500AF3F
:105410000A48FFF70DFF0A48FFF70AFFFFF794FF5E
:1054200000220021262001F05BFA40F205310448F9
:1054300002F004FDFFF7E2FE00BF80BD003801402E
:105440000044004080B584B000AF78600B467B809C
:105450007B68002B1ED07B88002B1BD00023FB8198
:1054600013E0FB897A6813441B789BB219460B48FA
:1054700002F06BFC00BF0721084802F0C1FC0346A4
:10548000002BF8D0FB890133FB81FA897B889A4293
:10549000E7D300E000BF1037BD4680BD00440040A8
:1054A00080B483B000AF0346FB710E4B1B883F2BCB
:1054B00011D80C4B1B885A1C91B20A4A118019460C
:1054C000094AFB795354FB790A2B04D1054B00227E
:1054D0001A80012300E0002318460C37BD4680BC2B
:1054E000704700BFB4020020FC02002080B582B0EB
:1054F00000AF124B1B88FB8016E0114B1B881A462D
:10550000104B9B5C7B710E4B1B8801339AB20C4B8A
:105510001A800B4B1B883F2B02D9094B00221A80A3
:105520007B791846FFF7BCFF054B1B88FA889A4227
:10553000E3D100BF00BF0837BD4680BD7003002027
:10554000F8020020B802002080B483B000AF034608
:10555000FB71354B1A78FB791344DAB2324B1A706F
:10556000324B1B78032B51D801A252F823F000BF15
:105570008155000895550008AF550008CF55000823
:10558000FB79FF2B44D1294B1B780133DAB2274B2F
:105590001A703DE0254B1B780133DAB2234B1A70A9
:1055A000FB79AA2B36D0214B00221A7032E0204A18
:1055B000FB7913701C4AFB7913701E4B00221A7082
:1055C0001A4B1B780133DAB2184B1A7025E0194BCD
:1055D0001B780F2B05D8174B1B781946164AFB79F9
:1055E0005354144B1B780133DAB2124B1A70114B1F
:1055F0001A780F4B1B789A420ED10C4B00221A706E
:10560000094B1B78002B07D1012307E000BF04E002
:1056100000BF02E000BF00E000BF002318460C37C7
:10562000BD4680BC704700BFAC000020AD0000202C
:10563000AE000020AF0000203C03002080B582B007
:1056400000AF00237B710023BB7103213B4800F0B6
:10565000ABFD0346002B6DD17B795A1C7A711A463B
:10566000374BFF2199547B795A1C7A711A46344B77
:10567000AA2199547B795A1C7A711A46304B002121
:105680009954304B1B68190E7B795A1C7A711A4653
:10569000C9B22B4B99542B4B1B68190C7B795A1CA4
:1056A0007A711A46C9B2264B9954264B1B68190ABF
:1056B0007B795A1C7A711A46C9B2214B9954214BF5
:1056C00019687B795A1C7A711A46C9B21C4B9954D5
:1056D0007B79023BDAB21A4B9A700223FB7108E025
:1056E000FB79174AD25CBB791344BB71FB79013358
:1056F000FB71FA797B799A42F2D37B795A1C7A71E1
:105700001A46BB795B42D9B20D4B995403210B4821
:1057100000F0FFFC0E220321084800F07EFD7B799B
:105720001A460321054800F01EFD0321034800F03E
:10573000C6FC00E000BF0837BD4680BD0000024047
:105740004C0300203C02002080B582B000AF042151
:10575000214800F029FD0346FB8026E01F4B1B88F3
:10576000C3F110031E4AD35C7B711C4B1B88013BA9
:105770009AB21A4B1A80194B1B88002B02D1174B77
:1057800010221A807B791846FFF7DEFE0346012BB4
:105790000BD1144B1B781B021AB2124B5B781BB255
:1057A00013431BB29AB2104B1A800C4B1B88FA8819
:1057B0009A42D3D102220421074800F012FD034689
:1057C000002B04D00E220421034800F026FD00BF68
:1057D0000837BD4680BD00BF000002405C030020CA
:1057E000600300203C030020B002002080B500AF21
:1057F000FFF724FFFFF7A8FFFFF778FE00BF80BD8B
:1058000080B483B000AF78607B6808331B6803F016
:105810000103002B07D17B6808331B687A680832C4
:1058200043F00103136000BF0C37BD4680BC7047D6
:1058300080B483B000AF78607B6808331B687A68F7
:10584000083243F00803136000BF7B6808331B680D
:1058500003F00803002BF8D17B6808331B687A68D3
:10586000083243F00403136000BF7B6808331B68F1
:1058700003F00403002BF8D100BF00BF0C37BD4676
:1058800080BC704780B483B000AF78607B68083319
:105890001B687A68083243F48073136000BF0C37CA
:1058A000BD4680BC7047000080B483B000AF786014
:1058B000084B1B68074A23F470231360054B1A68D2
:1058C00004497B6813430B6000BF0C37BD4680BCA6
:1058D000704700BF0424014080B485B000AFF86079
:1058E000B9601346FB71FB79002B27D0BB6803F42A
:1058F0008073002B07D0FB6804331B68FA680432FE
:1059000043F480731360BB6803F48063002B07D0FB
:10591000FB6804331B68FA68043243F48063136045
:10592000BB6803F00203002B2FD0FB6808331B6811
:10593000FA68083243F00203136026E0BB6803F400
:105940008073002B07D0FB6804331B68FA680432AD
:1059500023F480731360BB6803F48063002B07D0CB
:10596000FB6804331B68FA68043223F48063136015
:10597000BB6803F00203002B07D0FB6808331B68E9
:10598000FA68083223F00203136000BF1437BD46E3
:1059900080BC704780B483B000AF786039603B68EA
:1059A000002B08D07B6808331B687A68083243F400
:1059B0000063136007E07B6808331B687A6808326D
:1059C00023F40063136000BF0C37BD4680BC7047F2
:1059D00080B485B000AFF8600B467A60FB72FB7A4A
:1059E000012B02D0022B15D029E0FB682C331B6859
:1059F000FA682C3223F470031360FB682C331A68A6
:105A00007B68013B1B0503F47003F9682C311343D9
:105A10000B6014E0FB6838331B68FA68383223F4F3
:105A200040131360FB6838331A687B68013B1B0521
:105A300003F44013F968383113430B6000BF00BF13
:105A40001437BD4680BC704780B487B000AFF860A3
:105A50007B600B46FB721346BB72FB7A052B1ED88C
:105A6000FB6834331B687B61FA7A13469B0013444E
:105A70001F2202FA03F3DB437A6913407B61B97A90
:105A8000FA7A13469B00134401FA03F37A6913432D
:105A90007B61FB6834331A467B69136046E0FB7A0E
:105AA0000B2B20D8FB6830331B687B61FA7A1346D6
:105AB0009B0013441E3B1F2202FA03F3DB437A6967
:105AC00013407B61B97AFA7A13469B0013441E3B5C
:105AD00001FA03F37A6913437B61FB6830331A469A
