:020000040800F2
:10000000880F00206D0D0008110200081D02000875
:1000100023020008290200082F0200080000000047
:100020000000000000000000000000003502000891
:1000300041020008000000004D02000859020008BB
:10004000B50D0008B50D0008B50D0008B50D000888
:10005000B50D0008B50D0008C9020008B50D00086F
:10006000B50D0008B50D0008B50D0008B50D000868
:10007000B50D0008B50D0008B50D0008B50D000858
:10008000B50D0008B50D0008B50D0008B50D000848
:10009000B50D0008B50D0008B50D0008E302000815
:1000A000B50D0008B50D0008B50D0008B50D000828
:1000B0001F0300086D03000891030008B50D000838
:1000C000B50D0008B50D0008B50D0008B50D000808
:1000D000B50D0008B50D000875020008B50D000843
:1000E000B50D0008B50D0008B50D0008B50D0008E8
:1000F000B50D0008B50D0008B50D0008B50D0008D8
:10010000B50D0008B50D0008E1030008B50D0008A5
:10011000B50D0008B50D0008150400080905000814
:10012000B50D0008B50D0008B50D0008B50D0008A7
:1001300001F0FF01102A2BDB10F0070F08D010F898
:10014000013B013A8B422DD010F0070F42B3F6D19C
:10015000F0B441EA012141EA014122F007047FF0B5
:1001600000070023F0E80256083C85EA010586EA0C
:10017000010685FA47F5A3FA87F586FA47F6A5FA48
:1001800087F68EB9EED1F0BC01F0FF0102F0070254
:1001900032B110F8013B013A83EA010313B1F8D1FF
:1001A0000020704701387047002D06BF35460338E0
:1001B000073815F0010F07D1013015F4807F02BF19
:1001C000013015F4C03F0130F0BC0138704700BF6A
:1001D00010B5054C237833B9044B13B10448AFF381
:1001E00000800123237010BD6C000020000000007F
:1001F0007094000808B5034B1BB103490348AFF3E3
:10020000008008BD0000000070000020709400080D
:1002100080B400AF00BFBD4680BC704780B400AF63
:10022000FEE780B400AFFEE780B400AFFEE780B425
:1002300000AFFEE780B400AF00BFBD4680BC704792
:1002400080B400AF00BFBD4680BC704780B400AF33
:1002500000BFBD4680BC704780B500AF044B1B6833
:100260000133034A136001F069FA00BF80BD00BF8B
:10027000B800002080B500AF0F49104807F038FFE4
:100280000346002B15D00D4807F0AAFE034618467A
:100290000B4B1B885A1C91B2094A11801A46C1B2F5
:1002A000084B9954064B1B883F2B02D9044B002264
:1002B0001A8000BF80BD00BF050305000044004058
:1002C00074030020BC02002080B500AF012006F0BE
:1002D0008BF90346002B02D0012006F099F900BFEC
:1002E00080BD80B500AF4FF4007006F07DF9034685
:1002F000012B05D101F052F84FF4007006F088F997
:100300004FF4807006F070F90346012B05D104F01C
:10031000A9FA4FF4807006F07BF900BF80BD80B56C
:1003200000AF04214FF0804007F014F80346012B82
:100330000DD101214FF0804007F0F4FC0346184630
:1003400001F07CF804214FF0804007F020F80121F3
:100350004FF0804006F0FEFF0346012B04D101213F
:100360004FF0804007F013F800BF80BD80B500AFAC
:100370000121064806F0EEFF0346012B03D10121BF
:10038000024807F004F800BF80BD00BF0004004031
:1003900080B500AF01210F4806F0DCFF0346012BBA
:1003A00016D180210C4806F079FA0A4806F055FF6C
:1003B0000121084806F0EBFF0021084806F08AFFFB
:1003C0004FF41671054806F075FF044806F036FF35
:1003D00000BF80BD00080040000C0140000C004040
:1003E00080B500AF0121094806F0B4FF0346012B98
:1003F0000AD18021064806F060FA044806F02DFF75
:100400000121024806F0C3FF00BF80BD000C004080
:10041000000C014080B500AF0121324806F09AFF80
:100420000346012B5BD1304B1B78012B04D180217B
:100430002E4806F033FA3FE02D4B1B78012B3BD1C1
:100440002C4B1B78012B15D12B4B1B78012B03D880
:1004500040212A4806F022FA274B1B780133DAB2F2
:10046000254B1A70244B1B780A2B25D1224B0022D6
:100470001A7021E01F4B1B78022B19D1204B1B88CF
:10048000002B03D01E4B1B88012B03D140211B489E
:1004900006F004FA1A4B1B8801339AB2184B1A80E3
:1004A000174B1B88212B07D9154B00221A8003E01C
:1004B0004021124806F0F2F90A4806F0CEFE01216A
:1004C000084806F064FF00210E4806F003FF41F6DD
:1004D0009C010C4806F0EEFE0A4806F0AFFE00BF95
:1004E00080BD00BF001000400E0200200008014047
:1004F0000D020020100200200C020020000C014020
:10050000120200200014004080B500AF01210B480A
:1005100006F020FF0346012B0ED18021084806F08B
:10052000CCF94021074806F0C8F9044806F095FECA
:100530000121024806F02BFF00BF80BD00140040DF
:1005400000080140000C014080B582B000AF0023DC
:100550007B6000F0F3F804F047FA04F059FA00F079
:10056000D9FD04F08FF904F0F9FE05F089F804F0E4
:100570000FFA04F061FF01F08DF800F083F800201D
:1005800006F03AFC03461946244808F01FF80120FB
:1005900006F032FC03461946214808F017F80220FD
:1005A00006F02AFC034619461E4808F00FF80320FF
:1005B00006F022FC034619461B4808F007F807F02E
:1005C000D1FF78607B681B0EDBB219467B681B0C81
:1005D000DBB21A467B681B0ADBB2144807F0F6FF51
:1005E00000F0FAF9124A1349134800F06DFA134A61
:1005F0001349144800F068FA134A1449144800F0EB
:1006000063FA144A1449154800F05EFA00F050F9F4
:10061000002318460837BD4680BD00BF88940008F7
:1006200098940008A8940008B8940008C89400089A
:100630006D52000825520008FD51000829470008A6
:10064000D9460008B146000819460008814500084F
:100650004D450008014D0008B54C00088D4C0008C0
:1006600080B584B000AF78607B68DBB2FB7307F1C4
:100670000F030121184605F01FF87B681846103754
:10068000BD4680BD80B500AF05F0D0FF062140F625
:10069000FF7005F0FBFF05F0E1FF05F0D3FF00BFA1
:1006A00080BD000080B483B000AF03463960FB71A9
:1006B00097F90730002B0BDA3B68DAB20C49FB796B
:1006C00003F00F03043B1201D2B20B441A7609E087
:1006D0003B68DAB2074997F907301201D2B20B44EE
:1006E00083F8002300BF0C37BD4680BC704700BFB5
:1006F00000ED00E000E100E080B582B000AF78607E
:100700007B68013BB3F1807F01D301230FE00A4AEC
:100710007B68013B53600F214FF0FF30FFF7C2FFB2
:10072000054B00229A60044B07221A6000231846EA
:100730000837BD4680BD00BF10E000E080B500AFC7
:10074000094B1B68094AA2FB03239B091846FFF7C4
:10075000D3FF0346002B00D0FEE700214FF0FF300F
:10076000FFF7A0FF00BF80BD04000020D34D621042
:1007700080B483B000AF78607B68002B0DD0094B4C
:100780001A687B681344084A136000BF054B1A6857
:10079000054B1B689A42F9D100E000BF0C37BD46FB
:1007A00080BC7047B80000208800002080B400AFF3
:1007B000024B1B681846BD4680BC7047B80000203D
:1007C00080B582B000AF0023FB71FFF7EFFF386008
:1007D0005BE00023FB7123E0FB79314A52F82330C0
:1007E000002B1AD0FB792E4A52F82320013A2C49CB
:1007F00041F82320FB792A4A52F82330002B0CD1F0
:10080000FB79012202FA03F31AB2264B1B881BB2B2
:1008100013431BB29AB2234B1A80FB790133FB714D
:10082000FB79032BD8D90023FB7126E0FB791E4A04
:100830001B01134408331B68002B1BD0FB791A499A
:100840001A010A4408321268013A17491B010B4485
:1008500008331A60FB79144A1B01134408331B68E0
:10086000002B07D1FB79104A1B011A44137843F07F
:1008700010031370FB790133FB71FB790F2BD5D972
:100880000A4B1B680133094A1360084B1B683A681E
:100890009A429ED100BF00BF0837BD4680BD00BF51
:1008A000E4010020BC010020BC000020F401002075
:1008B00080B582B000AFFFF783FF05F0DBFE404B51
:1008C0001B781A463F4B53F82230002B16D03C4B76
:1008D0001B781A463C4B53F82230394A1278384973
:1008E00009780846374951F8201010469847344B8C
:1008F0001B781946334B002243F82120334B1B88C9
:100900001A462F4B1B7842FA03F303F00103002B26
:1009100006D02B4B1B781A462D4B53F822309847A4
:100920000023FB713AE0FB792A4A1B0113441B7830
:10093000C3F30303DBB21A46214B1B789A4229D139
:10094000FB79244A1B0113441B78C3F30013DBB269
:10095000002B20D0FB791F4A1B011A44137843F067
:100960000F031370FB791B4A1B011A4413786FF3B2
:1009700004131370FB79174A1B0113440C331B68D3
:10098000002B08D0FB79134A1B0113440C331B685E
:10099000984700E000BFFB790133FB71FB790F2B17
:1009A000C1D9074B1B780133DAB2054B1A70044BDF
:1009B0001B78042B7FF47FAF014B00221A707AE77B
:1009C000F8010020D4010020FC010020BC0100201F
:1009D000C0010020BC00002080B582B000AF324BC7
:1009E00000221A70314B00221A80FFF7DFFE034607
:1009F0002F4A13600023FB710CE0FB792D4A002184
:100A000042F82310FB792C4A002142F82310FB798D
:100A10000133FB71FB79032BEFD90023FB7128E035
:100A2000FB79264A1B011A44137843F00F03137015
:100A3000FB79224A1B011A4413786FF304131370D5
:100A4000FB791E4A1B01134404334FF0FF321A6036
:100A5000FB791A4A1B011344083300221A60FB7900
:100A6000164A1B0113440C3300221A60FB79013330
:100A7000FB71FB790F2BD3D90023FB710CE0FB79C1
:100A80000F4A002142F82310FB790E4A002142F858
:100A90002310FB790133FB71FB79032BEFD900BFE6
:100AA00000BF0837BD4680BDF8010020BC01002012
:100AB000F4010020D4010020E4010020BC0000204B
:100AC000C0010020FC01002080B586B000AFF860B6
:100AD000B9607A600023FB7508E0FB7D184A52F884
:100AE0002330002B06D0FB7D0133FB75FB7D032BF0
:100AF000F3D900E000BFFB7D042B01D100231BE0F4
:100B0000FB7D0F49BA6841F82320FB7D0D497A68C7
:100B100041F82320FA7DFB6810469847FB7D0122AF
:100B200002FA03F31AB2084B1B881BB213431BB221
:100B30009AB2054B1A80012318461837BD4680BD6E
:100B4000C0010020FC010020BC01002080B483B063
:100B500000AF0346FB71FB79012202FA03F31AB2DC
:100B6000064B1B881BB213431BB29AB2034B1A806D
:100B700000BF0C37BD4680BC704700BFBC010020E1
:100B800080B483B000AF78607B68002B17D00E4B29
:100B90001B781A46012393401BB2DB431AB20B4B5E
:100BA0001B881BB213401BB29AB2084B1A80064B2B
:100BB0001B781946064A7B6842F8213000E000BFE6
:100BC0000C37BD4680BC7047F8010020BC010020F6
:100BD000E401002080B487B000AFF860B9607A60AB
:100BE0000023FB7536E0FB7D3C4A1B0113440433B4
:100BF0001B68FA689A422AD1394B1A78FB7D02F0B9
:100C00000F02D1B2354A1B011A44137861F3030372
:100C10001370FB7D314A1B0113440C337A681A6050
:100C2000FB7D2E4A1B0113440433FA681A60FB7DD6
:100C30002A4A1B0113440833BA681A60FB7D274A0D
:100C40001B011A4413786FF30413137042E0FB7D09
:100C50000133FB75FB7D0F2BC5D90023FB7536E0F7
:100C6000FB7D1E4A1B01134404331B68B3F1FF3F95
:100C70002AD11B4B1A78FB7D02F00F02D1B2174A22
:100C80001B011A44137861F303031370FB7D134AAD
:100C90001B0113440C337A681A60FB7D0F4A1B0159
:100CA00013440433FA681A60FB7D0C4A1B01134499
:100CB0000833BA681A60FB7D084A1B011A4413788E
:100CC0006FF30413137005E0FB7D0133FB75FB7DAF
:100CD0000F2BC5D91C37BD4680BC7047BC00002017
:100CE000F801002080B485B000AF78600023FB736A
:100CF00032E0FB7B1C4A1B01134404331B687A68F7
:100D00009A4226D1FB7B184A1B011A44137843F000
:100D10000F031370FB7B144A1B0113440C33002296
:100D20001A60FB7B104A1B01134404334FF0FF325F
:100D30001A60FB7B0C4A1B011344083300221A6023
:100D4000FB7B094A1B011A4413786FF304131370D9
:100D500005E0FB7B0133FB73FB7B0F2BC9D91437F9
:100D6000BD4680BC704700BFBC000020002103E0EE
:100D70000B4B5B58435004310A480B4B42189A42C4
:100D8000F6D30A4A02E0002342F8043B084B9A4299
:100D9000F9D307F091FA07F0EDFBFFF7D5FB7047A9
:100DA000E4950008000000206C0000206C0000208A
:100DB00088030020FEE7000080B500AF40F203602A
:100DC00005F050FF40F2026005F04CFF40F2026077
:100DD00005F048FF40F2036005F044FF40F2036075
:100DE00005F040FF402301221021154805F0A2FC28
:100DF0004021134805F061FD802301221021104895
:100E000005F098FC80210E4805F057FD4FF4007363
:100E1000012248210A4805F08DFC8023012210217F
:100E2000084805F087FC8021064805F046FD0223AE
:100E300001224821034805F07DFC00BF80BD00BFB2
:100E4000000C01400008014080B500AF4FF4C060C5
:100E500005F008FF0921012005F0F2FD0222002122
:100E60004FF4007005F046FB4FF4007005F0D0FB26
:100E700000220021172005F06DFE00BF80BD80B567
:100E800088B000AF78600B467B807B88184605F001
:100E9000E9FE786806F0A2F807F11003184606F09C
:100EA00035F977233B8200237B820023BB824FF6F8
:100EB000FF73BB610023FB8207F1100319467868BA
:100EC00006F040F907F10803184606F075FD002307
:100ED0003B8101237B810023BB810423FB8107F13C
:100EE00008031A460121786806F07CFD0421786821
:100EF00006F01DFA0121786806F019FA0022022195
:100F00001C2005F027FE786806F098F900BF20370E
:100F1000BD4680BD80B586B000AF78600B467B8053
:100F20007B88184605F09EFE786806F057F807F1B2
:100F30000803184606F0EAF877233B8100237B81FB
:100F40000023BB8144F620633B610023FB8107F152
:100F500008031946786806F0F5F80021786806F06D
:100F6000C9F9786806F097F90121786806F0DFF989
:100F70007B681D4A934226D07B681B4A934228D83F
:100F80007B681A4A934218D07B68184A934220D84B
:100F90007B68174A934204D07B68164A934206D076
:100FA00017E0002201211E2005F0D4FD12E00022EE
:100FB0000121322005F0CEFD0CE000220121362077
:100FC00005F0C8FD06E000220121372005F0C2FD32
:100FD00000E000BF786806F031F9786806F03DF966
:100FE00000BF1837BD4680BD00140040001000400F
:100FF00000080040000C004080B500AF8021094887
:1010000005F05BFC084806F028F9084806F025F9C9
:101010000121054806F0BBF90121044806F0B7F9A3
:1010200000BF80BD000C014000080040000C0040E3
:1010300080B500AF4021094805F03FFC084806F0A4
:101040000CF9084806F009F90121054806F09FF956
:101050000121044806F09BF900BF80BD000C01404F
:10106000001000400014004080B500AF8021094806
:1010700005F023FC084806F0F0F8084806F0EDF803
:101080000121054806F083F90121044806F07FF9A3
:1010900000BF80BD00080140001000400014004067
:1010A00080B485B000AF0346FB8042F21073FB8131
:1010B000FB88B42B01D9B423FB80FB88FA8902FB9F
:1010C00003F39B08044AA2FB03239B089BB2184628
:1010D0001437BD4680BC7047176CC11680B485B00C
:1010E00000AF0346FB8042F28D03FB81FA88FB8947
:1010F0009A4201D9FB89FB8072B600BF044AFB8883
:10110000138062B600BF00BF1437BD4680BC704775
:101110008C00002080B500AFFFF74EFEFFF794FE75
:101120004FF4E0614FF08040FFF7A9FE40F20471F8
:101130001A48FFF7EFFE40F205711948FFF7EAFE83
:1011400040F202711748FFF7E5FE40F203711648BE
:10115000FFF7E0FE154B00221A70154B00221A70A3
:10116000144B00221A70144B00221A70134B0022E9
:101170001A80134B00221A80124B00221A80124B45
:1011800000221A80FFF712FB0346104A13600F4B30
:101190001B680F4A136000BF80BD00BF00100040F5
:1011A0000014004000080040000C00401402002021
:1011B0000D0200200E0200200F0200208C000020F3
:1011C0008E0000209200002090000020940000205B
:1011D0009800002080B500AF084B1B78012B0BD086
:1011E000064B01221A70064B00221A70FFF7DEFA36
:1011F0000346044A136000E000BF80BD14020020D3
:101200000F0200209400002080B582B000AF03469A
:10121000FB710E4B1B78012B14D00D4AFB79137018
:101220000C4B00221A700C4B00221A80074B012233
:101230001A700A4B00221A70FFF7B8FA0346084AE0
:10124000136000E000BF0837BD4680BD0D020020DE
:10125000100200200C020020120200200F020020C9
:101260009400002080B584B000AF0346FB801F4B84
:101270001B78012B35D01D4B1B78022B31D0FB88FE
:10128000B3F5FA6F02D94FF4FA63FB80184AFB8872
:101290001380174B1B881A46B42303FB02F3154A2D
:1012A000A2FB0323DB09FB81FB89092B01D80A235D
:1012B000FB81FB891846FFF7F3FE03461846FFF74C
:1012C0000DFF0A4B01221A700B4B00221A70FFF718
:1012D0006DFA0346094A1360084B1B68084A1360FD
:1012E00000E000BF1037BD4680BD00BF0E020020E9
:1012F00090000020D34D62100F02002094000020C7
:101300009800002080B500AF72B600BF084B0022E5
:101310001A70084B00221A70074B00221A80074BE4
:1013200000221A8062B600BFFFF79EFE00BF80BD9C
:101330000E0200200F020020900000208C000020F0
:1013400080B500AF72B600BF074B00221A70074B82
:1013500000221A70064B00221A8062B600BFFFF707
:1013600067FE00BF80BD00BF0D0200200F020020FD
:101370001202002080B500AF72B600BF054B0022FC
:101380001A70054B00221A7062B600BFFFF734FED8
:1013900000BF80BD140200200F02002080B500AF06
:1013A000204B1B78012B0ED1FFF75EFE00211E485B
:1013B00005F090FF4FF496711B4805F07BFF1A482B
:1013C00005F03CFF16E0194B1B78012B0ED1FFF7FF
:1013D0002FFE0021144805F07DFF4FF4967112484E
:1013E00005F068FF104805F029FF03E0FFF73CFE19
:1013F000FFF71EFEFFF700FE0D4B1B78012B0AD1F5
:1014000000210C4805F066FF64210A4805F052FFF0
:10141000084805F013FFFFF7C9F90346064A1360B1
:1014200000BF80BD0E020020001000400D02002011
:1014300014020020000800409400002080B584B011
:1014400000AF78601B4B1B687A689A4205D3194B32
:101450001B687A68D31AFB6007E0164B1B687A6832
:10146000D31A03F57F43FF33FB60FB68642B19D964
:10147000FB68114A934215D8104AFB681360104A62
:10148000FB68B2FBF3F3BB60BB689BB21A46120168
:10149000D31A9B009AB20B4B1A80FFF787F90346C9
:1014A000094A1360034A7B68136000BF1037BD46CA
:1014B00080BD00BF9C0000201FA10700A0000020ED
:1014C00040420F00920000209800002080B500AF3D
:1014D00040F2036005F0C6FB40F2026005F0C2FB7B
:1014E0004FF4A06005F0BEFB40F2096005F0BAFBC6
:1014F00040F20A6005F0B6FB022005F01BFC00BFBD
:1015000080BD000080B500AF0123042200210848FF
:1015100005F010F9022304220021054805F00AF91C
:10152000102304220021034805F004F900BF80BD08
:10153000000C01400008014080B588B000AF0021D8
:10154000144804F017FD144B7B6000233B77134BCA
:10155000FB6001237B774FF40073BB604FF40063A3
:101560003B610023BB7703237B614FF40053BB61D6
:101570003B1D1A460021074804F062FD0021054882
:1015800004F059FE0021034804F0D3FE00BF2037C9
:10159000BD4680BD000002404C24014018020020DE
:1015A00080B500AF4FF4C02004F0B8FA00213748EE
:1015B00004F02AFB0021364804F026FB01224FF4F8
:1015C0008071324804F0C2FA01224FF48071304831
:1015D00004F0BCFA032201212C4804F033FB03225F
:1015E00001212B4804F02EFB072304220021274869
:1015F00004F064FB072308220121244804F05EFB69
:10160000072309220221214804F058FB072308225E
:1016100000211F4804F052FB0723092201211C4826
:1016200004F04CFB072304220221194804F046FB76
:101630004FF460220121154804F041FC4FF4602270
:101640000121134804F03BFC012201210F4804F062
:10165000F1FB012201210E4804F0ECFB0B4804F0E1
:1016600009FA0120FFF784F8084804F01BFA08483B
:1016700004F000FA0120FFF77BF8054804F012FAA5
:10168000024804F039FA00BF80BD00BF00240140C9
:101690000028014080B500AFFFF718FFFFF732FFC9
:1016A000FFF74AFFFFF77CFF00BF80BD80B485B025
:1016B00000AF0346FB710023FB60FB79022B22D0B5
:1016C000022B2EDC002B02D0012B0ED029E01A4B6E
:1016D0001B689BB2FB60184B9B681B0CFA68134499
:1016E000FB60FB685B08FB601CE0134B5B689BB214
:1016F000FB60114B1B681B0CFA681344FB60FB6812
:101700005B08FB600EE00C4B9B689BB2FB600A4BD6
:101710005B681B0CFA681344FB60FB685B08FB60AA
:1017200000E000BFFB689BB2C3F30B039BB21846FB
:101730001437BD4680BC70471802002080B582B0C7
:1017400000AF0020FFF7B2FF0346FB80084B1B8869
:10175000FA88934238BF13469AB2054B1A8001218A
:10176000044804F0E2FB00BF0837BD4680BD00BF5F
:10177000240200200024014080B500AF4FF4004156
:101780000A4805F0D7F80346C3F10103DBB21A4655
:101790004FF40041054805F09FF8054A0A214FF42F
:1017A0000040FFF717FA00BF80BD00BF00080140EE
:1017B0007917000880B500AF094B1B78013BDAB2FE
:1017C000074B1A70064B1B78002B07D0012003F043
:1017D00039FE044A50210120FFF7FCF900BF80BD0B
:1017E00029020020E917000880B500AF002003F0AF
:1017F00029FE034A50210120FFF7ECF900BF80BD0C
:10180000B517000880B582B000AF0346FB71FB79C5
:10181000002B0BD00A4AFB791370012003F012FE53
:10182000084A50210120FFF7D5F905E0002003F018
:1018300009FE0120FFF756FA00BF0837BD4680BDFC
:1018400029020020E917000880B483B000AF0346E6
:10185000FB71FB79013B0A2B18D801A252F823F047
:101860008D1800088D1800088D1800088D180008C4
:101870008D1800088D1800088D1800088D180008B4
:101880008D1800088D1800088D18000800BF00BFD3
:101890000C37BD4680BC704780B582B000AF0346B0
:1018A000FB71FB79013B0A2B1CD801A252F823F0F3
:1018B000E5180008DD180008DD180008DD1800082C
:1018C000DD180008DD180008DD180008DD18000824
:1018D000DD180008E5180008E51800080220FFF7E9
:1018E00001FA00E000BF00BF0837BD4680BD00BF61
:1018F00080B582B000AF03460A46FB711346BB7148
:101900000B4B1B781846FFF7C7FFFB791846FFF70C
:101910009BFF084B1B781846FFF718F9064ABB795E
:101920001370034AFB79137000BF0837BD4680BDB2
:10193000280200202A0200203902002080B582B04F
:1019400000AF0346FB71064B1B781846FFF7FEF805
:10195000044AFB79137000BF0837BD4680BD00BF45
:101960002A0200203902002080B400AF054BDB6959
:101970001B0CDBB203F00103DBB21846BD4680BC92
:10198000704700BF5002002080B400AF054BDB69F8
:10199000DB0ADBB203F00103DBB21846BD4680BCB4
:1019A000704700BF5002002080B400AF064BDB69D7
:1019B00003F40043002B0CBF01230023DBB21846C5
:1019C000BD4680BC704700BF5002002080B400AF0D
:1019D000084B1B781A46084B53F82230054A1278F8
:1019E000114643F00203044A42F8213000BFBD46CD
:1019F00080BC704748020020D401002080B483B02E
:101A000000AF0346FB800B4B1B781A460A4B53F87A
:101A10002230084A1278114643F00103064A42F880
:101A20002130064AFB88138000BF0C37BD4680BCBE
:101A3000704700BF48020020D40100204602002069
:101A400080B582B000AF0346FB80FB88184603F0E8
:101A5000FEF8034618460837BD4680BD80B582B003
:101A600000AF0346FB71FB79002B02D103F05EFC53
:101A700004E0FB79012B01D103F04EFC00BF0837D5
:101A8000BD4680BD80B483B000AF0346FB71064BFA
:101A90001B78FA799A420CBF01230023DBB2184667
:101AA0000C37BD4680BC70472802002080B582B04C
:101AB00000AF1F4B3B600023FB7116E0FB7907F181
:101AC0000802134413F8082C1A4B1B781946FB79AB
:101AD00041FA03F3DBB203F00103DBB2194610460F
:101AE00002F00EFFFB790133FB71FB79032BE5D983
:101AF000104B1B785B00DAB20E4B1A700D4B1B7843
:101B00001A46FB7942FA03F303F00103002B05D0D8
:101B1000084B1B780133DAB2064B1A70064A4FF4B1
:101B2000FA710220FFF756F800BF0837BD4680BDA6
:101B30000C0F12152E020020AD1A000880B500AF60
:101B4000084B03221A70002000F030F901210C200C
:101B500002F0D6FE044A4FF4FA710220FFF73AF879
:101B600000BF80BD2E020020AD1A000880B500AF76
:101B70000221052002F0C4FE034A4FF4FA7102204C
:101B8000FFF728F800BF80BD6D1B000880B500AFCF
:101B90000121052002F0B4FE034A4FF4FA7102203D
:101BA000FFF718F800BF80BD6D1B000880B500AFBF
:101BB0000C4B1B78002B04D102210C2002F0A0FE5C
:101BC00007E0084B1B78012B03D10221092002F00A
:101BD00097FE054A4FF4FA710220FEF7FBFF00BFA3
:101BE00080BD00BF34020020AD1B000880B500AFEF
:101BF0000C4B1B78002B04D101210C2002F080FE3D
:101C000007E0084B1B78012B03D10121092002F0CA
:101C100077FE054A4FF4FA710220FEF7DBFF00BFA2
:101C200080BD00BF34020020AD1B000880B500AFAE
:101C30000C4B1B78002B04D102210F2002F060FE18
:101C400007E0084B1B78012B03D10221062002F08C
:101C500057FE054A4FF4FA710220FEF7BBFF00BFA2
:101C600080BD00BF340200202D1C000880B500AFED
:101C70000C4B1B78002B04D102210F2002F040FEF8
:101C800007E0084B1B78012B03D10221062002F04C
:101C900037FE054A4FF4FA710220FEF79BFF00BFA2
:101CA00080BD00BF340200202D1C000880B500AFAD
:101CB0000221152002F024FE034A4FF4FA7102209B
:101CC000FEF788FF00BF80BDAD1C000880B500AFE7
:101CD0000121152002F014FE034A4FF4FA7102208C
:101CE000FEF778FF00BF80BDAD1C000880B500AFD7
:101CF0000221122002F004FE034A4FF4FA7102207E
:101D0000FEF768FF00BF80BDED1C000880B500AF86
:101D10000121122002F0F4FD034A4FF4FA7102206F
:101D2000FEF758FF00BF80BDED1C000880B500AF76
:101D30000221112002F0E4FD034A4FF47A710220DF
:101D4000FEF748FF00BF80BD2D1D000880B500AF25
:101D50000121112002F0D4FD034A4FF47A710220D0
:101D6000FEF738FF00BF80BD2D1D000880B500AF15
:101D70000221022002F0C4FD034A4FF47A710220CE
:101D8000FEF728FF00BF80BD6D1D000880B500AFC5
:101D90000121022002F0B4FD034A4FF47A710220BF
:101DA000FEF718FF00BF80BD6D1D000880B582B032
:101DB00000AF0346FB71FB791946122002F0A0FD2B
:101DC000FB791946152002F09BFDFB7919460C2082
:101DD00002F096FDFB7919460F2002F091FDFB7988
:101DE00019461A2002F08CFDFB79002B13D1FB79E8
:101DF0001946092002F084FDFB791946062002F0FD
:101E00007FFDFB791946112002F07AFDFB79194616
:101E1000022002F075FD00BF0837BD4680BD80B5C9
:101E200082B000AF0346FB71FB791946012002F036
:101E300067FDFB7919460A2002F062FDFB7919461D
:101E40000D2002F05DFDFB791946132002F058FDCC
:101E5000FB791946042002F053FDFB79194619203D
:101E600002F04EFDFB791946102002F049FD00BF3B
:101E70000837BD4680BD80B500AF0C2002F072FD72
:101E80000346002B07D00F2002F06CFD0346002B09
:101E900001D0012300E00023184680BD80B500AFCB
:101EA0000020FFF783FF0020FFF7B9FF0021052086
:101EB00002F026FD0120FFF779FF00BF80BD000082
:101EC00080B500AF0E4B1B78072B13DC032B0CDA0D
:101ED000012B02DC002B03DA0CE0022B0CD009E012
:101EE00000210220FFF704FD07E000210B20FFF78F
:101EF000FFFC02E000BF00E000BF00BF80BD00BFEC
:101F00002802002080B582B000AF0023FB71384B5F
:101F10001B78033B042B65D801A252F823F000BFC5
:101F2000351F0008C91F0008C91F0008D11F00087D
:101F3000DB1F00082F4B1B78023B0A2B42D801A263
:101F400052F823F0711F0008C51F00087F1F00080A
:101F5000C51F00088D1F0008C51F00089B1F000833
:101F6000C51F0008A91F0008C51F0008B71F0008EB
:101F700000210420FFF7BCFC0123FB7123E00021BA
:101F80000520FFF7B5FC0123FB711CE000210620B2
:101F9000FFF7AEFC0123FB7115E000210720FFF7DE
:101FA000A7FC0123FB710EE000210820FFF7A0FC35
:101FB0000123FB7107E000210920FFF799FC0123B1
:101FC000FB7100E000BF0EE00B4B00221A700AE02C
:101FD00005210620FFF78CFC05E003210720FFF711
:101FE00087FC00E000BFFB7918460837BD4680BD7E
:101FF00028020020390200203802002080B582B07B
:1020000000AF0023FB710B4B1B78032B0CD10A4B49
:102010001B78053B012B03D90520FFF78FFC00E05F
:1020200000BF0123FB7100E000BFFB7918460837B1
:10203000BD4680BD280200203902002080B582B054
:1020400000AF0023FB711C4B1B78032B2ED11B4BC5
:102050001B78013B012B22D8194B1B780133DAB2D4
:10206000174B1A70164B1B7803F00103DAB2144BAE
:102070001A7000210C2002F043FC0021092002F01C
:102080003FFC0F4B1B78002B04D00121092002F0EC
:1020900037FC08E001210C2002F032FC03E00120B3
:1020A000FFF74CFC00BF0123FB7100E000BFFB7990
:1020B00018460837BD4680BD28020020390200209E
:1020C0003402002080B582B000AF0023FB710B4BBF
:1020D0001B78032B0CD10A4B1B78073B012B03D930
:1020E0000720FFF72BFC00E000BF0123FB7100E09D
:1020F00000BFFB7918460837BD4680BD2802002086
:102100003902002080B582B000AF0023FB711C4B68
:102110001B78032B2ED11B4B1B78033B012B22D8A2
:10212000194B1B780133DAB2174B1A70164B1B7818
:1021300003F00103DAB2144B1A7000210F2002F0F1
:10214000DFFB0021062002F0DBFB0F4B1B78002B8E
:1021500004D00121062002F0D3FB08E001210F206A
:1021600002F0CEFB03E00320FFF7E8FB00BF0123F2
:10217000FB7100E000BFFB7918460837BD4680BD03
:1021800028020020390200203402002080B582B0ED
:1021900000AF0023FB711E4B1B78032B31D11D4B6D
:1021A0001B78022B01D0042B29D10021132002F02F
:1021B000A7FB00210D2002F0A3FB174B5B78013336
:1021C000DAB2154B5A70144B5B78032B06D0032BF5
:1021D00011DC012B0AD0022B04D00CE00E4B0022A4
:1021E0005A7009E00121132002F08AFB01210D2021
:1021F00002F086FB00E000BF0123FB7100E000BF9E
:1022000000E000BFFB7918460837BD4680BD00BF1F
:1022100028020020390200203402002080B582B05C
:1022200000AF0023FB71254B1B78032B40D1244BBF
:102230001B78062B8CBF01220022D2B2002A35D196
:10224000012202FA03F303F05403002B14BF01230D
:102250000023DBB2002B29D00021102002F050FB1C
:102260000021192002F04CFB164B9B780133DAB2A7
:10227000144B9A70134B9B78032B06D0032B11DC65
:10228000012B0AD0022B04D00CE00E4B00229A70D6
:1022900009E00121102002F033FB0121192002F096
:1022A0002FFB00E000BF0123FB7100E000BF00E056
:1022B00000BFFB7918460837BD4680BD28020020C4
:1022C000390200203402002080B582B000AF002324
:1022D000FB710B4B1B78032B0CD10A4B1B780B3B70
:1022E000012B03D90B20FFF729FB00E000BF0123DE
:1022F000FB7100E000BFFB7918460837BD4680BD82
:10230000280200203902002080B582B000AF0023EF
:10231000FB710B4B1B78032B0CD10A4B1B78093B31
:10232000012B03D90920FFF709FB00E000BF0123BF
:10233000FB7100E000BFFB7918460837BD4680BD41
:10234000280200203902002080B400AF034B1B7824
:10235000032B00BF00BFBD4680BC70472802002091
:1023600080B582B000AF78607B685B6803F00103E2
:10237000002B02D00120FFF745FA7B689B6803F031
:102380000103002B19D07B681B6903F00103002BAC
:1023900002D0FFF795FD0AE00120FFF773FB03462B
:1023A000002B04D10120FFF72DFAFFF789FD7B6890
:1023B0001B6923F001027B681A617B689B6803F04C
:1023C0001003002B07D0FFF79DFD0346002B02D022
:1023D0000120FFF717FA7B689B6803F00403002BCA
:1023E00007D0FFF72BFE0346002B02D00120FFF79A
:1023F00009FA7B689B6803F02003002B07D0FFF7E6
:1024000081FE0346002B02D00120FFF7FBF97B6819
:102410009B6803F00203002B07D0FFF7EFFD034694
:10242000002B02D00120FFF7EDF97B689B6803F0D9
:102430000803002B07D0FFF745FE0346002B02D010
:102440000120FFF7DFF97B689B6803F04003002B56
:1024500007D0FFF79BFE0346002B02D00120FFF7B9
:10246000D1F97B689B6803F48063002B07D0FFF7EA
:10247000D5FE0346002B02D00120FFF7C3F97B688D
:102480005B6803F40073002B07D0FFF71DFF0346C2
:10249000002B02D00120FFF7B5F97B685B6803F4DD
:1024A0008073002B07D0FFF72FFF0346002B02D0CD
:1024B0000120FFF7A7F97B689B6803F08003002BDE
:1024C00001D0FFF741FF00BF0837BD4680BD0000C7
:1024D00080B500AF114B1B78022B17D0022B1ADCF2
:1024E000002B02D0012B0AD015E00D4A0A214FF42F
:1024F0000040FEF76FFB094B01221A700CE002202E
:10250000FEF73EFB054B02221A7005E00021012078
:10251000FFF7EEF900E000BF00BF80BD39020020E8
:102520007917000880B500AF0A4B1B78002B02D04A
:10253000012B08D00CE002F0D7F9FFF747FA054B62
:1025400001221A7004E04FF4FA70FEF719FB00BF85
:1025500000BF80BD3902002080B500AFBD4B1B78A5
:10256000102B00F2AD8101A252F823F0B125000832
:10257000F32500081D2600085F26000879260008BC
:10258000B1260008DB260008132700082D270008C5
:10259000672700087B270008AB270008C72700082B
:1025A00009280008252800085D2800088928000857
:1025B0000121012002F090FEA64B01221A70FFF7C4
:1025C000E3F90346002B06D10121082002F098F917
:1025D000A04B10221A70FFF7C7F90346002B40F0FA
:1025E000718101210E2002F08BF99A4B10221A7092
:1025F00068E1FFF7A3FA02F025F9012002F0F0F8F4
:1026000040F6A230FFF7FAF9924B02221A70924B71
:1026100014221A806420FEF7B3FA56E102F008F99A
:102620000346002B0ED0FFF7BFF90346012B09D05C
:10263000894B1B88013B9AB2874B1A80864B1B88BB
:10264000002B08D102F0BAF8C820FEF799FA814BA6
:1026500003221A7039E16420FEF792FA35E1022074
:1026600002F0BEF86420FEF78BFA7B4B03221A803F
:10267000784B04221A7028E102F0DAF80346002BA6
:1026800009D0754B1B88013B9AB2734B1A80724B71
:102690001B88002B08D102F091F80021012002F0E4
:1026A0001BFE6C4B05221A706420FEF769FA0CE1E0
:1026B00040F6BA00FFF7C4F90346012B03D1654B7E
:1026C0000F221A7005E0644BC8221A80614B062263
:1026D0001A706420FEF754FAF7E040F6BA00FFF7EC
:1026E000AFF90346012B09D05B4B1B88013B9AB223
:1026F000594B1A80584B1B88002B06D1012105200D
:1027000002F0FEF8534B07221A706420FEF738FAE5
:10271000DBE0022002F064F86420FEF731FA4E4B51
:102720003C221A804B4B08221A70CEE002F080F84F
:102730000346002B0ED0FFF737F90346012B09D0D3
:10274000454B1B88013B9AB2434B1A80424B1B8876
:10275000002B04D102F032F83E4B09221A7064209B
:10276000FEF70EFAB1E00020FEF74EFD3A4B642270
:102770001A80384B0A221A70A7E0374B1B88013B9E
:102780009AB2354B1A80344B1B88002B09D1FEF7C7
:10279000D7FD41F27070FEF7F3F92E4B0B221A7041
:1027A00093E06420FEF7ECF98FE040F2DC50FEF796
:1027B000E7F9012002F014F8274B3C221A80254B40
:1027C0000C221A7081E002F033F80346002B0ED081
:1027D000FFF7EAF80346012B09D01F4B1B88013B8A
:1027E0009AB21D4B1A801C4B1B88002B08D101F09C
:1027F000E5FFC820FEF7C4F9164B0D221A7064E0FD
:102800006420FEF7BDF960E00021052002F078F8B1
:10281000022001F0E5FF104B03221A800D4B0E221F
:102820001A7052E002F004F80346002B09D00A4B5C
:102830001B88013B9AB2084B1A80074B1B88002B60
:1028400004D101F0BBFF034B0F221A706420FEF786
:1028500097F93AE0390200202C02002000210120E3
:1028600002F03AFDFFF7B2F8FFF705FB0346012B34
:102870002AD10120FFF79AFA0220FEF733FA00214D
:102880000320FFF735F81FE0FFF77EF80346012B22
:1028900006D10021082002F033F80D4B00221A70F7
:1028A000FFF762F80346012B06D100210E2002F04B
:1028B00027F8074B00221A703220FEF761F904E076
:1028C00000BF02E000BF00E000BF00BF80BD00BF4E
:1028D0003902002080B500AF694B1B780C2B00F249
:1028E000CC8001A252F823F01D29000825290008F8
:1028F0005F29000867290008A1290008A929000804
:10290000F1290008F9290008232A00082B2A0008C9
:102910004B2A0008532A0008732A00080A20FEF7F1
:102920002FF9ABE003220021564805F047FEFFF7E0
:102930002DF90020FFF73AFA0020FFF770FA012185
:102940000C2001F0DDFF01210A2001F0D9FF012157
:10295000042001F0D5FF4A4B02221A708EE00A20B3
:10296000FEF70EF98AE003220021464805F026FE14
:10297000FFF70CF90020FFF719FA0020FFF74FFAD4
:1029800001210F2001F0BCFF01210A2001F0B8FF56
:102990000121042001F0B4FF394B04221A706DE0CC
:1029A0000A20FEF7EDF869E003220021354805F022
:1029B00005FE344B02229A70FFF7E8F80020FFF77B
:1029C000F5F90020FFF72BFA0121152001F098FFFF
:1029D0000121042001F094FF0121192001F090FF52
:1029E0000121102001F08CFF254B06221A7045E0D2
:1029F0000A20FEF7C5F841E003220021214805F036
:102A0000DDFDFFF7C3F80020FFF7D0F90020FFF746
:102A100006FA0121122001F073FF194B08221A70E7
:102A20002CE00A20FEF7ACF828E0FFF7AFF8002012
:102A3000FFF7BCF90020FFF7F2F90121112001F0A6
:102A40005FFF0F4B0A221A7018E00A20FEF798F871
:102A500014E0FFF79BF80020FFF7A8F90020FFF72C
:102A6000DEF90121022001F04BFF054B0C221A7008
:102A700004E00A20FEF784F800E000BF00BF80BD3C
:102A8000390200203402002080B500AFBD4B1B7816
:102A9000142B00F20F8201A252F823F0F12A000851
:102AA0002D2B00084B2B0008872B0008A12B0008BA
:102AB000D32B0008372C0008672C0008872C00084F
:102AC000C32C0008DF2C0008F32C0008552D00084B
:102AD000692D0008992D0008C92D0008E92D00086E
:102AE000252E00083F2E0008712E0008972E0008A2
:102AF000A54B01221A700020FFF758F90020FFF7BC
:102B00008EF90121052001F0FBFEFFF76FF89F4BC6
:102B10001B78012B03D19E4B01221A7002E09C4BC3
:102B200000221A70974B01221A70C8E101F08AFE48
:102B3000012001F055FE6420FEF722F8954B1E227D
:102B40001A80904B02221A70B9E101F071FE03461F
:102B5000002B0ED0FEF728FF0346012B09D08D4B2A
:102B60001B88013B9AB28B4B1A808A4B1B88002B27
:102B700005D101F023FE834B03221A709FE16420EC
:102B8000FDF7FEFF9BE1022001F02AFE6420FDF725
:102B9000F7FF804B03221A807A4B04221A708EE1D1
:102BA00001F046FE0346002B09D07A4B1B88013BFF
:102BB0009AB2784B1A80774B1B88002B05D101F015
:102BC000FDFD704B05221A7079E16420FDF7D8FFF6
:102BD00075E140F6DC20FEF711FF6C4B5B78002BB3
:102BE0000AD14FF47A70FEF73DFB6A4B50221A80EF
:102BF000644B06221A705FE1644B5B78012B0AD1AB
:102C00004FF47A70FEF72EFB624B5A221A805D4B0E
:102C100006221A7050E15D4B5B78022B40F04C812C
:102C20004FF47A70FEF71EFB5A4B64221A80554B04
:102C300006221A7040E1574B1B88013B9AB2554B54
:102C40001A80544B1B88002B09D1FEF75BFB4FF415
:102C50007A70FDF795FF4B4B07221A702FE1642025
:102C6000FDF78EFF2BE1484B02221A70022001F083
:102C7000B7FD6420FDF784FF464B46221A80414B86
:102C800008221A701BE101F0D3FD0346002B0ED081
:102C9000FEF78AFE0346012B09D03E4B1B88013B01
:102CA0009AB23C4B1A803B4B1B88002B05D101F09C
:102CB00085FD344B09221A7001E16420FDF760FFA5
:102CC000FDE0314B03221A700020FEF79DFA40F21E
:102CD0006C70FDF755FF2B4B0A221A70EFE0FEF7E0
:102CE0002FFB4FF47A60FDF74BFF264B0B221A7037
:102CF000E5E0254B04221A70244B9B78002B0AD167
:102D00000020FEF781FA41F28830FDF739FF1D4BB4
:102D10000C221A70D2E01D4B9B78012B0AD10020A7
:102D2000FEF772FA42F21070FDF72AFF154B0C22E3
:102D30001A70C3E0154B9B78022B40F0BF80002037
:102D4000FEF762FA44F62060FDF71AFF0D4B0C22E5
:102D50001A70B3E0FEF7F4FA41F27070FDF710FF5D
:102D6000084B0D221A70AAE0074B05221A700120A9
:102D700001F036FD074B1D221A80024B0E221A70FD
:102D80009DE000BF39020020330200203402002001
:102D9000380200202C0200204A4B1B88013B9AB2CB
:102DA000484B1A80474B1B88002B09D101F006FDC8
:102DB00040F6B830FDF7E4FE434B0F221A707EE078
:102DC0006420FDF7DDFE7AE0404B06221A700120F8
:102DD00001F006FD6420FDF7D3FE3A4B32221A8043
:102DE000394B10221A706AE001F022FD0346002BD5
:102DF0000ED0FEF7D9FD0346012B09D0314B1B88BD
:102E0000013B9AB22F4B1A802E4B1B88002B05D109
:102E100001F0D4FC2C4B11221A7050E06420FDF715
:102E2000AFFE4CE0022001F0DBFC6420FDF7A8FEC1
:102E3000244B03221A80244B12221A703FE001F027
:102E4000F7FC0346002B09D01E4B1B88013B9AB2AE
:102E50001C4B1A801B4B1B88002B05D101F0AEFCCC
:102E6000194B13221A702AE06420FDF789FE26E030
:102E7000174B1B78012B0AD1134B01221A70144BEC
:102E800000221A704FF4FA70FDF77AFE17E00E4B2D
:102E900014221A7013E00D4B00221A70FEF796FDF3
:102EA0000C4B01221A70FEF7F9FF00210320FEF7F8
:102EB0001FFD04E000BF02E000BF00E000BF00BF54
:102EC00080BD00BF2C020020390200203302002008
:102ED000380200203702002080B500AFBD4B1B78C0
:102EE000212B00F23E8301A252F823F0752F000837
:102EF000B12F0008CB2F0008073000082130000850
:102F000053300008B7300008E730000807310008E8
:102F1000433100085F310008733100088F31000829
:102F2000A3310008BF310008E93100080932000868
:102F3000453200085F32000891320008C5320008AF
:102F4000DF3200081B330008353300086733000800
:102F50007733000897330008D3330008673400083C
:102F60007B340008BD340008F9340008133500082C
:102F700045350008984B01221A700020FEF716FF15
:102F80000020FEF74CFF0121052001F0B9FCFEF7FF
:102F90006DFE924B1B78012B03D1914B01221A70CD
:102FA00002E08F4B00221A708A4B01221A70DDE278
:102FB000012001F015FC6420FDF7E2FD894B1E2283
:102FC0001A80844B02221A70D0E201F031FC0346D1
:102FD000002B0ED0FEF7E8FC0346012B09D0814BF5
:102FE0001B88013B9AB27F4B1A807E4B1B88002BBB
:102FF00005D101F0E3FB774B03221A70B6E264209F
:10300000FDF7BEFDB2E2022001F0EAFB6420FDF70D
:10301000B7FD744B03221A806E4B04221A70A5E28E
:1030200001F006FC0346002B09D06E4B1B88013BC8
:103030009AB26C4B1A806B4B1B88002B05D101F0A8
:10304000BDFB644B05221A7090E26420FDF798FDE9
:103050008CE240F6DC20FEF7D1FC604B5B78002B65
:103060000AD14FF47A70FEF7FDF85E4B50221A80B9
:10307000584B06221A7076E2584B5B78012B0AD126
:103080004FF47A70FEF7EEF8564B5A221A80514BE5
:1030900006221A7067E2514B5B78022B40F0638284
:1030A0004FF47A70FEF7DEF84E4B64221A80494BDB
:1030B00006221A7057E24B4B1B88013B9AB2494BD0
:1030C0001A80484B1B88002B09D1FEF71BF94FF4DF
:1030D0007A70FDF755FD3F4B07221A7046E26420D7
:1030E000FDF74EFD42E23C4B02221A70022001F035
:1030F00077FB6420FDF744FD3A4B46221A80354B9E
:1031000008221A7032E201F093FB0346002B0ED026
:10311000FEF74AFC0346012B09D0324B1B88013BCA
:103120009AB2304B1A802F4B1B88002B05D101F02F
:1031300045FB284B09221A7018E26420FDF720FD98
:1031400014E2254B03221A700020FEF75DF84FF4BD
:10315000E160FDF715FD1F4B0A221A7006E2FEF72B
:10316000EFF84FF47A60FDF70BFD1A4B0B221A7043
:10317000FCE1194B04221A700020FEF745F842F6D4
:103180007C60FDF7FDFC134B0C221A70EEE1FEF79C
:10319000D7F841F27070FDF7F3FC0E4B0D221A7058
:1031A000E4E10D4B05221A70012001F019FB40F6F5
:1031B0005430FDF7E5FC074B0E221A70D6E101F002
:1031C000FDFA40F6B830FDF7DBFC024B0F221A7017
:1031D000CCE100BF3902002033020020340200207D
:1031E000380200202C020020AC4B06221A7001206D
:1031F00001F0F6FA6420FDF7C3FCA94B32221A80D5
:10320000A84B10221A70B1E101F012FB0346002B0B
:103210000ED0FEF7C9FB0346012B09D0A04B1B883B
:10322000013B9AB29E4B1A809D4B1B88002B05D107
:1032300001F0C4FA9B4B11221A7097E16420FDF74C
:103240009FFC93E1022001F0CBFA6420FDF798FC8B
:10325000934B03221A80934B12221A7086E101F0DD
:10326000E7FA0346002B09D08D4B1B88013B9AB22D
:103270008B4B1A808A4B1B88002B05D101F09EFADC
:10328000884B13221A7071E16420FDF779FC6DE11F
:10329000854B01221A70854B1B78012B0AD1834B79
:1032A00000221A704FF4FA70FDF76AFC7D4B05227C
:1032B0001A705BE14FF4B470FDF762FC794B142295
:1032C0001A7053E1012001F08BFA6420FDF758FCDD
:1032D000734B1E221A80734B15221A7046E101F0BF
:1032E000A7FA0346002B0ED0FEF75EFB0346012B28
:1032F00009D06B4B1B88013B9AB2694B1A80684B13
:103300001B88002B05D101F059FA664B16221A7062
:103310002CE16420FDF734FC28E1022001F060FA82
:103320006420FDF72DFC5E4B03221A805D4B1722B3
:103330001A701BE101F07CFA0346002B09D0584BB0
:103340001B88013B9AB2564B1A80554B1B88002BA9
:1033500005D101F033FA534B18221A7006E16420AC
:10336000FDF70EFC02E14FF47A60FDF709FC4D4BCE
:1033700019221A70FAE0494B02221A70022001F059
:103380002FFA6420FDF7FCFB454B46221A80454B83
:103390001A221A70EAE001F04BFA0346002B0ED015
:1033A000FEF702FB0346012B09D03D4B1B88013B76
:1033B0009AB23B4B1A803A4B1B88002B05D101F087
:1033C000FDF9384B1B221A70D0E06420FDF7D8FBC2
:1033D000CCE0324B04221A70354B9B78002B13D172
:1033E0000020FDF711FF324B1B78002B04D144F66F
:1033F0003820FDF7C5FB03E048F2E800FDF7C0FB0D
:10340000284B1C221A70B0E0294B9B78012B12D15B
:103410000020FDF7F9FE264B1B78002B04D148F65F
:10342000A040FDF7ADFB02E02248FDF7A9FB1D4BD4
:103430001C221A7099E01E4B9B78022B40F095805D
:103440000020FDF7E1FE1A4B1B78002B04D14CF253
:103450003870FDF795FB02E01748FDF791FB114B23
:103460001C221A7081E0FDF76BFF41F27070FDF7CE
:1034700087FB0C4B1D221A7078E0084B06221A704D
:10348000012001F0ADF94FF47A70FDF779FB044BA0
:103490003C221A80034B1E221A7067E03302002080
:1034A0002C020020390200203702002038020020C0
:1034B0003402002040190100289A010001F0B8F9F7
:1034C0000346002B0ED0FEF76FFA0346012B09D0FE
:1034D000274B1B88013B9AB2254B1A80244B1B8833
:1034E000002B05D101F06AF9224B1F221A703DE032
:1034F0006420FDF745FB39E0022001F071F96420FA
:10350000FDF73EFB1A4B03221A801A4B20221A7039
:103510002CE001F08DF90346002B09D0144B1B88D9
:10352000013B9AB2124B1A80114B1B88002B05D11C
:1035300001F044F90F4B21221A7017E06420FDF7C7
:103540001FFB13E00C4B00221A70FEF73FFA0B4BE7
:1035500001221A70FEF7A2FC00210320FEF7C8F931
:1035600004E000BF02E000BF00E000BF00BF80BD7C
:103570002C020020390200203302002037020020F4
:1035800080B500AF444B1B78052B00F2808001A270
:1035900052F823F0AD350008DB3500080D36000881
:1035A0001B3600088F360008733600080020FEF72F
:1035B000FDFB0020FEF733FC0121052001F0A0F9FE
:1035C000FEF784FB40F61520FEF718FA334B642211
:1035D0001A80314B01221A705CE040F61520FEF78C
:1035E0002FFA0346012B09D02C4B1B88013B9AB2C2
:1035F0002A4B1A80294B1B88002B03D1264B022211
:103600001A7047E06420FDF7BBFA43E00120FEF7A3
:1036100025FA214B03221A703CE0214B9B78002BAA
:103620000AD10020FDF7F0FD43F2B060FDF7A8FAE3
:10363000194B05221A702CE0194B9B78012B0AD1EB
:103640000020FDF7E1FD49F65800FDF799FA124B0D
:1036500005221A701DE0124B9B78022B19D1002015
:10366000FDF7D2FD0F48FDF78BFA0B4B05221A70C0
:103670000FE0FDF765FE0020FEF7F0F9FEF7A6F972
:10368000FEF70CFC00210320FEF732F902E000BF38
:1036900000E000BF00BF80BD390200202C020020E6
:1036A00034020020E87A010080B500AF2B4B1B7874
:1036B000032B4FD801A252F823F000BFCD360008EB
:1036C000FB3600082D3700083B3700080020FEF7C6
:1036D0006DFB0020FEF7A3FB0121052001F010F98E
:1036E000FEF714FB40F6CC40FEF788F91C4B642231
:1036F0001A801A4B01221A702DE040F61520FEF7B1
:103700009FF90346012B09D0154B1B88013B9AB248
:10371000134B1A80124B1B88002B03D10F4B022234
:103720001A7018E06420FDF72BFA14E00120FEF770
:1037300095F90220FDF768FD0DE00020FEF78EF9F7
:10374000FDF7FEFDFEF742F9FEF7A8FB002103207E
:10375000FEF7CEF800BF00BF80BD00BF39020020D9
:103760002C02002080B500AF0B4B1B78002B02D041
:10377000012B0AD00EE00121052001F0C1F8FEF76F
:10378000E5FA054B01221A7004E04FF4FA70FDF7D8
:10379000F7F900BF00BF80BD3902002080B500AF3F
:1037A0000B4B1B78002B02D0012B0AD00EE001211D
:1037B000052001F0A5F8FEF7E9FA054B01221A7081
:1037C00004E04FF4FA70FDF7DBF900BF00BF80BDE5
:1037D0003902002080B500AF5C4B1B78072B00F24C
:1037E000B28001A252F823F00938000839380008E5
:1037F000533800088F380008A9380008EB38000853
:10380000053900083539000801F012F80346002B8D
:103810000ED10121012001F05FFD4C4B01221A70F5
:10382000FEF7C2F80346002B02D1484B03221A7060
:103830006420FDF7A5F987E0012000F0D1FF6420A6
:10384000FDF79EF9424B0A221A80404B02221A7061
:103850007AE0FEF7A9F80346002B09D03C4B1B8801
:10386000013B9AB23A4B1A80394B1B88002B0AD184
:1038700000F0A4FF364B1B88002B01D0032200E090
:103880000522324B1A706420FDF77AF95CE00120C2
:1038900000F0A6FF6420FDF773F92C4B04221A7088
:1038A0002B4B3C221A804FE000F0C2FF0346002B56
:1038B0000ED0FEF779F80346012B09D0244B1B8864
:1038C000013B9AB2224B1A80214B1B88002B08D156
:1038D00000F074FFC820FDF753F91C4B05221A7045
:1038E00032E06420FDF74CF92EE0022000F078FF72
:1038F0006420FDF745F9164B03221A80134B06226C
:103900001A7021E000F094FF0346002B09D0104B01
:103910001B88013B9AB20E4B1A800D4B1B88002B63
:1039200004D100F04BFF094B07221A706420FDF709
:1039300027F909E00021012001F0CEFC002101203F
:10394000FDF7D6FF00E000BF00BF80BD39020020B8
:103950002C02002080B500AF694B1B780A2B00F2C7
:10396000CB8001A252F823F095390008AB3900084A
:10397000C5390008013A0008173A00082B3A000838
:10398000413A0008553A00086F3A0008AB3A00087F
:10399000C53A0008FDF7B6FC00F010FF6420FDF703
:1039A000EFF8574B01221A70A7E0022000F018FF31
:1039B0006420FDF7E5F8534B46221A80504B022253
:1039C0001A709AE000F034FF0346002B0ED0FDF78A
:1039D000EBFF0346012B09D04A4B1B88013B9AB2EF
:1039E000484B1A80474B1B88002B05D100F0E6FEA0
:1039F000434B03221A7080E06420FDF7C1F87CE09D
:103A00000020FDF701FC40F26C70FDF7B9F83C4B6B
:103A100004221A7071E0FDF793FC4FF47A60FDF711
:103A2000AFF8374B05221A7067E0012000F0D8FE8E
:103A300040F65430FDF7A4F8314B06221A705CE0D2
:103A400000F0BCFE40F6B830FDF79AF82C4B072288
:103A50001A7052E0012000F0C3FE6420FDF790F8D8
:103A6000284B32221A80264B08221A7045E000F0BB
:103A7000DFFE0346002B0ED0FDF796FF0346012B19
:103A800009D0204B1B88013B9AB21E4B1A801D4B5C
:103A90001B88002B05D100F091FE194B09221A70EA
:103AA0002BE06420FDF76CF827E0022000F098FE80
:103AB0006420FDF765F8134B03221A80104B0A228D
:103AC0001A701AE000F0B4FE0346002B09D00D4B2B
:103AD0001B88013B9AB20B4B1A800A4B1B88002BA8
:103AE00006D100F06BFE064B00221A70012305E0A0
:103AF0006420FDF745F800E000BF0023184680BDB4
:103B0000A40000202C02002080B500AF694B1B7878
:103B10000A2B00F2CA8001A252F823F0493B0008A8
:103B20005D3B0008773B0008B33B0008C93B000839
:103B3000DD3B0008F33B0008073C0008213C00087F
:103B40005D3C0008773C000800F038FE4FF49670AA
:103B5000FDF716F8574B01221A70A7E0022000F07B
:103B60003FFE6420FDF70CF8534B46221A80514B60
:103B700002221A709AE000F05BFE0346002B0ED082
:103B8000FDF712FF0346012B09D04B4B1B88013B6D
:103B90009AB2494B1A80484B1B88002B05D100F084
:103BA0000DFE444B03221A7080E06420FCF7E8FF0E
:103BB0007CE00020FDF728FB40F26C70FCF7E0FF92
:103BC0003C4B04221A7071E0FDF7BAFB4FF47A60A7
:103BD000FCF7D6FF374B05221A7067E0012000F092
:103BE000FFFD40F65430FCF7CBFF324B06221A7033
:103BF0005CE000F0E3FD40F6B830FCF7C1FF2D4B70
:103C000007221A7052E0012000F0EAFD6420FCF760
:103C1000B7FF294B32221A80264B08221A7045E042
:103C200000F006FE0346002B0ED0FDF7BDFE034656
:103C3000012B09D0204B1B88013B9AB21E4B1A80E6
:103C40001D4B1B88002B05D100F0B8FD194B092234
:103C50001A702BE06420FCF793FF27E0022000F0AD
:103C6000BFFD6420FCF78CFF134B03221A80114B1D
:103C70000A221A701AE000F0DBFD0346002B09D07F
:103C80000D4B1B88013B9AB20B4B1A800A4B1B88C9
:103C9000002B06D100F092FD064B00221A70012382
:103CA00005E06420FCF76CFF00E000BF002318462D
:103CB00080BD00BFA50000202C02002080B500AF11
:103CC000514B1B78082B00F29B8001A252F823F085
:103CD000F53C0008093D00081F3D0008333D000881
:103CE000493D00085D3D0008773D0008B33D0008F0
:103CF000CD3D0008FDF724FB4FF47A70FCF740FF40
:103D0000414B01221A707CE00020FDF77DFA40F261
:103D10006C70FCF735FF3C4B02221A7071E0FDF726
:103D20000FFB4FF47A60FCF72BFF374B03221A701E
:103D300067E0012000F054FD40F65430FCF720FF0E
:103D4000314B04221A705CE000F038FD40F6B830C8
:103D5000FCF716FF2C4B05221A7052E0012000F0F0
:103D60003FFD6420FCF70CFF284B32221A80264BC3
:103D700006221A7045E000F05BFD0346002B0ED0D2
:103D8000FDF712FE0346012B09D0204B1B88013B97
:103D90009AB21E4B1A801D4B1B88002B05D100F0D8
:103DA0000DFD194B07221A702BE06420FCF7E8FE8A
:103DB00027E0022000F014FD6420FCF7E1FE134B25
:103DC00003221A80104B08221A701AE000F030FD0E
:103DD0000346002B09D00D4B1B88013B9AB20B4BBD
:103DE0001A800A4B1B88002B06D100F0E7FC064B1B
:103DF00000221A70012305E06420FCF7C1FE00E0F8
:103E000000BF0023184680BDA60000202C02002021
:103E100080B500AF454B1B78062B00F2828001A2D3
:103E200052F823F0413E0008553E00086B3E000862
:103E30007F3E0008993E0008D53E0008EF3E00088E
:103E4000FDF77EFA4FF47A60FCF79AFE374B0122B9
:103E50001A7067E0012000F0C3FC40F65430FCF714
:103E60008FFE324B02221A705CE000F0A7FC40F695
:103E7000B830FCF785FE2D4B03221A7052E001206A
:103E800000F0AEFC6420FCF77BFE294B32221A8046
:103E9000264B04221A7045E000F0CAFC0346002BB2
:103EA0000ED0FDF781FD0346012B09D0204B1B8866
:103EB000013B9AB21E4B1A801D4B1B88002B05D16B
:103EC00000F07CFC194B05221A702BE06420FCF7F3
:103ED00057FE27E0022000F083FC6420FCF750FE30
:103EE000134B03221A80114B06221A701AE000F0BD
:103EF0009FFC0346002B09D00D4B1B88013B9AB257
:103F00000B4B1A800A4B1B88002B06D100F056FC85
:103F1000064B00221A70012305E06420FCF730FEF6
:103F200000E000BF0023184680BD00BFA7000020AE
:103F30002C02002080B500AF4F4B1B78072B00F2FE
:103F4000968001A252F823F0693F0008753F0008EF
:103F5000933F0008BB3F0008CB3F0008E53F000847
:103F6000214000083B40000800F028FC424B0122A1
:103F70001A707DE0414B1B88002B06D0012000F019
:103F80002FFC3D4B02221A7072E03B4B03221A7049
:103F90006EE03A4B1B88013B9AB2384B1A80374B84
:103FA0001B88002B05D100F009FC334B03221A704B
:103FB0005EE06420FCF7E4FD5AE040F6B830FCF720
:103FC000DFFD2D4B04221A7052E0012000F008FCA6
:103FD0006420FCF7D5FD2A4B32221A80264B05229D
:103FE0001A7045E000F024FC0346002B0ED0FDF7CC
:103FF000DBFC0346012B09D0214B1B88013B9AB205
:104000001F4B1A801E4B1B88002B05D100F0D6FBDE
:10401000194B06221A702BE06420FCF7B1FD27E053
:10402000022000F0DDFB6420FCF7AAFD144B032204
:104030001A80114B07221A701AE000F0F9FB0346B0
:10404000002B09D00E4B1B88013B9AB20C4B1A80F7
:104050000B4B1B88002B06D100F0B0FB064B002257
:104060001A70012305E06420FCF78AFD00E000BF20
:104070000023184680BD00BFA800002030020020A9
:104080002C02002080B500AF364B1B78042B65D87E
:1040900001A252F823F000BFAD400008B94000086B
:1040A000D34000080F4100082941000800F086FBBA
:1040B0002C4B01221A7052E0012000F091FB642089
:1040C000FCF75EFD284B32221A80264B02221A7022
:1040D00045E000F0ADFB0346002B0ED0FDF764FC7D
:1040E0000346012B09D0204B1B88013B9AB21E4B83
:1040F0001A801D4B1B88002B05D100F05FFB194B6C
:1041000003221A702BE06420FCF73AFD27E002201E
:1041100000F066FB6420FCF733FD134B03221A808A
:10412000104B04221A701AE000F082FB0346002BA9
:1041300009D00D4B1B88013B9AB20B4B1A800A4BDE
:104140001B88002B06D100F039FB064B00221A70A9
:10415000012305E06420FCF713FD00E000BF00230D
:10416000184680BDA90000202C02002080B500AFB9
:104170008E4B1B780C2B00F2148101A252F823F015
:10418000B5410008CF410008E94100082542000878
:104190003F4200087942000893420008CF420008DD
:1041A000E5420008F94200081543000851430008A1
:1041B0006B43000800F002FB40F61520FDF71EFCE3
:1041C0006420FCF7DDFC794B01221A70EAE0012043
:1041D00000F006FB6420FCF7D3FC754B1E221A800E
:1041E000724B02221A70DDE000F022FB0346002B26
:1041F0000ED0FDF7D9FB0346012B09D06C4B1B8871
:10420000013B9AB26A4B1A80694B1B88002B05D17F
:1042100000F0D4FA654B03221A70C3E06420FCF767
:10422000AFFCBFE0022000F0DBFA6420FCF7A8FC42
:104230005F4B03221A805D4B04221A70B2E000F03B
:10424000F7FA0346002B09D0594B1B88013B9AB261
:10425000574B1A80564B1B88002B09D100F0AEFA41
:1042600040F2DC50FCF78CFC504B05221A7099E0B0
:104270006420FCF785FC95E0022000F0B1FA642090
:10428000FCF77EFC4A4B46221A80484B06221A70E5
:1042900088E000F0CDFA0346002B0ED0FDF784FB3A
:1042A0000346012B09D0424B1B88013B9AB2404B7D
:1042B0001A803F4B1B88002B05D100F07FFA3B4B47
:1042C00007221A706EE06420FCF75AFC6AE00020B6
:1042D000FCF79AFF42F21070FCF752FC334B0822B5
:1042E0001A705FE0FDF72CF841F27070FCF748FCA3
:1042F0002E4B09221A7055E0012000F071FA4FF49C
:104300007A70FCF73DFC2A4B3C221A80274B0A228C
:104310001A7047E000F08CFA0346002B0ED0FDF730
:1043200043FB0346012B09D0214B1B88013B9AB26A
:104330001F4B1A801E4B1B88002B05D100F03EFA44
:104340001A4B0B221A702DE06420FCF719FC29E0AF
:10435000022000F045FA6420FCF712FC144B032203
:104360001A80124B0C221A701CE000F061FA03460E
:10437000002B09D00E4B1B88013B9AB20C4B1A80C4
:104380000B4B1B88002B08D100F018FAFDF71EFB21
:10439000064B00221A70012305E06420FCF7F0FBB5
:1043A00000E000BF0023184680BD00BFAA00002027
:1043B0002C02002080B500AF5F4B1B78082B00F269
:1043C000A98001A252F823F0ED4300087F440008C1
:1043D00091440008A3440008B5440008C7440008FD
:1043E000D9440008EB440008FD44000801210120E5
:1043F00000F072FFFDF7A2FB504B1B78062B3CD858
:1044000001A252F823F000BF2544000843440008ED
:104410004B440008534400085B4400086344000810
:1044200073440008464B1B78012B06D1444B0022F5
:104430001A70414B07221A7020E03F4B08221A7075
:104440001CE03D4B01221A7018E03B4B02221A700F
:1044500014E0394B03221A7010E0374B04221A7013
:104460000CE0384B1A88384B1A80334B05221A70EF
:1044700004E0314B06221A7000E000BF59E0FFF75C
:1044800069FA0346012B47D12B4B07221A7043E0F0
:10449000FFF73AFB0346012B40D1274B07221A7046
:1044A0003CE0FFF70BFC0346012B39D1224B0722DE
:1044B0001A7035E0FFF7ACFC0346012B32D11E4BDE
:1044C00007221A702EE0FFF735FD0346012B2BD192
:1044D000194B07221A7027E0FFF7D4FD0346012B82
:1044E00024D1154B07221A7020E0FFF73FFE034648
:1044F000012B1DD1104B08221A7019E00021012058
:1045000000F0EAFE0220FCF7EDFB00210120FDF7A0
:10451000EFF90EE000BF0CE000BF0AE000BF08E0CA
:1045200000BF06E000BF04E000BF02E000BF00E003
:1045300000BF00BF80BD00BF390200203302002051
:10454000370200202C0200203002002080B483B00B
:1045500000AF0346FB71074AFB791370064B00223C
:104560001A70064B00221A7000BF0C37BD4680BC83
:10457000704700BF2A0200202802002039020020D4
:1045800080B500AF234B1B780B2B3FD801A252F80C
:1045900023F000BFC5450008CB450008D145000801
:1045A000D7450008DD450008E3450008E945000857
:1045B000EF450008F5450008FB45000801460008E6
:1045C00007460008FDF784FF21E0FDF7ABFF1EE082
:1045D000FDF7C2FF1BE0FEF77DF918E0FEF754FA85
:1045E00015E0FEF779FC12E0FEF7CAFF0FE0FFF7D7
:1045F0005BF80CE0FFF7B6F809E0FFF7CFF806E04C
:10460000FFF7E8F803E0FFF7D5FE00E000BF00BFCA
:1046100080BD00BF2802002080B582B000AF0346F5
:104620003960FB71094B1B78FA799A4201D03B68DB
:1046300008E03B6803F00103002B02D00448FDF7BB
:104640008FFE3B6818460837BD4680BD2A02002011
:104650005002002080B582B000AF134B1B780133AD
:10466000DAB2114B1A70104B1B78642B17D9022049
:10467000FDF71CF80346FB800120FDF717F8034601
:10468000BB800020FDF712F803467B80F988BA88CA
:104690007B88064803F09AFF034B00221A7000BF84
:1046A0000837BD4680BD00BF3A020020F8940008DC
:1046B00080B483B000AF0346FB71054AFB791370E9
:1046C000044B00221A7000BF0C37BD4680BC7047F7
:1046D0003B0200203C02002080B500AF104B1B784D
:1046E000022B0FD0022B15DC002B02D0012B13D094
:1046F00010E000F0F9F80B4B00221A70084B022270
:104700001A700AE0FFF7A6FF01F0AAF90A20FCF7E9
:1047100037FA02E000BF00E000BF00BF80BD00BF6D
:104720003C0200203A02002080B483B000AF034670
:104730003960FB71064B1B78FA799A4201D03B68CD
:1047400000E03B6818460C37BD4680BC704700BF90
:104750003B02002080B582B000AF03460A46FB71E1
:104760001346BB71FB79002B06D0BB79002B03D01D
:104770000023FB710023BB71FB79002B05D04FF4A4
:1047800080410D4802F08AF804E04FF480410A4865
:1047900002F093F8BB79002B05D04FF40041064896
:1047A00002F07CF804E04FF40041034802F085F881
:1047B00000BF0837BD4680BD000C014080B500AF8A
:1047C00000210020FFF7C6FF044B1B78032B02D00B
:1047D000024B00221A7000BF80BD00BFAB0000205A
:1047E00080B582B000AF0346FB71104B1B78032BE2
:1047F00018D0FB79012B02D0022B08D00FE000214A
:104800000120FFF7A7FF094B01221A700BE00121DD
:104810000020FFF79FFF054B02221A7003E0FFF70D
:10482000CDFF00E000BF0837BD4680BDAB000020D3
:1048300080B400AF024B1B781846BD4680BC704761
:10484000AB00002080B500AF054B1B78032B04D1D3
:10485000034B00221A70FFF7B1FF00BF80BD00BFFD
:10486000AB00002080B500AF4FF48071044802F027
:104870004DF80346002B01D1FFF7A0FF00BF80BD1C
:104880000008014080B500AF40F2026002F0EAF992
:1048900040F2036002F0E6F94FF4C06002F0E2F982
:1048A0004FF48043012210210C4801F043FF4FF4E4
:1048B000004301221021094801F03CFF00210020A3
:1048C000FFF748FF4FF4807301220421044801F0F0
:1048D00031FF044B00221A7000BF80BD000C014064
:1048E00000080140AB00002080B400AF034B002261
:1048F0001A6000BFBD4680BC704700BF4002002068
:1049000080B483B000AF03460A46FB711346BB7107
:10491000BB79002B0AD1FB79012202FA03F3DA43B7
:104920000F4B1B6813400E4A136013E0BB79012B39
:1049300008D1FB7901229A40094B1B681343084AAE
:10494000136007E0FB7901229A40054B1B68534036
:10495000034A136000BF0C37BD4680BC704700BFE0
:104960004002002080B483B000AF0346FB71074BC8
:104970001A68FB7922FA03F3DBB203F00103DBB21E
:1049800018460C37BD4680BC704700BF400200206F
:1049900080B500AF4FF4C06002F064F90021002040
:1049A00002F04EF802220021012001F0A3FD0120B7
:1049B00001F02EFE00220221062002F0CBF8082191
:1049C000002002F03DF801220021012001F092FDBB
:1049D0004FF4807001F01CFE00220021172002F02D
:1049E000B9F800BF80BD000080B500AF4FF4C060D3
:1049F00002F038F90121054801F0B0FF01214FF420
:104A0000004001F0ABFF00BF80BD00BF00023000DE
:104A100080B500AF40F2026002F024F940F203607A
:104A200002F020F940F2046002F01CF940F2056047
:104A300002F018F9012301224821664801F07AFEAC
:104A4000202301222821644801F074FE4FF4805392
:104A5000012204215F4801F06DFE10230122042190
:104A60005D4801F067FE4FF40053012204215A48CB
:104A700001F060FE4FF4807301220421554801F0DB
:104A800059FE202301221021524801F053FE20211B
:104A9000504801F012FF4023012210214D4801F03F
:104AA00049FE40214B4801F008FF802301221021DC
:104AB000484801F03FFE8021464801F0FEFE0423F5
:104AC00001221021444801F035FE0421424801F042
:104AD000E5FE4FF48053012210213F4801F02AFEE9
:104AE0004FF480513C4801F0E8FE4FF4806301220E
:104AF0001021394801F01EFE4FF48061364801F064
:104B0000CDFE4FF4006301221021334801F012FE64
:104B10004FF40061304801F0C1FE40230122102112
:104B20002D4801F007FE40212B4801F0C6FE8023EE
:104B300001221021284801F0FDFD8021264801F0C6
:104B4000BCFE4FF4807301221021234801F0F2FDD6
:104B50004FF48071204801F0B0FE4FF480430122F1
:104B600010211D4801F0E6FD4FF480411A4801F084
:104B7000A4FE4FF4004301221021174801F0DAFD92
:104B80004FF40041144801F098FE4FF40053022204
:104B90001021124801F0CEFD4FF4004301221021F4
:104BA0000C4801F0C7FD0823012248210A4801F002
:104BB000C1FD4FF4804302224821084801F0BAFDAC
:104BC0004FF4004302224821044801F0B3FD00BF26
:104BD00080BD00BF00080140000C014000100140F2
:104BE00080B582B000AF0346FB71064B1B781846B8
:104BF000FBF7ACFF044AFB79137000BF0837BD46D2
:104C000080BD00BF480200204402002080B584B06F
:104C100000AF0346FB800220FCF748FD0346FB8102
:104C2000FA89FB88D31A9BB2BB81B7F90C300A2BE7
:104C300002DDFCF79FFB06E0B7F90C3013F10A0F19
:104C400001DAFCF7C7FA00BF1037BD4680BD80B55A
:104C500084B000AF0346FB800220FCF727FD03462B
:104C6000FB81FA89FB88D31A9BB2BB81B7F90C3060
:104C7000092B06DCB7F90C3013F1090F01DB012316
:104C800000E0002318461037BD4680BD80B483B0D5
:104C900000AF0346FB71054AFB791370044B0022F9
:104CA0001A7000BF0C37BD4680BC70474802002018
:104CB0004402002080B500AF0F4B1B78022B0CD0B4
:104CC000022B13DC002B02D0012B11D00EE0FCF7DD
:104CD00051FB094B01221A700BE0084B1B88184648
:104CE000FFF794FF6420FBF74BFF02E000BF00E0FA
:104CF00000BF00BF80BD00BF44020020460200206C
:104D000080B582B000AF03463960FB71114B1B7850
:104D1000FA799A4201D03B6818E03B6803F001033E
:104D2000002B06D00C4B1B78022B02D00220FFF781
:104D300057FF3B6803F00203002B06D0064B1B789D
:104D4000022B02D10020FFF74BFF3B6818460837C3
:104D5000BD4680BD480200204402002080B500AF5F
:104D600064220021324803F029FC314B4FF0FF321E
:104D7000DA612F4B3C221A842D4B64225A842C4B2F
:104D800064229A842A4B6422DA84294B64221A858D
:104D9000274B64225A85264B64229A85244B642231
:104DA000DA85234B4FF496721A86214B4FF4967294
:104DB0005A861F4B64229A861D4B4FF6FF72A3F84A
:104DC00042201B4B4FF6FF72A3F84420184B4FF6BE
:104DD000FF72A3F84620164B4FF6FF72A3F8482047
:104DE000134B4FF6FF72A3F84A20114B4FF6FF7298
:104DF000A3F84C200E4B4FF6FF72A3F84E200C4B3D
:104E00004FF6FF72A3F85020094B4FF6FF72A3F83C
:104E10005220074B4FF6FF72A3F85420044B4FF675
:104E2000FF72A3F85620034B00221A8000BF80BDFA
:104E300050020020B402002080B584B000AF78603A
:104E4000884B00221A60874B00225A60854B002253
:104E50009A60844BDB697A685340BB60814B5A6926
:104E6000804B9B6953407F4A53617E4B9B69DB4378
:104E70007C4A93617B4B5A69BB681340794A536102
:104E8000784B9A69BB681340764A9361754BDA692F
:104E9000744B5969734B9B690B431340714AD3613F
:104EA000704BDA696F4B59696E4B9B690B43D94361
:104EB0007B680B4013436B4AD3616A4B5A69694B59
:104EC0009B691343BA685340BB600023FB60A4E0B6
:104ED0000122FB6802FA03F31A46BB681340002B59
:104EE00029D0604BDA690121FB6801FA03F3134012
:104EF000002B17D15B4AFB6820335B001344002270
:104F00005A80584AFB68103332F81330002B12D104
:104F1000544B1B680121FA6801FA02F21343514A0B
:104F2000136008E04F4B9B680121FA6801FA02F216
:104F300013434C4A93604B4AFB68103332F81330EA
:104F4000002B67D0474BDB690121FA6801FA02F2B6
:104F50001340002B1ED0434AFB6820335B001344F0
:104F60005A884049FB68103331F813309A4251D2C5
:104F70003C4AFB6820335B0013444FF6FF725A80B3
:104F8000384B1B680121FA6801FA02F21343354AD3
:104F900013603FE0334AFB6820335B0013445B88B7
:104FA0004FF6FF7293420ED02E4AFB6820335B000F
:104FB00013445B88013399B22A4AFB6820335B00B3
:104FC00013440A465A80274AFB6820335B00134487
:104FD0005A882449FB68103331F813309A4219D1AA
:104FE000204AFB6820335B0013444FF6FF725A805F
:104FF0001C4B1B690121FA6801FA02F21343194A9A
:105000001361184B5B680121FA6801FA02F213433D
:10501000144A5360FB680133FB60FB68102B7FF67A
:1050200057AF00F039F90F4B1B68002B07D10D4B20
:105030009B68002B03D10B4B5B68002B0DD00A4BF8
:105040001B781A46094B53F82230074A127811464A
:1050500043F00103054A42F8213000BF1037BD4636
:1050600080BD00BF500200202A020020D401002091
:1050700080B582B000AF4FF0FF337B605C4B1B8884
:1050800003F01003002B03D07B6823F010037B6038
:10509000574B1B8803F00103002B03D07B6823F0E0
:1050A00001037B60524B1B8803F00203002B03D0EB
:1050B0007B6823F002037B604D4B1B8803F00403E5
:1050C000002B03D07B6823F004037B60484B1B88D4
:1050D00003F00803002B03D07B6823F008037B60F8
:1050E000434B1B8803F02003002B03D07B6823F085
:1050F00020037B603E4B1B8803F48073002B03D09E
:105100007B6823F480737B60394B1B8803F040037A
:10511000002B03D07B6823F040037B60344B1B885B
:1051200003F40073002B03D07B6823F400737B60CF
:105130002F4B1B8803F48063002B03D07B6823F480
:1051400080637B602A4B1B8803F08003002B03D015
:105150007B6823F080037B604FF40051254801F009
:10516000D5FB0346002B03D17B6823F400637B60EF
:105170002021204801F0CAFB0346002B03D07B68A6
:1051800023F480537B6001211B4801F0BFFB0346E1
:10519000002B03D17B6823F400537B60102115485A
:1051A00001F0B4FB0346002B03D17B6823F480435A
:1051B0007B604FF48071104801F0A8FB0346002B80
:1051C00003D17B6823F400437B604FF480510A488D
:1051D00001F09CFB0346002B03D07B6823F4803353
:1051E0007B607868FFF728FE00BF0837BD4680BDAA
:1051F000B4020020000C01400008014080B483B0DC
:1052000000AF0346FB71054AFB791370044B002283
:105210001A7000BF0C37BD4680BC70474D0200209D
:105220004C02002080B500AF0F4B1B78022B0FD033
:10523000022B13DC002B02D0012B11D00EE0FFF764
:105240008DFD3220FBF79CFC074B02221A7008E010
:10525000FFF70EFF0A20FBF793FC02E000BF00E01F
:1052600000BF00BF80BD00BF4C02002080B483B0EF
:1052700000AF03463960FB71064B1B78FA799A42FE
:1052800001D03B6800E03B6818460C37BD4680BC47
:10529000704700BF4D02002080B483B000AF0D4BBB
:1052A000DB68DB437B600B4B1A687B681340094A61
:1052B0001360084B5A687B681340064A5360054BDD
:1052C0009A687B681340034A936000BF0C37BD4661
:1052D00080BC70475002002080B582B000AF78607B
:1052E0000B46FB700B4BDA687B68DB431340094AC3
:1052F000D360084BDA68FB78012B01D17B6800E0B2
:1053000000231343034AD360FFF7C6FF00BF0837EB
:10531000BD4680BD5002002080B500AF402102484C
:1053200001F0BCFA00BF80BD0008014080B500AFAD
:105330004021024801F0C1FA00BF80BD00080140D1
:1053400080B500AF402301221021034801F0F2F99B
:10535000FFF7ECFF00BF80BD0008014080B500AF43
:10536000FFF7EEFF00BF80BD80B500AF40F20260E6
:1053700001F078FC4FF4006301221821024801F08B
:10538000D9F900BF80BD00BF0008014080B588B0DA
:1053900000AF40F20B6001F065FC224801F01EFEF8
:1053A0007723BB800023FB8000233B814FF4FA630B
:1053B000FB6000237B8100233B743B1D1946194889
:1053C00001F0C0FE0123BB820023FB8200233B834C
:1053D00000237B830023BB830023FB8307F114039B
:1053E0001A4603210F4802F001F8002203210D485C
:1053F00002F04CFA602203210A4802F0E5F900228B
:105400000321084802F076FA0121064801F0CFFF97
:10541000044801F031FF034801F010FF00BF2037BE
:10542000BD4680BD002C014080B500AFFFF79CFF5A
:10543000FFF7ACFF00BF80BD80B500AFFFF7F4FF02
:1054400000BF80BD80B582B000AF78607B68002B64
:1054500002D04FF47A7300E000231A460321034878
:1054600002F014FA00BF0837BD4680BD002C014091
:1054700080B400AF074B10221A80074B00221A801D
:10548000064B00221A80064B00221A8000BFBD4640
:1054900080BC704760030020B80200207403002025
:1054A000FC02002080B58CB000AF78603C4B1B68DC
:1054B000BB623C4B1B687B623B4A07F11C0392E8D2
:1054C000030083E80300394A07F1140392E803005C
:1054D00083E80300364A07F10C0392E8030083E8EF
:1054E00003000023FB627B68324A934202D100230F
:1054F000FB6205E07B68304A934201D10123FB62E5
:10550000FB6A5B0007F13002134433F80C3C184689
:1055100001F0A8FBFB6A5B0007F13002134433F88B
:10552000083C184601F09EFBFB6A9B0007F1300225
:10553000134453F8140CFB6A9B0007F13002134428
:1055400053F81C3C0322182101F0F4F8FB6A9B007D
:1055500007F13002134453F8140CFB6A9B0007F167
:105560003002134453F8243C0322042101F0E2F8F2
:10557000786802F009FC4FF4E131786802F066FCCB
:105580000421786802F0FFFC0821786802F0DFFC53
:10559000786802F0CBFC00BF3037BD4680BD00BF4D
:1055A0000C95000810950008149500081C9500083B
:1055B00024950008003801400044004080B588B0C0
:1055C00000AF4FF4A06001F04DFB0321274800F02D
:1055D000D1FC0123BB77264BFB6001237B770023A3
:1055E0003B6100237B61234B7B6000233B770023DF
:1055F000BB604FF44053BB613B1D1A4603211B485F
:1056000000F01EFD0321194800F03FFE032117485A
:1056100000F065FE0421154800F0ACFC0023BB77C8
:1056200010237B61144BFB603B1D1A4604210F487D
:1056300000F006FD04210D4800F0FDFD04210B489B
:1056400000F04DFE0321094800F09DFE04210748AB
:1056500000F06FFE8021094802F0EFFC402107486E
:1056600002F0CEFC00BF2037BD4680BD00000240E6
:10567000500300200438014064030020003801403A
:1056800080B500AF0A48FFF70DFF0A48FFF70AFF91
:10569000FFF794FF00220021262001F05BFA40F280
:1056A0000531044802F004FDFFF7E2FE00BF80BDB3
:1056B000003801400044004080B584B000AF7860FD
:1056C0000B467B807B68002B1ED07B88002B1BD079
:1056D0000023FB8113E0FB897A6813441B789BB29B
:1056E00019460B4802F06BFC00BF0721084802F086
:1056F000C1FC0346002BF8D0FB890133FB81FA89FA
:105700007B889A42E7D300E000BF1037BD4680BDDA
:105710000044004080B483B000AF0346FB710E4BE1
:105720001B883F2B11D80C4B1B885A1C91B20A4A7C
:1057300011801946094AFB795354FB790A2B04D18D
:10574000054B00221A80012300E0002318460C3785
:10575000BD4680BC704700BFB80200200003002097
:1057600080B582B000AF124B1B88FB8016E0114B56
:105770001B881A46104B9B5C7B710E4B1B880133B8
:105780009AB20C4B1A800B4B1B883F2B02D9094B4A
:1057900000221A807B791846FFF7BCFF054B1B8857
:1057A000FA889A42E3D100BF00BF0837BD4680BDEA
:1057B00074030020FC020020BC02002080B483B0EF
:1057C00000AF0346FB71354B1A78FB791344DAB20C
:1057D000324B1A70324B1B78032B51D801A252F86E
:1057E00023F000BFF55700080958000823580008A7
:1057F00043580008FB79FF2B44D1294B1B78013318
:10580000DAB2274B1A703DE0254B1B780133DAB230
:10581000234B1A70FB79AA2B36D0214B00221A7029
:1058200032E0204AFB7913701C4AFB7913701E4B3F
:1058300000221A701A4B1B780133DAB2184B1A7017
:1058400025E0194B1B780F2B05D8174B1B781946F1
:10585000164AFB795354144B1B780133DAB2124BBE
:105860001A70114B1A780F4B1B789A420ED10C4BC1
:1058700000221A70094B1B78002B07D1012307E087
:1058800000BF04E000BF02E000BF00E000BF002353
:1058900018460C37BD4680BC704700BFAC000020E6
:1058A000AD000020AE000020AF000020400300202B
:1058B00080B582B000AF00237B710023BB71032150
:1058C0003B4800F0ABFD0346002B6DD17B795A1CA1
:1058D0007A711A46374BFF2199547B795A1C7A7199
:1058E0001A46344BAA2199547B795A1C7A711A466C
:1058F000304B00219954304B1B68190E7B795A1C90
:105900007A711A46C9B22B4B99542B4B1B68190C50
:105910007B795A1C7A711A46C9B2264B9954264B88
:105920001B68190A7B795A1C7A711A46C9B2214B35
:105930009954214B19687B795A1C7A711A46C9B25D
:105940001C4B99547B79023BDAB21A4B9A700223B2
:10595000FB7108E0FB79174AD25CBB791344BB7139
:10596000FB790133FB71FA797B799A42F2D37B7927
:105970005A1C7A711A46BB795B42D9B20D4B9954C5
:1059800003210B4800F0FFFC0E220321084800F021
:105990007EFD7B791A460321054800F01EFD032198
:1059A000034800F0C6FC00E000BF0837BD4680BDDC
:1059B00000000240500300204002002080B582B069
:1059C00000AF0421214800F029FD0346FB8026E0BA
:1059D0001F4B1B88C3F110031E4AD35C7B711C4B09
:1059E0001B88013B9AB21A4B1A80194B1B88002B5B
:1059F00002D1174B10221A807B791846FFF7DEFE82
:105A00000346012B0BD1144B1B781B021AB2124B0D
:105A10005B781BB213431BB29AB2104B1A800C4B2B
:105A20001B88FA889A42D3D102220421074800F049
:105A300012FD0346002B04D00E220421034800F07F
:105A400026FD00BF0837BD4680BD00BF00000240F4
:105A5000600300206403002040030020B402002003
:105A600080B500AFFFF724FFFFF7A8FFFFF778FE30
:105A700000BF80BD80B483B000AF78607B6808331E
:105A80001B6803F00103002B07D17B6808331B68F8
:105A90007A68083243F00103136000BF0C37BD463B
:105AA00080BC704780B483B000AF78607B680833F7
:105AB0001B687A68083243F00803136000BF7B68F4
:105AC00008331B6803F00803002BF8D17B68083308
:105AD0001B687A68083243F00403136000BF7B68D8
