:020000040800F2
:10000000880F0020210D0008110200081D020008C1
:1000100023020008290200082F0200080000000047
:100020000000000000000000000000003502000891
:1000300041020008000000004D02000859020008BB
:10004000690D0008690D0008690D0008690D0008B8
:10005000690D0008690D0008C9020008690D000853
:10006000690D0008690D0008690D0008690D000898
:10007000690D0008690D0008690D0008690D000888
:10008000690D0008690D0008690D0008690D000878
:10009000690D0008690D0008690D0008E3020008F9
:1000A000690D0008690D0008690D0008690D000858
:1000B0001F0300086D03000891030008690D000884
:1000C000690D0008690D0008690D0008690D000838
:1000D000690D0008690D000875020008690D000827
:1000E000690D0008690D0008690D0008690D000818
:1000F000690D0008690D0008690D0008690D000808
:10010000690D0008690D0008E1030008690D000889
:10011000690D0008690D000815040008BD040008F9
:10012000690D0008690D0008690D0008690D0008D7
:1001300001F0FF01102A2BDB10F0070F08D010F898
:10014000013B013A8B422DD010F0070F42B3F6D19C
:10015000F0B441EA012141EA014122F007047FF0B5
:1001600000070023F0E80256083C85EA010586EA0C
:10017000010685FA47F5A3FA87F586FA47F6A5FA48
:1001800087F68EB9EED1F0BC01F0FF0102F0070254
:1001900032B110F8013B013A83EA010313B1F8D1FF
:1001A0000020704701387047002D06BF35460338E0
:1001B000073815F0010F07D1013015F4807F02BF19
:1001C000013015F4C03F0130F0BC0138704700BF6A
:1001D00010B5054C237833B9044B13B10448AFF381
:1001E00000800123237010BD6C000020000000007F
:1001F0006893000808B5034B1BB103490348AFF3EC
:10020000008008BD00000000700000206893000816
:1002100080B400AF00BFBD4680BC704780B400AF63
:10022000FEE780B400AFFEE780B400AFFEE780B425
:1002300000AFFEE780B400AF00BFBD4680BC704792
:1002400080B400AF00BFBD4680BC704780B400AF33
:1002500000BFBD4680BC704780B500AF044B1B6833
:100260000133034A136001F039FA00BF80BD00BFBB
:10027000B800002080B500AF0F49104807F0B4FE69
:100280000346002B15D00D4807F026FE03461846FE
:100290000B4B1B885A1C91B2094A11801A46C1B2F5
:1002A000084B9954064B1B883F2B02D9044B002264
:1002B0001A8000BF80BD00BF050305000044004058
:1002C00070030020B802002080B500AF012006F0C6
:1002D00007F90346002B02D0012006F015F900BFF4
:1002E00080BD80B500AF4FF4007006F0F9F803460A
:1002F000012B05D101F022F84FF4007006F004F94B
:100300004FF4807006F0ECF80346012B05D104F0A1
:1003100025FA4FF4807006F0F7F800BF80BD80B575
:1003200000AF04214FF0804006F090FF0346012B00
:100330000DD101214FF0804007F070FC03461846B4
:1003400001F04CF804214FF0804006F09CFF0121A1
:100350004FF0804006F07AFF0346012B04D10121C3
:100360004FF0804006F08FFF00BF80BD80B500AF2A
:100370000121064806F06AFF0346012B03D1012143
:10038000024806F080FF00BF80BD00BF00040040AF
:1003900080B500AF01210F4806F058FF0346012B3E
:1003A00016D180210C4806F0F5F90A4806F0D1FE76
:1003B0000121084806F067FF0021084806F006FF03
:1003C0004FF41671054806F0F1FE044806F0B2FE3F
:1003D00000BF80BD00080040000C0140000C004040
:1003E00080B500AF0121094806F030FF0346012B1C
:1003F0000AD18021064806F0DCF9044806F0A9FE7F
:100400000121024806F03FFF00BF80BD000C004004
:10041000000C014080B500AF0121204806F016FF16
:100420000346012B38D11E4B1B78012B04D18021B0
:100430001C4806F0AFF91CE01B4B1B78012B18D1B0
:100440001A4B1B78012B03D1194B1B78012B03D8B6
:100450004021184806F09EF9154B1B780133DAB29B
:10046000134B1A70124B1B780A2B02D1104B00222F
:100470001A700A4806F06DFE0121084806F003FFD5
:1004800000210D4806F0A2FE41F69C010A4806F044
:100490008DFE094806F04EFE00BF80BD00100040F2
:1004A0000E020020000801400D0200201002002072
:1004B0000C020020000C01400014004080B500AF89
:1004C00001210B4806F0C2FE0346012B0ED180210C
:1004D000084806F06EF94021074806F06AF904481A
:1004E00006F037FE0121024806F0CDFE00BF80BDB8
:1004F0000014004000080140000C014080B582B0AB
:1005000000AF00237B6000F0F3F804F0E9F904F099
:10051000FBF900F0D9FD04F031F904F09BFE05F081
:100520002BF804F0B1F904F003FF01F083F800F0B8
:1005300083F8002006F0DCFB03461946244807F048
:10054000C1FF012006F0D4FB03461946214807F0FD
:10055000B9FF022006F0CCFB034619461E4807F0FF
:10056000B1FF032006F0C4FB034619461B4807F001
:10057000A9FF07F073FF78607B681B0EDBB219469A
:100580007B681B0CDBB21A467B681B0ADBB2144883
:1005900007F098FF00F0FAF9124A1349134800F0E7
:1005A0006DFA134A1349144800F068FA134A1449C3
:1005B000144800F063FA144A1449154800F05EFA32
:1005C00000F050F9002318460837BD4680BD00BF33
:1005D0008093000890930008A0930008B09300084F
:1005E000C0930008655100081D510008F55000082F
:1005F00021460008D1450008A9450008114500081A
:100600007944000845440008F94B0008AD4B000848
:10061000854B000880B584B000AF78607B68DBB2A2
:10062000FB7307F10F030121184604F0C1FF7B683B
:1006300018461037BD4680BD80B500AF05F072FF8B
:10064000062140F6FF7005F09DFF05F083FF05F0E1
:1006500075FF00BF80BD000080B483B000AF0346CB
:100660003960FB7197F90730002B0BDA3B68DAB27F
:100670000C49FB7903F00F03043B1201D2B20B4487
:100680001A7609E03B68DAB2074997F90730120198
:10069000D2B20B4483F8002300BF0C37BD4680BCA8
:1006A000704700BF00ED00E000E100E080B582B0DF
:1006B00000AF78607B68013BB3F1807F01D30123F9
:1006C0000FE00A4A7B68013B53600F214FF0FF3077
:1006D000FFF7C2FF054B00229A60044B07221A6005
:1006E000002318460837BD4680BD00BF10E000E07B
:1006F00080B500AF094B1B68094AA2FB03239B0985
:100700001846FFF7D3FF0346002B00D0FEE7002179
:100710004FF0FF30FFF7A0FF00BF80BD04000020B6
:10072000D34D621080B483B000AF78607B68002B3B
:100730000DD0094B1A687B681344084A136000BF48
:10074000054B1A68054B1B689A42F9D100E000BFBF
:100750000C37BD4680BC7047B800002088000020E0
:1007600080B400AF024B1B681846BD4680BC704782
:10077000B800002080B582B000AF0023FB71FFF706
:10078000EFFF38605BE00023FB7123E0FB79314A27
:1007900052F82330002B1AD0FB792E4A52F823202E
:1007A000013A2C4941F82320FB792A4A52F8233098
:1007B000002B0CD1FB79012202FA03F31AB2264B6B
:1007C0001B881BB213431BB29AB2234B1A80FB79CE
:1007D0000133FB71FB79032BD8D90023FB7126E091
:1007E000FB791E4A1B01134408331B68002B1BD0E6
:1007F000FB791A491A010A4408321268013A17496A
:100800001B010B4408331A60FB79144A1B01134483
:1008100008331B68002B07D1FB79104A1B011A44CF
:10082000137843F010031370FB790133FB71FB79EC
:100830000F2BD5D90A4B1B680133094A1360084BAB
:100840001B683A689A429ED100BF00BF0837BD4678
:1008500080BD00BFE4010020BC010020BC000020DE
:10086000F401002080B582B000AFFFF783FF05F0F0
:100870007DFE404B1B781A463F4B53F82230002B2D
:1008800016D03C4B1B781A463C4B53F82230394A61
:100890001278384909780846374951F8201010462F
:1008A0009847344B1B781946334B002243F82120DC
:1008B000334B1B881A462F4B1B7842FA03F303F085
:1008C0000103002B06D02B4B1B781A462D4B53F8F7
:1008D000223098470023FB713AE0FB792A4A1B013A
:1008E00013441B78C3F30303DBB21A46214B1B7876
:1008F0009A4229D1FB79244A1B0113441B78C3F384
:100900000013DBB2002B20D0FB791F4A1B011A44D5
:10091000137843F00F031370FB791B4A1B011A4431
:1009200013786FF304131370FB79174A1B011344F8
:100930000C331B68002B08D0FB79134A1B011344AE
:100940000C331B68984700E000BFFB790133FB7153
:10095000FB790F2BC1D9074B1B780133DAB2054B5A
:100960001A70044B1B78042B7FF47FAF014B0022DD
:100970001A707AE7F8010020D4010020FC01002061
:10098000BC010020C0010020BC00002080B582B066
:1009900000AF324B00221A70314B00221A80FFF751
:1009A000DFFE03462F4A13600023FB710CE0FB7946
:1009B0002D4A002142F82310FB792C4A002142F8ED
:1009C0002310FB790133FB71FB79032BEFD9002353
:1009D000FB7128E0FB79264A1B011A44137843F087
:1009E0000F031370FB79224A1B011A4413786FF32B
:1009F00004131370FB791E4A1B01134404334FF098
:100A0000FF321A60FB791A4A1B0113440833002293
:100A10001A60FB79164A1B0113440C3300221A603A
:100A2000FB790133FB71FB790F2BD3D90023FB71C9
:100A30000CE0FB790F4A002142F82310FB790E4AA3
:100A4000002142F82310FB790133FB71FB79032B62
:100A5000EFD900BF00BF0837BD4680BDF8010020B8
:100A6000BC010020F4010020D4010020E40100209A
:100A7000BC000020C0010020FC01002080B586B031
:100A800000AFF860B9607A600023FB7508E0FB7D79
:100A9000184A52F82330002B06D0FB7D0133FB753A
:100AA000FB7D032BF3D900E000BFFB7D042B01D1BC
:100AB00000231BE0FB7D0F49BA6841F82320FB7D32
:100AC0000D497A6841F82320FA7DFB681046984763
:100AD000FB7D012202FA03F31AB2084B1B881BB2FA
:100AE00013431BB29AB2054B1A80012318461837DC
:100AF000BD4680BDC0010020FC010020BC010020DB
:100B000080B483B000AF0346FB71FB79012202FA87
:100B100003F31AB2064B1B881BB213431BB29AB2E3
:100B2000034B1A8000BF0C37BD4680BC704700BF26
:100B3000BC01002080B483B000AF78607B68002BDC
:100B400017D00E4B1B781A46012393401BB2DB4390
:100B50001AB20B4B1B881BB213401BB29AB2084B44
:100B60001A80064B1B781946064A7B6842F82130EA
:100B700000E000BF0C37BD4680BC7047F801002084
:100B8000BC010020E401002080B487B000AFF86011
:100B9000B9607A600023FB7536E0FB7D3C4A1B019F
:100BA000134404331B68FA689A422AD1394B1A78E5
:100BB000FB7D02F00F02D1B2354A1B011A441378B3
:100BC00061F303031370FB7D314A1B0113440C33A3
:100BD0007A681A60FB7D2E4A1B0113440433FA68BD
:100BE0001A60FB7D2A4A1B0113440833BA681A6055
:100BF000FB7D274A1B011A4413786FF3041313700B
:100C000042E0FB7D0133FB75FB7D0F2BC5D9002333
:100C1000FB7536E0FB7D1E4A1B01134404331B6841
:100C2000B3F1FF3F2AD11B4B1A78FB7D02F00F0274
:100C3000D1B2174A1B011A44137861F303031370EE
:100C4000FB7D134A1B0113440C337A681A60FB7D49
:100C50000F4A1B0113440433FA681A60FB7D0C4AE7
:100C60001B0113440833BA681A60FB7D084A1B0154
:100C70001A4413786FF30413137005E0FB7D0133FE
:100C8000FB75FB7D0F2BC5D91C37BD4680BC70475B
:100C9000BC000020F801002080B485B000AF78606F
:100CA0000023FB7332E0FB7B1C4A1B01134404331B
:100CB0001B687A689A4226D1FB7B184A1B011A44AA
:100CC000137843F00F031370FB7B144A1B0113448A
:100CD0000C3300221A60FB7B104A1B0113440433BF
:100CE0004FF0FF321A60FB7B0C4A1B0113440833A0
:100CF00000221A60FB7B094A1B011A4413786FF328
:100D00000413137005E0FB7B0133FB73FB7B0F2B9C
:100D1000C9D91437BD4680BC704700BFBC00002055
:100D2000002103E00B4B5B58435004310A480B4B46
:100D300042189A42F6D30A4A02E0002342F8043BE2
:100D4000084B9A42F9D307F033FA07F08FFBFFF70D
:100D5000D5FB7047DC940008000000206C000020E8
:100D60006C00002084030020FEE7000080B500AF87
:100D700040F2036005F0F2FE40F2026005F0EEFE84
:100D800040F2026005F0EAFE40F2036005F0E6FE84
:100D900040F2036005F0E2FE4023012210211548D5
:100DA00005F044FC4021134805F003FD8023012297
:100DB0001021104805F03AFC80210E4805F0F9FC9E
:100DC0004FF40073012248210A4805F02FFC8023CC
:100DD00001221021084805F029FC8021064805F071
:100DE000E8FC022301224821034805F01FFC00BF54
:100DF00080BD00BF000C01400008014080B500AF7D
:100E00004FF4C06005F0AAFE0921012005F094FD11
:100E1000022200214FF4007005F0E8FA4FF4007050
:100E200005F072FB00220021172005F00FFE00BF25
:100E300080BD80B588B000AF78600B467B807B8832
:100E4000184605F08BFE786806F044F807F11003A9
:100E5000184606F0D7F877233B8200237B820023D5
:100E6000BB824FF6FF73BB610023FB8207F11003C7
:100E70001946786806F0E2F807F10803184606F00C
:100E800017FD00233B8101237B810023BB810423C9
:100E9000FB8107F108031A460121786806F01EFD60
:100EA0000421786806F0BFF90121786806F0BBF9E3
:100EB000002202211C2005F0C9FD786806F03AF9ED
:100EC00000BF2037BD4680BD80B586B000AF7860DA
:100ED0000B467B807B88184605F040FE786805F05D
:100EE000F9FF07F10803184606F08CF877233B81D9
:100EF00000237B810023BB8144F620633B610023F8
:100F0000FB8107F108031946786806F097F800217D
:100F1000786806F06BF9786806F039F9012178688D
:100F200006F081F97B681D4A934226D07B681B4AF4
:100F3000934228D87B681A4A934218D07B68184A93
:100F4000934220D87B68174A934204D07B68164AA4
:100F5000934206D017E0002201211E2005F076FD05
:100F600012E000220121322005F070FD0CE0002289
:100F70000121362005F06AFD06E00022012137201C
:100F800005F064FD00E000BF786806F0D3F87868EB
:100F900006F0DFF800BF1837BD4680BD00140040E2
:100FA0000010004000080040000C004080B500AF79
:100FB0008021094805F0FDFB084806F0CAF80848FA
:100FC00006F0C7F80121054806F05DF90121044843
:100FD00006F059F900BF80BD000C01400008004038
:100FE000000C004080B500AF4021094805F0E1FB4E
:100FF000084806F0AEF8084806F0ABF801210548AD
:1010000006F041F90121044806F03DF900BF80BD1A
:10101000000C0140001000400014004080B500AFFB
:101020008021094805F0C5FB084806F092F80848F9
:1010300006F08FF80121054806F025F90121044842
:1010400006F021F900BF80BD0008014000100040FB
:101050000014004080B485B000AF0346FB8042F22C
:101060001073FB81FB88B42B01D9B423FB80FB8870
:10107000FA8902FB03F39B08044AA2FB03239B08A3
:101080009BB218461437BD4680BC7047176CC1161A
:1010900080B485B000AF0346FB8042F28D03FB8134
:1010A000FA88FB899A4201D9FB89FB8072B600BF9E
:1010B000044AFB88138062B600BF00BF1437BD46E8
:1010C00080BC70478C00002080B500AFFFF74EFE5B
:1010D000FFF794FE4FF4E0614FF08040FFF7A9FE68
:1010E00040F204711A48FFF7EFFE40F2057119480B
:1010F000FFF7EAFE40F202711748FFF7E5FE40F203
:1011000003711648FFF7E0FE154B00221A70154BCD
:1011100000221A70144B00221A70144B00221A700D
:10112000134B00221A80134B00221A80124B00220C
:101130001A80124B00221A80FFF712FB0346104A56
:1011400013600F4B1B680F4A136000BF80BD00BFC8
:10115000001000400014004000080040000C004057
:10116000110200200D0200200E0200200F020020BC
:101170008C0000208E0000209200002090000020B3
:10118000940000209800002080B500AF084B1B7829
:10119000012B0BD0064B01221A70064B00221A704D
:1011A000FFF7DEFA0346044A136000E000BF80BD8B
:1011B000110200200F0200209400002080B582B0B0
:1011C00000AF0346FB710D4B1B78012B11D00C4A6D
:1011D000FB7913700B4B00221A70084B01221A7016
:1011E000094B00221A70FFF7BBFA0346074A136047
:1011F00000E000BF0837BD4680BD00BF0D020020E3
:10120000100200200C0200200F0200209400002099
:1012100080B584B000AF0346FB801F4B1B78012BC9
:1012200035D01D4B1B78022B31D0FB88B3F5FA6FFC
:1012300002D94FF4FA63FB80184AFB881380174BDE
:101240001B881A46B42303FB02F3154AA2FB0323AF
:10125000DB09FB81FB89092B01D80A23FB81FB8970
:101260001846FFF7F7FE03461846FFF711FF0A4B33
:1012700001221A700B4B00221A70FFF771FA034615
:10128000094A1360084B1B68084A136000E000BF5E
:101290001037BD4680BD00BF0E0200209000002028
:1012A000D34D62100F02002094000020980000200F
:1012B00080B500AF72B600BF084B00221A70084B11
:1012C00000221A70074B00221A80074B00221A8056
:1012D00062B600BFFFF7A2FE00BF80BD0E02002075
:1012E0000F020020900000208C00002080B500AF8D
:1012F00072B600BF054B00221A70054B00221A700F
:1013000062B600BFFFF76EFE00BF80BD0D02002079
:101310000F02002080B500AF72B600BF054B00225F
:101320001A70054B00221A7062B600BFFFF73EFE2E
:1013300000BF80BD110200200F02002080B500AF69
:10134000204B1B78012B0ED1FFF768FE00211E48B1
:1013500005F03CFF4FF496711B4805F027FF1A4833
:1013600005F0E8FE16E0194B1B78012B0ED1FFF7B4
:1013700039FE0021144805F029FF4FF496711248F8
:1013800005F014FF104805F0D5FE03E0FFF746FE18
:10139000FFF728FEFFF70AFE0D4B1B78012B0AD141
:1013A00000210C4805F012FF64210A4805F0FEFEFA
:1013B000084805F0BFFEFFF7D3F90346064A13605D
:1013C00000BF80BD0E020020001000400D02002072
:1013D00011020020000800409400002080B584B075
:1013E00000AF78601B4B1B687A689A4205D3194B93
:1013F0001B687A68D31AFB6007E0164B1B687A6893
:10140000D31A03F57F43FF33FB60FB68642B19D9C4
:10141000FB68114A934215D8104AFB681360104AC2
:10142000FB68B2FBF3F3BB60BB689BB21A461201C8
:10143000D31A9B009AB20B4B1A80FFF791F903461F
:10144000094A1360034A7B68136000BF1037BD462A
:1014500080BD00BF9C0000201FA10700A00000204D
:1014600040420F00920000209800002080B500AF9D
:1014700040F2036005F072FB40F2026005F06EFB83
:101480004FF4A06005F06AFB40F2096005F066FBCE
:1014900040F20A6005F062FB022005F0C7FB00BFC6
:1014A00080BD000080B500AF012304220021084860
:1014B00005F0BCF8022304220021054805F0B6F827
:1014C000102304220021034805F0B0F800BF80BDBE
:1014D000000C01400008014080B588B000AF002139
:1014E000144804F0C3FC144B7B6000233B77134B80
:1014F000FB6001237B774FF40073BB604FF4006304
:101500003B610023BB7703237B614FF40053BB6136
:101510003B1D1A460021074804F00EFD0021054836
:1015200004F005FE0021034804F07FFE00BF2037D1
:10153000BD4680BD000002404C2401401402002042
:1015400080B500AF4FF4C02004F064FA00213748A2
:1015500004F0D6FA0021364804F0D2FA01224FF402
:101560008071324804F06EFA01224FF480713048E5
:1015700004F068FA032201212C4804F0DFFA032268
:1015800001212B4804F0DAFA07230422002127481E
:1015900004F010FB072308220121244804F00AFB71
:1015A000072309220221214804F004FB0723082213
:1015B00000211F4804F0FEFA0723092201211C48DC
:1015C00004F0F8FA072304220221194804F0F2FA81
:1015D0004FF460220121154804F0EDFB4FF4602226
:1015E0000121134804F0E7FB012201210F4804F018
:1015F0009DFB012201210E4804F098FB0B4804F0EA
:10160000B5F90120FFF78EF8084804F0C7F908483B
:1016100004F0ACF90120FFF785F8054804F0BEF9A5
:10162000024804F0E5F900BF80BD00BF002401407E
:101630000028014080B500AFFFF718FFFFF732FF29
:10164000FFF74AFFFFF77CFF00BF80BD80B485B085
:1016500000AF0346FB710023FB60FB79022B22D015
:10166000022B2EDC002B02D0012B0ED029E01A4BCE
:101670001B689BB2FB60184B9B681B0CFA681344F9
:10168000FB60FB685B08FB601CE0134B5B689BB274
:10169000FB60114B1B681B0CFA681344FB60FB6872
:1016A0005B08FB600EE00C4B9B689BB2FB600A4B37
:1016B0005B681B0CFA681344FB60FB685B08FB600B
:1016C00000E000BFFB689BB2C3F30B039BB218465C
:1016D0001437BD4680BC70471402002080B582B02C
:1016E00000AF0020FFF7B2FF0346FB80084B1B88CA
:1016F000FA88934238BF13469AB2054B1A800121EB
:10170000044804F08EFB00BF0837BD4680BD00BF13
:10171000200200200024014080B500AF4FF40041BA
:101720000A4805F083F80346C3F10103DBB21A4609
:101730004FF40041054805F04BF8054A0A214FF4E3
:101740000040FFF721FA00BF80BD00BF0008014044
:101750001917000880B500AF094B1B78013BDAB2BE
:10176000074B1A70064B1B78002B07D0012003F0A3
:10177000E5FD044A50210120FFF706FA00BF80BDB5
:10178000250200208917000880B500AF002003F073
:10179000D5FD034A50210120FFF7F6F900BF80BDB7
:1017A0005517000880B582B000AF0346FB71FB7986
:1017B000002B0BD00A4AFB791370012003F0BEFD09
:1017C000084A50210120FFF7DFF905E0002003F06F
:1017D000B5FD0120FFF760FA00BF0837BD4680BDA8
:1017E000250200208917000880B483B000AF0346AB
:1017F000FB71FB79013B0A2B18D801A252F823F0A8
:101800002D1800082D1800082D1800082D180008A4
:101810002D1800082D1800082D1800082D18000894
:101820002D1800082D1800082D18000800BF00BF53
:101830000C37BD4680BC704780B582B000AF034610
:10184000FB71FB79013B0A2B1CD801A252F823F053
:10185000851800087D1800087D1800087D1800080C
:101860007D1800087D1800087D1800087D18000804
:101870007D18000885180008851800080220FFF769
:101880000BFA00E000BF00BF0837BD4680BD00BFB7
:1018900080B582B000AF03460A46FB711346BB71A8
:1018A0000B4B1B781846FFF7C7FFFB791846FFF76D
:1018B0009BFF084B1B781846FFF722F9064ABB79B5
:1018C0001370034AFB79137000BF0837BD4680BD13
:1018D00024020020260200203502002080B582B0BC
:1018E00000AF0346FB71064B1B781846FFF708F95B
:1018F000044AFB79137000BF0837BD4680BD00BFA6
:10190000260200203502002080B400AF054BDB69C1
:101910001B0CDBB203F00103DBB21846BD4680BCF2
:10192000704700BF4C02002080B400AF054BDB695C
:10193000DB0ADBB203F00103DBB21846BD4680BC14
:10194000704700BF4C02002080B400AF064BDB693B
:1019500003F40043002B0CBF01230023DBB2184625
:10196000BD4680BC704700BF4C02002080B400AF71
:10197000084B1B781A46084B53F82230054A127858
:10198000114643F00203044A42F8213000BFBD462D
:1019900080BC704744020020D401002080B483B092
:1019A00000AF0346FB800B4B1B781A460A4B53F8DB
:1019B0002230084A1278114643F00103064A42F8E1
:1019C0002130064AFB88138000BF0C37BD4680BC1F
:1019D000704700BF44020020D401002042020020D2
:1019E00080B582B000AF0346FB80FB88184603F049
:1019F000AAF8034618460837BD4680BD80B582B0B8
:101A000000AF0346FB71FB79002B02D103F00AFC07
:101A100004E0FB79012B01D103F0FAFB00BF08378A
:101A2000BD4680BD80B483B000AF0346FB71064B5A
:101A30001B78FA799A420CBF01230023DBB21846C7
:101A40000C37BD4680BC70472402002080B582B0B0
:101A500000AF1F4B3B600023FB7116E0FB7907F1E1
:101A60000802134413F8082C1A4B1B781946FB790B
:101A700041FA03F3DBB203F00103DBB2194610466F
:101A800002F0BAFEFB790133FB71FB79032BE5D938
:101A9000104B1B785B00DAB20E4B1A700D4B1B78A3
:101AA0001A46FB7942FA03F303F00103002B05D039
:101AB000084B1B780133DAB2064B1A70064A4FF412
:101AC000FA710220FFF760F800BF0837BD4680BDFD
:101AD0000C0F12152A0200204D1A000880B500AF25
:101AE000084B03221A70002000F030F901210C206D
:101AF00002F082FE044A4FF4FA710220FFF744F824
:101B000000BF80BD2A0200204D1A000880B500AF3A
:101B10000221052002F070FE034A4FF4FA71022000
:101B2000FFF732F800BF80BD0D1B000880B500AF85
:101B30000121052002F060FE034A4FF4FA710220F1
:101B4000FFF722F800BF80BD0D1B000880B500AF75
:101B50000C4B1B78002B04D102210C2002F04CFE10
:101B600007E0084B1B78012B03D10221092002F06A
:101B700043FE054A4FF4FA710220FFF705F800BF53
:101B800080BD00BF300200204D1B000880B500AFB3
:101B90000C4B1B78002B04D101210C2002F02CFEF1
:101BA00007E0084B1B78012B03D10121092002F02B
:101BB00023FE054A4FF4FA710220FEF7E5FF00BF4D
:101BC00080BD00BF300200204D1B000880B500AF73
:101BD0000C4B1B78002B04D102210F2002F00CFECD
:101BE00007E0084B1B78012B03D10221062002F0ED
:101BF00003FE054A4FF4FA710220FEF7C5FF00BF4D
:101C000080BD00BF30020020CD1B000880B500AFB2
:101C10000C4B1B78002B04D102210F2002F0ECFDAD
:101C200007E0084B1B78012B03D10221062002F0AC
:101C3000E3FD054A4FF4FA710220FEF7A5FF00BF4D
:101C400080BD00BF30020020CD1B000880B500AF72
:101C50000221152002F0D0FD034A4FF4FA71022050
:101C6000FEF792FF00BF80BD4D1C000880B500AF9D
:101C70000121152002F0C0FD034A4FF4FA71022041
:101C8000FEF782FF00BF80BD4D1C000880B500AF8D
:101C90000221122002F0B0FD034A4FF4FA71022033
:101CA000FEF772FF00BF80BD8D1C000880B500AF3D
:101CB0000121122002F0A0FD034A4FF4FA71022024
:101CC000FEF762FF00BF80BD8D1C000880B500AF2D
:101CD0000221112002F090FD034A4FF47A71022094
:101CE000FEF752FF00BF80BDCD1C000880B500AFDD
:101CF0000121112002F080FD034A4FF47A71022085
:101D0000FEF742FF00BF80BDCD1C000880B500AFCC
:101D10000221022002F070FD034A4FF47A71022082
:101D2000FEF732FF00BF80BD0D1D000880B500AF7B
:101D30000121022002F060FD034A4FF47A71022073
:101D4000FEF722FF00BF80BD0D1D000880B582B0E8
:101D500000AF0346FB71FB791946122002F04CFDDF
:101D6000FB791946152002F047FDFB7919460C2036
:101D700002F042FDFB7919460F2002F03DFDFB7990
:101D800019461A2002F038FDFB79002B13D1FB799C
:101D90001946092002F030FDFB791946062002F0B1
:101DA0002BFDFB791946112002F026FDFB7919461F
:101DB000022002F021FD00BF0837BD4680BD80B57E
:101DC00082B000AF0346FB71FB791946012002F097
:101DD00013FDFB7919460A2002F00EFDFB79194626
:101DE0000D2002F009FDFB791946132002F004FDD5
:101DF000FB791946042002F0FFFCFB7919461920F3
:101E000002F0FAFCFB791946102002F0F5FC00BF45
:101E10000837BD4680BD80B500AF0C2002F01EFD26
:101E20000346002B07D00F2002F018FD0346002BBD
:101E300001D0012300E00023184680BD80B500AF2B
:101E40000020FFF783FF0020FFF7B9FF00210520E6
:101E500002F0D2FC0120FFF779FF00BF80BD000037
:101E600080B500AF0E4B1B78072B13DC032B0CDA6D
:101E7000012B02DC002B03DA0CE0022B0CD009E072
:101E800000210220FFF704FD07E000210B20FFF7EF
:101E9000FFFC02E000BF00E000BF00BF80BD00BF4C
:101EA0002402002080B582B000AF0023FB712D4BCF
:101EB0001B78032B02D0042B4AD04DE02A4B1B7811
:101EC000023B0A2B42D801A252F823F0F91E000867
:101ED0004D1F0008071F00084D1F0008151F0008B0
:101EE0004D1F0008231F00084D1F0008311F000868
:101EF0004D1F00083F1F000800210420FFF7C8FC09
:101F00000123FB7123E000210520FFF7C1FC012321
:101F1000FB711CE000210620FFF7BAFC0123FB71D6
:101F200015E000210720FFF7B3FC0123FB710EE051
:101F300000210820FFF7ACFC0123FB7107E0002122
:101F40000920FFF7A5FC0123FB7100E000BF03E0BF
:101F5000064B00221A7000BFFB7918460837BD46B1
:101F600080BD00BF24020020350200203402002082
:101F700080B582B000AF0023FB710B4B1B78032BA5
:101F80000CD10A4B1B78053B012B03D90520FFF729
:101F9000A5FC00E000BF0123FB7100E000BFFB795E
:101FA00018460837BD4680BD2402002035020020B7
:101FB00080B582B000AF0023FB711C4B1B78032B54
:101FC0002ED11B4B1B78013B012B22D8194B1B78C0
:101FD0000133DAB2174B1A70164B1B7803F001036A
:101FE000DAB2144B1A7000210C2002F005FC00211B
:101FF000092002F001FC0F4B1B78002B04D00121BB
:10200000092002F0F9FB08E001210C2002F0F4FBAA
:1020100003E00120FFF762FC00BF0123FB7100E039
:1020200000BFFB7918460837BD4680BD240200205A
:10203000350200203002002080B582B000AF0023BE
:10204000FB710B4B1B78032B0CD10A4B1B78073B06
:10205000012B03D90720FFF741FC00E000BF01235B
:10206000FB7100E000BFFB7918460837BD4680BD14
:10207000240200203502002080B582B000AF00238A
:10208000FB711C4B1B78032B2ED11B4B1B78033B86
:10209000012B22D8194B1B780133DAB2174B1A7077
:1020A000164B1B7803F00103DAB2144B1A700021AF
:1020B0000F2002F0A1FB0021062002F09DFB0F4B38
:1020C0001B78002B04D00121062002F095FB08E0CC
:1020D00001210F2002F090FB03E00320FFF7FEFB3D
:1020E00000BF0123FB7100E000BFFB7918460837F1
:1020F000BD4680BD240200203502002030020020B1
:1021000080B582B000AF0023FB711E4B1B78032B00
:1021100031D11D4B1B78022B01D0042B29D100217A
:10212000132002F069FB00210D2002F065FB174B24
:102130005B780133DAB2154B5A70144B5B78032B82
:1021400006D0032B11DC012B0AD0022B04D00CE0AB
:102150000E4B00225A7009E00121132002F04CFBC3
:1021600001210D2002F048FB00E000BF0123FB71BC
:1021700000E000BF00E000BFFB7918460837BD460D
:1021800080BD00BF24020020350200203002002064
:1021900080B582B000AF0023FB71254B1B78032B69
:1021A00040D1244B1B78062B8CBF01220022D2B2D7
:1021B000002A35D1012202FA03F303F05403002B65
:1021C00014BF01230023DBB2002B29D000211020F3
:1021D00002F012FB0021192002F00EFB164B9B7837
:1021E0000133DAB2144B9A70134B9B78032B06D051
:1021F000032B11DC012B0AD0022B04D00CE00E4B78
:1022000000229A7009E00121102002F0F5FA012164
:10221000192002F0F1FA00E000BF0123FB7100E099
:1022200000BF00E000BFFB7918460837BD4680BDFF
:1022300024020020350200203002002080B582B048
:1022400000AF0023FB710B4B1B78032B0CD10A4B07
:102250001B780B3B012B03D90B20FFF73FFB00E062
:1022600000BF0123FB7100E000BFFB79184608376F
:10227000BD4680BD240200203502002080B582B01A
:1022800000AF0023FB710B4B1B78032B0CD10A4BC7
:102290001B78093B012B03D90920FFF71FFB00E046
:1022A00000BF0123FB7100E000BFFB79184608372F
:1022B000BD4680BD240200203502002080B400AF5E
:1022C000034B1B78032B00BF00BFBD4680BC70478B
:1022D0002402002080B582B000AF78607B685B6824
:1022E00003F00103002B02D00120FFF75BFA7B68AB
:1022F0009B6803F00103002B19D07B681B6903F076
:102300000103002B02D0FFF7ABFD0AE00120FFF72D
:1023100089FB0346002B04D10120FFF743FAFFF7A6
:102320009FFD7B681B6923F001027B681A617B6853
:102330009B6803F01003002B07D0FFF7B3FD0346A3
:10234000002B02D00120FFF72DFA7B689B6803F079
:102350000403002B07D0FFF72BFE0346002B02D00F
:102360000120FFF71FFA7B689B6803F02003002B16
:1023700007D0FFF781FE0346002B02D00120FFF7B4
:1023800011FA7B689B6803F00203002B07D0FFF76C
:10239000EFFD0346002B02D00120FFF703FA7B6814
:1023A0009B6803F00803002B07D0FFF745FE0346A8
:1023B000002B02D00120FFF7F5F97B689B6803F042
:1023C0004003002B07D0FFF79BFE0346002B02D0F3
:1023D0000120FFF7E7F97B689B6803F48063002B1B
:1023E00007D0FFF7D5FE0346002B02D00120FFF7F0
:1023F000D9F97B685B6803F40073002B07D0FFF703
:102400001DFF0346002B02D00120FFF7CBF97B68AC
:102410005B6803F48073002B07D0FFF72FFF0346A0
:10242000002B02D00120FFF7BDF97B689B6803F009
:102430008003002B01D0FFF741FF00BF0837BD46E6
:1024400080BD000080B500AF114B1B78022B17D068
:10245000022B1ADC002B02D0012B0AD015E00D4A0A
:102460000A214FF40040FEF78FFB094B01221A703E
:102470000CE00220FEF75EFB054B02221A7005E01D
:1024800000210120FFF704FA00E000BF00BF80BD7B
:10249000350200201917000880B500AF0A4B1B78E1
:1024A000002B02D0012B08D00CE002F099F9FFF7C5
:1024B0005DFA054B01221A7004E04FF4FA70FEF742
:1024C00039FB00BF00BF80BD3502002080B500AFE2
:1024D000BD4B1B78102B00F2AD8101A252F823F006
:1024E000252500086725000891250008D325000848
:1024F000ED250008252600084F260008872600083D
:10250000A1260008DB260008EF2600081F27000888
:102510003B2700087D27000899270008D1270008DD
:10252000FD2700080121012002F052FEA64B0122E6
:102530001A70FFF7F9F90346002B06D10121082094
:1025400002F05AF9A04B10221A70FFF7DDF903468A
:10255000002B40F0718101210E2002F04DF99A4BC1
:1025600010221A7068E1FFF7B9FA02F0E7F80120CB
:1025700002F0B2F840F6BA00FFF710FA924B0222CE
:102580001A70924B14221A806420FEF7D3FA56E197
:1025900002F0CAF80346002B0ED0FFF7D5F9034628
:1025A000012B09D0894B1B88013B9AB2874B1A80BB
:1025B000864B1B88002B08D102F07CF8C820FEF760
:1025C000B9FA814B03221A7039E16420FEF7B2FA9E
:1025D00035E1022002F080F86420FEF7ABFA7B4B75
:1025E00003221A80784B04221A7028E102F09CF82A
:1025F0000346002B09D0754B1B88013B9AB2734BE5
:102600001A80724B1B88002B08D102F053F800216E
:10261000012002F0DDFD6C4B05221A706420FEF7EC
:1026200089FA0CE140F6BA00FFF7DAF90346012B0C
:1026300003D1654B0F221A7005E0644BC8221A8043
:10264000614B06221A706420FEF774FAF7E040F638
:10265000BA00FFF7C5F90346012B09D05B4B1B8875
:10266000013B9AB2594B1A80584B1B88002B06D15C
:102670000121052002F0C0F8534B07221A70642094
:10268000FEF758FADBE0022002F026F86420FEF79D
:1026900051FA4E4B3C221A804B4B08221A70CEE066
:1026A00002F042F80346002B0ED0FFF74DF9034627
:1026B000012B09D0454B1B88013B9AB2434B1A8032
:1026C000424B1B88002B04D101F0F4FF3E4B092242
:1026D0001A706420FEF72EFAB1E00020FEF76EFDBE
:1026E0003A4B64221A80384B0A221A70A7E0374B03
:1026F0001B88013B9AB2354B1A80344B1B88002B48
:1027000009D1FEF7F3FD41F27070FEF713FA2E4B7C
:102710000B221A7093E06420FEF70CFA8FE040F26F
:10272000DC50FEF707FA012001F0D6FF274B3C22D0
:102730001A80254B0C221A7081E001F0F5FF034648
:10274000002B0ED0FFF700F90346012B09D01F4BD9
:102750001B88013B9AB21D4B1A801C4B1B88002B17
:1027600008D101F0A7FFC820FEF7E4F9164B0D22AF
:102770001A7064E06420FEF7DDF960E000210520B6
:1027800002F03AF8022001F0A7FF104B03221A8052
:102790000D4B0E221A7052E001F0C6FF0346002BCB
:1027A00009D00A4B1B88013B9AB2084B1A80074B91
:1027B0001B88002B04D101F07DFF034B0F221A7000
:1027C0006420FEF7B7F93AE0350200202802002025
:1027D0000021012002F0FCFCFFF7C8F8FFF71BFB0B
:1027E0000346012B2AD10120FFF7B0FA0220FEF7A1
:1027F00053FA00210320FFF74BF81FE0FFF794F88E
:102800000346012B06D10021082001F0F5FF0D4BF6
:1028100000221A70FFF778F80346012B06D1002139
:102820000E2001F0E9FF074B00221A703220FEF75C
:1028300081F904E000BF02E000BF00E000BF00BF7C
:1028400080BD00BF3502002080B500AF694B1B780A
:102850000C2B00F2CC8001A252F823F09128000842
:1028600099280008D3280008DB280008152900084B
:102870001D290008652900086D290008972900080E
:102880009F290008BF290008C7290008E729000878
:102890000A20FEF74FF9ABE003220021564805F06D
:1028A00009FEFFF743F90020FFF750FA0020FFF779
:1028B00086FA01210C2001F09FFF01210A2001F07E
:1028C0009BFF0121042001F097FF4A4B02221A705E
:1028D0008EE00A20FEF72EF98AE003220021464806
:1028E00005F0E8FDFFF722F90020FFF72FFA00209E
:1028F000FFF765FA01210F2001F07EFF01210A2078
:1029000001F07AFF0121042001F076FF394B042207
:102910001A706DE00A20FEF70DF969E0032200212C
:10292000354805F0C7FD344B02229A70FFF7FEF8D8
:102930000020FFF70BFA0020FFF741FA01211520D4
:1029400001F05AFF0121042001F056FF0121192056
:1029500001F052FF0121102001F04EFF254B06220D
:102960001A7045E00A20FEF7E5F841E00322002155
:10297000214805F09FFDFFF7D9F80020FFF7E6F9A1
:102980000020FFF71CFA0121122001F035FF194B3E
:1029900008221A702CE00A20FEF7CCF828E0FFF796
:1029A000C5F80020FFF7D2F90020FFF708FA01214F
:1029B000112001F021FF0F4B0A221A7018E00A20A3
:1029C000FEF7B8F814E0FFF7B1F80020FFF7BEF902
:1029D0000020FFF7F4F90121022001F00DFF054B63
:1029E0000C221A7004E00A20FEF7A4F800E000BFF1
:1029F00000BF80BD350200203002002080B500AF4E
:102A0000BD4B1B78142B00F20F8201A252F823F069
:102A1000652A0008A12A0008BF2A0008FB2A00082E
:102A2000152B0008472B0008AB2B0008DB2B0008F8
:102A3000FB2B0008372C0008532C0008672C0008DB
:102A4000C92C0008DD2C00080D2D00083D2D0008C4
:102A50005D2D0008992D0008B32D0008E52D000814
:102A60000B2E0008A54B01221A700020FFF76EF90B
:102A70000020FFF7A4F90121052001F0BDFEFFF7BA
:102A800085F89F4B1B78012B03D19E4B01221A70B6
:102A900002E09C4B00221A70974B01221A70C8E189
:102AA00001F04CFE012001F017FE6420FEF742F811
:102AB000954B1E221A80904B02221A70B9E101F048
:102AC00033FE0346002B0ED0FEF73EFF0346012BDC
:102AD00009D08D4B1B88013B9AB28B4B1A808A4BD5
:102AE0001B88002B05D101F0E5FD834B03221A70F2
:102AF0009FE16420FEF71EF89BE1022001F0ECFD4F
:102B00006420FEF717F8804B03221A807A4B0422C8
:102B10001A708EE101F008FE0346002B09D07A4BB3
:102B20001B88013B9AB2784B1A80774B1B88002B8D
:102B300005D101F0BFFD704B05221A7079E16420C8
:102B4000FDF7F8FF75E140F63E00FEF727FF6C4BFE
:102B50005B78002B0AD14FF47A70FEF759FB6A4B71
:102B600050221A80644B06221A705FE1644B5B7836
:102B7000012B0AD14FF47A70FEF74AFB624B5A22BE
:102B80001A805D4B06221A7050E15D4B5B78022B78
:102B900040F04C814FF47A70FEF73AFB5A4B6422B6
:102BA0001A80554B06221A7040E1574B1B88013B97
:102BB0009AB2554B1A80544B1B88002B09D1FEF753
:102BC00077FB4FF47A70FDF7B5FF4B4B07221A7075
:102BD0002FE16420FDF7AEFF2BE1484B02221A7073
:102BE000022001F079FD6420FDF7A4FF464B462248
:102BF0001A80414B08221A701BE101F095FD034633
:102C0000002B0ED0FEF7A0FE0346012B09D03E4B51
:102C10001B88013B9AB23C4B1A803B4B1B88002B14
:102C200005D101F047FD344B09221A7001E16420FF
:102C3000FDF780FFFDE0314B03221A700020FEF704
:102C4000BDFA40F26C70FDF775FF2B4B0A221A702B
:102C5000EFE0FEF74BFB4FF47A60FDF76BFF264B7E
:102C60000B221A70E5E0254B04221A70244B9B7846
:102C7000002B0AD10020FEF7A1FA41F28830FDF7BF
:102C800059FF1D4B0C221A70D2E01D4B9B78012B73
:102C90000AD10020FEF792FA42F21070FDF74AFFC7
:102CA000154B0C221A70C3E0154B9B78022B40F099
:102CB000BF800020FEF782FA44F62060FDF73AFF5D
:102CC0000D4B0C221A70B3E0FEF710FB41F270704E
:102CD000FDF730FF084B0D221A70AAE0074B0522C2
:102CE0001A70012001F0F8FC074B1D221A80024BDC
:102CF0000E221A709DE000BF350200202F02002036
:102D00003002002034020020280200204A4B1B8899
:102D1000013B9AB2484B1A80474B1B88002B09D1C4
:102D200001F0C8FC40F6B830FDF704FF434B0F221A
:102D30001A707EE06420FDF7FDFE7AE0404B06222B
:102D40001A70012001F0C8FC6420FDF7F3FE3A4B35
:102D500032221A80394B10221A706AE001F0E4FC2A
:102D60000346002B0ED0FEF7EFFD0346012B09D0E2
:102D7000314B1B88013B9AB22F4B1A802E4B1B887C
:102D8000002B05D101F096FC2C4B11221A7050E05B
:102D90006420FDF7CFFE4CE0022001F09DFC642092
:102DA000FDF7C8FE244B03221A80244B12221A700E
:102DB0003FE001F0B9FC0346002B09D01E4B1B88F5
:102DC000013B9AB21C4B1A801B4B1B88002B05D170
:102DD00001F070FC194B13221A702AE06420FDF7F1
:102DE000A9FE26E0174B1B78012B0AD1134B0122B9
:102DF0001A70144B00221A704FF4FA70FDF79AFE05
:102E000017E00E4B14221A7013E00D4B00221A70BB
:102E1000FEF7ACFD0C4B01221A70FFF70FF80021F2
:102E20000320FEF735FD04E000BF02E000BF00E034
:102E300000BF00BF80BD00BF280200203502002077
:102E40002F020020340200203302002080B500AFA2
:102E5000BD4B1B78212B00F23E8301A252F823F0D8
:102E6000E92E0008252F00083F2F00087B2F0008BF
:102E7000952F0008C72F00082B3000085B30000892
:102E80007B300008B7300008D3300008E730000876
:102E90000331000817310008333100085D310008A4
:102EA0007D310008B9310008D3310008053200082F
:102EB00039320008533200088F320008A932000866
:102EC000DB320008EB3200080B3300084733000800
:102ED000DB330008EF330008313400086D3400089C
:102EE00087340008B9340008984B01221A7000207A
:102EF000FEF72CFF0020FEF762FF0121052001F004
:102F00007BFCFEF783FE924B1B78012B03D1914B88
:102F100001221A7002E08F4B00221A708A4B0122A4
:102F20001A70DDE2012001F0D7FB6420FDF702FEFC
:102F3000894B1E221A80844B02221A70D0E201F0C3
:102F4000F3FB0346002B0ED0FEF7FEFC0346012BDD
:102F500009D0814B1B88013B9AB27F4B1A807E4B74
:102F60001B88002B05D101F0A5FB774B03221A70BB
:102F7000B6E26420FDF7DEFDB2E2022001F0ACFB18
:102F80006420FDF7D7FD744B03221A806E4B042298
:102F90001A70A5E201F0C8FB0346002B09D06E4B66
:102FA0001B88013B9AB26C4B1A806B4B1B88002B21
:102FB00005D101F07FFB644B05221A7090E264207A
:102FC000FDF7B8FD8CE240F63E00FEF7E7FC604BF3
:102FD0005B78002B0AD14FF47A70FEF719F95E4B3B
:102FE00050221A80584B06221A7076E2584B5B78B2
:102FF000012B0AD14FF47A70FEF70AF9564B5A2288
:103000001A80514B06221A7067E2514B5B78022BF3
:1030100040F063824FF47A70FEF7FAF84E4B642268
:103020001A80494B06221A7057E24B4B1B88013B12
:103030009AB2494B1A80484B1B88002B09D1FEF7E6
:1030400037F94FF47A70FDF775FD3F4B07221A7080
:1030500046E26420FDF76EFD42E23C4B02221A700C
:10306000022001F039FB6420FDF764FD3A4B462253
:103070001A80354B08221A7032E201F055FB0346E4
:10308000002B0ED0FEF760FC0346012B09D0324B1B
:103090001B88013B9AB2304B1A802F4B1B88002BA8
:1030A00005D101F007FB284B09221A7018E26420B1
:1030B000FDF740FD14E2254B03221A700020FEF7B5
:1030C0007DF84FF4E160FDF735FD1F4B0A221A70C1
:1030D00006E2FEF70BF94FF47A60FDF72BFD1A4B71
:1030E0000B221A70FCE1194B04221A700020FEF723
:1030F00065F842F67C60FDF71DFD134B0C221A703B
:10310000EEE1FEF7F3F841F27070FDF713FD0E4BA0
:103110000D221A70E4E10D4B05221A70012001F016
:10312000DBFA40F65430FDF705FD074B0E221A700E
:10313000D6E101F0BFFA40F6B830FDF7FBFC024BD8
:103140000F221A70CCE100BF350200202F020020B0
:10315000300200203402002028020020AC4B06225E
:103160001A70012001F0B8FA6420FDF7E3FCA94BC6
:1031700032221A80A84B10221A70B1E101F0D4FA61
:103180000346002B0ED0FEF7DFFB0346012B09D0D0
:10319000A04B1B88013B9AB29E4B1A809D4B1B880B
:1031A000002B05D101F086FA9B4B11221A7097E192
:1031B0006420FDF7BFFC93E1022001F08DFA64204A
:1031C000FDF7B8FC934B03221A80934B12221A701E
:1031D00086E101F0A9FA0346002B09D08D4B1B882C
:1031E000013B9AB28B4B1A808A4B1B88002B05D16E
:1031F00001F060FA884B13221A7071E16420FDF728
:1032000099FC6DE1854B01221A70854B1B78012BCF
:103210000AD1834B00221A704FF4FA70FDF78AFC32
:103220007D4B05221A705BE14FF4B470FDF782FC10
:10323000794B14221A7053E1012001F04DFA6420F9
:10324000FDF778FC734B1E221A80734B15221A70FF
:1032500046E101F069FA0346002B0ED0FEF774FB3D
:103260000346012B09D06B4B1B88013B9AB2694B7B
:103270001A80684B1B88002B05D101F01BFA664BA6
:1032800016221A702CE16420FDF754FC28E102207C
:1032900001F022FA6420FDF74DFC5E4B03221A80F8
:1032A0005D4B17221A701BE101F03EFA0346002B1A
:1032B00009D0584B1B88013B9AB2564B1A80554B8C
:1032C0001B88002B05D101F0F5F9534B18221A7019
:1032D00006E16420FDF72EFC02E14FF47A60FDF771
:1032E00029FC4D4B19221A70FAE0494B02221A7040
:1032F000022001F0F1F96420FDF71CFC454B462249
:103300001A80454B1A221A70EAE001F00DFA0346C2
:10331000002B0ED0FEF718FB0346012B09D03D4BC6
:103320001B88013B9AB23B4B1A803A4B1B88002BFF
:1033300005D101F0BFF9384B1B221A70D0E0642090
:10334000FDF7F8FBCCE0324B04221A70354B9B782A
:10335000002B13D10020FDF731FF324B1B78002BDF
:1033600004D144F63820FDF7E5FB03E048F2E8001D
:10337000FDF7E0FB284B1C221A70B0E0294B9B782C
:10338000012B12D10020FDF719FF264B1B78002BD3
:1033900004D148F6A040FDF7CDFB02E02248FDF73E
:1033A000C9FB1D4B1C221A7099E01E4B9B78022B07
:1033B00040F095800020FDF701FF1A4B1B78002B91
:1033C00004D14CF23870FDF7B5FB02E01748FDF769
:1033D000B1FB114B1C221A7081E0FDF787FF41F20F
:1033E0007070FDF7A7FB0C4B1D221A7078E0084B9C
:1033F00006221A70012001F06FF94FF47A70FDF780
:1034000099FB044B3C221A80034B1E221A7067E082
:103410002F02002028020020350200203302002065
:10342000340200203002002040190100289A0100D7
:1034300001F07AF90346002B0ED0FEF785FA034619
:10344000012B09D0274B1B88013B9AB2254B1A80D0
:10345000244B1B88002B05D101F02CF9224B1F2295
:103460001A703DE06420FDF765FB39E0022001F0B1
:1034700033F96420FDF75EFB1A4B03221A801A4BC6
:1034800020221A702CE001F04FF90346002B09D0DE
:10349000144B1B88013B9AB2124B1A80114B1B88AC
:1034A000002B05D101F006F90F4B21221A7017E00D
:1034B0006420FDF73FFB13E00C4B00221A70FEF76F
:1034C00055FA0B4B01221A70FEF7B8FC00210320BD
:1034D000FEF7DEF904E000BF02E000BF00E000BF3D
:1034E00000BF80BD28020020350200202F020020EE
:1034F0003302002080B500AF464B1B78052B00F24D
:10350000848001A252F823F0213500084F350008CD
:10351000813500088F350008E7350008F9350008C7
:103520000020FEF713FC0020FEF749FC01210520D6
:1035300001F062F9FEF79AFB40F61520FEF72EFA2D
:10354000354B64221A80334B01221A7060E040F63A
:103550001520FEF745FA0346012B09D02E4B1B8898
:10356000013B9AB22C4B1A802B4B1B88002B03D1AA
:10357000284B02221A704BE06420FDF7DBFA47E08B
:103580000120FEF73BFA234B03221A7040E0234B45
:103590009B78002B0AD10020FDF710FE43F2B060AB
:1035A000FDF7C8FA1B4B04221A7030E01B4B9B78C6
:1035B000012B0AD10020FDF701FE49F65800FDF766
:1035C000B9FA144B04221A7021E0144B9B78022B99
:1035D0001DD10020FDF7F2FD1148FDF7ABFA0D4BB0
:1035E00004221A7013E0FDF781FE0020FEF706FAB0
:1035F000084B05221A700BE0FEF7B8F9FEF71EFC27
:1036000000210320FEF744F902E000BF00E000BF04
:1036100000BF80BD350200202802002030020020BB
:10362000E87A010080B500AF0B4B1B78002B02D06D
:10363000012B0AD00EE00121052001F0DDF8FEF794
:1036400035FB054B01221A7004E04FF4FA70FDF7C8
:1036500071FA00BF00BF80BD3502002080B500AF09
:103660000B4B1B78002B02D0012B0AD00EE001215E
:10367000052001F0C1F8FEF739FB054B01221A7055
:1036800004E04FF4FA70FDF755FA00BF00BF80BDAB
:103690003502002080B500AF0B4B1B78002B02D009
:1036A000012B0AD00EE00121052001F0A5F8FEF75C
:1036B0003DFB054B01221A7004E04FF4FA70FDF750
:1036C00039FA00BF00BF80BD3502002080B500AFD1
:1036D0005C4B1B78072B00F2B28001A252F823F05A
:1036E00001370008313700084B37000887370008DA
:1036F000A1370008E3370008FD3700082D3800081F
:1037000001F012F80346002B0ED10121012001F037
:103710005FFD4C4B01221A70FEF716F90346002B91
:1037200002D1484B03221A706420FDF703FA87E0A8
:10373000012000F0D1FF6420FDF7FCF9424B0A2282
:103740001A80404B02221A707AE0FEF7FDF8034619
:10375000002B09D03C4B1B88013B9AB23A4B1A8094
:10376000394B1B88002B0AD100F0A4FF364B1B8875
:10377000002B01D0032200E00522324B1A70642096
:10378000FDF7D8F95CE0012000F0A6FF6420FDF70A
:10379000D1F92C4B04221A702B4B3C221A804FE09B
:1037A00000F0C2FF0346002B0ED0FEF7CDF8034613
:1037B000012B09D0244B1B88013B9AB2224B1A8063
:1037C000214B1B88002B08D100F074FFC820FDF7A7
:1037D000B1F91C4B05221A7032E06420FDF7AAF9FA
:1037E0002EE0022000F078FF6420FDF7A3F9164BCD
:1037F00003221A80134B06221A7021E000F094FF76
:103800000346002B09D0104B1B88013B9AB20E4B8C
:103810001A800D4B1B88002B04D100F04BFF094B85
:1038200007221A706420FDF785F909E000210120C4
:1038300001F0CEFC00210120FEF72AF800E000BFD5
:1038400000BF80BD350200202802002080B500AFF7
:10385000694B1B780A2B00F2CB8001A252F823F0AF
:103860008D380008A3380008BD380008F938000872
:103870000F39000823390008393900084D3900088C
:1038800067390008A3390008BD390008FDF710FDAD
:1038900000F010FF6420FDF74DF9574B01221A701C
:1038A000A7E0022000F018FF6420FDF743F9534B16
:1038B00046221A80504B02221A709AE000F034FF20
:1038C0000346002B0ED0FEF73FF80346012B09D02C
:1038D0004A4B1B88013B9AB2484B1A80474B1B88C6
:1038E000002B05D100F0E6FE434B03221A7080E066
:1038F0006420FDF71FF97CE00020FDF75FFC40F23B
:103900006C70FDF717F93C4B04221A7071E0FDF75B
:10391000EDFC4FF47A60FDF70DF9374B05221A7074
:1039200067E0012000F0D8FE40F65430FDF702F9C0
:10393000314B06221A705CE000F0BCFE40F6B83055
:10394000FDF7F8F82C4B07221A7052E0012000F026
:10395000C3FE6420FDF7EEF8284B32221A80264B76
:1039600008221A7045E000F0DFFE0346002B0ED05F
:10397000FDF7EAFF0346012B09D0204B1B88013BD2
:103980009AB21E4B1A801D4B1B88002B05D100F0EC
:1039900091FE194B09221A702BE06420FDF7CAF83A
:1039A00027E0022000F098FE6420FDF7C3F8134BD7
:1039B00003221A80104B0A221A701AE000F0B4FE9B
:1039C0000346002B09D00D4B1B88013B9AB20B4BD1
:1039D0001A800A4B1B88002B06D100F06BFE064BA9
:1039E00000221A70012305E06420FDF7A3F800E02F
:1039F00000BF0023184680BDA4000020280200203C
:103A000080B500AF694B1B780A2B00F2CA8001A277
:103A100052F823F0413A0008553A00086F3A00087E
:103A2000AB3A0008C13A0008D53A0008EB3A000862
:103A3000FF3A0008193B0008553B00086F3B00089F
:103A400000F038FE4FF49670FDF774F8574B0122E2
:103A50001A70A7E0022000F03FFE6420FDF76AF82C
:103A6000534B46221A80514B02221A709AE000F002
:103A70005BFE0346002B0ED0FDF766FF0346012BCD
:103A800009D04B4B1B88013B9AB2494B1A80484BDB
:103A90001B88002B05D100F00DFE444B03221A7049
:103AA00080E06420FDF746F87CE00020FDF786FB0F
:103AB00040F26C70FDF73EF83C4B04221A7071E046
:103AC000FDF714FC4FF47A60FDF734F8374B05220C
:103AD0001A7067E0012000F0FFFD40F65430FDF75A
:103AE00029F8324B06221A705CE000F0E3FD40F644
:103AF000B830FDF71FF82D4B07221A7052E0012055
:103B000000F0EAFD6420FDF715F8294B32221A80F7
:103B1000264B08221A7045E000F006FE0346002BF3
:103B20000ED0FDF711FF0346012B09D0204B1B8857
:103B3000013B9AB21E4B1A801D4B1B88002B05D1EE
:103B400000F0B8FD194B09221A702BE06420FCF735
:103B5000F1FF27E0022000F0BFFD6420FCF7EAFF40
:103B6000134B03221A80114B0A221A701AE000F03C
:103B7000DBFD0346002B09D00D4B1B88013B9AB29D
:103B80000B4B1A800A4B1B88002B06D100F092FDCC
:103B9000064B00221A70012305E06420FCF7CAFFDF
:103BA00000E000BF0023184680BD00BFA500002034
:103BB0002802002080B500AF514B1B78082B00F283
:103BC0009B8001A252F823F0ED3B0008013C000865
:103BD000173C00082B3C0008413C0008553C0008FD
:103BE0006F3C0008AB3C0008C53C0008FDF77EFBBD
:103BF0004FF47A70FCF79EFF414B01221A707CE073
:103C00000020FDF7DBFA40F26C70FCF793FF3C4BB1
:103C100002221A7071E0FDF769FB4FF47A60FCF73D
:103C200089FF374B03221A7067E0012000F054FD32
:103C300040F65430FCF77EFF314B04221A705CE0F2
:103C400000F038FD40F6B830FCF774FF2C4B05222D
:103C50001A7052E0012000F03FFD6420FCF76AFF7B
:103C6000284B32221A80264B06221A7045E000F0BB
:103C70005BFD0346002B0ED0FDF766FE0346012BCD
:103C800009D0204B1B88013B9AB21E4B1A801D4B5A
:103C90001B88002B05D100F00DFD194B07221A706F
:103CA0002BE06420FCF746FF27E0022000F014FD23
:103CB0006420FCF73FFF134B03221A80104B0822AD
:103CC0001A701AE000F030FD0346002B09D00D4BAE
:103CD0001B88013B9AB20B4B1A800A4B1B88002BA6
:103CE00006D100F0E7FC064B00221A70012305E024
:103CF0006420FCF71FFF00E000BF0023184680BDD2
:103D0000A60000202802002080B500AF454B1B789C
:103D1000062B00F2828001A252F823F0393D000800
:103D20004D3D0008633D0008773D0008913D0008C7
:103D3000CD3D0008E73D0008FDF7D8FA4FF47A6062
:103D4000FCF7F8FE374B01221A7067E0012000F003
:103D5000C3FC40F65430FCF7EDFE324B02221A70E1
:103D60005CE000F0A7FC40F6B830FCF7E3FE2D4B1A
:103D700003221A7052E0012000F0AEFC6420FCF730
:103D8000D9FE294B32221A80264B04221A7045E0B4
:103D900000F0CAFC0346002B0ED0FDF7D5FD03460C
:103DA000012B09D0204B1B88013B9AB21E4B1A8075
:103DB0001D4B1B88002B05D100F07CFC194B052204
:103DC0001A702BE06420FCF7B5FE27E0022000F01B
:103DD00083FC6420FCF7AEFE134B03221A80114BC8
:103DE00006221A701AE000F09FFC0346002B09D04F
:103DF0000D4B1B88013B9AB20B4B1A800A4B1B8858
:103E0000002B06D100F056FC064B00221A7001234D
:103E100005E06420FCF78EFE00E000BF002318469A
:103E200080BD00BFA70000202802002080B500AFA1
:103E30004F4B1B78072B00F2968001A252F823F01B
:103E4000613E00086D3E00088B3E0008B33E00084E
:103E5000C33E0008DD3E0008193F0008333F00085C
:103E600000F028FC424B01221A707DE0414B1B8878
:103E7000002B06D0012000F02FFC3D4B02221A70CF
:103E800072E03B4B03221A706EE03A4B1B88013BF9
:103E90009AB2384B1A80374B1B88002B05D100F0A3
:103EA00009FC334B03221A705EE06420FCF742FEEB
:103EB0005AE040F6B830FCF73DFE2D4B04221A7054
:103EC00052E0012000F008FC6420FCF733FE2A4B8E
:103ED00032221A80264B05221A7045E000F024FC9D
:103EE0000346002B0ED0FDF72FFD0346012B09D012
:103EF000214B1B88013B9AB21F4B1A801E4B1B881B
:103F0000002B05D100F0D6FB194B06221A702BE0CE
:103F10006420FCF70FFE27E0022000F0DDFB6420A8
:103F2000FCF708FE144B03221A80114B07221A706B
:103F30001AE000F0F9FB0346002B09D00E4B1B885A
:103F4000013B9AB20C4B1A800B4B1B88002B06D1FD
:103F500000F0B0FB064B00221A70012305E064203C
:103F6000FCF7E8FD00E000BF0023184680BD00BF5D
:103F7000A80000202C0200202802002080B500AFFD
:103F8000364B1B78042B65D801A252F823F000BFF2
:103F9000A53F0008B13F0008CB3F000807400008DC
:103FA0002140000800F086FB2C4B01221A7052E0E1
:103FB000012000F091FB6420FCF7BCFD284B32226D
:103FC0001A80264B02221A7045E000F0ADFB034632
:103FD000002B0ED0FDF7B8FC0346012B09D0204B77
:103FE0001B88013B9AB21E4B1A801D4B1B88002B6D
:103FF00005D100F05FFB194B03221A702BE06420FF
:10400000FCF798FD27E0022000F066FB6420FCF737
:1040100091FD134B03221A80104B04221A701AE0F0
:1040200000F082FB0346002B09D00D4B1B88013B9F
:104030009AB20B4B1A800A4B1B88002B06D100F05A
:1040400039FB064B00221A70012305E06420FCF7BF
:1040500071FD00E000BF0023184680BDA9000020CC
:104060002802002080B500AF8E4B1B780C2B00F28D
:10407000148101A252F823F0AD400008C7400008A7
:10408000E14000081D410008374100087141000867
:104090008B410008C7410008DD410008F1410008DC
:1040A0000D420008494200086342000800F002FB8C
:1040B0004FF4D660FDF772FC6420FCF73BFD794BB2
:1040C00001221A70EAE0012000F006FB6420FCF7F0
:1040D00031FD754B1E221A80724B02221A70DDE0F0
:1040E00000F022FB0346002B0ED0FDF72DFC03460B
:1040F000012B09D06C4B1B88013B9AB26A4B1A808A
:10410000694B1B88002B05D100F0D4FA654B0322C4
:104110001A70C3E06420FCF70DFDBFE0022000F040
:10412000DBFA6420FCF706FD5F4B03221A805D4B2F
:1041300004221A70B2E000F0F7FA0346002B09D00F
:10414000594B1B88013B9AB2574B1A80564B1B8820
:10415000002B09D100F0AEFA40F2DC50FCF7EAFC8B
:10416000504B05221A7099E06420FCF7E3FC95E0BF
:10417000022000F0B1FA6420FCF7DCFC4A4B462236
:104180001A80484B06221A7088E000F0CDFA0346E8
:10419000002B0ED0FDF7D8FB0346012B09D0424B74
:1041A0001B88013B9AB2404B1A803F4B1B88002B67
:1041B00005D100F07FFA3B4B07221A706EE06420B5
:1041C000FCF7B8FC6AE00020FCF7F8FF42F2107040
:1041D000FCF7B0FC334B08221A705FE0FDF786F85D
:1041E00041F27070FCF7A6FC2E4B09221A7055E0C4
:1041F000012000F071FA4FF47A70FCF79BFC2A4B17
:104200003C221A80274B0A221A7047E000F08CFAF1
:104210000346002B0ED0FDF797FB0346012B09D078
:10422000214B1B88013B9AB21F4B1A801E4B1B88E7
:10423000002B05D100F03EFA1A4B0B221A702DE02C
:104240006420FCF777FC29E0022000F045FA6420A6
:10425000FCF770FC144B03221A80124B0C221A70CC
:104260001CE000F061FA0346002B09D00E4B1B88BE
:10427000013B9AB20C4B1A800B4B1B88002B08D1C8
:1042800000F018FAFDF772FB064B00221A700123AA
:1042900005E06420FCF74EFC00E000BF0023184658
:1042A00080BD00BFAA0000202802002080B500AF1A
:1042B0005F4B1B78082B00F2A98001A252F823F073
:1042C000E542000877430008894300089B43000843
:1042D000AD430008BF430008D1430008E343000892
:1042E000F54300080121012000F072FFFDF7F6FB05
:1042F000504B1B78062B3CD801A252F823F000BF8C
:104300001D4300083B430008434300084B4300089B
:10431000534300085B4300086B430008464B1B787F
:10432000012B06D1444B00221A70414B07221A7010
:1043300020E03F4B08221A701CE03D4B01221A700E
:1043400018E03B4B02221A7014E0394B03221A701A
:1043500010E0374B04221A700CE0384B1A88384BA7
:104360001A80334B05221A7004E0314B06221A7072
:1043700000E000BF59E0FFF769FA0346012B47D17F
:104380002B4B07221A7043E0FFF73AFB0346012B41
:1043900040D1274B07221A703CE0FFF70BFC034685
:1043A000012B39D1224B07221A7035E0FFF7ACFC04
:1043B0000346012B32D11E4B07221A702EE0FFF765
:1043C00035FD0346012B2BD1194B07221A7027E02C
:1043D000FFF7D4FD0346012B24D1154B07221A7099
:1043E00020E0FFF73FFE0346012B1DD1104B0822B2
:1043F0001A7019E00021012000F0EAFE0220FCF70B
:104400004BFC00210120FDF743FA0EE000BF0CE059
:1044100000BF0AE000BF08E000BF06E000BF04E004
:1044200000BF02E000BF00E000BF00BF80BD00BFD2
:10443000350200202F020020330200202802002035
:104440002C02002080B483B000AF0346FB71074A02
:10445000FB791370064B00221A70064B00221A706B
:1044600000BF0C37BD4680BC704700BF260200204D
:10447000240200203502002080B500AF234B1B78BA
:104480000B2B3FD801A252F823F000BFBD44000817
:10449000C3440008C9440008CF440008D5440008BC
:1044A000DB440008E1440008E7440008ED4400084C
:1044B000F3440008F9440008FF440008FDF7C2FF78
:1044C00021E0FDF7E9FF1EE0FEF700F81BE0FEF734
:1044D000BBF918E0FEF792FA15E0FEF7B7FC12E020
:1044E000FFF708F80FE0FFF79DF80CE0FFF7B6F8CC
:1044F00009E0FFF7CFF806E0FFF7E8F803E0FFF781
:10450000D5FE00E000BF00BF80BD00BF2402002038
:1045100080B582B000AF03463960FB71094B1B7850
:10452000FA799A4201D03B6808E03B6803F0010346
:10453000002B02D00448FDF7CDFE3B681846083733
:10454000BD4680BD260200204C02002080B582B00E
:1045500000AF134B1B780133DAB2114B1A70104BBA
:104560001B78642B17D90220FDF770F80346FB80F7
:104570000120FDF76BF80346BB800020FDF766F8CD
:1045800003467B80F988BA887B88064803F09AFF47
:10459000034B00221A7000BF0837BD4680BD00BF24
:1045A00036020020F093000880B483B000AF0346C9
:1045B000FB71054AFB791370044B00221A7000BF8F
:1045C0000C37BD4680BC70473702002038020020FF
:1045D00080B500AF104B1B78022B0FD0022B15DCDF
:1045E000002B02D0012B13D010E000F0F9F80B4B98
:1045F00000221A70084B02221A700AE0FFF7A6FF89
:1046000001F0AAF90A20FCF795FA02E000BF00E0E9
:1046100000BF00BF80BD00BF38020020360200206E
:1046200080B483B000AF03463960FB71064B1B7842
:10463000FA799A4201D03B6800E03B6818460C3793
:10464000BD4680BC704700BF3702002080B582B0F5
:1046500000AF03460A46FB711346BB71FB79002B82
:1046600006D0BB79002B03D00023FB710023BB7164
:10467000FB79002B05D04FF480410D4802F08AF8F9
:1046800004E04FF480410A4802F093F8BB79002B14
:1046900005D04FF40041064802F07CF804E04FF4E6
:1046A0000041034802F085F800BF0837BD4680BDD1
:1046B000000C014080B500AF00210020FFF7C6FFCD
:1046C000044B1B78032B02D0024B00221A7000BF50
:1046D00080BD00BFAB00002080B582B000AF0346B4
:1046E000FB71104B1B78032B18D0FB79012B02D0E8
:1046F000022B08D00FE000210120FFF7A7FF094B94
:1047000001221A700BE001210020FFF79FFF054BEB
:1047100002221A7003E0FFF7CDFF00E000BF083768
:10472000BD4680BDAB00002080B400AF024B1B78BB
:104730001846BD4680BC7047AB00002080B500AF76
:10474000054B1B78032B04D1034B00221A70FFF793
:10475000B1FF00BF80BD00BFAB00002080B500AF3F
:104760004FF48071044802F04DF80346002B01D14C
:10477000FFF7A0FF00BF80BD0008014080B500AF7B
:1047800040F2026002F0EAF940F2036002F0E6F95A
:104790004FF4C06002F0E2F94FF48043012210218F
:1047A0000C4801F043FF4FF4004301221021094857
:1047B00001F03CFF00210020FFF748FF4FF4807319
:1047C00001220421044801F031FF044B00221A7039
:1047D00000BF80BD000C014000080140AB0000207C
:1047E00080B400AF034B00221A6000BFBD4680BCFE
:1047F000704700BF3C02002080B483B000AF034686
:104800000A46FB711346BB71BB79002B0AD1FB79B9
:10481000012202FA03F3DA430F4B1B6813400E4ADE
:10482000136013E0BB79012B08D1FB7901229A4078
:10483000094B1B681343084A136007E0FB79012208
:104840009A40054B1B685340034A136000BF0C3766
:10485000BD4680BC704700BF3C02002080B483B0DE
:1048600000AF0346FB71074B1A68FB7922FA03F38A
:10487000DBB203F00103DBB218460C37BD4680BC47
:10488000704700BF3C02002080B500AF4FF4C0600D
:1048900002F064F90021002002F04EF8022200210B
:1048A000012001F0A3FD012001F02EFE00220221D3
:1048B000062002F0CBF80821002002F03DF801228A
:1048C0000021012001F092FD4FF4807001F01CFEE8
:1048D00000220021172002F0B9F800BF80BD0000BF
:1048E00080B500AF4FF4C06002F038F901210548EF
:1048F00001F0B0FF01214FF4004001F0ABFF00BF19
:1049000080BD00BF0002300080B500AF40F2026001
:1049100002F024F940F2036002F020F940F2046052
:1049200002F01CF940F2056002F018F9012301229F
:104930004821664801F07AFE20230122282164489C
:1049400001F074FE4FF48053012204215F4801F00E
:104950006DFE1023012204215D4801F067FE4FF433
:104960000053012204215A4801F060FE4FF4807385
:1049700001220421554801F059FE20230122102173
:10498000524801F053FE2021504801F012FF40230D
:10499000012210214D4801F049FE40214B4801F011
:1049A00008FF802301221021484801F03FFE8021AA
:1049B000464801F0FEFE042301221021444801F084
:1049C00035FE0421424801F0E5FE4FF480530122F8
:1049D00010213F4801F02AFE4FF480513C4801F07D
:1049E000E8FE4FF4806301221021394801F01EFED9
:1049F0004FF48061364801F0CDFE4FF40063012290
:104A00001021334801F012FE4FF40061304801F0EC
:104A1000C1FE4023012210212D4801F007FE402154
:104A20002B4801F0C6FE802301221021284801F006
:104A3000FDFD8021264801F0BCFE4FF48073012269
:104A40001021234801F0F2FD4FF48071204801F05D
:104A5000B0FE4FF48043012210211D4801F0E6FD15
:104A60004FF480411A4801F0A4FE4FF400430122A4
:104A70001021174801F0DAFD4FF40041144801F00D
:104A800098FE4FF4005302221021124801F0CEFD8F
:104A90004FF40043012210210C4801F0C7FD082308
:104AA000012248210A4801F0C1FD4FF4804302224F
:104AB0004821084801F0BAFD4FF400430222482182
:104AC000044801F0B3FD00BF80BD00BF00080140F5
:104AD000000C01400010014080B582B000AF0346D9
:104AE000FB71064B1B781846FCF70AF8044AFB7961
:104AF000137000BF0837BD4680BD00BF44020020D0
:104B00004002002080B584B000AF0346FB80022045
:104B1000FCF79CFD0346FB81FA89FB88D31A9BB204
:104B2000BB81B7F90C300A2B02DDFCF7F3FB06E082
:104B3000B7F90C3013F10A0F01DAFCF725FB00BFBF
:104B40001037BD4680BD80B584B000AF0346FB8002
:104B50000220FCF77BFD0346FB81FA89FB88D31A10
:104B60009BB2BB81B7F90C30092B06DCB7F90C30CE
:104B700013F1090F01DB012300E000231846103771
:104B8000BD4680BD80B483B000AF0346FB71054ACB
:104B9000FB791370044B00221A7000BF0C37BD461E
:104BA00080BC7047440200204002002080B500AF66
:104BB0000F4B1B78022B0CD0022B13DC002B02D0E6
:104BC000012B11D00EE0FCF7A5FB094B01221A7056
:104BD0000BE0084B1B881846FFF794FF6420FBF797
:104BE000A9FF02E000BF00E000BF00BF80BD00BF22
:104BF000400200204202002080B582B000AF034690
:104C00003960FB71114B1B78FA799A4201D03B68ED
:104C100018E03B6803F00103002B06D00C4B1B7817
:104C2000022B02D00220FFF757FF3B6803F002037C
:104C3000002B06D0064B1B78022B02D10020FFF779
:104C40004BFF3B6818460837BD4680BD4402002034
:104C50004002002080B500AF64220021324803F0FA
:104C600029FC314B4FF0FF32DA612F4B3C221A8482
:104C70002D4B64225A842C4B64229A842A4B642242
:104C8000DA84294B64221A85274B64225A85264BE5
:104C900064229A85244B6422DA85234B4FF4967262
:104CA0001A86214B4FF496725A861F4B64229A86BD
:104CB0001D4B4FF6FF72A3F842201B4B4FF6FF72BD
:104CC000A3F84420184B4FF6FF72A3F84620164B6A
:104CD0004FF6FF72A3F84820134B4FF6FF72A3F86C
:104CE0004A20114B4FF6FF72A3F84C200E4B4FF6A3
:104CF000FF72A3F84E200C4B4FF6FF72A3F8502022
:104D0000094B4FF6FF72A3F85220074B4FF6FF7284
:104D1000A3F85420044B4FF6FF72A3F85620034B20
:104D200000221A8000BF80BD4C020020B00200208B
:104D300080B584B000AF7860884B00221A60874B42
:104D400000225A60854B00229A60844BDB697A68A6
:104D50005340BB60814B5A69804B9B6953407F4AEB
:104D600053617E4B9B69DB437C4A93617B4B5A6961
:104D7000BB681340794A5361784B9A69BB6813400A
:104D8000764A9361754BDA69744B5969734B9B6929
:104D90000B431340714AD361704BDA696F4B596909
:104DA0006E4B9B690B43D9437B680B4013436B4AA3
:104DB000D3616A4B5A69694B9B691343BA68534084
:104DC000BB600023FB60A4E00122FB6802FA03F34E
:104DD0001A46BB681340002B29D0604BDA690121C9
:104DE000FB6801FA03F31340002B17D15B4AFB6801
:104DF00020335B00134400225A80584AFB6810336A
:104E000032F81330002B12D1544B1B680121FA6881
:104E100001FA02F21343514A136008E04F4B9B68BA
:104E20000121FA6801FA02F213434C4A93604B4A9B
:104E3000FB68103332F81330002B67D0474BDB6927
:104E40000121FA6801FA02F21340002B1ED0434AF6
:104E5000FB6820335B0013445A884049FB681033D9
:104E600031F813309A4251D23C4AFB6820335B0040
:104E700013444FF6FF725A80384B1B680121FA68C1
:104E800001FA02F21343354A13603FE0334AFB68EC
:104E900020335B0013445B884FF6FF7293420ED0C1
:104EA0002E4AFB6820335B0013445B88013399B2C0
:104EB0002A4AFB6820335B0013440A465A80274A7B
:104EC000FB6820335B0013445A882449FB68103385
:104ED00031F813309A4219D1204AFB6820335B0025
:104EE00013444FF6FF725A801C4B1B690121FA686C
:104EF00001FA02F21343194A1361184B5B6801214E
:104F0000FA6801FA02F21343144A5360FB68013352
:104F1000FB60FB68102B7FF657AF00F039F90F4BA1
:104F20001B68002B07D10D4B9B68002B03D10B4B4B
:104F30005B68002B0DD00A4B1B781A46094B53F8BF
:104F40002230074A1278114643F00103054A42F81D
:104F5000213000BF1037BD4680BD00BF4C0200208D
:104F600026020020D401002080B582B000AF4FF0AF
:104F7000FF337B605C4B1B8803F01003002B03D0D6
:104F80007B6823F010037B60574B1B8803F0010301
:104F9000002B03D07B6823F001037B60524B1B88FE
:104FA00003F00203002B03D07B6823F002037B6035
:104FB0004D4B1B8803F00403002B03D07B6823F0C8
:104FC00004037B60484B1B8803F00803002B03D0CD
:104FD0007B6823F008037B60434B1B8803F02003AE
:104FE000002B03D07B6823F020037B603E4B1B88A3
:104FF00003F48073002B03D07B6823F480737B6001
:10500000394B1B8803F04003002B03D07B6823F04F
:1050100040037B60344B1B8803F40073002B03D0E8
:105020007B6823F400737B602F4B1B8803F4806341
:10503000002B03D07B6823F480637B602A4B1B88A2
:1050400003F08003002B03D07B6823F080037B6098
:105050004FF40051254801F0D5FB0346002B03D146
:105060007B6823F400637B602021204801F0CAFBA9
:105070000346002B03D07B6823F480537B6001211F
:105080001B4801F0BFFB0346002B03D17B6823F4D0
:1050900000537B601021154801F0B4FB0346002B40
:1050A00003D17B6823F480437B604FF48071104808
:1050B00001F0A8FB0346002B03D17B6823F40043D7
:1050C0007B604FF480510A4801F09CFB0346002BA3
:1050D00003D07B6823F480337B607868FFF728FE79
:1050E00000BF0837BD4680BDB0020020000C014063
:1050F0000008014080B483B000AF0346FB71054A4D
:10510000FB791370044B00221A7000BF0C37BD46A8
:1051100080BC7047490200204802002080B500AFE3
:105120000F4B1B78022B0FD0022B13DC002B02D06D
:10513000012B11D00EE0FFF78DFD3220FBF7FAFCBA
:10514000074B02221A7008E0FFF70EFF0A20FBF758
:10515000F1FC02E000BF00E000BF00BF80BD00BF67
:105160004802002080B483B000AF03463960FB7171
:10517000064B1B78FA799A4201D03B6800E03B6805
:1051800018460C37BD4680BC704700BF490200205E
:1051900080B483B000AF0D4BDB68DB437B600B4B0F
:1051A0001A687B681340094A1360084B5A687B6889
:1051B0001340064A5360054B9A687B681340034AC4
:1051C000936000BF0C37BD4680BC70474C02002086
:1051D00080B582B000AF78600B46FB700B4BDA688D
:1051E0007B68DB431340094AD360084BDA68FB78DD
:1051F000012B01D17B6800E000231343034AD360F5
:10520000FFF7C6FF00BF0837BD4680BD4C02002037
:1052100080B500AF4021024801F0BCFA00BF80BD5C
:105220000008014080B500AF4021024801F0C1FAFA
:1052300000BF80BD0008014080B500AF40230122BF
:105240001021034801F0F2F9FFF7ECFF00BF80BD29
:105250000008014080B500AFFFF7EEFF00BF80BD42
:1052600080B500AF40F2026001F078FC4FF40063BB
:1052700001221821024801F0D9F900BF80BD00BF0A
:105280000008014080B588B000AF40F20B6001F02B
:1052900065FC224801F01EFE7723BB800023FB80C3
:1052A00000233B814FF4FA63FB6000237B810023E2
:1052B0003B743B1D1946194801F0C0FE0123BB8217
:1052C0000023FB8200233B8300237B830023BB83DB
:1052D0000023FB8307F114031A4603210F4802F051
:1052E00001F8002203210D4802F04CFA602203214C
:1052F0000A4802F0E5F900220321084802F076FA94
:105300000121064801F0CFFF044801F031FF0348B6
:1053100001F010FF00BF2037BD4680BD002C0140CA
:1053200080B500AFFFF79CFFFFF7ACFF00BF80BD6B
:1053300080B500AFFFF7F4FF00BF80BD80B582B03D
:1053400000AF78607B68002B02D04FF47A7300E0E6
:1053500000231A460321034802F014FA00BF08375D
:10536000BD4680BD002C014080B400AF074B102229
:105370001A80074B00221A80064B00221A80064B27
:1053800000221A8000BFBD4680BC70475C0300202D
:10539000B402002070030020F802002080B58CB019
:1053A00000AF78603C4B1B68BB623C4B1B687B6268
:1053B0003B4A07F11C0392E8030083E80300394AE3
:1053C00007F1140392E8030083E80300364A07F16B
:1053D0000C0392E8030083E803000023FB627B6870
:1053E000324A934202D10023FB6205E07B68304AD7
:1053F000934201D10123FB62FB6A5B0007F130029B
:10540000134433F80C3C184601F0A8FBFB6A5B0020
:1054100007F13002134433F8083C184601F09EFBB4
:10542000FB6A9B0007F13002134453F8140CFB6A2B
:105430009B0007F13002134453F81C3C032218214F
:1054400001F0F4F8FB6A9B0007F13002134453F8B3
:10545000140CFB6A9B0007F13002134453F8243C00
:105460000322042101F0E2F8786802F009FC4FF40D
:10547000E131786802F066FC0421786802F0FFFCF4
:105480000821786802F0DFFC786802F0CBFC00BFEE
:105490003037BD4680BD00BF049400080894000862
:1054A0000C940008149400081C9400080038014073
:1054B0000044004080B588B000AF4FF4A06001F018
:1054C0004DFB0321274800F0D1FC0123BB77264B7D
:1054D000FB6001237B7700233B6100237B61234B2F
:1054E0007B6000233B770023BB604FF44053BB61DC
:1054F0003B1D1A4603211B4800F01EFD03211948DD
:1055000000F03FFE0321174800F065FE0421154816
:1055100000F0ACFC0023BB7710237B61144BFB60D5
:105520003B1D1A4604210F4800F006FD04210D48DA
:1055300000F0FDFD04210B4800F04DFE0321094859
:1055400000F09DFE0421074800F06FFE802109480D
:1055500002F0EFFC4021074802F0CEFC00BF2037EC
:10556000BD4680BD000002404C03002004380140CD
:10557000600300200038014080B500AF0A48FFF703
:105580000DFF0A48FFF70AFFFFF794FF00220021F2
:10559000262001F05BFA40F20531044802F004FDD8
:1055A000FFF7E2FE00BF80BD00380140004400402C
:1055B00080B584B000AF78600B467B807B68002BA1
:1055C0001ED07B88002B1BD00023FB8113E0FB89BE
:1055D0007A6813441B789BB219460B4802F06BFCA7
:1055E00000BF0721084802F0C1FC0346002BF8D099
:1055F000FB890133FB81FA897B889A42E7D300E07B
:1056000000BF1037BD4680BD0044004080B483B069
:1056100000AF0346FB710E4B1B883F2B11D80C4B80
:105620001B885A1C91B20A4A11801946094AFB7913
:105630005354FB790A2B04D1054B00221A80012315
:1056400000E0002318460C37BD4680BC704700BF01
:10565000B4020020FC02002080B582B000AF124BE3
:105660001B88FB8016E0114B1B881A46104B9B5C75
:105670007B710E4B1B8801339AB20C4B1A800B4B7B
:105680001B883F2B02D9094B00221A807B791846D0
:10569000FFF7BCFF054B1B88FA889A42E3D100BF95
:1056A00000BF0837BD4680BD70030020F80200200F
:1056B000B802002080B483B000AF0346FB71354BC5
:1056C0001A78FB791344DAB2324B1A70324B1B78DA
:1056D000032B51D801A252F823F000BFED56000869
:1056E000015700081B5700083B570008FB79FF2BA8
:1056F00044D1294B1B780133DAB2274B1A703DE0B5
:10570000254B1B780133DAB2234B1A70FB79AA2B95
:1057100036D0214B00221A7032E0204AFB791370F8
:105720001C4AFB7913701E4B00221A701A4B1B780F
:105730000133DAB2184B1A7025E0194B1B780F2B86
:1057400005D8174B1B781946164AFB795354144B4E
:105750001B780133DAB2124B1A70114B1A780F4BC7
:105760001B789A420ED10C4B00221A70094B1B7801
:10577000002B07D1012307E000BF04E000BF02E0D7
:1057800000BF00E000BF002318460C37BD4680BCB8
:10579000704700BFAC000020AD000020AE0000202C
:1057A000AF0000203C03002080B582B000AF002392
:1057B0007B710023BB7103213B4800F0ABFD034626
:1057C000002B6DD17B795A1C7A711A46374BFF2119
:1057D00099547B795A1C7A711A46344BAA219954F0
:1057E0007B795A1C7A711A46304B00219954304B00
:1057F0001B68190E7B795A1C7A711A46C9B22B4B59
:1058000099542B4B1B68190C7B795A1C7A711A46D8
:10581000C9B2264B9954264B1B68190A7B795A1C2E
:105820007A711A46C9B2214B9954214B19687B7978
:105830005A1C7A711A46C9B21C4B99547B79023BA7
:10584000DAB21A4B9A700223FB7108E0FB79174A0F
:10585000D25CBB791344BB71FB790133FB71FA79DC
:105860007B799A42F2D37B795A1C7A711A46BB79BA
:105870005B42D9B20D4B995403210B4800F0FFFC59
:105880000E220321084800F07EFD7B791A46032191
:10589000054800F01EFD0321034800F0C6FC00E0AF
:1058A00000BF0837BD4680BD000002404C03002009
:1058B0003C02002080B582B000AF0421214800F0F6
:1058C00029FD0346FB8026E01F4B1B88C3F1100314
:1058D0001E4AD35C7B711C4B1B88013B9AB21A4B4E
:1058E0001A80194B1B88002B02D1174B10221A80EB
:1058F0007B791846FFF7DEFE0346012B0BD1144BD4
:105900001B781B021AB2124B5B781BB213431BB2FB
:105910009AB2104B1A800C4B1B88FA889A42D3D14A
:1059200002220421074800F012FD0346002B04D098
:105930000E220421034800F026FD00BF0837BD46B3
:1059400080BD00BF000002405C0300206003002017
:105950003C030020B002002080B500AFFFF724FF19
:10596000FFF7A8FFFFF778FE00BF80BD80B483B0CB
:1059700000AF78607B6808331B6803F00103002BDD
:1059800007D17B6808331B687A68083243F001034B
:10599000136000BF0C37BD4680BC704780B483B035
:1059A00000AF78607B6808331B687A68083243F080
:1059B0000803136000BF7B6808331B6803F008030B
:1059C000002BF8D17B6808331B687A68083243F0F3
:1059D0000403136000BF7B6808331B6803F00403F3
:1059E000002BF8D100BF00BF0C37BD4680BC70470C
:1059F00080B483B000AF78607B6808331B687A6836
:105A0000083243F48073136000BF0C37BD4680BC7E
:105A10007047000080B483B000AF7860084B1B680B
:105A2000074A23F470231360054B1A6804497B6806
:105A300013430B6000BF0C37BD4680BC704700BFEE
:105A40000424014080B485B000AFF860B96013460B
:105A5000FB71FB79002B27D0BB6803F48073002B0C
:105A600007D0FB6804331B68FA68043243F4807380
:105A70001360BB6803F48063002B07D0FB6804331A
:105A80001B68FA68043243F480631360BB6803F058
:105A90000203002B2FD0FB6808331B68FA6808321A
:105AA00043F00203136026E0BB6803F48073002B0D
:105AB00007D0FB6804331B68FA68043223F4807350
:105AC0001360BB6803F48063002B07D0FB680433CA
:105AD0001B68FA68043223F480631360BB6803F028
